:100000000C9435000C945D000C945D000C945D0024
:100010000C945D000C945D000C945D000C945D00EC
:100020000C945D000C945D000C945D000C945D00DC
:100030000C945D000C945D000C945D000C945D00CC
:100040000C9493010C945D000C94F2030C947504D1
:100050000C945D000C945D000C945D000C945D00AC
:100060000C945D000C945D00280411241FBECFEF9A
:10007000D8E0DEBFCDBF11E0A0E0B1E0E2ECFCE0F3
:1000800002C005900D92AA38B107D9F712E0AAE88C
:10009000B1E001C01D92AA33B107E1F710E0CAE652
:1000A000D0E004C02297FE010E945B06C836D1074B
:1000B000C9F70E949B040C945F060C9400008F9279
:1000C0009F92AF92BF92CF92DF92EF92FF920F93E7
:1000D0001F93CF93DF930E94E7019B01AC01C0E027
:1000E000D0E0EE24FF2487018824992488ECA82EF0
:1000F000B12CC12CD12CA20EB31EC41ED51E14C00F
:1001000080E00E9498029C01C901AA2797FDA09552
:10011000BA2FE80EF91E0A1F1B1F0894811C911CA0
:10012000C217D3070CF4E9010E94E7016A157B05A9
:100130008C059D0528F39401442737FD4095542FE5
:10014000C801B7010E943E0679018A018DE991E05C
:1001500060E071E00E94E6058DE991E0BE014AE0B1
:1001600050E00E94B4058DE991E066E071E00E94E4
:10017000E6058DE991E0B801A7012AE030E00E9490
:1001800074058DE991E064E171E00E94E6058DE976
:1001900091E0B4014AE050E00E94C7051C161D061C
:1001A000B4F580918A0190918B01019690938B0117
:1001B00080938A019E01442737FD4095542F8091FA
:1001C0008C0190918D01A0918E01B0918F01820FD1
:1001D000931FA41FB51F80938C0190938D01A09352
:1001E0008E01B0938F018091900190919101A09127
:1001F0009201B09193018E0D9F1DA01FB11F80939E
:10020000900190939101A0939201B09393018091FA
:100210008A0190918B01853091050CF45DC07C01C1
:100220000027F7FC0095102F60918C0170918D01D3
:1002300080918E0190918F01A80197010E943E0646
:1002400059016A0160919001709191018091920130
:1002500090919301A80197010E943E0679018A01BD
:100260008DE991E061E271E00E94E6058DE991E09F
:1002700060E071E00E94E6058DE991E0B5014AE099
:1002800050E00E94B4058DE991E066E071E00E94C3
:10029000E6058DE991E0B7014AE050E00E94B4051F
:1002A0008DE991E00E94D4048DE991E00E94D4048C
:1002B00010928B0110928A0110929001109291017C
:1002C000109292011092930110928C0110928D0164
:1002D00010928E0110928F0162E370E080E090E056
:1002E0000E943002DF91CF911F910F91FF90EF900C
:1002F000DF90CF90BF90AF909F908F9008950F9315
:100300001F930DE911E0C80140E855E260E070E09C
:1003100026E00E94EA02C80163E571E00E94E90557
:100320001F910F9108951F920F920FB60F921124F3
:100330002F933F934F935F936F937F938F939F93ED
:10034000AF93BF93209198013091990140919A0108
:1003500050919B0170919C01DA01C9010296A11D87
:10036000B11D672F6A5F6D3730F06D57DA01C90133
:100370000396A11DB11D60939C01809398019093F9
:100380009901A0939A01B0939B018091940190915F
:100390009501A0919601B09197010196A11DB11D03
:1003A0008093940190939501A0939601B093970147
:1003B000BF91AF919F918F917F916F915F914F917D
:1003C0003F912F910F900FBE0F901F9018958FB7F0
:1003D000F894209198013091990140919A0150919F
:1003E0009B018FBFB901CA010895789484B58260DA
:1003F00084BD84B5816084BD85B5826085BD85B5C9
:10040000816085BDEEE6F0E0808181608083E1E877
:10041000F0E01082808182608083808181608083AF
:10042000E0E8F0E0808181608083E1EBF0E08081B2
:1004300084608083E0EBF0E0808181608083EAE784
:10044000F0E080818460808380818260808380810D
:10045000816080838081806880831092C1000895CC
:10046000EF92FF920F931F93CF93DF937B018C0149
:100470003FB7F8948091940190919501A0919601D5
:10048000B091970126B5A89B05C02F3F19F00196A2
:10049000A11DB11D3FBFBA2FA92F982F8827820F0A
:1004A000911DA11DB11D53E0880F991FAA1FBB1FED
:1004B0005A95D1F7EC0130C00E94FC053FB7F89483
:1004C0008091940190919501A0919601B09197012E
:1004D00026B5A89B05C02F3F19F00196A11DB11D9F
:1004E0003FBFBA2FA92F982F8827820F911DA11DDA
:1004F000B11D33E0880F991FAA1FBB1F3A95D1F792
:100500008C1B9D0B885E9340B8F20894E108F108BB
:1005100001091109C851DC4FE114F104010511056D
:1005200059F6DF91CF911F910F91FF90EF900895B1
:10053000982F8E3008F09E509770809178018295A8
:10054000880F880F807C892B80937C0080917A00B3
:10055000806480937A0080917A0086FDFCCF2091A0
:10056000780040917900942F80E030E0282B392BDF
:10057000C9010895DC015C968C915C97FD01E80F40
:10058000F11DE35AFF4F20815C968C915C9790E0BF
:1005900001968F7390705C968C935C975696ED9154
:1005A000FC91579720835096ED91FC915197808153
:1005B000806480835B969C915B975C968C915C9742
:1005C000981739F45296ED91FC91539780818F7D65
:1005D00080830895DF92EF92FF920F931F93CF9342
:1005E000DF93EC017A018B01D22E60E874E88EE192
:1005F00090E0A80197010E941C0621503040404025
:1006000050405695479537952795E889F98982E0B6
:10061000808380E12030380798F0E889F9891082DA
:1006200060E472E48FE090E0A80197010E941C064C
:10063000215030404040504056954795379527957A
:10064000EC85FD853083EE85FF852083188EEC894F
:10065000FD89D082EA89FB89808180618083EA8973
:10066000FB89808188608083EA89FB89808180683A
:100670008083EA89FB8980818F7D8083DF91CF91A0
:100680001F910F91FF90EF90DF900895FC01218D55
:10069000828D30E0205C3F4F281B31092F73307072
:1006A000C9010895FC01918D828D981719F42FEFDF
:1006B0003FEF06C0828DE80FF11D858D282F30E0B9
:1006C000C9010895DC0159969C9159975A968C91CD
:1006D0005A97981719F42FEF3FEF10C05A968C9144
:1006E0005A97FD01E80FF11D958D5A968C915A97F6
:1006F0008F5F8F735A968C93292F30E0C90108952C
:10070000CF93DF93EC01888D882361F419C08C911D
:1007100085FF0AC0E889F989808185FF05C0CE017F
:100720000E94BA02AA89BB898C9185FD05C0E8891F
:10073000F989808186FD04C00FB607FEE8CFF4CFAB
:10074000DF91CF9108950F931F93CF93DF93EC0127
:10075000062F9B8D8C8D981791F5E889F9898081FA
:1007600085FF2DC0EE89FF896083E889F989808142
:10077000806480831DC00FB607FC08C0E889F98932
:10078000808185FF03C0CE010E94BA028C8D1817AC
:1007900091F38B8DFE01E80FF11DE35AFF4F0083AB
:1007A0001B8FEA89FB8980818062808381E0888F4A
:1007B00081E090E0DF91CF911F910F9108951B8D03
:1007C0001F5F1F73E3CF8BE694E0892B51F080E02D
:1007D00090E0892B31F00E946B04882311F00E9475
:1007E000000008951F920F920FB60F9211242F93BD
:1007F0008F939F93EF93FF93E091AD01F091AE0142
:10080000808182FD16C0E091B301F091B401208196
:100810009091B6019F5F9F738091B701981771F017
:10082000E091B601F0E0E356FE4F258F9093B601BC
:1008300005C0E091B301F091B401E081FF91EF9127
:100840009F918F912F910F900FBE0F901F90189531
:100850001092A00110929F0188EE93E0A0E0B0E01A
:100860008093A1019093A201A093A301B093A4014E
:100870008DE791E090939E0180939D0185EC90E03F
:100880009093AA018093A90184EC90E09093AC012D
:100890008093AB0180EC90E09093AE018093AD012A
:1008A00081EC90E09093B0018093AF0182EC90E0F6
:1008B0009093B2018093B10186EC90E09093B401E3
:1008C0008093B3011092B6011092B7011092B80153
:1008D0001092B90108958DE991E00E94460320E04D
:1008E000892B09F021E0822F08951F920F920FB6F5
:1008F0000F9211242F933F934F935F936F937F93A6
:100900008F939F93AF93BF93EF93FF938DE991E004
:100910000E94BA02FF91EF91BF91AF919F918F9189
:100920007F916F915F914F913F912F910F900FBEEB
:100930000F901F901895CF93DF930E94F5010E94AE
:100940007F01C3EED3E00E945F002097E1F30E9495
:10095000E303F9CFCF92DF92EF92FF920F931F93B1
:10096000CF93DF937C016B018A01C0E0D0E00FC020
:10097000D6016D916D01D701ED91FC910190F0814F
:10098000E02DC7010995C80FD91F0150104001156E
:10099000110571F7CE01DF91CF911F910F91FF905B
:1009A000EF90DF90CF900895EF92FF920F931F93F7
:1009B0008C01DC01ED91FC910190F081E02D6DE066
:1009C00009957C01D801ED91FC910190F081E02D19
:1009D000C8016AE009959C012E0D3F1DC9011F91B8
:1009E0000F91FF90EF900895CF93DF93EC01611585
:1009F000710519F420E030E00FC0DB010D900020FC
:100A0000E9F71197A61BB70BE881F9810280F38102
:100A1000E02DAD0109959C01C901DF91CF910895A9
:100A20004F925F927F928F929F92AF92BF92CF929E
:100A3000DF92EF92FF920F931F93DF93CF93CDB787
:100A4000DEB7A1970FB6F894DEBF0FBECDBF2C0165
:100A5000742ECB01223008F42AE019A231E2C32E11
:100A6000D12CCC0EDD1E822E9924AA24BB24672D06
:100A7000752FA50194010E941C0679018A01C80105
:100A8000B701A50194010E94FD05472D461B08945E
:100A9000C108D1084A3014F4405D01C0495CF60138
:100AA0004083E114F1040105110521F07E2C5F2D36
:100AB000C801DDCFC201B6010E94F404A1960FB6B1
:100AC000F894DEBF0FBECDBFCF91DF911F910F9184
:100AD000FF90EF90DF90CF90BF90AF909F908F905E
:100AE0007F905F904F900895CF92DF92EF92FF92A8
:100AF0000F931F93CF93DF93EC016A017B012115C4
:100B0000310541F4E881F9810190F081E02D642FF5
:100B100009951FC02A303105D1F477FF17C0E8814D
:100B2000F9810190F081E02D6DE209958C01442757
:100B30005527BA014C195D096E097F09CE012AE0DB
:100B40000E9410059801280F391F04C02AE00E9456
:100B500010059C01C901DF91CF911F910F91FF906A
:100B6000EF90DF90CF900895EF92FF920F931F9335
:100B70007B019A010027F7FC0095102FB801A7010F
:100B80000E9474051F910F91FF90EF900895CF92EE
:100B9000DF92EF92FF920F931F936C017B019A01FA
:100BA0000027F7FC0095102FB801A7010E947405DB
:100BB0008C01C6010E94D404080F191FC8011F919F
:100BC0000F91FF90EF90DF90CF9008950E94F40472
:100BD0000895EF92FF920F931F937C010E94F404FB
:100BE0008C01C7010E94D404080F191FC8011F916E
:100BF0000F91FF90EF9008950895629FD001739F29
:100C0000F001829FE00DF11D649FE00DF11D929FA8
:100C1000F00D839FF00D749FF00D659FF00D9927E7
:100C2000729FB00DE11DF91F639FB00DE11DF91F0B
:100C3000BD01CF0111240895A1E21A2EAA1BBB1BEE
:100C4000FD010DC0AA1FBB1FEE1FFF1FA217B30798
:100C5000E407F50720F0A21BB30BE40BF50B661FAE
:100C6000771F881F991F1A9469F760957095809572
:100C700090959B01AC01BD01CF01089597FB092E12
:100C800005260ED057FD04D0D7DF0AD0001C38F45B
:100C900050954095309521953F4F4F4F5F4F0895A8
:100CA000F6F790958095709561957F4F8F4F9F4F88
:100CB0000895EE0FFF1F0590F491E02D0994F8942C
:020CC000FFCF64
:100CC2004D61783A200020202020417665726167CC
:100CD200653A200020202020436F756E74733A20FD
:100CE200002D2D2D2D2D2D2D2D2D2D2D2D2D2D2D5F
:100CF2002D2D2D2D2D2D2D2D2D2D2D2D2D2D2D2D22
:100D02002D2D2D2D2D2D2D2D2D2D2D2D2D2D2D2D11
:100D12002D2D002D2D2D2D2D2D2D2D2D20536F758B
:100D22006E642054657374202D2D2D2D2D2D2D2DA7
:100D32002D0A5374617274000100000000A303AA1B
:0A0D4200044603620352038003001D
:00000001FF
