:100000000C942E010C9457260C9484260C945601C3
:100010000C9456010C9456010C9456010C94560104
:100020000C9456010C9456010C9456010C945601F4
:100030000C9456010C9456010C9456010C945601E4
:100040000C94B1260C9456010C94032A0C94862A25
:100050000C9456010C9456010C9456010C945601C4
:100060000C9491150C94560107634236B79BD8A7A0
:100070001A39685618AEBAAB558C1D3CB7CC5763CD
:10008000BD6DEDFD753EF6177231BF000000803F7B
:1000900008000000BE922449123EABAAAA2ABECD97
:1000A000CCCC4C3E00000080BEABAAAAAA3E000009
:1000B0000000BF000000803F000000000008417801
:1000C000D3BB4387D1133D190E3CC3BD4282AD2B38
:1000D0003E68EC8276BED98FE1A93E4C80EFFFBE30
:1000E00001C4FF7F3F0000000000005EBCE2613FF2
:1000F000DD83C29C7E20A3FD1F419DC3217FFCA206
:10010000401E5F01E3BD3E6082DC237D9FC1421C37
:10011000FEA0E1BF5D0380DE3C62BEE0025CDF81E9
:10012000633D7C22C09E1D43A1FF4618FAA4277997
:100130009BC584DA3866E5BB5907DB856739BAE4C5
:1001400006581947A5FB7826C49A653BD987045AF7
:10015000B8E6A7F91B45C6987A24F8A6441A99C7A9
:10016000257B3A6486D85B05E7B98CD2306EEDB357
:10017000510F4E10F2AC2F7193CD114FADF3702E85
:10018000CC92D38D6F31B2EC0E50AFF1134DCE90B7
:10019000722C6D33D18F0C52B0EE326C8ED0530D69
:1001A000EFB1F0AE4C1291CF2D73CA947628ABF517
:1001B00017490856B4EA6937D58B5709EBB5366845
:1001C0008AD495CB2977F4AA4816E9B7550B88D677
:1001D000346A2B7597C94A14F6A8742AC896154B29
:1001E000A9F7B6E80A54D7896B351F1C1F1E1F1EBE
:1001F0001F1F1E1F1E1F00000000240027002A00D2
:1002000000000000250028002B0000000000230053
:100210002600290004040404040404040202020267
:1002200002020303030303030102040810204080B9
:100230000102040810200102040810200000000739
:10024000000201000003040600000000000000009E
:10025000C8010B08A3132914392AC10111241FBE98
:10026000CFEFD8E0DEBFCDBF11E0A0E0B1E0E2EA21
:10027000FFE502C005900D92A439B107D9F717E048
:10028000A4E9B1E001C01D92AB33B107E1F712E080
:10029000CAE5D2E004C02297FE010E94C02FC035FB
:1002A000D107C9F70E94AC2A0C94C42F0C9400000B
:1002B000FB01DC014150504048F001900D920020BC
:1002C000C9F701C01D9241505040E0F708950895CC
:1002D0000F931F938130910509F047C06F5F7F4FE7
:1002E00009F04CC084E991E069E00E942A1982EA91
:1002F00091E064E971E00E94601985EB91E064E4AB
:100300000E949C2086EB91E063E046E123E00E949E
:100310003D1D84EC91E069E32FEF3FEF4FEF5FEF7E
:100320000E944F228CE992E00E94370787EB92E00F
:100330000E949A1185E393E040E052EA63E170E0A5
:100340000EE31AE12AEA30E40E947E128DE393E084
:1003500065E373E040E352E0209194020E948C1226
:1003600080E593E00E94701109C0892B39F46F5F1A
:100370007F4F21F48CE992E00E944A071F910F9170
:10038000089580E090E06FEF7FEF0E94680108958C
:1003900081E090E06FEF7FEF0E9468010895DF93A6
:1003A000CF93CDB7DEB72E970FB6F894DEBF0FBE52
:1003B000CDBF0E94171F288739874A875B876C87C4
:1003C0007D878E87DE011196FE01389687E00190C9
:1003D0000D928150E1F7CE0101960E94671EAB019C
:1003E000BC0120919402243660F4E22FF0E0E05D3D
:1003F000FD4F872F9927AA27BB2780832F5F209344
:10040000940220919402243668F4E22FF0E0E05D3B
:10041000FD4FCB01BB2797FDB095AB2F80832F5F9E
:100420002093940220919402243670F4E22FF0E09D
:10043000E05DFD4FBB2777FDBA95A72F962F852F3F
:1004400080832F5F2093940280919402843640F43D
:10045000E82FF0E0E05DFD4F40838F5F80939402D2
:100460002E960FB6F894DEBF0FBECDBFCF91DF91B1
:10047000089590919402943648F4E92FF0E0E05DFD
:10048000FD4F81E080839F5F909394020E94CF0193
:1004900040915A0350915B0320919402243660F4FA
:1004A000E22FF0E0E05DFD4F852F992787FD9A95BB
:1004B00080832F5F2093940280919402843640F4CD
:1004C000E82FF0E0E05DFD4F40838F5F8093940262
:1004D00040915C0350915D0320919402243660F4B6
:1004E000E22FF0E0E05DFD4F852F992787FD9A957B
:1004F00080832F5F2093940280919402843640F48D
:10050000E82FF0E0E05DFD4F40838F5F8093940221
:1005100040915E0350915F0320919402243660F471
:10052000E22FF0E0E05DFD4F852F992787FD9A953A
:1005300080832F5F2093940280919402843640F44C
:10054000E82FF0E0E05DFD4F40838F5F80939402E1
:10055000409160035091610320919402243660F42D
:10056000E22FF0E0E05DFD4F852F992787FD9A95FA
:1005700080832F5F2093940280919402843640F40C
:10058000E82FF0E0E05DFD4F40838F5F80939402A1
:10059000409162035091630320919402243660F4E9
:1005A000E22FF0E0E05DFD4F852F992787FD9A95BA
:1005B00080832F5F2093940280919402843640F4CC
:1005C000E82FF0E0E05DFD4F40838F5F8093940261
:1005D000409164035091650320919402243660F4A5
:1005E000E22FF0E0E05DFD4F852F992787FD9A957A
:1005F00080832F5F2093940280919402843640F48C
:10060000E82FF0E0E05DFD4F40838F5F8093940220
:10061000409166035091670320919402243660F460
:10062000E22FF0E0E05DFD4F852F992787FD9A9539
:1006300080832F5F2093940280919402843640F44B
:10064000E82FF0E0E05DFD4F40838F5F80939402E0
:10065000409168035091690320919402243660F41C
:10066000E22FF0E0E05DFD4F852F992787FD9A95F9
:1006700080832F5F2093940280919402843640F40B
:10068000E82FF0E0E05DFD4F40838F5F80939402A0
:1006900090916A0380919402843640F4E82FF0E050
:1006A000E05DFD4F90838F5F809394029091940260
:1006B000943648F4E92FF0E0E05DFD4F8AE0808356
:1006C0009F5F909394020895DF93CF93CDB7DEB7E9
:1006D00063970FB6F894DEBF0FBECDBFCE01019673
:1006E00065E373E040E352E0209194020E948C1293
:1006F0008B8180933F038C81809340038D819E8109
:1007000090934203809341038F8180934303A4E439
:10071000B3E0FE01389688E001900D928150E1F738
:100720008889998990934D0380934C038A8980939B
:100730004E038B8980934F0364E670E080E090E085
:100740000E94582787EB92E06DE373E00E94331319
:1007500087EB92E064EF71E00E94B8138823A9F060
:1007600087EB92E00E94E1110E9468118B3899F4A6
:1007700087EB92E00E94E11160E573E00E9477113F
:1007800080E593E00E94711106C087EB92E00E9421
:10079000E1110E946B1163960FB6F894DEBF0FBE95
:1007A000CDBFCF91DF91089584E060E00E942428BE
:1007B000089585E061E00E94242868EE73E080E0FF
:1007C00090E00E945827089585E060E00E94242868
:1007D000089580E161E00E94E52780E161E00E94E8
:1007E000242887E196E00E94CD1408950F931F936B
:1007F0005A9A529883B7817F846083BF06E912E0DA
:10080000C8010E946C2080E067E671E040E050E0A3
:100810000E942126C80162E00E94E31E83B7816026
:1008200083BF83B7816083BF889583B78E7F83BF83
:100830001F910F9108950E94E4030E94D4030E9427
:10084000F603089580E00E94442683B78E7F83BF1D
:1008500008950E9422040E94D9030E94E90308958A
:10086000EF92FF920F931F93DF93CF93CDB7DEB735
:100870002E970FB6F894DEBF0FBECDBF0E941B04AB
:100880000E9422047E010894E11CF11C8E01085F85
:100890001F4F04C00E941B040E9422040E94171FC5
:1008A000288739874A875B876C877D878E87D70142
:1008B000F80187E001900D928150E1F78D816AE0A7
:1008C0000E94752F992331F72E960FB6F894DEBF4C
:1008D0000FBECDBFCF91DF911F910F91FF90EF9091
:1008E00008956F927F928F929F92AF92BF92CF9214
:1008F000DF92EF92FF920F931F93CF93DF93EC0160
:100900000E940527662477244301AA24BB2465019D
:100910007E010027F7FC0095102FE60EF71E081F3A
:10092000191F0E9405276E157F0580079107A0F407
:100930001C161D068CF480E00E94C327AA2797FD91
:10094000A095BA2F680E791E8A1E9B1E0894A11CC2
:10095000B11CC11CD11CE5CFC401B301A601950196
:100960000E94A32FC901DF91CF911F910F91FF909A
:10097000EF90DF90CF90BF90AF909F908F907F903F
:100980006F90089584E690E00E947104909367034D
:10099000809366030895EF92FF920F931F937B015C
:1009A0008C01CA010197049728F061E070E080E0B3
:1009B00090E015C0BA01882777FD8095982F0E9496
:1009C000AB2C9B01AC0160E070E080E291E40E94FE
:1009D0009A2D9B01AC01CA01B9010E94782C0E949A
:1009E000AB2C9B01AC01C801B7010E94372D0E94BE
:1009F000782CCB011F910F91FF90EF9008950F93EA
:100A00001F930AE912E0C8010E941226C8010E9441
:100A1000FC2580936A0310926B031F910F91089538
:100A200082ED91E068EE73E00E94640642E050E0DF
:100A30000E94CB0490936903809368030895DF9329
:100A4000CF93CDB7DEB7A4970FB6F894DEBF0FBE35
:100A5000CDBF84EC91E0BE016F5F7F4F0E94822585
:100A60006D897E898F89988D0E94782C709365039B
:100A700060936403A4960FB6F894DEBF0FBECDBF9B
:100A8000CF91DF91089586EB91E00E94101E42E025
:100A900050E00E94CB049093630380936203089517
:100AA0000F931F9302EA11E0C8010E94741BC80152
:100AB00065E371E00E94A51B42E050E00E94CB0478
:100AC00090935B0380935A03C8016DE371E00E9429
:100AD000A51B42E050E00E94CB0490935D038093FD
:100AE0005C0385EB91E00E940A2142E050E00E9405
:100AF000CB0490935F0380935E0306E912E0C80184
:100B00000E945720C8010E94F61F42E050E00E9458
:100B1000CB0490936103809360031F910F9108951C
:100B200085E061E00E94E5270E94D90387EB92E00F
:100B30006EE976E00E94AC11089584EC91E00E9489
:100B4000A324089586EB91E00E94441D08950F931D
:100B50001F9302EA11E0C8010E94D41CC8016CE096
:100B60000E94911C85EB91E060E00E9423221F917E
:100B70000F9108950E94A7050E94A2050E949D055D
:100B800008950F931F93F894A89529E288E190E0C7
:100B90000FB6F894A895809360000FBE2093600074
:100BA00078940E9443050E9450050E941F050E94F0
:100BB000C2040E9410050E94FF04A895109294029E
:100BC000109295020E9439020E946403F894A8953D
:100BD00088E10FB6F89480936000109260000FBE19
:100BE00078940E940527AB01BC010EE916E0C8010C
:100BF0002AE030E00E94852BC8016AE171E00E9482
:100C0000942BC8016DE171E00E94972B60ED77E0B5
:100C100080E090E00E9458270E9430040E9429043E
:100C20001F910F910895F894A89588E10FB6F89454
:100C300080936000109260000FBE78948EE996E079
:100C400040E051EE60E070E026E00E94FB2887E182
:100C500096E00E94CD140E94900586E992E00E94E1
:100C60007B2010929402109295020E94BA0508957A
:100C70008EE480937C0062E070E080E090E00E946F
:100C8000582780917A00806480937A0080917A005E
:100C900086FDFCCF8091780090E0A0E0B0E060910C
:100CA0007900362F20E0442737FD4095542F282B1C
:100CB000392B4A2B5B2B60E070E381E190E00E94CE
:100CC000A32FCA01B90108952F923F924F925F92CC
:100CD0006F927F928F929F92AF92BF92CF92DF924C
:100CE000EF92FF920F931F93CF93DF93EC012B01B1
:100CF0000E9438063B014C01CC24DD249CE4A92E43
:100D0000B12CAC0EBD1E88E4282E312C2C0E3D1EBD
:100D100053C08AA59BA599A788A78E890E94C3273F
:100D20009BA78AA7E8ACF9AC0AAD1BADECAAFDAA5B
:100D30000EAB1FABAA2797FDA095BA2FBC01CD0122
:100D40000E94AB2C9B01AC01C801B7010E94AC2BE7
:100D50007B018C0168A579A5882777FD8095982F60
:100D60000E94AB2C9B01AC01C801B7010E94AB2BC8
:100D70002BED39EF4EE75FE30E94372D9B01AC016D
:100D800068AF79AF8AAF9BAF0E94372D9B01AC0152
:100D9000F1016083718382839383F50160817181A6
:100DA000828193810E94AC2BF501608371838283E1
:100DB00093830894C11CD11CC414D5040CF4A9CF8E
:100DC000B201882777FD8095982F0E94AB2C9B015C
:100DD000AC01F50160817181828193810E94102CA8
:100DE0000E94EA2D7B018C01B301882777FD809555
:100DF000982F0E94AB2C20E030E04AE754E40E9498
:100E0000102C20E030E040E85AE30E94372D2C8D72
:100E10003D8D4E8D5F8D0E94372DA80197010E9458
:100E2000372D688B798B8A8B9B8B80E090E0A0E0DC
:100E3000B0E0F50180839183A283B3832889398947
:100E40004A895B89B901CA01DF91CF911F910F9146
:100E5000FF90EF90DF90CF90BF90AF909F908F90DA
:100E60007F906F905F904F903F902F900895FC017E
:100E70001382128288EE93E0A0E0B0E08483958331
:100E8000A683B7838EE491E091838083128E118EC6
:100E900014860895FC018EE491E091838083089587
:100EA000DF93CF930F92CDB7DEB7FC016983A081AA
:100EB000B18112962D913C911397BE016F5F7F4FC8
:100EC00041E050E0F90109950F90CF91DF9108952D
:100ED000DC015996ED91FC915A97309719F420E076
:100EE00030E018C0238934894589568982859385E5
:100EF000A485B585281B390B4A0B5B0B2030B0E865
:100F00003B07B0E04B07B0E05B0720F02FEF3FE777
:100F100040E050E0C9010895FC01818D928D009759
:100F200011F00E94850B0895DF93CF930F92CDB7F8
:100F3000DEB7FC01818D928D009749F0BE016F5F95
:100F40007F4F41E050E00E94CF0B019719F02FEF47
:100F50003FEF03C08981282F30E0C9010F90CF9166
:100F6000DF910895EF92FF920F931F93DF93CF933A
:100F70000F92CDB7DEB77C01DC0159968D919C9123
:100F80005A97009719F400E010E01FC0BE016F5F90
:100F90007F4F41E050E00E94CF0B019719F00FEF17
:100FA0001FEF13C08981082F10E0D7015996ED91EA
:100FB000FC915A9742855385648575854150504010
:100FC00060407040CF010E94BF0AC8010F90CF91CE
:100FD000DF911F910F91FF90EF900895CF93DF93D2
:100FE000EC01E98DFA8D309761F013821282CF0106
:100FF0000E940B0D9C01E98DFA8D82819381892BD2
:1010000031F081E090E09B838A8320E030E0C901E9
:10101000DF91CF9108951092710310927203109294
:1010200075031092770382E090E0A0E0B0E0809337
:10103000790390937A03A0937B03B0937C0310927F
:10104000900310929A03109299038EE591E0909389
:1010500098038093970310929C030895382F8091F2
:10106000B6038F3F31F43EBD0DB407FEFDCF8EB504
:101070000895F894A091B703B091B8035091B903C3
:10108000252F2095E091BA03F091BB034091BC035A
:10109000642F609590E08C9182238C9337FF03C07E
:1010A0008081842B02C08081862380838C91852B54
:1010B0008C939F5F983011F0330FEDCF000000004C
:1010C000000000008C9128232C937894089580913F
:1010D000B6038F3F31F48EBD0DB407FEFDCF2EB5A4
:1010E00030C0F894E091BA03F091BB0380819091F5
:1010F000BC03892B8083E091B703F091B803609122
:10110000B903A091BD03B091BE038091BF03482FE6
:1011100050E0762F709520E030E08081862B808330
:10112000220F8C9190E084239523892B09F0216074
:10113000808187238083000000003F5F383069F79B
:101140007894822F08950F931F93CF93DF938B0191
:101150000E940527EB010E9467088F3F11F481E090
:1011600008C00E9405276C1B7D0B6017710798F360
:1011700080E0DF91CF911F910F910895FC01848150
:1011800060E00E9424280895FC01848161E00E94AF
:1011900024280895CF92DF92EF92FF920F931F932E
:1011A000CF93DF937C016A01FC018485882319F4C5
:1011B0000FEF1FEF30C000E010E040E050E0212FC3
:1011C000332727FD3A95F601E40FF51F808190E063
:1011D000282739273070C901F4E095958795FA954D
:1011E000E1F782279327102F0027082719279C0152
:1011F000322F22273295307F0227132725E0880FD0
:10120000991F2A95E1F7082719274F5F5F4FF2E0F2
:1012100040305F07A1F6862F0E942E08C0E0D0E084
:10122000F601EC0FFD1F80810E942E08219682E0BE
:10123000C030D807A9F7812F992787FD9A950E947A
:101240002E08802F0E942E080E946708F7018287CF
:101250008F71853011F481E007C081E1F70185834A
:10126000C7010E94C40880E0DF91CF911F910F91C8
:10127000FF90EF90DF90CF9008950F931F93CF933F
:10128000DF93EC010E9405278B0109C00E9405270E
:10129000601B710B6D52714010F08FE00AC00E940C
:1012A00067088A878F3F91F38E3F11F481E006C073
:1012B0008DE08D83CE010E94C40880E0DF91CF9144
:1012C0001F910F910895CF93DF93EC018E818823B6
:1012D00019F40FC00E9467088F819885019698873E
:1012E0008F83019782509240A8F3CE010E94C408D8
:1012F0001E82DF91CF910895DF92EF92FF920F93BC
:101300001F93CF93DF93EC01D62E79018A010E94BF
:101310006309CE010E94BE08CE016CE271E00E941A
:10132000A3088D2D80640E942E08812F9927AA275B
:10133000BB270E942E08C801AA27BB270E942E089F
:10134000BB27A12F902F8F2D0E942E088E2D0E943B
:101350002E08DD2011F485E906C088E0D81611F4C6
:1013600087E801C08FEF0E942E0810E00E946708F6
:101370008A8787FF02C01150C9F7DF91CF911F9173
:101380000F91FF90EF90DF900895CF92DF92EF9250
:10139000FF920F931F93CF93DF93EC017A018B01A0
:1013A0006901411551056105710511F482E133C0F0
:1013B0008B85833039F039E0EE0CFF1C001F111FC4
:1013C0003A95D1F7CE0168E1A80197010E947C0906
:1013D000882311F084E01FC0CE016EEFA6010E94A9
:1013E000CA088823C9F0CE0168E572E00E94A3080C
:1013F000882311F485E10FC0CE016DE020E030E0DC
:1014000040E050E00E947C09882321F40E94670894
:10141000882379F084E18D83CE010E94C40880E0A6
:10142000DF91CF911F910F91FF90EF90DF90CF90C0
:101430000895CE010E94C40881E0F2CF6F927F929E
:101440008F929F92AF92BF92CF92DF92EF92FF92D4
:101450000F931F93CF93DF93EC015A016B01390176
:1014600048010115110509F46AC0C801820F931FD4
:101470008150924008F05EC08E81882371F088818F
:101480009981AA81BB81481759076A077B0729F40C
:101490008F8198856816790650F5A882B982CA822C
:1014A000DB828B85833039F0E9E0AA0CBB1CCC1CB5
:1014B000DD1CEA95D1F7CE0161E1A60195010E94FC
:1014C0007C09882319F083E08D8334C0CE010E940B
:1014D0003D09882379F118861F8281E08E8307C039
:1014E0000E9467088F819885019698878F838F81E6
:1014F000988586159705A0F300E010E008C00E94CB
:101500006708F701E00FF11F80830F5F1F4F081579
:101510001905A8F32F813885280D391D38872F83A9
:101520008985882319F02050324048F0CE010E946E
:10153000630905C0CE010E94C40880E001C081E0BB
:10154000DF91CF911F910F91FF90EF90DF90CF909F
:10155000BF90AF909F908F907F906F900895EF9283
:10156000FF920F931F93790120E030E000E012E03A
:101570000E941E0A1F910F91FF90EF9008956F92A5
:101580007F928F929F92AF92BF92CF92DF92EF9213
:10159000FF920F931F93CF93DF93EC017A018B019E
:1015A0002D81222309F480C08B899C89AD89BE8955
:1015B00084179507A607B70708F476C085C0E1141D
:1015C000F1040105110549F41E821F82188619864F
:1015D0001A861B861C861D8665C02A853B854C8520
:1015E0005D85EB8DFC8D858590E00996215030401E
:1015F0004040504039014A01082E04C09694879417
:10160000779467940A94D2F72F5F3F4F4F4F5F4F05
:101610000894E108F108010911095701680104C0A3
:10162000D694C794B794A7948A95D2F70894E11CEE
:10163000F11C011D111DA614B704C804D90428F01B
:10164000211531054105510549F48F89988DA98DE2
:10165000BA8D8E839F83A887B98716C0A618B7084E
:10166000C808D90811C04E815F81688579858B8D46
:101670009C8D94010E94E60F0894A108B108C1084E
:10168000D108882331F410C086E0882E912C8C0E6E
:101690009D1EA114B104C104D10429F7EA86FB867A
:1016A0000C871D8781E001C080E0DF91CF911F9101
:1016B0000F91FF90EF90DF90CF90BF90AF909F90F1
:1016C0008F907F906F900895223009F078CFE6CF09
:1016D000CF93DF93EC01462F6E857F8588899989AA
:1016E0000E940F0F882319F420E030E00AC08A8995
:1016F000282F30E095E0220F331F9A95E1F72E5303
:101700003C4FC901DF91CF9108950F931F93CF9361
:10171000DF938C01FC0185818823D9F1848187FFC7
:1017200035C0C80161E00E94680BEC01009789F1A7
:10173000F8018581823040F483899489A589B6892E
:101740008C8F9D8FAE8FBF8FF8018789908D9B8F77
:101750008A8F8789908DA18DB28DCD01AA27BB2755
:101760009D8B8C8BE091C003F091C103309751F0B9
:10177000BE016A5E7F4FCE0148960995888D998D8E
:101780009B8B8A8BF80184818F7784830E94D40E8F
:1017900001C080E0DF91CF911F910F9108952F92AA
:1017A0003F924F925F926F927F928F929F92AF92F1
:1017B000BF92CF92DF92EF92FF920F931F93CF933E
:1017C000DF93EC012A018D81882309F4C6C08C8146
:1017D00080FFC3C0D8C025014E185F084B0176E0DA
:1017E000272E312C2C0E3D1E3201B1C02A853B859F
:1017F0004C855D856FEFA62E61E0B62EA222B32246
:101800008D8179018A0199E016950795F794E794FF
:101810009A95D1F7EB8DFC8D823049F4428D538D32
:10182000648D758D4E0D5F1D601F711F3FC0D4808C
:10183000DA94DE20A114B104D9F4DD20C9F4211515
:1018400031054105510549F48F89988DA98DBA8DCF
:101850008E839F83A887B9870BC04E815F8168857F
:101860007985CF0191010E94E60F882309F475C0A4
:10187000EB8DFC8D4E815F816885798542505040AB
:1018800060407040058404C0440F551F661F771FD9
:101890000A94D2F786859785A089B189480F591F88
:1018A0006A1F7B1F4D0D511D611D711D80E092E06F
:1018B0008A199B0963018615970508F46C018C81D0
:1018C00086FD06C080E0C81682E0D80609F073C025
:1018D0008091450190914601A0914701B091480146
:1018E000481759076A077B0709F465C08091C2054C
:1018F0009091C3059501860174010E941E0A8823F8
:1019000061F18C0C9D1C12C095012E533C4FA90116
:101910004C0D5D1DD401F90102C081918D93E41736
:10192000F507D9F7E21BF30B8E0E9F1E960140E0E0
:1019300050E08A859B85AC85BD85820F931FA41FCF
:10194000B51F8A879B87AC87BD876C187D0861149B
:10195000710409F04BCFA20102C04FEF5FEFCA0143
:10196000DF91CF911F910F91FF90EF90DF90CF907B
:10197000BF90AF909F908F907F906F905F904F90AF
:101980003F902F900895AB88BC88CD88DE88EA848C
:10199000FB840C851D859A0140E050E0D601C5010D
:1019A0008E199F09A00BB10B82179307A407B507E7
:1019B00008F411CF13CFCB01BA0140E00E940F0F02
:1019C000882309F0A1CFC9CFCF93DF93EC019C010D
:1019D0002A5F3F4F8B8D9C8D41E050E060E070E0CE
:1019E0000E9459108823A1F08F89988DA98DBA8DF6
:1019F0000097A105B10559F48E819F81A885B9850D
:101A00008F8B988FA98FBA8F8C8180688C8381E0AF
:101A1000DF91CF9108952F923F924F925F927F92E4
:101A20008F929F92AF92BF92CF92DF92EF92FF92EE
:101A30000F931F93DF93CF9300D000D000D0CDB78A
:101A4000DEB76C01162F072F5E834D83DC011596E0
:101A50008C911597813009F070C114968C9181FF9B
:101A60006CC18EC1F6014389548965897689828566
:101A70009385A485B58584179507A607B70731F028
:101A8000C6010E94BF0A882309F457C1812F902FF5
:101A90009C0129012D803E8017C1D6015B96ED91F6
:101AA000FC915C97DA01C90119E0B695A795979565
:101AB00087951A95D1F774807A9478227FEF872ED4
:101AC00071E0972E82229322772009F04EC0811474
:101AD000910409F04AC0D60116964D915D916D9121
:101AE0007C911997411551056105710581F457964F
:101AF0008D919D910D90BC91A02D0097A105B105F0
:101B000049F1F60186839783A087B1872EC0CF0164
:101B10009E012F5F3F4F0E94E60F882309F414C1F6
:101B200029813A814B815C81D6015B96ED91FC91D4
:101B30005C978789803129F088EF9FEFAFEFBFE096
:101B400004C088EF9FEFA0E0B0E0281739074A07EC
:101B50005B0730F0C6010E94E40C882331F4EDC02D
:101B6000F601268337834087518780E092E0881909
:101B7000990951018215930508F45C01D6015B9621
:101B8000ED91FC915C971696ED90FD900D911C9156
:101B900019978EEF9FEFAFEFBFEFE80EF91E0A1F08
:101BA0001B1F058404C0EE0CFF1C001F111F0A94AC
:101BB000D2F786859785A089B189E80EF91E0A1F9C
:101BC0001B1FE70CF11C011D111D90E0A91692E0EE
:101BD000B90651F58091450190914601A0914701C8
:101BE000B09148018E159F05A007B10761F48FEFF2
:101BF0009FEFAFEFBFEF8093450190934601A09315
:101C00004701B09348018091C2059091C305B80186
:101C1000A70192010E94C509882309F48EC0A0E0A3
:101C2000B2E04A0E5B1E3EC08114910409F5F60134
:101C3000228533854485558583899489A589B6890C
:101C4000281739074A075B0798F00E94D40E8823AB
:101C500009F473C0E0924501F092460100934701F8
:101C6000109348018091C40581608093C40508C029
:101C7000C801B70141E00E940F0F882309F45DC03D
:101C800094012E533C4FA9014A0D5B1DD201F9016D
:101C900002C08D918193E417F507D9F7E21BF30B8E
:101CA0004E0E5F1E2A183B08950140E050E0F601F9
:101CB00082859385A485B585820F931FA41FB51FC8
:101CC00082879387A487B587D6011A962D913D9177
:101CD0004D915C911D972114310409F0DECE53968D
:101CE0008D919D910D90BC91A02D82179307A40713
:101CF000B50748F4F601238B348B458B568B8481D2
:101D00008068848311C08091C0039091C103892BA6
:101D100059F08D819E81892B39F0D60114968C91D2
:101D20001497806814968C93F601848183FF0EC00B
:101D3000C6010E94850B882349F481E090E0D6011A
:101D400013969C938E9312971E821D828D819E8185
:101D500026960FB6F894DEBF0FBECDBFCF91DF91B0
:101D60001F910F91FF90EF90DF90CF90BF90AF90B9
:101D70009F908F907F905F904F903F902F9008950D
:101D800082FD70CE83CEDF93CF930F92CDB7DEB7B7
:101D90006983BE016F5F7F4F41E050E00E940B0DF1
:101DA0000F90CF91DF9108958091C405882399F118
:101DB0004091450150914601609147017091480161
:101DC0008091C2059091C30522EC33E00E94C509C1
:101DD000882319F14091C5055091C6056091C7054A
:101DE0007091C805411551056105710591F080910B
:101DF000C2059091C30522EC33E00E94C5098823F7
:101E000061F01092C5051092C6051092C705109298
:101E1000C8051092C40581E0089580E00895DF921E
:101E2000EF92FF920F931F937B018C01D42E809130
:101E3000450190914601A0914701B09148018E154E
:101E40009F05A007B107C1F00E94D40E8823D9F0E6
:101E50008091C2059091C305B801A70122EC33E03F
:101E60000E94AF0A882379F0E0924501F092460182
:101E700000934701109348018091C4058D298093F8
:101E8000C40581E001C080E01F910F91FF90EF90A9
:101E9000DF9008954F925F926F927F928F929F9200
:101EA000AF92BF92CF92DF92EF92FF920F931F9368
:101EB000CF93DF93EC016A017B01280139014230A5
:101EC00051056105710508F46FC089859A85AB8558
:101ED000BC850196A11DB11D84179507A607B707FC
:101EE00008F462C02B893C894D895E898F898031D5
:101EF00029F499278F2D7E2D6D2D09C0C701B601BC
:101F000017E096958795779567951A95D1F74B01C8
:101F10005C01820E931EA41EB51E80914501909116
:101F20004601A0914701B091480188169906AA067A
:101F3000BB0639F0C501B40140E00E940F0F8823B1
:101F400099F18F89803149F4F601F070EE0FFF1F8F
:101F5000EE53FC4F518240820DC0F601EF77F070D6
:101F6000EE0FFF1FEE0FFF1FEE53FC4F408251821A
:101F7000628273828091C40581608093C4058A89DE
:101F8000823080F08D819E81AF81B885880E991E48
:101F9000AA1EBB1E8092C5059092C605A092C705D9
:101FA000B092C80581E001C080E0DF91CF911F9120
:101FB0000F91FF90EF90DF90CF90BF90AF909F90E8
:101FC0008F907F906F905F904F900895CF92DF92A7
:101FD000EF92FF920F931F93CF93DF93EC017A015F
:101FE0008B01690189859A85AB85BC850196A11D08
:101FF000B11D84179507A607B70708F450C02B89B1
:102000003C894D895E898F89803129F49927812FF8
:10201000702F6F2D09C0C801B701E7E0969587952D
:1020200077956795EA95D1F7260F371F481F591FF7
:102030008091450190914601A0914701B0914801DE
:10204000281739074A075B0739F0CA01B90140E090
:102050000E940F0F882319F18F89803159F4F701FD
:10206000F070EE0FFF1FEE53FC4F80819181A0E0D6
:10207000B0E00EC0F701EF77F070EE0FFF1FEE0F2C
:10208000FF1FEE53FC4F80819181A281B381BF700D
:10209000F60180839183A283B38381E001C080E055
:1020A000DF91CF911F910F91FF90EF90DF90CF9034
:1020B00008952F923F924F925F926F927F928F92EC
:1020C0009F92AF92BF92CF92DF92EF92FF920F93C7
:1020D0001F93DF93CF93CDB7DEB72F970FB6F8944A
:1020E000DEBF0FBECDBF1C014A875B876C877D8733
:1020F0003F872E87D9010D911D912D913C9101159E
:1021000011052105310549F0480159010894811C48
:10211000911CA11CB11C198610C0FC01808091800B
:10212000A280B38019868A859B85AC85BD85019781
:10213000A105B10511F491E09987D10119968D910E
:102140009D910D90BC91A02D0196A11DB11D8D8377
:102150009E83AF83B88775016401442455243201FE
:102160008E010F5F1F4FF10181859285A385B48594
:10217000481659066A067B0608F090C08D819E813C
:10218000AF81B8858C159D05AE05BF0550F482E082
:10219000882E912CA12CB12CB2E0CB2ED12CE12C8D
:1021A000F12CC101B701A60198010E94E60F882316
:1021B00009F474C089819A81AB81BC81A701960121
:1021C0002F5F3F4F4F4F5F4F0097A105B10519F0AB
:1021D00049015A010DC0281939094A095B098A8544
:1021E0009B85AC85BD85281739074A075B0759F0E1
:1021F0000894411C511C611C711C0894C11CD11C09
:10220000E11CF11CB0CFC101A601B7010FEF1FEF18
:102210002FEF3FE00E944A0F882399F43FC0260128
:10222000370108944108510861087108C101B301E0
:10223000A201970186010E944A0F882379F1730158
:1022400062018C149D04AE04BF0448F3AE85BF85C3
:102250004D915D916D917C9141155105610571051F
:1022600039F0C101950184010E944A0F8823B1F021
:10227000EE85FF8580829182A282B382F985FF2359
:1022800059F00894811C911CA11CB11CD1018D92A4
:102290009D92AD92BC92139781E001C080E02F9691
:1022A0000FB6F894DEBF0FBECDBFCF91DF911F9167
:1022B0000F91FF90EF90DF90CF90BF90AF909F90E5
:1022C0008F907F906F905F904F903F902F900895E8
:1022D000FC0182810895FC018085811181E00895CF
:1022E0000895FC010190F081E02D84810895FC01A6
:1022F000DB018081918111969C938E93828112964D
:102300008C931297878117968C93179785811596D2
:102310008C931597808518968C93189786811696BE
:102320008C931697838113968C93139784811496BC
:102330008C930895FC0112861186148615861782E7
:10234000108615820E9691838083E458FF4F8EE9A4
:1023500096E0918380830895FC01E458FF4F7183D8
:1023600060830895FC01E458FF4FA081B181ED9195
:10237000FC9111970480F581E02DCD01099520E0B5
:10238000892B09F021E0822F0895FC01E458FF4FCA
:10239000A081B181ED91FC9111970680F781E02D2C
:1023A000CD0109950895FC01E458FF4FA081B1814A
:1023B000ED91FC9111970284F385E02DCD010995F3
:1023C00008950895DF92EF92FF920F931F93CF939A
:1023D000DF93EC018F81882321F48885882309F419
:1023E00077C01A8619861C861F821A821B821C825D
:1023F0001D821E8218866CC0CE010E94C511982FC6
:102400008B878A85882399F09E3711F483E03BC03F
:102410009D3769F4CE010E94B211882331F0CE01BC
:102420000E94C51181278B8702C0098759C0898501
:10243000882321F08B8581278B8719868A858330B5
:1024400020F08C859B85890F8C878A85813061F08F
:10245000813028F0823061F0833091F40DC08B859B
:102460008E37F1F50A873CC08B858B83DA8638C0BE
:102470008B858C83EA8634C08B858A83FA8630C04C
:102480008F3618F082E0888731C0282F30E08C81A9
:1024900090E003962817390781F48C858F3F31F43B
:1024A0008B858D8381E08F83188602C081E08887C9
:1024B0008A8584508E831A8619C0E881F981E20FDB
:1024C000F31F34978B8580838A858F5F8A8708C046
:1024D00032E0D32E01E023E0E22E94E0F92E10E268
:1024E000CE010E94B211882309F086CFDF91CF91EF
:1024F0001F910F91FF90EF90DF9008950F931F931E
:10250000FC01408351836283738304831583268394
:1025100037831F910F910895CF93DF93FC0180E1E2
:10252000828381E0838355834483268386E691E01A
:1025300091838083EF012796DB0188E00D9009925B
:102540008150E1F78EEF9FEF908B8787118A128A77
:10255000DF91CF910895FC01662311F482850895DF
:10256000613011F481850895623029F48781908566
:10257000A185B28512C0633011F48781089564305B
:1025800011F486850895653011F4858508956630C7
:1025900049F483859485A585B685892F9A2FAB2F1D
:1025A000BB270895673011F483850895683011F4CE
:1025B00080890895693011F4878508956A3011F48F
:1025C000818908956B3011F4828908950480F58122
:1025D000E02DE60FF11D3C9780810895FC01868176
:1025E000845F08950F93DF93CF9300D0CDB7DEB70C
:1025F000FC01062F442321F1862F8D57823020F0D5
:10260000613111F06331E1F4CF0184589F4F9A8317
:102610008983DC01ED91FC91A081B1812D913C91E8
:10262000CF016DE7F9010995A981BA81ED91FC917E
:10263000A081B18160E260272D913C91CF010BC058
:10264000E458FF4F0190F081E02DA081B1812D91E0
:102650003C91CF01602FF90109950F900F90CF9118
:10266000DF910F910895CF92DF92FF920F931F9306
:10267000CF93DF936C01EB016EE740E00E94F21212
:10268000E881F9810280F381E02DCE010995082FC0
:10269000E881F9810280F381E02DCE010995F82EC1
:1026A00010E00E5F1F4FC601612F41E00E94F21241
:1026B00082E0F80EC6016F2D41E00E94F212C601C1
:1026C0006A8141E00E94F212C6016B8141E00E94E2
:1026D000F212FB808A81F80E00E010E018C0E88159
:1026E000F9810190F081E02DCE01602F0995682FCE
:1026F000C60141E00E94F212E881F9810190F08167
:10270000E02DCE01602F0995F80E0F5F1F4FE88175
:10271000F9810280F381E02DCE01099590E0081740
:102720001907ECF2F094C6016F2D41E00E94F212FD
:10273000C6010E94D311DF91CF911F910F91FF909D
:10274000DF90CF9008951092C9051092CA0510929B
:10275000CB051092CC058FEF9FEFA0E0B0E0809307
:10276000CD059093CE05A093CF05B093D0050895E5
:10277000CF92DF92EF92FF920F931F93CF93DF934D
:10278000EC016B0177FD17C00E9405277B018C01CE
:102790000BC0CE010E94E2118F81882311F081E0ED
:1027A0000BC08885882339F40E9405276E197F099C
:1027B0006C157D0574F380E0DF91CF911F910F912F
:1027C000FF90EF90DF90CF90089581E08093160600
:1027D0006093F3051092140610921506089581E097
:1027E000809316066093F305109214061092150656
:1027F00008952091F20530E08091F105281B310900
:10280000C90108954091F1058091F205481718F02B
:102810002FEF3FEF0AC0E42FF0E0EF52FA4F808134
:10282000282F30E04F5F4093F105C9010895E091F2
:10283000F1058091F205E81718F0EFEFFFEF06C001
:10284000F0E0EF52FA4F8081E82FF0E0CF010895D9
:10285000089510921A061092190688EE93E0A0E0EF
:10286000B0E080931B0690931C06A0931D06B093C6
:102870001E068EE691E09093180680931706089541
:10288000CF92DF92EF92FF920F931F93CF93DF933C
:102890007C016B018A01809116068823A1F0C0E0BB
:1028A000D0E00DC0D701ED91FC91D601AC0FBD1F5A
:1028B0000190F081E02DC7016C9109952196C01718
:1028C000D10780F304C0CB01642F0E947615C801A4
:1028D000DF91CF911F910F91FF90EF90DF90CF90FC
:1028E0000895DF93CF930F92CDB7DEB7FC016983D4
:1028F000809116068823C9F080911506803238F041
:1029000081E090E09383828320E030E015C08091E5
:102910001406E82FF0E0EC50FA4F998190838F5F16
:10292000809314068093150605C0CE01019661E0E0
:102930000E94761521E030E0C9010F90CF91DF9120
:1029400008950F93062F8091F30564EF75E0409191
:10295000150621E00E94211510921406109215060A
:10296000109216060F91089561E00E94A114089537
:10297000413208F040E2862F61ED75E00E94D814E4
:102980001092F1058093F205089521E00E94B81499
:10299000089521E00E94B81408951092F105109254
:1029A000F20510921406109215060E94221708953F
:1029B000382F413210F040E042C080912306882336
:1029C000E1F791E090932306209325068FEF809303
:1029D000900610924B06415040934C064F5F9093E7
:1029E000240680912406330F832B80932406809144
:1029F0002606813041F410922606809124068093A9
:102A0000BB0085EC01C085EE8093BC00809123065D
:102A10008130E1F380914B06841710F440914B060E
:102A200020E030E00AC0FB01E20FF31FD901A55DF1
:102A3000B94F8C9180832F5F3F4F2417A0F3842FD1
:102A400008950F931F93582F122F413210F081E0F9
:102A50004AC0809123068823E1F782E08093230611
:102A6000009325068FEF8093900610924B064093BB
:102A70004C06ABE2B6E0FB0102C081918D938E2F34
:102A8000861B8417D0F31092240680912406550FDC
:102A9000852B8093240680912606813041F4109284
:102AA0002606809124068093BB0085EC01C085EE4C
:102AB0008093BC00112321F0809123068230E1F342
:102AC000809190068F3F11F480E00DC080919006B8
:102AD000803211F482E007C080919006803311F0BB
:102AE00084E001C083E01F910F910895482F613267
:102AF00010F081E0089580912306843011F082E087
:102B0000089560936E06ADE4B6E0842F9C01F90150
:102B100002C081918D938E2F841B8617D0F380E0A5
:102B200008951F920F920FB60F9211242F933F9387
:102B30004F935F936F937F938F939F93AF93BF93C5
:102B4000EF93FF938091B90090E0887F907080367A
:102B5000910509F4F2C081369105CCF588329105D2
:102B600009F47BC089329105B4F48031910509F4F0
:102B70006FC0813191053CF4009709F447C1089773
:102B800009F04FC165C08831910509F466C080978E
:102B900009F047C182C08034910509F4A4C0813492
:102BA000910544F48033910509F482C0C89709F077
:102BB00038C189C08035910509F489C088359105EF
:102BC00009F496C08834910509F02BC1AEC088394C
:102BD000910509F413C189399105ECF48837910501
:102BE00009F4ABC0893791054CF48836910509F496
:102BF000A4C08037910509F014C19FC088389105A1
:102C000009F4FCC08039910509F49DC08038910514
:102C100009F007C198C0803B910509F4C6C0813B0B
:102C200091054CF4803A910509F49FC0883A9105CA
:102C300009F0F7C0BAC0803C910509F4E3C0883CB4
:102C4000910509F4DFC0883B910509F0EAC0C2C0D4
:102C5000809124068093BB00CFC090914B06809159
:102C60004C06981768F490914B06E92FF0E0E55D6B
:102C7000F94F80818093BB009F5F90934B06BCC04F
:102C800080912506882309F44BC085ED8093BC0014
:102C90008091BC0084FDFCCFC2C080E2809390068E
:102CA00085ED8093BC008091BC0084FDFCCFB7C053
:102CB00080E38093900685ED8093BC008091BC00FA
:102CC00084FDFCCFACC088E3809390069BC08091CC
:102CD0004B069091BB00E82FF0E0E55DF94F908343
:102CE0008F5F80934B0690914B0680914C0682C07B
:102CF00080914B069091BB00E82FF0E0E55DF94F25
:102D000090838F5F80934B0680912506882341F046
:102D100085ED8093BC008091BC0084FDFCCF7FC01A
:102D200081E08093260684EA6EC085ED8093BC0026
:102D30008091BC0084FDFCCF72C083E080932306A9
:102D400010928F0659C080918F06803208F056C0CD
:102D500080918F069091BB00E82FF0E0E159F94F88
:102D600090838F5F80938F0647C080918F0680325B
:102D700030F4E0918F06F0E0E159F94F108285EDD3
:102D80008093BC008091BC0084FDFCCF1092230690
:102D900060918F06E0912906F0912A068FE696E071
:102DA00070E0099510928F062DC084E08093230671
:102DB00010926D0610926E06E0912706F09128069B
:102DC000099580916E06882329F481E080936E0630
:102DD00010924D0690916D06E92FF0E0E35BF94FFC
:102DE00080818093BB009F5F90936D0690916D06EC
:102DF00080916E06981710F485EC01C085E88093E9
:102E0000BC000FC085EC8093BC0009C010929006F6
:102E100085ED8093BC008091BC0084FDFCCF1092B6
:102E20002306FF91EF91BF91AF919F918F917F9179
:102E30006F915F914F913F912F910F900FBE0F9027
:102E40001F9018951092230681E08093250610921A
:102E5000260682E161E00E94242883E161E00E946D
:102E60002428E9EBF0E080818E7F808380818D7F54
:102E7000808380E28093B80085E48093BC0008954D
:102E8000FC0113861586148687E090E01286319740
:102E9000009711F00197FACF0895DC0180E00BC094
:102EA000E82FF0E08D9190E0E827F927E651FF4FF9
:102EB000E49161508E2F662399F70895DF92EF9287
:102EC000FF920F931F93FC01E08001811281F8941F
:102ED000F80181818E2981838281DE2CD0948D211D
:102EE000828383E090E00E941327F80181818D2185
:102EF00081838AE090E00E941327F8010081789492
:102F000085E390E00E94132780E010E0FF240E216B
:102F10001F21012B09F081E01F910F91FF90EF908D
:102F2000DF900895EF92FF920F931F93CF93DF935B
:102F30007C0101E010E0C0E0D0E0C7010E945E1714
:102F40008111102B000F2196C830D105B1F7812FC8
:102F5000DF91CF911F910F91FF90EF9008951F93F4
:102F6000CF93DF93FC011081C181D281912F909585
:102F700060FF12C0F8948A8189238A838981812B1A
:102F800089838AE090E00E9413278A81812B8A83BB
:102F9000789487E390E011C0F8948A8189238A832A
:102FA0008981812B898381E490E00E9413278A81A3
:102FB000812B8A83789485E090E00E941327DF912B
:102FC000CF911F910895CF92DF92EF92FF920F93CE
:102FD0001F93CF93DF938C01E42EFF24F394C0E082
:102FE000D0E0C62EDD2460E08F2D90E08C219D2165
:102FF000892B09F061E0C8010E94AF17FF0C2196F0
:10300000C830D10581F7EE20A9F4F894D8011196C3
:10301000ED91FC91129791818C91809598239183E9
:103020001196ED91FC91129792818C918095982345
:1030300092837894DF91CF911F910F91FF90EF9041
:10304000DF90CF9008956CEC40E00E94E317089564
:10305000EF92FF920F931F93CF93DF938C017B012D
:1030600065E540E00E94E317C0E0D0E0F701EC0F17
:10307000FD1FC801608140E00E94E3172196C8301F
:10308000D105A1F7DF91CF911F910F91FF90EF90A4
:103090000895DF92EF92FF920F931F93CF93DF93E8
:1030A000FC010081C181D281F8948981D02ED09415
:1030B0008D21898378941DE7E02EFF24115059F16A
:1030C00082E090E00E941327888190E08E219F216A
:1030D000892BA1F3F8948A818D218A838981802BA1
:1030E0008983789480EE91E00E941327F894898177
:1030F0008D21898386E490E00E941327888110E067
:1031000090E0E822F922EF2809F411E078948AE9A6
:1031100091E00E941327812FDF91CF911F910F9192
:10312000FF90EF90DF900895AF92BF92DF92EF9201
:10313000FF920F931F93CF93DF93EC015B018D857B
:10314000882309F061C0CE010E944918882329F420
:103150001B861D861C8690E06BC0CE0160EF40E0B0
:103160000E94E31701E0DD24EE24FF24F394CE0156
:103170000E945E17182FCE010E945E17113019F4BD
:103180008130E1F439C0181709F58B85081770F400
:1031900060E0FE01EE0DF11D838190E02F2D30E007
:1031A00082239323181619064CF003C060E0081719
:1031B00029F0093008F04CC00C874AC0FE01EE0D22
:1031C000F11D83818F29838361E009C0612FFE0196
:1031D000EE0DF11D9F2D9095838189238383CE0170
:1031E0000E94AF170F5FFF0C19F4E394FF24F394D0
:1031F00087E08E1508F0BBCF013430F0DB86DD2090
:1032000011F581E08D871FC01B861D861C8690E00E
:10321000DE0120E030E0F501E20FF31F13968C9100
:10322000139780832F5F3F4F11962830310599F710
:10323000892FDF91CF911F910F91FF90EF90DF9039
:10324000BF90AF9008958B818823F1F291E0E0CF99
:10325000D02EBDCFFF920F931F938C01F62E862F99
:1032600060E00E94E5278F2D90E0FC01E85DFD4FB6
:10327000E491D801EC938C5E9D4FFC016491E62FA4
:10328000F0E0EE0FFF1FE65FFD4F859194911296DF
:103290009C938E9311971B961C921B971D961C92C4
:1032A0001D971C961C92F80187E090E012863197DA
:1032B000009711F00197FACF1F910F91FF90089599
:1032C000FC0186E29AE1928B818B7683658314827E
:1032D000108289E0818381E08283838308956F92E5
:1032E0007F928F929F92AF92BF92CF92DF92EF9296
:1032F000FF920F931F93CF93DF93FB01EA01998114
:1033000080E0288130E0282B392BE081E23231F057
:10331000E83221F0E03109F084C04BC04C814F33DA
:1033200029F1403420F44F3109F07BC02FC04F35D4
:1033300079F04F3709F075C0B901882777FD80957E
:10334000982F0E94AB2C20E030E040E85DE32EC0D7
:1033500035952795B901882777FD8095982F0E948C
:10336000AB2C20E030E040E05EE320C035952795AF
:1033700035952795B901882777FD8095982F0E946C
:10338000AB2C20E030E040E85EE310C093E03595E0
:1033900027959A95E1F7B901882777FD8095982FB1
:1033A0000E94AB2C20E030E040E05FE30E94372D2C
:1033B00032C0EF8035952795B901882777FD809534
:1033C000982F0E94AB2C20E030E040E85EE30E94A2
:1033D000AB2B3B014C016E2D70E02E81621B7109FD
:1033E000882777FD8095982F0E94AB2C5B016C019C
:1033F000FF2400E010E0C801B7010E94A92C9B0146
:10340000AC01C601B5010E94102C9B01AC01C401A6
:10341000B3010E94AC2B9B01AC01832F942F752F1D
:1034200000C0262F382F492F572FB901CA01DF912D
:10343000CF911F910F91FF90EF90DF90CF90BF90B1
:10344000AF909F908F907F906F9008950895EF9226
:10345000FF920F931F938C017B01FC018581968164
:103460000E944918F80185819681B7010E942818A9
:10347000F8018581968164EB40E00E94E317F80132
:10348000858196810E945E17F82EF80185819681CC
:103490000E94491880E0FF2009F481E01F910F91FC
:1034A000FF90EF900895EF92FF920F931F93CF93A9
:1034B000DF93EC018B017A018D819E810E94491876
:1034C0008D819E81B8010E9428188D819E816EE4B5
:1034D00040E00E94E3178D819E81F701628140E008
:1034E0000E94E3178D819E81F701638140E00E9475
:1034F000E317F8018081803139F08D819E81F701D9
:10350000648140E00E94E3178D819E810E944918EA
:103510008D819E8168E448810E94E3178881882319
:1035200031F06AE070E080E090E00E9458278D81E1
:103530009E810E944918DF91CF911F910F91FF90BA
:10354000EF900895CF92DF92EF92FF920F931F9327
:103550008C016B017A01FC01858196810E944918DA
:10356000F80185819681B6010E942818F8018581AD
:1035700096816EEB40E00E94E317F8018581968109
:103580000E949217F7018083F801858196810E943D
:103590009217F7018183F801858196810E94921725
:1035A000F7018283F801858196810E949217F701C5
:1035B0008383F801858196810E949217F7018483A5
:1035C000F801858196810E949217F7018583F801A1
:1035D000858196810E949217F7018683F801858183
:1035E00096810E949217F7018783F8018581968161
:1035F0000E949217F7018087F801858196810E94C9
:1036000049181F910F91FF90EF90DF90CF90089590
:10361000DF93CF93CDB7DEB729970FB6F894DEBF0F
:103620000FBECDBFAE014F5F5F4F0E94A21A8981CE
:10363000811181E029960FB6F894DEBF0FBECDBF91
:10364000CF91DF910895CF92DF92EF92FF920F9387
:103650001F93CF93DF93EC016B01452BE1F08B813E
:103660008823C9F088818823B1F40E9405277B0153
:103670008C01CE0160E070E00E94081B882359F4A1
:103680000E9405276E197F09800B910B6E5E7240B8
:103690008040904070F3F6016081693039F0693004
:1036A000A0F06A3041F06B3081F40AC06EE570E042
:1036B00080E090E00EC06CEB70E080E090E009C02C
:1036C00067E771E080E090E004C06EEE72E080E0B9
:1036D00090E00E945827DF91CF911F910F91FF90AA
:1036E000EF90DF90CF900895CF93DF93EC018D8121
:1036F0009E810E9449188D819E810E9423188D8190
:103700009E8164E448810E94E3178A81882339F00E
:10371000CE012196BE0140E050E00E94231BDF91C4
:10372000CF9108950F931F938A010E94A21AC80196
:1037300068E00E944D1720E0F8019085891709F490
:1037400021E0822F1F910F910895CF92DF92EF9287
:10375000FF920F931F93DF93CF93CDB7DEB72997D7
:103760000FB6F894DEBF0FBECDBF8C017B016E019A
:103770000894C11CD11CA6010E94921B882329F425
:1037800060E070E08EEF92EC05C0C801B701A601C1
:103790000E946F1929960FB6F894DEBF0FBECDBFF9
:1037A000CF91DF911F910F91FF90EF90DF90CF901D
:1037B0000895DF93CF93CDB7DEB729970FB6F8946E
:1037C000DEBF0FBECDBF9C01FB0180818031D9F0EF
:1037D000C901AE014F5F5F4F0E94921B8823A9F081
:1037E0008D818F3371F0803418F48F3171F40BC0F8
:1037F0008F3519F08F3749F402C08BE007C08CE099
:1038000005C08AE003C089E001C080E029960FB6B8
:10381000F894DEBF0FBECDBFCF91DF910895CF9258
:10382000DF92EF92FF921F93DF93CF93CDB7DEB776
:1038300029970FB6F894DEBF0FBECDBF6C017B0198
:10384000142FAE014F5F5F4F0E94921B8823E1F05F
:10385000F70180818031B9F01A3051F01A3050F000
:103860001B3021F01C3031F48FE705C08FE503C019
:103870008FE301C08FE18D83C601B701AE014F5FB9
:103880005F4F0E94531A81E029960FB6F894DEBF6D
:103890000FBECDBFCF91DF911F91FF90EF90DF90D2
:1038A000CF9008950F931F938B01CB0167E00E9487
:1038B0004D1720E0F8019781891709F421E0822F44
:1038C0001F910F910895EF92FF920F931F93CF9343
:1038D000DF93EC017B01042F8D819E810E944017B4
:1038E00010E007C0CE01B7010E94521C8823A9F046
:1038F0000AC08D819E81B7010E949418882329F007
:10390000101759F4EFCF81E001C080E0DF91CF9133
:103910001F910F91FF90EF9008951F5F0117A8F37B
:10392000E8CFCF92DF92EF92FF920F931F93DF9336
:10393000CF93CDB7DEB728970FB6F894DEBF0FBE92
:10394000CDBF7C01693010F469E003C06D3008F030
:103950006CE0F701618300E010E06E010894C11C87
:10396000D11C0DC0C701B601402F0E94631CC701C6
:10397000B601F70141810E940F1C0F5F1F4FF70135
:10398000848190E0081719076CF328960FB6F89415
:10399000DEBF0FBECDBFCF91DF911F910F91FF9082
:1039A000EF90DF90CF900895AF92BF92CF92DF92C9
:1039B000EF92FF920F931F93DF93CF93CDB7DEB7B4
:1039C00061970FB6F894DEBF0FBECDBF7C01FC013E
:1039D000858196810E944017F70114826E01089438
:1039E000C11CD11C79E0A72EB12CAC0EBD1E01E08C
:1039F0002BC0C701B6010E94521C882329F1F70190
:103A00008081882341F4C701B6010E94271A8823C8
:103A100011F0F7010083C701B601A5010E94A21AA7
:103A2000F7011181C701B6010E94D91B811718F453
:103A3000F701818104C0C701B6010E94D91BF701BB
:103A4000818384818F5F8483F70185819681B601AC
:103A50000E949418882369F661960FB6F894DEBF29
:103A60000FBECDBFCF91DF911F910F91FF90EF90CF
:103A7000DF90CF90BF90AF900895FC01668347839D
:103A8000208781E0858708950F931F938C01FC01A7
:103A9000868160E00E94E527F801868161E00E944E
:103AA0002428F80111861286138614861F910F911F
:103AB0000895CF92DF92EF92FF920F931F93CF93CF
:103AC000DF93EC018E8161E00E9424286AEF70E0B0
:103AD00080E090E00E9458270E9405279B01AC01DE
:103AE00089859A85AB85BC85281739074A075B0706
:103AF00020F419861A861B861C868D85882371F40E
:103B000089859A85AB85BC85281B390B4A0B5B0BD5
:103B1000205D37404040504008F477C01D860E9429
:103B2000052769877A878B879C871C821B821A826C
:103B3000198218828E8161E00E94E5278E8160E003
:103B40000E94242864E170E080E090E00E94582701
:103B5000F8948E8161E00E94242888E290E00E941F
:103B600013278E8160E00E94E52781E0EE2400E0CB
:103B700010E00AC0F39481E090E00E9413278FEFD9
:103B8000F81629F40AC0822FFF24C82EDD248E8166
:103B90000E9478288C159D0569F38E810E947828F3
:103BA000282F8FEFF816C9F0043090F000FD10C0F8
:103BB0008E2D869586958695FE01E80FF11D9081E4
:103BC000990F908388858F1510F491609083E3940A
:103BD0000F5F1F4F05351105B1F6789487E28E15FA
:103BE00010F030E013C030E04C8150E02981888132
:103BF00090E0820F911D2A81820F911D2B81820FEF
:103C0000911D90704817590709F431E0832FDF9117
:103C1000CF911F910F91FF90EF90DF90CF9008957B
:103C2000EF92FF920F931F93CF93DF93EC010E94CB
:103C3000591D8823A9F18F818B3031F08B3080F1B1
:103C40008551823068F507C0688170E080E090E0BF
:103C50000E94A92C22C0688170E080E090E00E9460
:103C6000A92C20E030E040E853E40E94372D7B018E
:103C70008C01698170E0882777FD8095982F0E94DC
:103C8000AB2C9B01AC01C801B7010E94AC2B20E01A
:103C900030E040E251E40E94102CE62F692F0AC068
:103CA0008EE996E063E271E00E94942BE0E070E020
:103CB00080EC6FE72E2F372F482F562FB901CA01FE
:103CC000DF91CF911F910F91FF90EF900895CF93C7
:103CD000DF93EC018881282F30E069818A81482FA9
:103CE00050E0EAEEF1E091E005C08491480F511DEB
:103CF0009F5F31969617C8F3633038F0C90183701F
:103D00009070892B11F44F5F5F4F8DE691E0289FF3
:103D1000B001299F700D389F700D112461507040C3
:103D20002D5F3F4F3695279536952795620F731F68
:103D3000640F751F80E090E028E130E040E050E043
:103D40000E94562F2B81620F711D811D911D2CE346
:103D500030E040E050E00E94562F2C81620F711D30
:103D6000811D911D2CE330E040E050E00E94562F71
:103D70009B01AC018D81280F311D411D511DB901E1
:103D8000CA01DF91CF910895EF92FF920F931F9395
:103D9000162F042F27E1E22E26E0F22EC70168E657
:103DA00070E00E94EF13C701612F0E947114C701D8
:103DB000602F0E947114C7010E94B4141F910F91CB
:103DC000FF90EF9008951F93CF93DF93EC01162F90
:103DD0006EE04DE10E94C41E123041F0133079F0C4
:103DE000113009F5CE0167E040E803C0CE0167E07D
:103DF00040E00E94C41ECE0168E040E808C0CE0149
:103E000067E040E00E94C41ECE0168E040E00E94EE
:103E1000C41ECE0169E040E80E94C41ECE016AE0E3
:103E200040E80E94C41EDF91CF911F910895AF9288
:103E3000BF92CF92DF92EF92FF920F931F93DF9387
:103E4000CF93CDB7DEB727970FB6F894DEBF0FBE7E
:103E5000CDBF07E116E0C80168E670E00E94EF13ED
:103E6000C80160E00E947114C8010E94B414C80126
:103E700068E670E048E050E00E94C514C8010E9466
:103E80000214B82EC8010E940214C82EC8010E9454
:103E900002149FE3D92ED822C8010E940214A82E32
:103EA000C8010E940214E82EC8010E940214F82ED4
:103EB000C8010E940214282F30E0B4E03595279500
:103EC000BA95E1F74AEF5FEFB901649F9001659FF2
:103ED000300D749F300D1124820F90E02B2D30E0B7
:103EE000A4E035952795AA95E1F7B901649F900163
:103EF000659F300D749F300D1124B20E2C2D30E0D3
:103F0000F4E035952795FA95E1F7B901649F9001A2
:103F1000659F300D749F300D1124C20E2D2D30E0A1
:103F2000E4E035952795EA95E1F7B901649F9001A2
:103F3000659F300D749F300D1124D20E2E2D30E070
:103F400074E0359527957A95E1F7B901649F900162
:103F5000659F300D749F300D1124E20E2F2D30E03F
:103F600064E0359527956A95E1F7B901649F900162
:103F7000659F300D749F300D1124F20E282F3F2DB8
:103F80004E2D5D2D6C2D7B2D8A2D27960FB6F89426
:103F9000DEBF0FBECDBFCF91DF911F910F91FF907C
:103FA000EF90DF90CF90BF90AF900895FF920F9366
:103FB0001F93F62E07E116E0C80168E670E00E9444
:103FC000EF13C8016F2D0E947114C8010E94B41430
:103FD000C80168E670E041E050E00E94C514C801E5
:103FE0000E9402141F910F91FF900895EF92FF928B
:103FF0000F931F93CF93DF938C0161E10E94D61F33
:10400000E82EC80162E10E94D61FC82FD0E0E7FE6B
:1040100025C0E1946E2D70E0882777FD8095982F5C
:104020000E94AB2C7B018C0136E0D595C7953A9563
:10403000E1F7BE01882777FD8095982F0E94AB2C71
:1040400020E030E040E85EE30E94372D9B01AC01A8
:10405000C801B7010E94AC2B905822C06E2D70E0B1
:10406000882777FD8095982F0E94AB2C7B018C01CF
:1040700026E0D595C7952A95E1F7BE01882777FDFB
:104080008095982F0E94AB2C20E030E040E85EE362
:104090000E94372D9B01AC01C801B7010E94AC2BD7
:1040A000DF91CF911F910F91FF90EF900895CF93E3
:1040B000DF93EC016EE00E94D61F482F4062CE01D4
:1040C0006EE00E94C41ECE016EE00E94D61F85FDE8
:1040D000FACFDF91CF9108950F931F938C016FE07A
:1040E0000E94D61F482F4E7FC8016FE00E94C41E59
:1040F0001F910F9108950F931F938C016EE04CE177
:104100000E94C41E6AE070E080E090E00E945827A0
:10411000C80162E00E94D61F482F4F7BC80162E0B1
:104120000E94C41E6AE070E080E090E00E94582780
:1041300081E01F910F910895FC0160830895DF9243
:10414000EF92FF920F931F93FC01F62ED42EE52ED3
:1041500007E116E0C80160810E94E513C8016F2DD8
:104160000E947114C8016E2D0E947114C8016D2D3A
:104170000E947114C8010E94B4141F910F91FF9006
:10418000EF90DF900895CF92DF92EF92FF920F931E
:104190001F938C01D62E87E1E82E86E0F82EC7010A
:1041A000F80160810E94E513C7016D2D0E94711412
:1041B000C7010E94B414C701F80160810E94E51391
:1041C000C701F801608142E00E94C914C7010E9442
:1041D0000214182F00E0C7010E9402146C01C701ED
:1041E0000E94B4140C291D29C8011F910F91FF9042
:1041F000EF90DF90CF90089560E00E94C320089573
:1042000061E00E94C3209C0135952795359527953F
:10421000C90108952F923F924F925F926F927F92C1
:104220008F929F92AF92BF92CF92DF92EF92FF92C6
:104230000F931F93DF93CF9300D000D0CDB7DEB79D
:104240008C010E940021AA2797FDA095BA2FBC01DE
:10425000CD010E94AB2C6B017C01C8010E94FC20A7
:10426000AA2797FDA095BA2FBC01CD010E94AB2CC7
:1042700020E030E44CE153E40E94372D20E030E0B0
:104280004AE754E40E94102C20E030E04AE754E46E
:104290000E94102C1B012C01C701B60120E030E068
:1042A00040E05DE30E94372D23E333E948E853E41F
:1042B0000E94AC2B3B014C0123E333E145E953E47D
:1042C0000E94AB2B7B018C0122E430E645EE5AE3E1
:1042D0000E94372D20E030E040E85FE30E94AC2BE5
:1042E0005B016C01C801B70127EC32EC4CE857EBDD
:1042F0000E94372DA80197010E94372D9B01AC0128
:10430000C601B5010E94AC2B2DEC3CEC4CEC50E40A
:104310000E94372D20E836E948E15BE40E94102C2A
:1043200069837A838B839C83C201B10120E030E0F2
:104330004AE754E40E94102C1B012C01C801B7016C
:104340002AE132E049E155EB0E94372D25E030EAC1
:1043500046EF57E30E94AB2B5B016C01C801B7012C
:1043600029EE35E14FE951E30E94372DA80197016D
:104370000E94372D9B01AC01C601B5010E94AC2BF8
:104380009B01AC01C201B1010E94AB2B7B018C01EE
:10439000C401B301A40193010E94372DA40193012C
:1043A0000E94372DA40193010E94372D5B016C01FF
:1043B000C801B70126E636E646E551E40E94372DEE
:1043C000A80197010E94372D9B01AC01C801B701DC
:1043D0000E94AC2B7B018C0169817A818B819C814D
:1043E00020E836E948E15BE40E94102C9B01AC0117
:1043F000C801B7010E94102C9B01AC01C601B50198
:104400000E94AC2B0E94EA2D0E94EA2D23E333E99F
:1044100048E853E40E94AB2B0F900F900F900F9041
:10442000CF91DF911F910F91FF90EF90DF90CF9090
:10443000BF90AF909F908F907F906F905F904F90C4
:104440003F902F900895EF92FF920F931F938C014E
:10445000E62E87E196E00E94CD144E2D50E0516784
:10446000C80162E00E949F20C8016EEF0E94C32035
:104470007C01C8016FEF0E94C32029E4E21624E505
:10448000F20611F020E005C020E08736910509F41E
:1044900021E0822F1F910F91FF90EF900895FC0172
:1044A0008EE791E091838083638314821582178263
:1044B0001682118610862287338744875587089590
:1044C000FC01658308956F927F928F929F92AF92C5
:1044D000BF92CF92DF92EF92FF920F931F93CF93F1
:1044E000DF93FC01EA01468157814115510531F006
:1044F0004130510531F488E890E905C084E293E148
:1045000002C088EE9DEF8617970708F4DEC08C176F
:104510009D0708F4DAC04115510551F041305105AD
:1045200071F417EEE12E1FE0F12E012D112D0CC0BC
:10453000B7E1EB2EB5E7FB2E012D112D05C0E12CC7
:10454000A4E0FA2E012D112D80859185892B39F457
:10455000E4E0EE0CFF1C001F111FEA95D1F79B0150
:1045600040E050E0C801B7010E94562F5B016C018A
:104570005AE0D694C794B794A7945A95D1F79E0160
:1045800040E050E0C801B7010E94562F3B014C01AA
:104590004AE096948794779467944A95D1F7A1144A
:1045A000B104C104D10429F480E090E0A0E0B0E0BF
:1045B0000FC0C401B3013AE0660F771F881F991F2F
:1045C0003A95D1F7A60195010E94812FC901DA0120
:1045D0000196A11DB11DB695A79597958795813434
:1045E0009105A105B10528F462EF71E0CEEBD1E0B1
:1045F00049C081389105A105B10528F464E172E054
:10460000C1EDD2E03FC0813C9105A105B10528F480
:104610006FE372E0CBE7D3E035C0813021E0920751
:1046200020E0A20720E0B20728F460E772E0CEEFB6
:10463000D3E028C0893321E0920720E0A20720E0E0
:10464000B20728F46FE671E0CCEFD1E01BC08B39E4
:1046500021E0920720E0A20720E0B20728F462EDF3
:1046600070E0CBEFD0E00EC08B599240A040B0403C
:1046700028F060E070E0C0E0D0E004C068E170E0E5
:10468000C2E1D0E080E090E0A60195010E94562FA3
:104690007B018C0180E090E2A0E0B0E0E80EF91E22
:1046A0000A1F1B1FBE0180E090E0A40193010E943D
:1046B000562FE61AF70A080B190B8EE01695079588
:1046C000F794E7948A95D1F703C0EE24FF2487017D
:1046D000B701C801DF91CF911F910F91FF90EF902B
:1046E000DF90CF90BF90AF909F908F907F906F9012
:1046F0000895EF92FF920F931F937C018B0188E244
:10470000FB0111928A95E9F7CB016DE271E04BE074
:1047100050E00E945801F801138681E090E0A0E08B
:10472000B0E084879587A687B787F7018285938550
:10473000A485B585F801808B918BA28BB38B85E026
:1047400090E0A0E0B0E0848B958BA68BB78B14A291
:1047500015A216A217A280E090EDA4E8B6E4808F1F
:10476000918FA28FB38F80E090E0A0E0B0E0848FC3
:10477000958FA68FB78F80E090E0A0E8BFE380A37D
:1047800091A3A2A3B3A31F910F91FF90EF9008955F
:10479000BF92CF92DF92EF92FF920F931F93B62EAC
:1047A00079018A0127E1C22E26E0D22EDC01139680
:1047B0006C91772767FD7095C6010E94EF13C601C3
:1047C0006B2D0E9471148FEF90E0A0E0B0E0E82222
:1047D000F9220A231B23C6016E2D0E947114C60103
:1047E0000E94B4141F910F91FF90EF90DF90CF9033
:1047F000BF90089560E820E030E040E050E00E9483
:10480000C823089560E823E030E040E050E00E94D3
:10481000C8230895DF92EF92FF920F931F937C01BC
:10482000D62E07E116E0FC016381772767FD7095BE
:10483000C8010E94EF13C8016D2D0E947114C801B8
:104840000E94B414F7016381772767FD7095C80152
:1048500042E050E00E94C514C8010E9402147C018D
:10486000C8010E940214382F20E02E293F29C901D7
:104870001F910F91FF90EF90DF900895EF92FF92BC
:104880000F931F93CF93DF93EC018B017A010E946A
:1048900002248E819F81009719F0019759F405C079
:1048A0006EE070E080E090E009C066E670E080E0D5
:1048B00090E004C063E971E080E090E00E94582736
:1048C000CE016CEA0E940A24F80191838083CE0114
:1048D0006EEA0E940A24F70191838083CE010E9430
:1048E000FA23DF91CF911F910F91FF90EF900895E0
:1048F000DF92EF92FF920F931F937C01D62E07E178
:1049000016E0FC016381772767FD7095C8010E945E
:10491000EF13C8016D2D0E947114C8010E94B414D8
:10492000F7016381772767FD7095C80141E050E08A
:104930000E94C514C8010E9402141F910F91FF909C
:10494000EF90DF900895CF93DF93EC0187E196E03D
:104950000E94CD14CE016AE00E9478248A7081F012
:1049600081E08C836E817F81CE010E94D72568858E
:104970007985CE010E94C324CE010E94FA2381E0F2
:10498000DF91CF9108950F931F93CF93DF93EC01A5
:104990008B018C81882319F4CE010E94A324CE01BF
:1049A0000E9402242E813F81202B312B442737FD8A
:1049B0004095542FCE0161E80E94C82319870887CB
:1049C000CE010E94FA23DF91CF911F910F9108959C
:1049D0003F924F925F926F927F928F929F92AF928F
:1049E000BF92CF92DF92EF92FF920F931F93DF93CC
:1049F000CF9300D000D0CDB7DEB78C015B014A0168
:104A0000FC018481882319F4C8010E94A324F801C1
:104A10008581882331F4C801B501A4010E943E2498
:104A20005BC03324F3E04F2E512C4C0E5D1E3E0133
:104A30000894611C711CF80186819781009751F0E0
:104A4000019781F4E0EACE2EECE8DE2E78ECE72E3A
:104A5000F12C10C062EFC62E62E1D62E54E6E52E90
:104A6000F12C08C048E1C42E46EFD42E34EFE32EDB
:104A700031E0F32EC801B301A2010E943E24298136
:104A80003A81332009F52E153F0548F4F801808559
:104A90009185892B21F4C80160E170E00BC0C2163A
:104AA000D30690F4F80180859185409769F4C80198
:104AB00060E070E00E94C324C801B301A2010E941B
:104AC0003E2433243394B7CFF501318320838B8187
:104AD0009C81F401918380830F900F900F900F9031
:104AE000CF91DF911F910F91FF90EF90DF90CF90CA
:104AF000BF90AF909F908F907F906F905F904F90FE
:104B00003F900895EF92FF920F931F93DF93CF93FF
:104B100000D000D0CDB7DEB77C018B0184E2FB0171
:104B200011928A95E9F784E290E0A0E0B0E0FB0101
:104B300080839183A283B383F70182859385A485C3
:104B4000B585FB0184839583A683B78385E090E0D8
:104B5000A0E0B0E080879187A287B3870E940527F5
:104B6000F801608B718B828B938BC701BE016F5FE5
:104B70007F4FAE014D5F5F4F0E94E82469817A81CB
:104B80004B815C81C7010E9463220E94A92CF8011D
:104B9000648B758B868B978B0F900F900F900F9077
:104BA000CF91DF911F910F91FF90EF9008950F9398
:104BB0001F93CF93DF93EC018B018C81882319F431
:104BC000CE010E94A324CE010E94022428853985AB
:104BD000202B312B442737FD4095542FCE0161E81F
:104BE0000E94C8231F830E83CE010E94FA23DF9107
:104BF000CF911F910F910895FC01608171816253E3
:104C00007240882777FD8095982F0E94AB2C28EE64
:104C10003FE948E85FE30E94372D0E947D2CDC01CC
:104C2000CB0108950F931F938C0183E00E94C0274E
:104C300085E10E94C327F801918380831F910F9122
:104C40000895823000F5E82FF0E0EE0FFF1FEF56D9
:104C5000F94F71836083882319F08130A1F408C073
:104C6000809169008C7F842B80936900E89A089575
:104C700080916900440F551F440F551F837F842B7B
:104C800080936900E99A0895823080F4882319F0AE
:104C9000813021F402C0E89801C0E998E82FF0E0E3
:104CA000EE0FFF1FEF56F94F1182108208951F92E9
:104CB0000F920FB60F9211242F933F934F935F9350
:104CC0006F937F938F939F93AF93BF93EF93FF93D4
:104CD0008091910690919206892B29F0E09191069E
:104CE000F09192060995FF91EF91BF91AF919F913D
:104CF0008F917F916F915F914F913F912F910F9085
:104D00000FBE0F901F9018951F920F920FB60F9223
:104D100011242F933F934F935F936F937F938F93C0
:104D20009F93AF93BF93EF93FF93809193069091DE
:104D30009406892B29F0E0919306F0919406099549
:104D4000FF91EF91BF91AF919F918F917F916F9163
:104D50005F914F913F912F910F900FBE0F901F9039
:104D600018951F920F920FB60F9211242F933F9315
:104D70004F935F936F937F938F939F93AF93BF9363
:104D80002091990630919A0640919B0650919C067D
:104D900070919D06DA01C9010296A11DB11D672F10
:104DA0006A5F6D3730F06D57DA01C9010396A11DB6
:104DB000B11D60939D068093990690939A06A093E7
:104DC0009B06B0939C068091950690919606A091C3
:104DD0009706B09198060196A11DB11D8093950686
:104DE00090939606A0939706B0939806BF91AF91C3
:104DF0009F918F917F916F915F914F913F912F91F3
:104E00000F900FBE0F901F9018958FB7F8942091B8
:104E1000990630919A0640919B0650919C068FBF4F
:104E2000B901CA010895019739F0019729F0880F57
:104E3000991F01970197F1F70895789484B58260DE
:104E400084BD84B5816084BD85B5826085BD85B52E
:104E5000816085BDEEE6F0E0808181608083E1E8DD
:104E6000F0E0108280818260808380818160808315
:104E7000E0E8F0E0808181608083E1EBF0E0808118
:104E800084608083E0EBF0E0808181608083EAE7EA
:104E9000F0E0808184608083808182608083808173
:104EA000816080838081806880831092C100089532
:104EB000EF92FF920F931F93CF93DF937B018C01AF
:104EC0003FB7F8948091950690919606A091970629
:104ED000B091980626B5A89B05C02F3F19F0019602
:104EE000A11DB11D3FBFBA2FA92F982F8827820F70
:104EF000911DA11DB11D53E0880F991FAA1FBB1F53
:104F00005A95D1F7EC0130C00E94AA2B3FB7F89414
:104F10008091950690919606A0919706B09198067B
:104F200026B5A89B05C02F3F19F00196A11DB11D04
:104F30003FBFBA2FA92F982F8827820F911DA11D3F
:104F4000B11D33E0880F991FAA1FBB1F3A95D1F7F7
:104F50008C1B9D0B885E9340B8F20894E108F10821
:104F600001091109C851DC4FE114F10401051105D3
:104F700059F6DF91CF911F910F91FF90EF90089517
:104F8000809349010895982F8E3008F09E509770B5
:104F9000809149018295880F880F807C892B8093AE
:104FA0007C0080917A00806480937A0080917A00FE
:104FB00086FDFCCF2091780040917900942F80E00D
:104FC00030E0282B392BC9010895CF93DF93482F68
:104FD00050E0CA01885D9D4FFC0134914C5E5D4FED
:104FE000FA018491882369F190E0880F991FFC01F0
:104FF000EA50FE4FA591B491FC01E050FE4FC591DF
:10500000D491662351F42FB7F8948C91932F9095F7
:1050100089238C93888189230BC0623061F42FB778
:10502000F8948C91932F909589238C938881832B6E
:1050300088832FBF06C09FB7F8948C91832B8C93E5
:105040009FBFDF91CF910895482F50E0CA01845C43
:105050009D4FFC012491CA01885D9D4FFC019491F4
:105060004C5E5D4FFA013491332309F440C0222392
:1050700051F1233071F0243028F42130A1F0223096
:1050800011F514C02630B1F02730C1F02430D9F426
:1050900004C0809180008F7703C0809180008F7D55
:1050A0008093800010C084B58F7702C084B58F7D57
:1050B00084BD09C08091B0008F7703C08091B0009B
:1050C0008F7D8093B000E32FF0E0EE0FFF1FE050E4
:1050D000FE4FA591B4912FB7F894662321F48C91DB
:1050E0009095892302C08C91892B8C932FBF0895B2
:1050F000682F70E0CB01845C9D4FFC012491CB01B3
:10510000885D9D4FFC0144916C5E7D4FFB01949145
:10511000992319F420E030E03CC0222351F12330E0
:1051200071F0243028F42130A1F0223011F514C0A0
:105130002630B1F02730C1F02430D9F404C080917A
:1051400080008F7703C0809180008F7D80938000E6
:1051500010C084B58F7702C084B58F7D84BD09C02F
:105160008091B0008F7703C08091B0008F7D8093D5
:10517000B000892F90E0880F991F865F9D4FFC013A
:10518000A591B4918C9120E030E0842311F021E0CE
:1051900030E0C9010895DC015C968C915C97FD01BB
:1051A000E80FF11DE35AFF4F20815C968C915C97CC
:1051B00090E001968F7390705C968C935C975696F6
:1051C000ED91FC91579720835096ED91FC9151976A
:1051D0008081806480835B969C915B975C968C91C8
:1051E0005C97981739F45296ED91FC915397808112
:1051F0008F7D80830895DF92EF92FF920F931F932C
:10520000CF93DF93EC017A018B01D22E60E874E832
:105210008EE190E0A80197010E94812F215030403B
:10522000404050405695479537952795E889F9892C
:1052300082E0808380E12030380798F0E889F9899E
:10524000108260E472E48FE090E0A80197010E9470
:10525000812F21503040404050405695479537951A
:105260002795EC85FD853083EE85FF852083188E9C
:10527000EC89FD89D082EA89FB8980818061808305
:10528000EA89FB89808188608083EA89FB89808143
:1052900080688083EA89FB8980818F7D8083DF91AC
:1052A000CF911F910F91FF90EF90DF900895FC0137
:1052B000218D828D30E0205C3F4F281B31092F73F8
:1052C0003070C9010895FC01918D828D981719F4F1
:1052D0002FEF3FEF06C0828DE80FF11D858D282F3F
:1052E00030E0C9010895DC0159969C9159975A966E
:1052F0008C915A97981719F42FEF3FEF10C05A96D8
:105300008C915A97FD01E80FF11D958D5A968C915D
:105310005A978F5F8F735A968C93292F30E0C9016B
:105320000895CF93DF93EC01888D882361F419C031
:105330008C9185FF0AC0E889F989808185FF05C0C5
:10534000CE010E94CB28AA89BB898C9185FD05C01E
:10535000E889F989808186FD04C00FB607FEE8CF91
:10536000F4CFDF91CF9108950F931F93CF93DF93E5
:10537000EC01062F9B8D8C8D981791F5E889F989A2
:10538000808185FF2DC0EE89FF896083E889F989D6
:105390008081806480831DC00FB607FC08C0E88947
:1053A000F989808185FF03C0CE010E94CB288C8DB6
:1053B000181791F38B8DFE01E80FF11DE35AFF4F93
:1053C00000831B8FEA89FB8980818062808381E072
:1053D000888F81E090E0DF91CF911F910F91089528
:1053E0001B8D1F5F1F73E3CF8CE79AE2892B51F06F
:1053F00080E090E0892B31F00E947C2A882311F014
:105400000E94000008951F920F920FB60F92112470
:105410002F938F939F93EF93FF93E091AE06F091BC
:10542000AF06808182FD16C0E091B406F091B5060A
:1054300020819091B7069F5F9F738091B80698175F
:1054400071F0E091B706F0E0E256F94F258F9093A6
:10545000B70605C0E091B406F091B506E081FF9172
:10546000EF919F918F912F910F900FBE0F901F90F2
:1054700018951092A1061092A00688EE93E0A0E085
:10548000B0E08093A2069093A306A093A406B093E5
:10549000A50688E891E090939F0680939E0685EC90
:1054A00090E09093AB068093AA0684EC90E09093F2
:1054B000AD068093AC0680EC90E09093AF068093AD
:1054C000AE0681EC90E09093B1068093B00682EC3A
:1054D00090E09093B3068093B20686EC90E09093B0
:1054E000B5068093B4061092B7061092B8061092D3
:1054F000B9061092BA0608958EE996E00E945729DF
:1055000020E0892B09F021E0822F08951F920F924D
:105510000FB60F9211242F933F934F935F936F9386
:105520007F938F939F93AF93BF93EF93FF938EE9F6
:1055300096E00E94CB28FF91EF91BF91AF919F9190
:105540008F917F916F915F914F913F912F910F902C
:105550000FBE0F901F901895CF93DF930E941D27C9
:105560000E941306C4EFD9E20E94C1052097E1F31F
:105570000E94F429F9CFCF92DF92EF92FF920F931E
:105580001F93CF93DF937C016B018A01C0E0D0E0D1
:105590000FC0D6016D916D01D701ED91FC91019085
:1055A000F081E02DC7010995C80FD91F01501040A7
:1055B0000115110571F7CE01DF91CF911F910F9168
:1055C000FF90EF90DF90CF900895EF92FF920F93AE
:1055D0001F938C01DC01ED91FC910190F081E02D95
:1055E0006DE009957C01D801ED91FC910190F0816D
:1055F000E02DC8016AE009959C012E0D3F1DC901EF
:105600001F910F91FF90EF900895CF93DF93EC01DE
:105610006115710519F420E030E00FC0DB010D9039
:105620000020E9F71197A61BB70BE881F9810280EA
:10563000F381E02DAD0109959C01C901DF91CF9166
:1056400008954F925F927F928F929F92AF92BF92F6
:10565000CF92DF92EF92FF920F931F93DF93CF933E
:10566000CDB7DEB7A1970FB6F894DEBF0FBECDBFA2
:105670002C01742ECB01223008F42AE019A231E269
:10568000C32ED12CCC0EDD1E822E9924AA24BB243D
:10569000672D752FA50194010E94812F79018A0140
:1056A000C801B701A50194010E94562F472D461B42
:1056B0000894C108D1084A3014F4405D01C0495C27
:1056C000F6014083E114F1040105110521F07E2C5F
:1056D0005F2DC801DDCFC201B6010E94052BA19646
:1056E0000FB6F894DEBF0FBECDBFCF91DF911F91F3
:1056F0000F91FF90EF90DF90CF90BF90AF909F9071
:105700008F907F905F904F900895DC0121153105B7
:1057100041F4ED91FC910190F081E02D642F099509
:1057200008950E94212B08950E94052B0895EF9261
:10573000FF920F931F937C010E94052B8C01C701E0
:105740000E94E52A080F191FC8011F910F91FF90B1
:10575000EF90089508955058BB27AA270ED04DC149
:105760003ED130F043D120F031F49F3F11F41EF4CC
:1057700033C10EF4E095E7FB29C1E92F4FD180F347
:10578000BA17620773078407950718F071F49EF53E
:1057900067C10EF4E0950B2EBA2FA02D0B01B901B5
:1057A00090010C01CA01A0011124FF27591B99F097
:1057B000593F50F4503E68F11A16F040A22F232FA3
:1057C000342F4427585FF3CF469537952795A795F3
:1057D000F0405395C9F77EF41F16BA0B620B730B9A
:1057E000840BBAF09150A1F0FF0FBB1F661F771F0B
:1057F000881FC2F70EC0BA0F621F731F841F48F4C0
:10580000879577956795B795F7959E3F08F0B3CF45
:105810009395880F08F09927EE0F9795879508952F
:105820000CD0EBC0E3D040F0DAD030F021F45F3F91
:1058300019F0CCC0511115C1CFC0F0D098F3992305
:10584000C9F35523B1F3951B550BBB27AA27621744
:105850007307840738F09F5F5F4F220F331F441F89
:10586000AA1FA9F333D00E2E3AF0E0E830D09150C1
:105870005040E695001CCAF729D0FE2F27D0660FAE
:10588000771F881FBB1F261737074807AB07B0E8ED
:1058900009F0BB0B802DBF01FF2793585F4F2AF003
:1058A0009E3F510568F092C0DCC05F3FECF3983E2C
:1058B000DCF3869577956795B795F7959F5FC9F760
:1058C000880F911D9695879597F90895E1E0660FE9
:1058D000771F881FBB1F621773078407BA0720F062
:1058E000621B730B840BBA0BEE1F88F7E0950895CB
:1058F00004D06894B111B5C0089598D088F09F572E
:1059000090F0B92F9927B751A0F0D1F0660F771F0B
:10591000881F991F1AF0BA95C9F712C0B13081F0EB
:105920009FD0B1E008959CC0672F782F8827B85F7B
:1059300039F0B93FCCF3869577956795B395D9F74C
:105940003EF490958095709561957F4F8F4F9F4F56
:105950000895E89409C097FB3EF490958095709562
:1059600061957F4F8F4F9F4F9923A9F0F92F96E9AB
:10597000BB279395F695879577956795B795F11120
:10598000F8CFFAF4BB0F11F460FF1BC06F5F7F4FBD
:105990008F4F9F4F16C0882311F096E911C07723CF
:1059A00021F09EE8872F762F05C0662371F096E8D8
:1059B000862F70E060E02AF09A95660F771F881FA7
:1059C000DAF7880F9695879597F9089597F99F6765
:1059D00080E870E060E008959FEF80EC0895002477
:1059E0000A941616170618060906089500240A9444
:1059F00012161306140605060895092E0394000CCA
:105A000011F4882352F0BB0F40F4BF2B11F460FF58
:105A100004C06F5F7F4F8F4F9F4F089557FD905881
:105A2000440F551F59F05F3F71F04795880F97FB62
:105A3000991F61F09F3F79F087950895121613061C
:105A40001406551FF2CF4695F1DF08C0161617064B
:105A50001806991FF1CF8695710561050894089580
:105A6000E894BB2766277727CB0197F908950BD0D9
:105A7000C4CFB5DF28F0BADF18F0952309F0A6CF20
:105A8000ABCF1124EECFCADFA0F3959FD1F3950FD2
:105A900050E0551F629FF001729FBB27F00DB11DB2
:105AA000639FAA27F00DB11DAA1F649F6627B00D42
:105AB000A11D661F829F2227B00DA11D621F739F2B
:105AC000B00DA11D621F839FA00D611D221F749F39
:105AD0003327A00D611D231F849F600D211D822F80
