:100000000C9436010C9457300C9484300C945E019F
:100010000C945E010C945E010C945E010C945E01E4
:100020000C945E010C945E010C945E010C945E01D4
:100030000C945E010C945E010C945E010C945E01C4
:100040000C94B1300C945E010C94E5340C9468353A
:100050000C945E010C945E010C945E010C945E01A4
:100060000C9417200C945E0107634236B79BD8A707
:100070001A39685618AEBAAB558C1D3CB7CC5763CD
:10008000BD6DEDFD753EF6177231BF000000803F7B
:1000900008000000BE922449123EABAAAA2ABECD97
:1000A000CCCC4C3E00000080BEABAAAAAA3E000009
:1000B0000000BF000000803F000000000008417801
:1000C000D3BB4387D1133D190E3CC3BD4282AD2B38
:1000D0003E68EC8276BED98FE1A93E4C80EFFFBE30
:1000E00001C4FF7F3F00000000007C3C3E5E2B3DD2
:1000F0003F2F5B5D3B2C2A225C00005EBCE2613F2F
:10010000DD83C29C7E20A3FD1F419DC3217FFCA2F5
:10011000401E5F01E3BD3E6082DC237D9FC1421C27
:10012000FEA0E1BF5D0380DE3C62BEE0025CDF81D9
:10013000633D7C22C09E1D43A1FF4618FAA4277987
:100140009BC584DA3866E5BB5907DB856739BAE4B5
:1001500006581947A5FB7826C49A653BD987045AE7
:10016000B8E6A7F91B45C6987A24F8A6441A99C799
:10017000257B3A6486D85B05E7B98CD2306EEDB347
:10018000510F4E10F2AC2F7193CD114FADF3702E75
:10019000CC92D38D6F31B2EC0E50AFF1134DCE90A7
:1001A000722C6D33D18F0C52B0EE326C8ED0530D59
:1001B000EFB1F0AE4C1291CF2D73CA947628ABF507
:1001C00017490856B4EA6937D58B5709EBB5366835
:1001D0008AD495CB2977F4AA4816E9B7550B88D667
:1001E000346A2B7597C94A14F6A8742AC896154B19
:1001F000A9F7B6E80A54D7896B351F1C1F1E1F1EAE
:100200001F1F1E1F1E1F00000000240027002A00C1
:1002100000000000250028002B0000000000230043
:100220002600290004040404040404040202020257
:1002300002020303030303030102040810204080A9
:100240000102040810200102040810200000000729
:10025000000201000003040600000000000000008E
:10026000E5010C09291EAF1E1B35DE0111241FBE3E
:10027000CFEFD8E0DEBFCDBF11E0A0E0B1E0EAE70C
:10028000F4E702C005900D92A238B107D9F717E044
:10029000A2E8B1E001C01D92A232B107E1F712E07D
:1002A000CAE6D2E004C02297FE010E942C3AC03672
:1002B000D107C9F70E948E350C94303A0C94000097
:1002C000FB01DC0104C08D910190801921F44150A3
:1002D0005040C8F7881B990B0895FC01819186173F
:1002E00021F08823D9F7992708953197CF010895F0
:1002F000FB01DC014150504048F001900D9200207C
:10030000C9F701C01D9241505040E0F7089508958B
:100310000F931F938130910509F044C06F5F7F4FA9
:1003200009F049C082E891E069E00E94B02380E9C9
:1003300091E062E871E00E94E62383EA91E064E4E0
:100340000E949C2A84EA91E00E94152785EA91E0A8
:1003500069E32FEF3FEF4FEF5FEF0E944F2C8DE7E8
:1003600092E00E94F20788E992E00E94201C86E158
:1003700093E040E052EA63E170E00EE31AE12AEA1A
:1003800030E40E94041D8EE193E066E173E041E1F8
:1003900052E0209175020E94121D81E393E00E94B9
:1003A000F61B09C0892B39F46F5F7F4F21F48DE76D
:1003B00092E00E9405081F910F91089580E090E05F
:1003C0006FEF7FEF0E948801089581E090E06FEF6A
:1003D0007FEF0E9488010895DF93CF93CDB7DEB7FA
:1003E0002E970FB6F894DEBF0FBECDBF0E9417291F
:1003F000288739874A875B876C877D878E87DE01F0
:100400001196FE01389687E001900D928150E1F738
:10041000CE0101960E946728AB01BC0120917502B4
:10042000243660F4E22FF0E0EF5EFD4F872F99272E
:10043000AA27BB2780832F5F209375022091750226
:10044000243668F4E22FF0E0EF5EFD4FCB01BB27CE
:1004500097FDB095AB2F80832F5F2093750220917D
:100460007502243670F4E22FF0E0EF5EFD4FBB27FB
:1004700077FDBA95A72F962F852F80832F5F209326
:10048000750280917502843640F4E82FF0E0EF5E4B
:10049000FD4F40838F5F809375022E960FB6F894C0
:1004A000DEBF0FBECDBFCF91DF9108950E94EC015A
:1004B00040913B0350913C0320917502243660F437
:1004C000E22FF0E0EF5EFD4F852F992787FD9A958B
:1004D00080832F5F2093750280917502843640F4EB
:1004E000E82FF0E0EF5EFD4F40838F5F8093750251
:1004F00040913D0350913E0320917502243660F4F3
:10050000E22FF0E0EF5EFD4F852F992787FD9A954A
:1005100080832F5F2093750280917502843640F4AA
:10052000E82FF0E0EF5EFD4F40838F5F8093750210
:1005300040913F035091400320917502243660F4AE
:10054000E22FF0E0EF5EFD4F852F992787FD9A950A
:1005500080832F5F2093750280917502843640F46A
:10056000E82FF0E0EF5EFD4F40838F5F80937502D0
:10057000409141035091420320917502243660F46A
:10058000E22FF0E0EF5EFD4F852F992787FD9A95CA
:1005900080832F5F2093750280917502843640F42A
:1005A000E82FF0E0EF5EFD4F40838F5F8093750290
:1005B000409143035091440320917502243660F426
:1005C000E22FF0E0EF5EFD4F852F992787FD9A958A
:1005D00080832F5F2093750280917502843640F4EA
:1005E000E82FF0E0EF5EFD4F40838F5F8093750250
:1005F000409145035091460320917502243660F4E2
:10060000E22FF0E0EF5EFD4F852F992787FD9A9549
:1006100080832F5F2093750280917502843640F4A9
:10062000E82FF0E0EF5EFD4F40838F5F809375020F
:10063000409147035091480320917502243660F49D
:10064000E22FF0E0EF5EFD4F852F992787FD9A9509
:1006500080832F5F2093750280917502843640F469
:10066000E82FF0E0EF5EFD4F40838F5F80937502CF
:100670004091490350914A0320917502243660F459
:10068000E22FF0E0EF5EFD4F852F992787FD9A95C9
:1006900080832F5F2093750280917502843640F429
:1006A000E82FF0E0EF5EFD4F40838F5F809375028F
:1006B00040914B0350914C0320917502243660F415
:1006C000E22FF0E0EF5EFD4F852F992787FD9A9589
:1006D00080832F5F2093750280917502843640F4E9
:1006E000E82FF0E0EF5EFD4F40838F5F809375024F
:1006F00090917502943648F4E92FF0E0EF5EFD4FDB
:100700008AE080839F5F909375020895DF93CF9373
:10071000CDB7DEB763970FB6F894DEBF0FBECDBF7F
:10072000CE01019666E173E041E152E0209175024D
:100730000E94121D8B81809320038C818093210362
:100740008D819E8190932303809322038F818093D8
:100750002403A5E2B3E0FE01389688E001900D92F3
:100760008150E1F78889998990932E0380932D0316
:100770008A8980932F038B898093300388E992E0E4
:100780006EE173E00E94B91D88E992E064EF71E0C8
:100790000E943E1E8823A9F088E992E00E94671C0F
:1007A0000E94EE1B8B3899F488E992E00E94671C46
:1007B00061E373E00E94FD1B81E393E00E94F71B5D
:1007C00006C088E992E00E94671C0E94F11B6396B4
:1007D0000FB6F894DEBF0FBECDBFCF91DF91089565
:1007E0004091750281E896E061E172E050E00E947C
:1007F0009D3508950F931F930DE712E04091750208
:10080000C80161E172E050E00E94B608C8010E9490
:1008100054086CE271E080E090E00E9458311F9132
:100820000F91089584E061E00E942432089584E0ED
:1008300060E00E942432089585E061E00E94243245
:1008400068EB7BE080E090E00E945831089585E0FD
:1008500060E00E94243208950F931F935A9A529891
:1008600083B7817F846083BF07E712E0C8010E94DD
:100870006C2A83B7816083BF80E067E871E040E065
:1008800050E00E942130C80162E00E94E32883B753
:10089000816083BF889583B78E7F83BF1F910F913F
:1008A00008950E9427040E9417040E942C040895B2
:1008B00080E00E94443083B78E7F83BF08950E94FA
:1008C00058040E941C040E9412040895EF92FF92A3
:1008D0000F931F93DF93CF93CDB7DEB72E970FB64D
:1008E000F894DEBF0FBECDBF7E010894E11CF11C61
:1008F0008E01085F1F4F04C00E9451040E945804DB
:100900000E941729288739874A875B876C877D87EC
:100910008E87D701F80187E001900D928150E1F7B1
:100920008D816AE00E94E139992331F72E960FB646
:10093000F894DEBF0FBECDBFCF91DF911F910F9115
:10094000FF90EF9008956F927F928F929F92AF9257
:10095000BF92CF92DF92EF92FF920F931F93CF93AC
:10096000DF93EC010E940531662477244301AA2419
:10097000BB2465017E010027F7FC0095102FE60ED1
:10098000F71E081F191F0E9405316E157F0580078D
:100990009107A0F41C161D068CF480E00E94C33160
:1009A000AA2797FDA095BA2F680E791E8A1E9B1E56
:1009B0000894A11CB11CC11CD11CE5CFC401B3011A
:1009C000A60195010E940F3AC901DF91CF911F91B5
:1009D0000F91FF90EF90DF90CF90BF90AF909F90DE
:1009E0008F907F906F90089584E690E00E94A3041A
:1009F00090934803809347030895EF92FF920F93DB
:100A00001F937B018C01CA010197049728F061E0D4
:100A100070E080E090E015C0BA01882777FD8095EE
:100A2000982F0E9417379B01AC0160E070E080E2D4
:100A300091E40E9406389B01AC01CA01B9010E94F1
:100A4000E4360E9417379B01AC01C801B7010E9430
:100A5000A3370E94E436CB011F910F91FF90EF90D6
:100A600008950F931F930BE712E0C8010E94123004
:100A7000C8010E94FC2F80934B0310924C031F91DE
:100A80000F91089583EB91E068EE73E00E94F70602
:100A900042E050E00E94FD0490934A038093490392
:100AA0000895DF93CF93CDB7DEB7A4970FB6F89430
:100AB000DEBF0FBECDBF85EA91E0BE016F5F7F4F05
:100AC0000E94822F6D897E898F89988D0E94E436DD
:100AD0007093460360934503A4960FB6F894DEBF67
:100AE0000FBECDBFCF91DF910895AF92BF92CF924D
:100AF000DF92EF92FF920F931F9394EAC92E91E039
:100B0000D92EC6010E9416277B018C01C6010E94C6
:100B1000BC275B016C0160E070E088EC91E4A80107
:100B200097010E9417362AE939E949E15EEB0E94F4
:100B3000A3379B01AC01C601B5010E94183642E003
:100B400050E00E94FD0490934403809343031F915F
:100B50000F91FF90EF90DF90CF90BF90AF900895EE
:100B60000F931F9300E911E0C8010E94AB25C80153
:100B700060E00E94852642E050E00E94FD049093D0
:100B80003C0380933B03C80161E00E94852642E05C
:100B900050E00E94FD0490933E0380933D0383EA5E
:100BA00091E00E940A2B42E050E00E94FD049093E5
:100BB000400380933F0307E712E0C8010E94572AD1
:100BC000C8010E94F62942E050E00E94FD04909383
:100BD0004203809341031F910F9108950E94B00535
:100BE0000E9475050E9451050E94F4040E9442056E
:100BF0000E94310510927502109276020E945602F0
:100C00000E9486030E94F0030E94FA030E9451048E
:100C10000E9458040E9466040E945F0408950F9386
:100C2000DF93CF93CDB7DEB76B970FB6F894DEBFE7
:100C30000FBECDBF8AE061E00E94E5310CC081E8C3
:100C400096E064E071E00E94033668EE73E080E0B5
:100C500090E00E9458318DE493E06AE04FEF2FEF6F
:100C60000FEF0E94710B882351F3CE0101966DE4C2
:100C700073E04FE251E026E10E944C0A8B819C8197
:100C80009093800280937F028D819E81AF81B88591
:100C90008093810290938202A0938302B093840296
:100CA00089859A85AB85BC85809385029093860261
:100CB000A0938702B0938802A9E8B2E0FE013D96B6
:100CC0008DE001900D928150E1F78A8D9B8D90937C
:100CD000970280939602CE0101960E9405088DE747
:100CE00092E00E944708882339F481E896E06FE09B
:100CF00071E00E940336FFCF6B960FB6F894DEBF0B
:100D00000FBECDBFCF91DF910F91089585E061E0D7
:100D10000E94E5310E941C0488E992E061E876E0D7
:100D20000E94321C089585EA91E00E94A32E089546
:100D300084EA91E00E946228089580E991E00E948F
:100D4000AC2683EA91E060E00E94232C87E792E0E2
:100D50000E947B2A089581E896E040E051EE60E031
:100D600070E026E00E94DD338AEF95E00E94531F79
:100D70000E94860687E792E00E947B2A1092750205
:100D8000109276020E940F060E949D060E9498060D
:100D90000E94930608958EE480937C0062E070E0E8
:100DA00080E090E00E94583180917A0080648093C6
:100DB0007A0080917A0086FDFCCF8091780090E0E7
:100DC000A0E0B0E060917900362F20E0442737FDA5
:100DD0004095542F282B392B4A2B5B2B60E070E376
:100DE00081E190E00E940F3ACA01B90108952F9263
:100DF0003F924F925F926F927F928F929F92AF92AB
:100E0000BF92CF92DF92EF92FF920F931F93CF93F7
:100E1000DF93EC012B010E94CB063B014C01CC245B
:100E2000DD249CE4A92EB12CAC0EBD1E88E4282E36
:100E3000312C2C0E3D1E53C08AA59BA599A788A7CF
:100E40008E890E94C3319BA78AA7E8ACF9AC0AAD92
:100E50001BADECAAFDAA0EAB1FABAA2797FDA09570
:100E6000BA2FBC01CD010E9417379B01AC01C8010C
:100E7000B7010E9418367B018C0168A579A58827E7
:100E800077FD8095982F0E9417379B01AC01C80110
:100E9000B7010E9417362BED39EF4EE75FE30E9452
:100EA000A3379B01AC0168AF79AF8AAF9BAF0E94BB
:100EB000A3379B01AC01F10160837183828393832B
:100EC000F50160817181828193810E941836F5015C
:100ED00060837183828393830894C11CD11CC414E2
:100EE000D5040CF4A9CFB201882777FD8095982FFF
:100EF0000E9417379B01AC01F501608171818281ED
:100F000093810E947C360E9456387B018C01B3018C
:100F1000882777FD8095982F0E94173720E030E0D2
:100F20004AE754E40E947C3620E030E040E85AE38F
:100F30000E94A3372C8D3D8D4E8D5F8D0E94A3376F
:100F4000A80197010E94A337688B798B8A8B9B8BB2
:100F500080E090E0A0E0B0E0F50180839183A2837F
:100F6000B383288939894A895B89B901CA01DF912C
:100F7000CF911F910F91FF90EF90DF90CF90BF9096
:100F8000AF909F908F907F906F905F904F903F9029
:100F90002F9008952CB5382F33702C7F322B3CBD09
:100FA0002DB590E0959587959595879581702E7FC5
:100FB000822B8DBD08958AE061E00E9424328AE090
:100FC00061E00E94E5318CB580618CBD8CB5806498
:100FD0008CBD8DE061E00E94E5318BE061E00E9414
:100FE000E5310895FC011382128288EE93E0A0E0BF
:100FF000B0E084839583A683B7838BE391E09183EC
:101000008083128E118E14860895FC018BE391E08B
:10101000918380830895DF93CF930F92CDB7DEB78E
:10102000FC016983A081B18112962D913C911397A7
:10103000BE016F5F7F4F41E050E0F90109950F90CD
:10104000CF91DF910895DC015996ED91FC915A976B
:10105000309719F420E030E018C02389348945899D
:10106000568982859385A485B585281B390B4A0B43
:101070005B0B2030B0E83B07B0E04B07B0E05B070C
:1010800020F02FEF3FE740E050E0C9010895DC0178
:101090005996ED91FC915A97309711F480E008959C
:1010A0008581811181E00895FC01818D928D0097E9
:1010B00011F00E948F100895DF93CF930F92CDB758
:1010C000DEB7FC01818D928D009749F0BE016F5F04
:1010D0007F4F41E050E00E94B011019719F02FEFCF
:1010E0003FEF03C08981282F30E0C9010F90CF91D5
:1010F000DF910895EF92FF920F931F93DF93CF93A9
:101100000F92CDB7DEB77C01DC0159968D919C9191
:101110005A97009719F400E010E01FC0BE016F5FFE
:101120007F4F41E050E00E94B011019719F00FEF9E
:101130001FEF13C08981082F10E0D7015996ED9158
:10114000FC915A974285538564857585415050407E
:1011500060407040CF010E94C90FC8010F90CF912D
:10116000DF911F910F91FF90EF900895CF93DF9340
:10117000EC01E98DFA8D309761F013821282CF0174
:101180000E94F5139C01E98DFA8D82819381892B50
:1011900031F081E090E09B838A8320E030E0C90158
:1011A000DF91CF910895EF92FF920F931F93CF930A
:1011B000DF93EC01F62EE72E8A011B821A8288EE5D
:1011C00093E0A0E0B0E08C839D83AE83BF838BE38C
:1011D00091E0998388838DE190E00E9478329A8F24
:1011E000898F009791F0DC018F2D9E2D9C01F901D4
:1011F0008DE101900D928150E1F7CE010C96B8017E
:101200004CE050E00E947801188EDF91CF911F9141
:101210000F91FF90EF900895109252031092530394
:10122000109256031092580382E090E0A0E0B0E0E4
:1012300080935A0390935B03A0935C03B0935D0388
:101240001092710310927B0310927A038BE491E069
:10125000909379038093780310927D0308952F92E1
:101260003F924F925F926F927F928F929F92AF9236
:10127000BF92CF92DF92EF92FF920F931F93DF9373
:10128000CF93CDB7DEB7C754D0400FB6F894DEBFCA
:101290000FBECDBF582E492EFB013A01190185A57D
:1012A00096A5998B888B2BE431E03F872E8787A505
:1012B0008A8B80A98B8B81A992A9A3A9B4A98C8BB5
:1012C0009D8BAE8BBF8B85A996A9A7A9B0AD888F42
:1012D000998FAA8FBB8F81AD92ADA3ADB4AD8C8F2A
:1012E0009D8FAE8FBF8F85AD88A3FE968191919122
:1012F000A191B19189A39AA3ABA3BCA38191919130
:10130000A191B1918DA39EA3AFA3B8A78081918134
:101310009AA789A71EA61DA63CA72BA718AA7A01E3
:101320008E01025F1F4F3BE2A32EB12CAC0EBD1EFF
:101330004E010894811C911C35C0D7018C918F32CD
:1013400021F40894E11CF11C2DC0422F4E194D30A0
:1013500008F04CE0C42EDD24C401B701A6010E94B0
:101360007801F401EC0DFD1D1082C5010E94D91019
:10137000C501B801A40121E00E942216882351F47E
:10138000E52DF42D138212828BE491E0918380830A
:10139000158266C0EC0CFD1CC8010E94D910C50165
:1013A00058018C01C7016FE270E00E946D019C0141
:1013B000009719F6E618F708F101F182E082E52DB1
:1013C000F42DD80112968D919C911397938382836B
:1013D0008BE491E09183808314968C91149784839D
:1013E00015968C911597858316962D913D914D916B
:1013F0005C91199726833783408751871A962D91E0
:101400003D914D915C911D97228733874487558785
:101410001E962D913D914D915C915197268737876E
:10142000408B518B52968C915297828B53962D9173
:101430003D914D915C915697238B348B458B568B08
:1014400057962D913D914D915C915A97278B308FF6
:10145000418F528F5B968D919C915C97948F838F77
:10146000852D942DC95BDF4F0FB6F894DEBF0FBEFC
:10147000CDBFCF91DF911F910F91FF90EF90DF9043
:10148000CF90BF90AF909F908F907F906F905F9024
:101490004F903F902F9008959F92AF92BF92CF921E
:1014A000DF92EF92FF920F931F93DF93CF93CDB70D
:1014B000DEB7C657D0400FB6F894DEBF0FBECDBF23
:1014C000C82E992E8A01D22E43E0A42EB12CAC0E48
:1014D000BD1EC501A8019E012F5F3F4F0E942F092D
:1014E000E980FA80E00EF11EF70180814BE451E0C3
:1014F0002885882309F03FC08D819E819BA38AA304
:1015000059A348A38F818CA32DA389859A85AB8588
:10151000BC858EA39FA3A8A7B9A78D859E85AF85FF
:10152000B8898AA79BA7ACA7BDA789899A89AB89E7
:10153000BC898EA79FA7A8ABB9AB8D898AAB8E89D2
:101540009F89A88DB98D8BAB9CABADABBEAB8A8DA3
:101550009B8DAC8DBD8D8FAB98AFA9AFBAAF8E8D83
:101560009F8D9CAF8BAF8C2D992DBE01605E7F4F00
:101570004AE151E09FC0FE01FF96118210825EAFEA
:101580004DAFFE01EE5BFF4F10822223A9F02250E7
:10159000CE01CD96223048F468E773E0A7012D2DE7
:1015A0000E942216882381F407C0B501A7012D2DC2
:1015B0000E942216882329F48C2D992D0E94F2076F
:1015C0007BC0C5010E94D910F6E0DF2259F0FE0170
:1015D000E05BFF4F4081518162817381CE01CD96E6
:1015E0000E94C90F9E01265A3F4FFE01FF9680813F
:1015F0009181F901938382838BE491E091838083CD
:10160000FE01EF5BFF4F8081F9018483FE01EE5BF9
:10161000FF4F8081F9018583FE01ED5BFF4F8081E3
:101620009181A281B381F90186839783A087B187D5
:10163000FE01E95BFF4F80819181A281B381F901B5
:1016400082879387A487B587FE01E55BFF4F808182
:101650009181A281B381F90186879787A08BB18B95
:10166000FE01E15BFF4F8081F901828BFE01E05BAF
:10167000FF4F80819181A281B381F901838B948B8B
:10168000A58BB68BFE01EC5AFF4F80819181A28120
:10169000B381F901878B908FA18FB28FFE01E85A39
:1016A000FF4F80819181F901948F838F8C2D992D2B
:1016B000B901A7010E94D3088C2D992DCA58DF4F7C
:1016C0000FB6F894DEBF0FBECDBFCF91DF911F9153
:1016D0000F91FF90EF90DF90CF90BF90AF909F90D1
:1016E0000895EF920F931F93CF93DF93EC01362F62
:1016F000542F722FE02E61E0432F252F072F0E94D9
:10170000640E8823D1F08E01035F1F4FC801BE0114
:1017100041E00E94C317882339F4C801BE0140E0AC
:101720000E94C317882349F0CE018B96B8010E940E
:101730000F13882319F081E001C080E0DF91CF9181
:101740001F910F91EF900895382F809197038F3F4D
:1017500031F43EBD0DB407FEFDCF8EB50895F8946B
:10176000A0919803B091990350919A03252F209549
:10177000E0919B03F0919C0340919D03642F609541
:1017800090E08C9182238C9337FF03C08081842B5F
:1017900002C08081862380838C91852B8C939F5FF0
:1017A000983011F0330FEDCF000000000000000072
:1017B0008C9128232C9378940895809197038F3FE0
:1017C00031F48EBD0DB407FEFDCF2EB530C0F894B8
:1017D000E0919B03F0919C03808190919D03892B64
:1017E0008083E0919803F091990360919A03A0910E
:1017F0009E03B0919F038091A003482F50E0762F65
:10180000709520E030E08081862B8083220F8C91C0
:1018100090E084239523892B09F021608081872320
:101820008083000000003F5F383069F77894822F92
:1018300008950F931F93CF93DF938B010E9405317F
:10184000EB010E94DD0B8F3F11F481E008C00E9484
:1018500005316C1B7D0B6017710798F380E0DF91F9
:10186000CF911F910F910895FC01673020F086E120
:10187000858380E008956330B9F0643028F46130E6
:1018800069F0623070F407C06530A1F0653078F01F
:101890006630A9F412C084E090E011C080E090E0CE
:1018A0000EC085E090E00BC081E090E008C086E0CB
:1018B00090E005C082E090E002C083E090E00E94EA
:1018C000CA0781E00895FC01848160E00E9424320F
:1018D0000895FC01848161E00E9424320895CF9232
:1018E000DF92EF92FF920F931F93CF93DF937C01D0
:1018F0006A01FC018485882319F40FEF1FEF30C0C3
:1019000000E010E040E050E0212F332727FD3A951A
:10191000F601E40FF51F808190E028273927307009
:10192000C901F4E095958795FA95E1F78227932709
:10193000102F0027082719279C01322F22273295C4
:10194000307F0227132725E0880F991F2A95E1F79A
:10195000082719274F5F5F4FF2E040305F07A1F67D
:10196000862F0E94A40BC0E0D0E0F601EC0FFD1F13
:1019700080810E94A40B219682E0C030D807A9F78D
:10198000812F992787FD9A950E94A40B802F0E9492
:10199000A40B0E94DD0BF70182878F71853011F453
:1019A00081E007C081E1F7018583C7010E94690CCE
:1019B00080E0DF91CF911F910F91FF90EF90DF902A
:1019C000CF9008950F931F93CF93DF93EC010E9464
:1019D00005318B0109C00E940531601B710B6D52EE
:1019E000714010F08FE00AC00E94DD0B8A878F3FA4
:1019F00091F38E3F11F481E006C08DE08D83CE011E
:101A00000E94690C80E0DF91CF911F910F910895A2
:101A1000CF93DF93EC018E81882319F40FC00E94CD
:101A2000DD0B8F819885019698878F83019782506F
:101A30009240A8F3CE010E94690C1E82DF91CF91E3
:101A40000895DF92EF92FF920F931F93CF93DF934E
:101A5000EC01D62E79018A010E94080DCE010E9468
:101A6000630CCE016CE271E00E94190C8D2D806434
:101A70000E94A40B812F9927AA27BB270E94A40BA1
:101A8000C801AA27BB270E94A40BBB27A12F902F18
:101A90008F2D0E94A40B8E2D0E94A40BDD2011F42B
:101AA00085E906C088E0D81611F487E801C08FEFF9
:101AB0000E94A40B10E00E94DD0B8A8787FF02C002
:101AC0001150C9F7DF91CF911F910F91FF90EF90C7
:101AD000DF900895CF92DF92EF92FF920F931F93C2
:101AE000CF93DF93EC017A018B0169014115510518
:101AF0006105710511F482E133C08B85833039F0C3
:101B000039E0EE0CFF1C001F111F3A95D1F7CE01F2
:101B100068E1A80197010E94210D882311F084E05B
:101B20001FC0CE016EEFA6010E946F0C8823C9F082
:101B3000CE0168E572E00E94190C882311F485E15A
:101B40000FC0CE016DE020E030E040E050E00E94A8
:101B5000210D882321F40E94DD0B882379F084E194
:101B60008D83CE010E94690C80E0DF91CF911F919F
:101B70000F91FF90EF90DF90CF900895CE010E94DB
:101B8000690C81E0F2CF6F927F928F929F92AF9219
:101B9000BF92CF92DF92EF92FF920F931F93CF935A
:101BA000DF93EC015A016B01390148010115110560
:101BB00009F46AC0C801820F931F8150924008F057
:101BC0005EC08E81882371F088819981AA81BB8152
:101BD000481759076A077B0729F48F81988568168B
:101BE000790650F5A882B982CA82DB828B85833060
:101BF00039F0E9E0AA0CBB1CCC1CDD1CEA95D1F73E
:101C0000CE0161E1A60195010E94210D882319F002
:101C100083E08D8334C0CE010E94E20C882379F1E9
:101C200018861F8281E08E8307C00E94DD0B8F81A2
:101C30009885019698878F838F819885861597055B
:101C4000A0F300E010E008C00E94DD0BF701E00FF8
:101C5000F11F80830F5F1F4F08151905A8F32F810F
:101C60003885280D391D38872F838985882319F0F9
:101C70002050324048F0CE010E94080D05C0CE0130
:101C80000E94690C80E001C081E0DF91CF911F913B
:101C90000F91FF90EF90DF90CF90BF90AF909F900B
:101CA0008F907F906F900895EF92FF920F931F9304
:101CB000790120E030E000E012E00E94C30D1F91A6
:101CC0000F91FF90EF900895BF92CF92DF92EF9225
:101CD000FF920F931F93CF93DF93EC01B62E1E2D2F
:101CE0001B8619861E821D821C864C832093A103AD
:101CF0000093A203E09297030E9405316B018C814F
:101D000061E00E94E531CE010E94690C1F3F09F499
:101D100062C08091A20360E00E94E5318091A1033E
:101D200061E00E94E5318091970361E00E94E53116
:101D3000E09197032E2F332727FD3095F901EC5DB5
:101D4000FD4FE491F0E0EE0FFF1FE05FFD4F859146
:101D500094919093990380939803285C3D4FF901E7
:101D6000849180939A03E091A1032E2F332727FDBE
:101D70003095F901EC5DFD4FE491F0E0EE0FFF1FAF
:101D8000E05FFD4F8591949190939C0380939B031A
:101D9000285C3D4FF901849180939D03E091A2035B
:101DA0002E2F332727FD3095F901EC5DFD4FE4918F
:101DB000F0E0EE0FFF1FE65EFD4F8591949190934A
:101DC0009F0380939E03285C3D4FF901849180938B
:101DD000A00310E006C00E94DB0783E00E94CA0750
:101DE000F8CF8FEF0E94A40B1F5F1A30D1F7CE01FE
:101DF0000E94630C09C00E9405316C197D09615D68
:101E0000774010F081E05AC0CE0160E020E030E081
:101E100040E050E00E94210D182F8A87813059F749
:101E2000CE0168E02AEA31E040E050E00E94210D56
:101E300082FF02C01B870DC010E00E94DD0B8A8765
:101E40001F5F1430D1F78A3A11F082E037C082E088
:101E50008B878B85823021F0EE24FF2487010FC011
:101E6000E12CF12C012DF0E41F2F09C00E94053157
:101E70006C197D09615D774010F088E01FC0CE01CC
:101E800067E320E030E040E050E00E94210DCE0109
:101E900069E2A80197010E94210D8A87882331F702
:101EA0008B858230F1F4CE016AE320E030E040E03F
:101EB00050E00E94210D882339F086E08D83CE0109
:101EC0000E94690C80E01AC00E94DD0B807C803C7F
:101ED00011F483E08B870E94DD0B0E94DD0B0E94D2
:101EE000DD0BCE010E94690C809197038F3F11F0AA
:101EF00081E004C0CE016B2D0E94340CDF91CF91A4
:101F00001F910F91FF90EF90DF90CF90BF900895B9
:101F1000CF93DF93EC01DB0180E090E020E2FD0154
:101F2000E80FF91F208301968B309105C1F757E028
:101F300040E021C02E3219F08AEE90E007C05A30FE
:101F400019F15AE048E017C03217F1F0FC01019690
:101F500034913323C9F75417B8F02132A8F02F3742
:101F600098F4822F81568A3108F42052FD01E40F43
:101F7000F11D20834F5F29912223E1F690E08C919F
:101F8000803219F091E001C090E0892FDF91CF916C
:101F900008956F927F928F929F92AF92BF92CF924D
:101FA000DF92EF92FF920F931F93CF93DF93EC0199
:101FB0007A018B012D81222309F480C08B899C89B1
:101FC000AD89BE8984179507A607B70708F476C0C0
:101FD00085C0E114F1040105110549F41E821F8238
:101FE000188619861A861B861C861D8665C02A855A
:101FF0003B854C855D85EB8DFC8D858590E0099654
:10200000215030404040504039014A01082E04C060
:1020100096948794779467940A94D2F72F5F3F4FF2
:102020004F4F5F4F0894E108F1080109110957016A
:10203000680104C0D694C794B794A7948A95D2F740
:102040000894E11CF11C011D111DA614B704C8045D
:10205000D90428F0211531054105510549F48F892E
:10206000988DA98DBA8D8E839F83A887B98716C056
:10207000A618B708C808D90811C04E815F816885C5
:1020800079858B8D9C8D94010E94A4190894A108D8
:10209000B108C108D108882331F410C086E0882E29
:1020A000912C8C0E9D1EA114B104C104D10429F7FA
:1020B000EA86FB860C871D8781E001C080E0DF9106
:1020C000CF911F910F91FF90EF90DF90CF90BF9035
:1020D000AF909F908F907F906F900895223009F07D
:1020E00078CFE6CFCF93DF93EC01462F6E857F85C7
:1020F000888999890E948817882319F420E030E0A4
:102100000AC08A89282F30E095E0220F331F9A9564
:10211000E1F72B553C4FC901DF91CF9108950F9303
:102120001F93CF93DF938C01FC0185818823D9F124
:10213000848187FF35C0C80161E00E947210EC0104
:10214000009789F1F8018581823040F48389948970
:10215000A589B6898C8F9D8FAE8FBF8FF801878937
:10216000908D9B8F8A8F8789908DA18DB28DCD01A7
:10217000AA27BB279D8B8C8BE091A303F091A4032E
:10218000309751F0BE016A5E7F4FCE0148960995A7
:10219000888D998D9B8B8A8BF80184818F778483BE
:1021A0000E94291701C080E0DF91CF911F910F910C
:1021B0000895CF93DF93EC010E948F10882311F0D4
:1021C0001D8281E0DF91CF9108956F927F928F926F
:1021D0009F92AF92BF92CF92DF92EF92FF920F93B6
:1021E0001F93DF93CF9300D000D0CDB7DEB77C0133
:1021F0005A016B01DC0115968C911597813009F01D
:102200008FC014968C9181FF8BC09EC00097A10552
:10221000B10511F481E085C0F70162847384848480
:102220009584C701B601A5010E94C90F882309F44E
:1022300077C0D7015B968D919C915C97A114B104F6
:10224000C104D10489F457964D915D916D917C91B3
:102250005A970E94171A882309F462C0F701178A57
:10226000108E118E128E3DC0D70116964D915D9144
:102270006D917C9119979E012F5F3F4F0E94A41989
:10228000882309F44DC0D7015B96ED91FC915C97D2
:1022900049815A816B817C818789803129F088EF5F
:1022A0009FEFAFEFBFE004C088EF9FEFA0E0B0E08A
:1022B000481759076A077B07A0F4CF010E94171A35
:1022C000882371F1F7014681578160857185838D7F
:1022D000948D0FEF1FEF2FEF3FE00E940819882326
:1022E000F9F0D7015396AD92BD92CD92DC925697FC
:1022F00014968C911497806814968C93C7010E9451
:102300008F10882369F0B601A5016A147B048C0440
:102310009D0410F4B401A301C7010E94C90F01C0BC
:1023200080E00F900F900F900F90CF91DF911F9151
:102330000F91FF90EF90DF90CF90BF90AF909F9064
:102340008F907F906F900895F70183899489A58974
:10235000B68984179507A607B70708F057CFE0CFCF
:102360002F923F924F925F926F927F928F929F92A5
:10237000AF92BF92CF92DF92EF92FF920F931F9393
:10238000CF93DF93EC012A018D81882309F4C6C025
:102390008C8180FFC3C0D8C025014E185F084B0157
:1023A00076E0272E312C2C0E3D1E3201B1C02A853D
:1023B0003B854C855D856FEFA62E61E0B62EA2228F
:1023C000B3228D8179018A0199E016950795F794DA
:1023D000E7949A95D1F7EB8DFC8D823049F4428DCC
:1023E000538D648D758D4E0D5F1D601F711F3FC035
:1023F000D480DA94DE20A114B104D9F4DD20C9F42C
:10240000211531054105510549F48F89988DA98D14
:10241000BA8D8E839F83A887B9870BC04E815F8159
:1024200068857985CF0191010E94A419882309F458
:1024300075C0EB8DFC8D4E815F816885798542503A
:10244000504060407040058404C0440F551F661F13
:10245000771F0A94D2F786859785A089B189480F9E
:10246000591F6A1F7B1F4D0D511D611D711D80E09D
:1024700092E08A199B0963018615970508F46C019F
:102480008C8186FD06C080E0C81682E0D80609F07F
:1024900073C08091240190912501A0912601B091F3
:1024A0002701481759076A077B0709F465C080911F
:1024B000A5059091A6059501860174010E94C30DA2
:1024C000882361F18C0C9D1C12C095012B553C4F4B
:1024D000A9014C0D5D1DD401F90102C081918D93BC
:1024E000E417F507D9F7E21BF30B8E0E9F1E96013A
:1024F00040E050E08A859B85AC85BD85820F931FA7
:10250000A41FB51F8A879B87AC87BD876C187D0881
:102510006114710409F04BCFA20102C04FEF5FEFCD
:10252000CA01DF91CF911F910F91FF90EF90DF9043
:10253000CF90BF90AF909F908F907F906F905F9063
:102540004F903F902F900895AB88BC88CD88DE884F
:10255000EA84FB840C851D859A0140E050E0D60199
:10256000C5018E199F09A00BB10B82179307A40711
:10257000B50708F411CF13CFCB01BA0140E00E9498
:102580008817882309F0A1CFC9CFCF92DF92EF92AD
:10259000FF920F931F93DF93CF930F92CDB7DEB7C8
:1025A0006C01FC018581823070F0E284F384048543
:1025B0001585C601BE016F5F7F4F41E050E00E946C
:1025C000B011019769F020E030E0C9010F90CF9180
:1025D000DF911F910F91FF90EF90DF90CF900895C2
:1025E000F60182859385A485B5854F96A11DB11D01
:1025F00082879387A487B587F5E016950795F794AA
:10260000E794FA95D1F78E2D8F70282F30E0E5E012
:10261000220F331FEA95E1F72B553C4FD6CF0F938E
:102620001F93CF93DF93EC018B018D81882309F0F9
:1026300041C0FB0187898031B1F482E08D831F8A1C
:10264000188E198E1A8E808D918DA0E0B0E045E035
:10265000880F991FAA1FBB1F4A95D1F78B8B9C8BA4
:10266000AD8BBE8B15C0803229F583E08D83FB01D5
:10267000428D538D648D758D4F8B588F698F7A8FF6
:102680009E012D5E3F4FC8010E94701A882391F071
:102690001C8F0B8F81E08C831E821F821886198607
:1026A0001A861B861C861D861E861F86188A198A16
:1026B0001A8A01C080E0DF91CF911F910F91089598
:1026C0001F93CF93DF93EC01142FE62FF0E075E01A
:1026D000EE0FFF1F7A95E1F7EB55FC4F8385817173
:1026E00021F0842F827409F054C06A8B80912401F8
:1026F00090912501A0912601B09127018E879F8797
:10270000A88BB98B84899589A0E0B0E0BC015527DE
:102710004427828D938DA0E0B0E0482B592B6A2B83
:102720007B2B4F8B588F698F7A8F838590E08871D0
:102730009070009751F4848D958DA68DB78D8B8BFD
:102740009C8BAD8BBE8B81E00CC0409711F59E0138
:102750002D5E3F4F8B8D9C8D0E94701A8823C9F08F
:1027600084E08D83812F8F708C831E821F82188658
:1027700019861A861B861C861D8616FD02C081E0FE
:1027800009C0CE0140E050E060E070E00E94E5103A
:1027900001C080E0DF91CF911F910895CF93DF9327
:1027A000EC019C012A5F3F4F8B8D9C8D41E050E0F6
:1027B00060E070E00E94DF1A8823A1F08F89988D75
:1027C000A98DBA8D0097A105B10559F48E819F811D
:1027D000A885B9858F8B988FA98FBA8F8C818068D7
:1027E0008C8381E0DF91CF9108952F923F924F9299
:1027F0005F927F928F929F92AF92BF92CF92DF9221
:10280000EF92FF920F931F93DF93CF9300D000D0EE
:1028100000D0CDB7DEB76C01162F072F5E834D8336
:10282000DC0115968C911597813009F070C11496D2
:102830008C9181FF6CC18EC1F601438954896589F1
:10284000768982859385A485B58584179507A60723
:10285000B70731F0C6010E94C90F882309F457C198
:10286000812F902F9C0129012D803E8017C1D60118
:102870005B96ED91FC915C97DA01C90119E0B69580
:10288000A795979587951A95D1F774807A947822B1
:102890007FEF872E71E0972E82229322772009F016
:1028A0004EC08114910409F04AC0D60116964D918C
:1028B0005D916D917C9119974115510561057105E7
:1028C00081F457968D919D910D90BC91A02D00970C
:1028D000A105B10549F1F60186839783A087B187E9
:1028E0002EC0CF019E012F5F3F4F0E94A419882365
:1028F00009F414C129813A814B815C81D6015B9630
:10290000ED91FC915C978789803129F088EF9FEFEA
:10291000AFEFBFE004C088EF9FEFA0E0B0E0281762
:1029200039074A075B0730F0C6010E94CE1388239F
:1029300031F4EDC0F601268337834087518780E06C
:1029400092E08819990951018215930508F45C01F8
:10295000D6015B96ED91FC915C971696ED90FD90FB
:102960000D911C9119978EEF9FEFAFEFBFEFE80E1F
:10297000F91E0A1F1B1F058404C0EE0CFF1C001F5C
:10298000111F0A94D2F786859785A089B189E80E30
:10299000F91E0A1F1B1FE70CF11C011D111D90E001
:1029A000A91692E0B90651F5809124019091250174
:1029B000A0912601B09127018E159F05A007B107B0
:1029C00061F48FEF9FEFAFEFBFEF809324019093FF
:1029D0002501A0932601B09327018091A505909130
:1029E000A605B801A70192010E946A0D882309F487
:1029F0008EC0A0E0B2E04A0E5B1E3EC0811491047E
:102A000009F5F601228533854485558583899489A6
:102A1000A589B689281739074A075B0798F00E94ED
:102A20002917882309F473C0E0922401F09225014C
:102A300000932601109327018091A7058160809360
:102A4000A70508C0C801B70141E00E948817882384
:102A500009F45DC094012B553C4FA9014A0D5B1D43
:102A6000D201F90102C08D918193E417F507D9F7DE
:102A7000E21BF30B4E0E5F1E2A183B08950140E047
:102A800050E0F60182859385A485B585820F931F5A
:102A9000A41FB51F82879387A487B587D6011A968E
:102AA0002D913D914D915C911D972114310409F0B8
:102AB000DECE53968D919D910D90BC91A02D8217E5
:102AC0009307A407B50748F4F601238B348B458B95
:102AD000568B84818068848311C08091A303909178
:102AE000A403892B59F08D819E81892B39F0D60161
:102AF00014968C911497806814968C93F6018481B7
:102B000083FF0EC0C6010E948F10882349F481E024
:102B100090E0D60113969C938E9312971E821D828D
:102B20008D819E8126960FB6F894DEBF0FBECDBF75
:102B3000CF91DF911F910F91FF90EF90DF90CF9099
:102B4000BF90AF909F908F907F905F904F903F90FD
:102B50002F90089582FD70CE83CEDF93CF930F9296
:102B6000CDB7DEB76983BE016F5F7F4F41E050E0B4
:102B70000E94F5130F90CF91DF910895DF92EF92AD
:102B8000FF920F931F93CF93DF93EC010E94CE131C
:102B9000882309F44EC0EB8DFC8DEE80FF80088504
:102BA00019858EEF9FEFAFEFBFEFE80EF91E0A1FFA
:102BB0001B1F058404C0EE0CFF1C001F111F0A948C
:102BC000D2F786859785A089B189E80EF91E0A1F7C
:102BD0001B1FD4800894E108F108010911090BC0FA
:102BE000C801B7016D0D711D811D911D0E946417F3
:102BF0008823F9F0DA94DD2099F7EB8DFC8D20E045
:102C000032E040E050E0058404C0220F331F441F2F
:102C1000551F0A94D2F78B899C89AD89BE89820F92
:102C2000931FA41FB51F8B8B9C8BAD8BBE8B81E03C
:102C300001C080E0DF91CF911F910F91FF90EF9045
:102C4000DF9008956F927F928F929F92AF92BF9282
:102C5000CF92DF92EF92FF920F931F93DF93CF9368
:102C6000CDB7DEB72B970FB6F894DEBF0FBECDBF42
:102C70005C016B01822EDC0115968C91882309F092
:102C8000D2C0CA018E010F5F1F4FB8010E94880F8A
:102C9000882309F4C8C0F601838D948DD5015C9614
:102CA0009C938E935B971682178210861186D601AD
:102CB0001A961D921D921D921C921D9799243801FF
:102CC00041C0C6010E94C512FC01009709F4ABC0C7
:102CD00085E016950795F794E7948A95D1F71E2D10
:102CE0001F708081882311F0853ED1F4992091F4E2
:102CF000D50152961C9352972091240130912501C1
:102D000040912601509127011E962D933D934D939E
:102D10005C9351978081882399F49924939421C0DE
:102D2000C301BF014BE050E00E946001009751F4E5
:102D3000882D8073803309F476C0C501612F6FC080
:102D400099249394F601E284F3840485158583899C
:102D50009489A589B689E816F9060A071B0708F4BD
:102D6000B0CF882D8271823109F05DC0992041F089
:102D7000C50161E00E9472108C01009789F453C074
:102D8000D60115968C91823009F44DC0C6010E947F
:102D9000BE15882309F447C0F501128A05EA13E03D
:102DA00080E2D8011D928A95E9F7D801FE0131969B
:102DB0008BE001900D928150E1F7E091A303F09137
:102DC000A403309739F0B801625F7F4FC801409685
:102DD000099509C081E298E2F801918B808B80E02F
:102DE00098E097878687D80150968D919C9151974E
:102DF00053969C938E93529759969C938E93589783
:102E00001E968D919C911F9757969C938E935697E3
:102E10000E942917882339F0C501F5016289482DE0
:102E20000E94601301C080E02B960FB6F894DEBFBD
:102E30000FBECDBFCF91DF911F910F91FF90EF900B
:102E4000DF90CF90BF90AF909F908F907F906F90CA
:102E500008958091A705882399F14091240150910C
:102E6000250160912601709127018091A50590911F
:102E7000A60525EA33E00E946A0D882319F14091E6
:102E8000A8055091A9056091AA057091AB0541155F
:102E900051056105710591F08091A5059091A605F8
:102EA00025EA33E00E946A0D882361F01092A8059C
:102EB0001092A9051092AA051092AB051092A705D1
:102EC00081E0089580E00895EF92FF920F931F93A1
:102ED0007B018C010E9429178823A9F0E5EAF3E021
:102EE000119285E0E53AF807D9F7E0922401F092D3
:102EF000250100932601109327018091A705816089
:102F00008093A70581E01F910F91FF90EF900895A6
:102F1000DF92EF92FF920F931F937B018C01D42ECF
:102F20008091240190912501A0912601B091270163
:102F30008E159F05A007B107C1F00E9429178823AD
:102F4000D9F08091A5059091A605B801A70125EAC1
:102F500033E00E94540E882379F0E0922401F0922D
:102F6000250100932601109327018091A7058D2943
:102F70008093A70581E001C080E01F910F91FF9031
:102F8000EF90DF9008958F929F92AF92BF92CF9271
:102F9000DF92EF92FF920F931F93CF93DF936C0119
:102FA000142F7093A6056093A505442321F488246B
:102FB0009924540140C0453008F01CC160E070E025
:102FC00080E090E040E00E948817882309F412C155
:102FD000C12FD0E02197FE0174E0EE0FFF1F7A951C
:102FE000E1F7EB55FC4FE254FE4F8081EE5BF14080
:102FF00090E08F779070892B09F0FCC0E653FE4F6C
:1030000080819181A281B38184369105A105B105AA
:1030100008F4F0C064E0CC0FDD1F6A95E1F7C559F4
:10302000DA4F88809980AA80BB8081149104A10422
:10303000B10409F4DFC0C501B40140E00E94881763
:10304000882309F4D7C08091B0039091B1038050D8
:10305000924009F0CFC02091B503222309F4CAC0E1
:103060008091B3039091B403892B09F4C3C080917C
:10307000B203882309F4BEC0F601228B8091B2030B
:103080008483158661E070E007C04F5FF6014587D5
:103090004150483008F0AEC0F6014585848190E08B
:1030A0009B01042E02C0220F331F0A94E2F78217FD
:1030B000930759F72091BB033091BC0321153105CB
:1030C00019F040E050E008C02091C9033091CA03D4
:1030D0004091CB035091CC03F6012583368347837F
:1030E0005087E090B303F090B40300E010E0E80CE8
:1030F000F91C0A1D1B1DE38AF48A058B168B80912F
:10310000B6039091B703918F808F6091B50370E003
:1031100080E090E00E94C2396E0D7F1D801F911FDC
:10312000F601628F738F848F958F2091B603309153
:10313000B70355E0220F331F5A95E1F721503E4F58
:10314000232F3327269540E050E0260F371F481FD6
:10315000591F26873787408B518B8091B8039091F8
:10316000B903009719F0A0E0B0E008C08091C50352
:103170009091C603A091C703B091C8038501740163
:10318000E21AF30A040B150BA8019701280F391F47
:103190004A1F5B1FF601058404C056954795379575
:1031A00027950A94D2F72187328743875487253F92
:1031B000FFE03F07F0E04F07F0E05F0710F48CE01E
:1031C00006C0255F3F4F4040504028F480E1F601A3
:1031D000878B81E010C08091D1039091D203A091A0
:1031E000D303B091D403F601828F938FA48FB58F50
:1031F00080E2EECF80E0DF91CF911F910F91FF90A1
:10320000EF90DF90CF90BF90AF909F908F900895F8
:103210004F925F926F927F928F929F92AF92BF92E6
:10322000CF92DF92EF92FF920F931F93CF93DF9392
:10323000EC016A017B012801390142305105610529
:10324000710508F46FC089859A85AB85BC850196A8
:10325000A11DB11D84179507A607B70708F462C022
:103260002B893C894D895E898F89803129F4992782
:103270008F2D7E2D6D2D09C0C701B60117E09695E3
:103280008795779567951A95D1F74B015C01820E6A
:10329000931EA41EB51E8091240190912501A0913A
:1032A0002601B091270188169906AA06BB0639F0B7
:1032B000C501B40140E00E948817882399F18F89E5
:1032C000803149F4F601F070EE0FFF1FEB55FC4F13
:1032D000518240820DC0F601EF77F070EE0FFF1FB4
:1032E000EE0FFF1FEB55FC4F4082518262827382CA
:1032F0008091A70581608093A7058A89823080F03C
:103300008D819E81AF81B885880E991EAA1EBB1E35
:103310008092A8059092A905A092AA05B092AB054B
:1033200081E001C080E0DF91CF911F910F91FF906C
:10333000EF90DF90CF90BF90AF909F908F907F9055
:103340006F905F904F900895CF92DF92EF92FF922F
:103350000F931F93CF93DF93EC017A018B016901E7
:1033600089859A85AB85BC850196A11DB11D841701
:103370009507A607B70708F450C02B893C894D89EB
:103380005E898F89803129F49927812F702F6F2DC5
:1033900009C0C801B701E7E09695879577956795CD
:1033A000EA95D1F7260F371F481F591F8091240136
:1033B00090912501A0912601B09127012817390786
:1033C0004A075B0739F0CA01B90140E00E9488173B
:1033D000882319F18F89803159F4F701F070EE0FCD
:1033E000FF1FEB55FC4F80819181A0E0B0E00EC043
:1033F000F701EF77F070EE0FFF1FEE0FFF1FEB5599
:10340000FC4F80819181A281B381BF70F6018083DE
:103410009183A283B38381E001C080E0DF91CF91EB
:103420001F910F91FF90EF90DF90CF900895AF9292
:10343000BF92CF92DF92EF92FF920F931F93DF9391
:10344000CF9300D000D0CDB7DEB76C017A018B01ED
:1034500082E090E0A0E0B0E0F60180839183A28357
:10346000B3835E010894A11CB11CC601B801A70179
:1034700095010E94A419882319F1C601B801A7017A
:1034800000E010E020E030E00E9408198823C1F03D
:10349000E980FA800B811C81F6018789803129F04F
:1034A00088EF9FEFAFEFBFE004C088EF9FEFA0E091
:1034B000B0E0E816F9060A071B07B8F281E001C080
:1034C00080E00F900F900F900F90CF91DF911F91A0
:1034D0000F91FF90EF90DF90CF90BF90AF90089545
:1034E0004F925F926F927F928F929F92AF92BF9214
:1034F000CF92DF92EF92FF920F931F93DF93CF93C0
:1035000000D000D0CDB7DEB76C0149835A836B83FE
:103510007C833901EE24FF2487012E010894411C8D
:10352000511C812CA2E09A2EA12CB12C49815A81E8
:103530006B817C81C60192010E94A419882351F1FC
:10354000D501C401F601058404C0880F991FAA1F84
:10355000BB1F0A94D2F7E80EF91E0A1F1B1F298110
:103560003A814B815C818789803129F088EF9FEF18
:10357000AFEFBFE004C088EF9FEFA0E0B0E02817F6
:1035800039074A075B0790F2F301E082F182028378
:10359000138381E00F900F900F900F90CF91DF91E8
:1035A0001F910F91FF90EF90DF90CF90BF90AF9061
:1035B0009F908F907F906F905F904F9008952F9283
:1035C0003F924F925F926F927F928F929F92AF92B3
:1035D000BF92CF92DF92EF92FF920F931F93DF93F0
:1035E000CF93CDB7DEB72F970FB6F894DEBF0FBEDF
:1035F000CDBF1C014A875B876C877D873F872E87FD
:10360000D9010D911D912D913C91011511052105B7
:10361000310549F0480159010894811C911CA11CF5
:10362000B11C198610C0FC0180809180A280B380FB
:1036300019868A859B85AC85BD850197A105B10555
:1036400011F491E09987D10119968D919D910D907A
:10365000BC91A02D0196A11DB11D8D839E83AF83CA
:10366000B887750164014424552432018E010F5F2F
:103670001F4FF10181859285A385B48548165906AF
:103680006A067B0608F090C08D819E81AF81B88567
:103690008C159D05AE05BF0550F482E0882E912C57
:1036A000A12CB12CB2E0CB2ED12CE12CF12CC101FC
:1036B000B701A60198010E94A419882309F474C0D7
:1036C00089819A81AB81BC81A70196012F5F3F4F11
:1036D0004F4F5F4F0097A105B10519F049015A01FD
:1036E0000DC0281939094A095B098A859B85AC8573
:1036F000BD85281739074A075B0759F00894411C14
:10370000511C611C711C0894C11CD11CE11CF11CD2
:10371000B0CFC101A601B7010FEF1FEF2FEF3FE0C0
:103720000E940819882399F43FC0260137010894A4
:103730004108510861087108C101B301A201970154
:1037400086010E940819882379F1730162018C14A3
:103750009D04AE04BF0448F3AE85BF854D915D91D5
:103760006D917C91411551056105710539F0C101DB
:10377000950184010E9408198823B1F0EE85FF8528
:1037800080829182A282B382F985FF2359F0089446
:10379000811C911CA11CB11CD1018D929D92AD92F6
:1037A000BC92139781E001C080E02F960FB6F89489
:1037B000DEBF0FBECDBFCF91DF911F910F91FF9064
:1037C000EF90DF90CF90BF90AF909F908F907F90C1
:1037D0006F905F904F903F902F900895FC018281F1
:1037E0000895FC018085811181E008950895FC0110
:1037F0000190F081E02D84810895FC01DB0180813E
:10380000918111969C938E93828112968C9312973C
:10381000878117968C931797858115968C931597AA
:10382000808518968C931897868116968C93169798
:10383000838113968C931397848114968C930895A7
:10384000FC01128611861486158617821086158251
:103850000E9691838083E458FF4F81E896E0918330
:1038600080830895FC01E458FF4F718360830895BD
:10387000FC01E458FF4FA081B181ED91FC911197BB
:103880000480F581E02DCD01099520E0892B09F018
:1038900021E0822F0895FC01E458FF4FA081B181FF
:1038A000ED91FC9111970680F781E02DCD010995EE
:1038B0000895FC01E458FF4FA081B181ED91FC9186
:1038C00011970284F385E02DCD010995089508959F
:1038D000DF92EF92FF920F931F93CF93DF93EC0150
:1038E0008F81882321F48885882309F477C01A867C
:1038F00019861C861F821A821B821C821D821E82D0
:1039000018866CC0CE010E944B1C982F8B878A852D
:10391000882399F09E3711F483E03BC09D3769F40A
:10392000CE010E94381C882331F0CE010E944B1C2E
:1039300081278B8702C0098759C08985882321F098
:103940008B8581278B8719868A85833020F08C852B
:103950009B85890F8C878A85813061F0813028F0C2
:10396000823061F0833091F40DC08B858E37F1F594
:103970000A873CC08B858B83DA8638C08B858C8325
:10398000EA8634C08B858A83FA8630C08F3618F079
:1039900082E0888731C0282F30E08C8190E0039648
:1039A0002817390781F48C858F3F31F48B858D83FF
:1039B00081E08F83188602C081E088878A858450E1
:1039C0008E831A8619C0E881F981E20FF31F3497BC
:1039D0008B8580838A858F5F8A8708C032E0D32EEB
:1039E00001E023E0E22E94E0F92E10E2CE010E94E5
:1039F000381C882309F086CFDF91CF911F910F915A
:103A0000FF90EF90DF9008950F931F93FC01408388
:103A100051836283738304831583268337831F91C5
:103A20000F910895CF93DF93FC0180E1828381E0C1
:103A3000838355834483268383E591E09183808348
:103A4000EF012796DB0188E00D9009928150E1F7A4
:103A50008EEF9FEF908B8787118A128ADF91CF912B
:103A60000895FC01662311F482850895613011F4F4
:103A700081850895623029F487819085A185B2857A
:103A800012C0633011F487810895643011F4868583
:103A90000895653011F485850895663049F483856D
:103AA0009485A585B685892F9A2FAB2FBB270895BE
:103AB000673011F483850895683011F48089089582
:103AC000693011F4878508956A3011F48189089569
:103AD0006B3011F4828908950480F581E02DE60FA2
:103AE000F11D3C9780810895FC018681845F0895D3
:103AF0000F93DF93CF9300D0CDB7DEB7FC01062F35
:103B0000442321F1862F8D57823020F0613111F04E
:103B10006331E1F4CF0184589F4F9A838983DC019C
:103B2000ED91FC91A081B1812D913C91CF016DE788
:103B3000F9010995A981BA81ED91FC91A081B1812A
:103B400060E260272D913C91CF010BC0E458FF4FFC
:103B50000190F081E02DA081B1812D913C91CF01A8
:103B6000602FF90109950F900F90CF91DF910F9180
:103B70000895CF92DF92FF920F931F93CF93DF931D
:103B80006C01EB016EE740E00E94781DE881F9814D
:103B90000280F381E02DCE010995082FE881F9819B
:103BA0000280F381E02DCE010995F82E10E00E5F22
:103BB0001F4FC601612F41E00E94781D82E0F80E80
:103BC000C6016F2D41E00E94781DC6016A8141E067
:103BD0000E94781DC6016B8141E00E94781DFB8028
:103BE0008A81F80E00E010E018C0E881F9810190A8
:103BF000F081E02DCE01602F0995682FC60141E0CC
:103C00000E94781DE881F9810190F081E02DCE01BC
:103C1000602F0995F80E0F5F1F4FE881F981028030
:103C2000F381E02DCE01099590E008171907ECF219
:103C3000F094C6016F2D41E00E94781DC6010E94DC
:103C4000591CDF91CF911F910F91FF90DF90CF9082
:103C500008951092AC051092AD051092AE05109229
:103C6000AF058FEF9FEFA0E0B0E08093B005909399
:103C7000B105A093B205B093B3050895CF92DF923A
:103C8000EF92FF920F931F93CF93DF93EC016B01A1
:103C900077FD17C00E9405317B018C010BC0CE015E
:103CA0000E94681C8F81882311F081E00BC08885F9
:103CB000882339F40E9405316E197F096C157D0542
:103CC00074F380E0DF91CF911F910F91FF90EF90FF
:103CD000DF90CF90089581E08093F9056093D60539
:103CE0001092F7051092F805089581E08093F90588
:103CF0006093D6051092F7051092F805089520916B
:103D0000D50530E08091D405281B3109C9010895FB
:103D10004091D4058091D505481718F02FEF3FEF5B
:103D20000AC0E42FF0E0EC54FA4F8081282F30E0F5
:103D30004F5F4093D405C9010895E091D405809167
:103D4000D505E81718F0EFEFFFEF06C0F0E0EC54F0
:103D5000FA4F8081E82FF0E0CF0108950895109286
:103D6000FD051092FC0588EE93E0A0E0B0E08093A2
:103D7000FE059093FF05A0930006B09301068BE526
:103D800091E09093FB058093FA050895CF92DF921E
:103D9000EF92FF920F931F93CF93DF937C016B0100
:103DA0008A018091F9058823A1F0C0E0D0E00DC020
:103DB000D701ED91FC91D601AC0FBD1F0190F081B0
:103DC000E02DC7016C9109952196C017D10780F3AA
:103DD00004C0CB01642F0E94FC1FC801DF91CF916A
:103DE0001F910F91FF90EF90DF90CF900895DF9398
:103DF000CF930F92CDB7DEB7FC0169838091F905AF
:103E00008823C9F08091F805803238F081E090E095
:103E10009383828320E030E015C08091F705E82F7E
:103E2000F0E0E952FA4F998190838F5F8093F70514
:103E30008093F80505C0CE01019661E00E94FC1F49
:103E400021E030E0C9010F90CF91DF9108950F93E9
:103E5000062F8091D60567ED75E04091F80521E0C9
:103E60000E94A71F1092F7051092F8051092F9050D
:103E70000F91089561E00E94271F0895413208F0D4
:103E800040E2862F64EB75E00E945E1F1092D4051D
:103E90008093D505089521E00E943E1F089521E0FA
:103EA0000E943E1F08951092D4051092D5051092DD
:103EB000F7051092F8050E94A8210895382F413285
:103EC00010F040E042C0809106068823E1F791E0BF
:103ED00090930606209308068FEF80937306109246
:103EE0002E06415040932F064F5F90930706809116
:103EF0000706330F832B80930706809109068130D4
:103F000041F410920906809107068093BB0085EC6E
:103F100001C085EE8093BC00809106068130E1F3FC
:103F200080912E06841710F440912E0620E030E098
:103F30000AC0FB01E20FF31FD901A25FB94F8C91B8
:103F400080832F5F3F4F2417A0F3842F08950F9392
:103F50001F93582F122F413210F081E04AC08091F8
:103F600006068823E1F782E08093060600930806A0
:103F70008FEF8093730610922E0640932F06AEE0CB
:103F8000B6E0FB0102C081918D938E2F861B8417B2
:103F9000D0F31092070680910706550F852B80936A
:103FA000070680910906813041F41092090680913C
:103FB00007068093BB0085EC01C085EE8093BC00B2
:103FC000112321F0809106068230E1F3809173067F
:103FD0008F3F11F480E00DC080917306803211F4A0
:103FE00082E007C080917306803311F084E001C045
:103FF00083E01F910F910895482F613210F081E006
:10400000089580910606843011F082E0089560934F
:104010005106A0E3B6E0842F9C01F90102C0819112
:104020008D938E2F841B8617D0F380E008951F9206
:104030000F920FB60F9211242F933F934F935F93DC
:104040006F937F938F939F93AF93BF93EF93FF9360
:104050008091B90090E0887F90708036910509F4D6
:10406000F2C081369105CCF58832910509F47BC008
:1040700089329105B4F48031910509F46FC0813122
:1040800091053CF4009709F447C1089709F04FC126
:1040900065C08831910509F466C0809709F047C171
:1040A00082C08034910509F4A4C08134910544F4A0
:1040B0008033910509F482C0C89709F038C189C0DE
:1040C0008035910509F489C08835910509F496C0B9
:1040D0008834910509F02BC1AEC08839910509F4E7
:1040E00013C189399105ECF48837910509F4ABC007
:1040F000893791054CF48836910509F4A4C08037BE
:10410000910509F014C19FC08838910509F4FCC0DD
:104110008039910509F49DC08038910509F007C1E7
:1041200098C0803B910509F4C6C0813B91054CF4D1
:10413000803A910509F49FC0883A910509F0F7C0CB
:10414000BAC0803C910509F4E3C0883C910509F4AC
:10415000DFC0883B910509F0EAC0C2C08091070624
:104160008093BB00CFC090912E0680912F069817A8
:1041700068F490912E06E92FF0E0E25FF94F80811C
:104180008093BB009F5F90932E06BCC08091080671
:10419000882309F44BC085ED8093BC008091BC005E
:1041A00084FDFCCFC2C080E28093730685ED8093CE
:1041B000BC008091BC0084FDFCCFB7C080E380933D
:1041C000730685ED8093BC008091BC0084FDFCCF1C
:1041D000ACC088E3809373069BC080912E069091BB
:1041E000BB00E82FF0E0E25FF94F90838F5F809390
:1041F0002E0690912E0680912F0682C080912E0669
:104200009091BB00E82FF0E0E25FF94F90838F5F61
:1042100080932E0680910806882341F085ED8093D7
:10422000BC008091BC0084FDFCCF7FC081E0809306
:10423000090684EA6EC085ED8093BC008091BC00C5
:1042400084FDFCCF72C083E0809306061092720654
:1042500059C080917206803208F056C08091720673
:104260009091BB00E82FF0E0EE5AF94F90838F5FFA
:104270008093720647C080917206803230F4E091DC
:104280007206F0E0EE5AF94F108285ED8093BC0083
:104290008091BC0084FDFCCF1092060660917206EE
:1042A000E0910C06F0910D0682E596E070E009952C
:1042B000109272062DC084E080930606109250067C
:1042C00010925106E0910A06F0910B060995809133
:1042D0005106882329F481E080935106109230061C
:1042E00090915006E92FF0E0E05DF94F80818093D6
:1042F000BB009F5F909350069091500680915106AD
:10430000981710F485EC01C085E88093BC000FC0BD
:1043100085EC8093BC0009C01092730685ED8093F4
:10432000BC008091BC0084FDFCCF10920606FF917A
:10433000EF91BF91AF919F918F917F916F915F911D
:104340004F913F912F910F900FBE0F901F90189596
:104350001092060681E0809308061092090682E119
:1043600061E00E94243283E161E00E942432E9EBA3
:10437000F0E080818E7F808380818D7F808380E2EA
:104380008093B80085E48093BC000895FC011386F7
:104390001586148687E090E012863197009711F019
:1043A0000197FACF0895DC0180E00BC0E82FF0E020
:1043B0008D9190E0E827F927E650FF4FE491615096
:1043C0008E2F662399F70895DF92EF92FF920F9355
:1043D0001F93FC01E08001811281F894F801818132
:1043E0008E2981838281DE2CD0948D21828383E08B
:1043F00090E00E941331F80181818D2181838AE050
:1044000090E00E941331F8010081789485E390E0F8
:104410000E94133180E010E0FF240E211F21012BA8
:1044200009F081E01F910F91FF90EF90DF900895C8
:10443000EF92FF920F931F93CF93DF937C0101E0E4
:1044400010E0C0E0D0E0C7010E94E4218111102BF0
:10445000000F2196C830D105B1F7812FDF91CF91A0
:104460001F910F91FF90EF9008951F93CF93DF93CB
:10447000FC011081C181D281912F909560FF12C003
:10448000F8948A8189238A838981812B89838AE0B0
:1044900090E00E9413318A81812B8A83789487E38C
:1044A00090E011C0F8948A8189238A838981812BC5
:1044B000898381E490E00E9413318A81812B8A8371
:1044C000789485E090E00E941331DF91CF911F91A5
:1044D0000895CF92DF92EF92FF920F931F93CF93A5
:1044E000DF938C01E42EFF24F394C0E0D0E0C62ECD
:1044F000DD2460E08F2D90E08C219D21892B09F037
:1045000061E0C8010E943522FF0C2196C830D10518
:1045100081F7EE20A9F4F894D8011196ED91FC9161
:10452000129791818C918095982391831196ED91AA
:10453000FC91129792818C91809598239283789424
:10454000DF91CF911F910F91FF90EF90DF90CF906F
:1045500008956CEC40E00E9469220895EF92FF926A
:104560000F931F93CF93DF938C017B0165E540E0B0
:104570000E946922C0E0D0E0F701EC0FFD1FC801E6
:10458000608140E00E9469222196C830D105A1F7E0
:10459000DF91CF911F910F91FF90EF900895DF92DF
:1045A000EF92FF920F931F93CF93DF93FC01008153
:1045B000C181D281F8948981D02ED0948D218983B4
:1045C00078941DE7E02EFF24115059F182E090E02D
:1045D0000E941331888190E08E219F21892BA1F3C5
:1045E000F8948A818D218A838981802B89837894AC
:1045F00080EE91E00E941331F89489818D218983A6
:1046000086E490E00E941331888110E090E0E82277
:10461000F922EF2809F411E078948AE991E00E94E8
:104620001331812FDF91CF911F910F91FF90EF9068
:10463000DF900895AF92BF92DF92EF92FF920F93B7
:104640001F93CF93DF93EC015B018D85882309F0E5
:1046500061C0CE010E94CF22882329F41B861D86CB
:104660001C8690E06BC0CE0160EF40E00E946922A2
:1046700001E0DD24EE24FF24F394CE010E94E42126
:10468000182FCE010E94E421113019F48130E1F499
:1046900039C0181709F58B85081770F460E0FE0122
:1046A000EE0DF11D838190E02F2D30E082239323C6
:1046B000181619064CF003C060E0081729F00930FD
:1046C00008F04CC00C874AC0FE01EE0DF11D83813D
:1046D0008F29838361E009C0612FFE01EE0DF11D7A
:1046E0009F2D9095838189238383CE010E9435225B
:1046F0000F5FFF0C19F4E394FF24F39487E08E1509
:1047000008F0BBCF013430F0DB86DD2011F581E00D
:104710008D871FC01B861D861C8690E0DE0120E071
:1047200030E0F501E20FF31F13968C91139780830D
:104730002F5F3F4F11962830310599F7892FDF9170
:10474000CF911F910F91FF90EF90DF90BF90AF90AE
:1047500008958B818823F1F291E0E0CFD02EBDCF78
:10476000FF920F931F938C01F62E862F60E00E941C
:10477000E5318F2D90E0FC01E85CFD4FE491D8011C
:10478000EC938C5D9D4FFC016491E62FF0E0EE0F01
:10479000FF1FE65EFD4F8591949112969C938E9338
:1047A00011971B961C921B971D961C921D971C9689
:1047B0001C92F80187E090E012863197009711F083
:1047C0000197FACF1F910F91FF900895FC018CEA99
:1047D00094E2928B818B768365831482108289E0C8
:1047E000818381E08283838308956F927F928F9289
:1047F0009F92AF92BF92CF92DF92EF92FF920F9370
:104800001F93CF93DF93FB01EA01998180E0288118
:1048100030E0282B392BE081E23231F0E83221F010
:10482000E03109F084C04BC04C814F3329F1403452
:1048300020F44F3109F07BC02FC04F3579F04F374E
:1048400009F075C0B901882777FD8095982F0E94DF
:10485000173720E030E040E85DE32EC0359527951E
:10486000B901882777FD8095982F0E94173720E09F
:1048700030E040E05EE320C03595279535952795DB
:10488000B901882777FD8095982F0E94173720E07F
:1048900030E040E85EE310C093E0359527959A95A7
:1048A000E1F7B901882777FD8095982F0E94173787
:1048B00020E030E040E05FE30E94A33732C0EF80A9
:1048C00035952795B901882777FD8095982F0E9407
:1048D000173720E030E040E85EE30E9417363B01E6
:1048E0004C016E2D70E02E81621B7109882777FDC7
:1048F0008095982F0E9417375B016C01FF2400E020
:1049000010E0C801B7010E9415379B01AC01C60138
:10491000B5010E947C369B01AC01C401B3010E9429
:1049200018369B01AC01832F942F752F00C0262FC2
:10493000382F492F572FB901CA01DF91CF911F910D
:104940000F91FF90EF90DF90CF90BF90AF909F902E
:104950008F907F906F9008950895EF92FF920F933C
:104960001F938C017B01FC01858196810E94CF22DF
:10497000F80185819681B7010E94AE22F8018581F8
:10498000968164EB40E00E946922F801858196815E
:104990000E94E421F82EF801858196810E94CF22A1
:1049A00080E0FF2009F481E01F910F91FF90EF90CC
:1049B0000895CF92DF92EF92FF920F931F938C0195
:1049C0006B017A01FC01858196810E94CF22F8015A
:1049D00085819681B6010E94AE22F801858196817B
:1049E0006EEB40E00E946922F801858196810E9469
:1049F0001822F7018083F801858196810E94182290
:104A0000F7018183F801858196810E941822F701C0
:104A10008283F801858196810E941822F7018383A1
:104A2000F801858196810E941822F7018483F8019C
:104A3000858196810E941822F7018583F80185817E
:104A400096810E941822F7018683F801858196815C
:104A50000E941822F7018783F801858196810E94C0
:104A60001822F7018087F801858196810E94CF2264
:104A70001F910F91FF90EF90DF90CF900895DF93FB
:104A8000CF93CDB7DEB729970FB6F894DEBF0FBE30
:104A9000CDBFAE014F5F5F4F0E94D9248981811144
:104AA00081E029960FB6F894DEBF0FBECDBFCF913F
:104AB000DF910895CF92DF92EF92FF920F931F93B1
:104AC000CF93DF93EC016B01452BE1F08B818823C1
:104AD000C9F088818823B1F40E9405317B018C01E3
:104AE000CE0160E070E00E943F25882359F40E94C7
:104AF00005316E197F09800B910B6E5E724080400C
:104B0000904070F3F6016081693039F06930A0F0AF
:104B10006A3041F06B3081F40AC06EE570E080E0ED
:104B200090E00EC06CEB70E080E090E009C067E7B9
:104B300071E080E090E004C06EEE72E080E090E012
:104B40000E945831DF91CF911F910F91FF90EF900C
:104B5000DF90CF900895CF93DF93EC018D819E81FC
:104B60000E94CF228D819E810E94A9228D819E81EB
:104B700064E448810E9469228A81882339F0CE0149
:104B80002196BE0140E050E00E945A25DF91CF916E
:104B900008950F931F938A010E94D924C80168E0E9
:104BA0000E94D32120E0F8019085891709F421E0C3
:104BB000822F1F910F910895CF92DF92EF92FF9273
:104BC0000F931F93DF93CF93CDB7DEB729970FB61F
:104BD000F894DEBF0FBECDBF8C017B016E0108943F
:104BE000C11CD11CA6010E94C925882329F460E0BC
:104BF00070E08EEF92EC05C0C801B701A6010E94DB
:104C0000F52329960FB6F894DEBF0FBECDBFCF9126
:104C1000DF911F910F91FF90EF90DF90CF9008955B
:104C2000DF93CF93CDB7DEB729970FB6F894DEBFE9
:104C30000FBECDBF9C01FB0180818031D9F0C9013D
:104C4000AE014F5F5F4F0E94C9258823A9F08D8177
:104C50008F3371F0803418F48F3171F40BC08F35BD
:104C600019F08F3749F402C08BE007C08CE005C013
:104C70008AE003C089E001C080E029960FB6F8946D
:104C8000DEBF0FBECDBFCF91DF9108950F931F936D
:104C90008B01CB0167E00E94D32120E0F8019781CE
:104CA000891709F421E0822F1F910F910895EF9247
:104CB000FF920F931F93CF93DF93EC017B01042F9F
:104CC0008D819E810E94C62110E007C0CE01B701F0
:104CD0000E9446268823A9F00AC08D819E81B701D3
:104CE0000E941A23882329F0101759F4EFCF81E08E
:104CF00001C080E0DF91CF911F910F91FF90EF9065
:104D000008951F5F0117A8F3E8CFEF92FF920F936A
:104D10001F93DF93CF93CDB7DEB728970FB6F894E4
:104D2000DEBF0FBECDBF7C01462F8E010F5F1F4F30
:104D3000B8010E945726C701B8010E94DC252896B9
:104D40000FB6F894DEBF0FBECDBFCF91DF911F919C
:104D50000F91FF90EF900895AF92BF92CF92DF92A4
:104D6000EF92FF920F931F93DF93CF93CDB7DEB7F0
:104D700061970FB6F894DEBF0FBECDBF7C01FC017A
:104D8000858196810E94C621F70114826E010894E4
:104D9000C11CD11C79E0A72EB12CAC0EBD1E01E0C8
:104DA0002BC0C701B6010E944626882329F1F701CE
:104DB0008081882341F4C701B6010E94AD24882375
:104DC00011F0F7010083C701B601A5010E94D924A3
:104DD000F7011181C701B6010E941026811718F44E
:104DE000F701818104C0C701B6010E941026F701B6
:104DF000818384818F5F8483F70185819681B601E9
:104E00000E941A23882369F661960FB6F894DEBFD4
:104E10000FBECDBFCF91DF911F910F91FF90EF900B
:104E2000DF90CF90BF90AF9008950895EF92FF92DA
:104E30000F931F938AEF95E060E470E00E94751E67
:104E40008AEF95E063EF0E94F71E8AEF95E00E94DB
:104E50003A1F67E370E080E090E00E9458318AEFEB
:104E600095E060E470E043E050E00E944B1F00E0FA
:104E700010E00EC00F5F1F4F61E070E080E090E037
:104E80000E945831093C110519F4E0E070E84DC06A
:104E90008AEF95E00E947F1E039764F38AEF95E006
:104EA0000E94881E082F8AEF95E00E94881E182F06
:104EB0008AEF95E00E94881E302F20E0612F70E07D
:104EC000622B732B9B0140E050E0542F432F322F75
:104ED000222790E0A0E0B0E0282B392B4A2B5B2B57
:104EE000E12CB0E8FB2EB8E90B2F112DE7E1F0E043
:104EF000DA01C9010E2E04C0B695A795979587953E
:104F00000A94D2F780FF04C02E253F254027512761
:104F10003197E730F10529F016950795F794E79456
:104F2000E7CF222329F0E0E070EC89E764E419C0C0
:104F30006C7F80E090E00E94153720E030E040E890
:104F400057E30E94A33722E538EB4FE253E40E9477
:104F5000A33726E636E64BE352E40E941736E62FE7
:104F6000692F2E2F372F482F562FB901CA011F91B5
:104F70000F91FF90EF900895EF92FF920F931F9380
:104F80008AEF95E060E470E00E94751E8AEF95E07C
:104F900065EF0E94F71E8AEF95E00E943A1F67E3D3
:104FA00070E080E090E00E9458318AEF95E060E484
:104FB00070E043E050E00E944B1F00E010E00EC0A4
:104FC0000F5F1F4F61E070E080E090E00E94583179
:104FD000093C110519F4E0E070E84DC08AEF95E056
:104FE0000E947F1E039764F38AEF95E00E94881E5B
:104FF000082F8AEF95E00E94881E182F8AEF95E00F
:105000000E94881E302F20E0612F70E0622B732BEE
:105010009B0140E050E0542F432F322F222790E095
:10502000A0E0B0E0282B392B4A2B5B2BE12C90E839
:10503000F92E98E9092F112DE7E1F0E0DA01C90115
:105040000E2E04C0B695A795979587950A94D2F72A
:1050500080FF04C02E253F25402751273197E73098
:10506000F10529F016950795F794E794E7CF2223E9
:1050700029F0E0E070EC89E764E419C06C7F80E01F
:1050800090E00E94153720E030E040E857E30E94AE
:10509000A33720E030E04AEF52E40E94A33720E03B
:1050A00030E040EC50E40E941736E62F692F2E2F97
:1050B000372F482F562FB901CA011F910F91FF902A
:1050C000EF9008958AEF95E00E94531F0895CF93C3
:1050D000DF93EC018881282F30E069818A81482F95
:1050E00050E0EAEFF1E091E005C08491480F511DD6
:1050F0009F5F31969617C8F3633038F0C90183700B
:105100009070892B11F44F5F5F4F8DE691E0289FDF
:10511000B001299F700D389F700D112461507040AF
:105120002D5F3F4F3695279536952795620F731F54
:10513000640F751F80E090E028E130E040E050E02F
:105140000E94C2392B81620F711D811D911D2CE3BC
:1051500030E040E050E00E94C2392C81620F711DA6
:10516000811D911D2CE330E040E050E00E94C239E7
:105170009B01AC018D81280F311D411D511DB901CD
:10518000CA01DF91CF910895EF92FF920F931F9381
:10519000162F042F2AEFE22E25E0F22EC70168E633
:1051A00070E00E94751EC701612F0E94F71EC701A3
:1051B000602F0E94F71EC7010E943A1F1F910F9196
:1051C000FF90EF9008951F93CF93DF93EC01162F7C
:1051D0006EE04DE10E94C428123041F0133079F0A6
:1051E000113009F5CE0167E040E803C0CE0167E069
:1051F00040E00E94C428CE0168E040E808C0CE012B
:1052000067E040E00E94C428CE0168E040E00E94D0
:10521000C428CE0169E040E80E94C428CE016AE0BB
:1052200040E80E94C428DF91CF911F910895AF926A
:10523000BF92CF92DF92EF92FF920F931F93DF9373
:10524000CF93CDB7DEB727970FB6F894DEBF0FBE6A
:10525000CDBF0AEF15E0C80168E670E00E94751E38
:10526000C80160E00E94F71EC8010E943A1FC801F1
:1052700068E670E048E050E00E944B1FC8010E94C1
:10528000881EB82EC8010E94881EC82EC8010E9420
:10529000881E9FE3D92ED822C8010E94881EA82EFE
:1052A000C8010E94881EE82EC8010E94881EF82EA0
:1052B000C8010E94881E282F30E0B4E0359527955C
:1052C000BA95E1F74AEF5FEFB901649F9001659FDE
:1052D000300D749F300D1124820F90E02B2D30E0A3
:1052E000A4E035952795AA95E1F7B901649F90014F
:1052F000659F300D749F300D1124B20E2C2D30E0BF
:10530000F4E035952795FA95E1F7B901649F90018E
:10531000659F300D749F300D1124C20E2D2D30E08D
:10532000E4E035952795EA95E1F7B901649F90018E
:10533000659F300D749F300D1124D20E2E2D30E05C
:1053400074E0359527957A95E1F7B901649F90014E
:10535000659F300D749F300D1124E20E2F2D30E02B
:1053600064E0359527956A95E1F7B901649F90014E
:10537000659F300D749F300D1124F20E282F3F2DA4
:105380004E2D5D2D6C2D7B2D8A2D27960FB6F89412
:10539000DEBF0FBECDBFCF91DF911F910F91FF9068
:1053A000EF90DF90CF90BF90AF900895FF920F9352
:1053B0001F93F62E0AEF15E0C80168E670E00E9420
:1053C000751EC8016F2D0E94F71EC8010E943A1F6A
:1053D000C80168E670E041E050E00E944B1FC80140
:1053E0000E94881E1F910F91FF900895EF92FF92E7
:1053F0000F931F93CF93DF938C0161E10E94D62915
:10540000E82EC80162E10E94D629C82FD0E0E7FE4D
:1054100025C0E1946E2D70E0882777FD8095982F48
:105420000E9417377B018C0136E0D595C7953A95D8
:10543000E1F7BE01882777FD8095982F0E941737E6
:1054400020E030E040E85EE30E94A3379B01AC011E
:10545000C801B7010E941836905822C06E2D70E026
:10546000882777FD8095982F0E9417377B018C0144
:1054700026E0D595C7952A95E1F7BE01882777FDE7
:105480008095982F0E94173720E030E040E85EE3D7
:105490000E94A3379B01AC01C801B7010E941836D6
:1054A000DF91CF911F910F91FF90EF900895CF93CF
:1054B000DF93EC016EE00E94D629482F4062CE01B6
:1054C0006EE00E94C428CE016EE00E94D62985FDC0
:1054D000FACFDF91CF9108950F931F938C016FE066
:1054E0000E94D629482F4E7FC8016FE00E94C42831
:1054F0001F910F9108950F931F938C016EE04CE163
:105500000E94C4286AE070E080E090E00E94583178
:10551000C80162E00E94D629482F4F7BC80162E093
:105520000E94C4286AE070E080E090E00E94583158
:1055300081E01F910F910895FC0160830895DF922F
:10554000EF92FF920F931F93FC01F62ED42EE52EBF
:105550000AEF15E0C80160810E946B1EC8016F2D23
:105560000E94F71EC8016E2D0E94F71EC8016D2D06
:105570000E94F71EC8010E943A1F1F910F91FF90D1
:10558000EF90DF900895CF92DF92EF92FF920F930A
:105590001F938C01D62E8AEFE82E85E0F82EC701E6
:1055A000F80160810E946B1EC7016D2D0E94F71EDD
:1055B000C7010E943A1FC701F80160810E946B1E5B
:1055C000C701F801608142E00E944F1FC7010E949D
:1055D000881E182F00E0C7010E94881E6C01C701B9
:1055E0000E943A1F0C291D29C8011F910F91FF909D
:1055F000EF90DF90CF90089560E00E94C32A089555
:1056000061E00E94C32A9C01359527953595279521
:10561000C90108952F923F924F925F926F927F92AD
:105620008F929F92AF92BF92CF92DF92EF92FF92B2
:105630000F931F93DF93CF9300D000D0CDB7DEB789
:105640008C010E94002BAA2797FDA095BA2FBC01C0
:10565000CD010E9417376B017C01C8010E94FC2A12
:10566000AA2797FDA095BA2FBC01CD010E9417373C
:1056700020E030E44CE153E40E94A33720E030E026
:105680004AE754E40E947C3620E030E04AE754E4E4
:105690000E947C361B012C01C701B60120E030E0DE
:1056A00040E05DE30E94A33723E333E948E853E495
:1056B0000E9418363B014C0123E333E145E953E4F2
:1056C0000E9417367B018C0122E430E645EE5AE356
:1056D0000E94A33720E030E040E85FE30E941836E4
:1056E0005B016C01C801B70127EC32EC4CE857EBC9
:1056F0000E94A337A80197010E94A3379B01AC0128
:10570000C601B5010E9418362DEC3CEC4CEC50E47F
:105710000E94A33720E836E948E15BE40E947C362A
:1057200069837A838B839C83C201B10120E030E0DE
:105730004AE754E40E947C361B012C01C801B701E2
:105740002AE132E049E155EB0E94A33725E030EA37
:1057500046EF57E30E9417365B016C01C801B701A1
:1057600029EE35E14FE951E30E94A337A8019701E3
:105770000E94A3379B01AC01C601B5010E941836F7
:105780009B01AC01C201B1010E9417367B018C0163
:10579000C401B301A40193010E94A337A4019301A2
:1057A0000E94A337A40193010E94A3375B016C01FF
:1057B000C801B70126E636E646E551E40E94A33764
:1057C000A80197010E94A3379B01AC01C801B70152
:1057D0000E9418367B018C0169817A818B819C81C2
:1057E00020E836E948E15BE40E947C369B01AC018D
:1057F000C801B7010E947C369B01AC01C601B5010E
:105800000E9418360E9456380E94563823E333E926
:1058100048E853E40E9417360F900F900F900F90B6
:10582000CF91DF911F910F91FF90EF90DF90CF907C
:10583000BF90AF909F908F907F906F905F904F90B0
:105840003F902F900895EF92FF920F931F938C013A
:10585000E62E8AEF95E00E94531F4E2D50E05167CF
:10586000C80162E00E949F2AC8016EEF0E94C32A0D
:105870007C01C8016FEF0E94C32A29E4E21624E5E7
:10588000F20611F020E005C020E08736910509F40A
:1058900021E0822F1F910F91FF90EF900895FC015E
:1058A0008BE691E091838083638314821582178253
:1058B000168211861086228733874487558708957C
:1058C000FC01658308956F927F928F929F92AF92B1
:1058D000BF92CF92DF92EF92FF920F931F93CF93DD
:1058E000DF93FC01EA01468157814115510531F0F2
:1058F0004130510531F488E890E905C084E293E134
:1059000002C088EE9DEF8617970708F4DEC08C175B
:105910009D0708F4DAC04115510551F04130510599
:1059200071F417EEE12E1FE0F12E012D112D0CC0A8
:10593000B7E1EB2EB5E7FB2E012D112D05C0E12CB3
:10594000A4E0FA2E012D112D80859185892B39F443
:10595000E4E0EE0CFF1C001F111FEA95D1F79B013C
:1059600040E050E0C801B7010E94C2395B016C0100
:105970005AE0D694C794B794A7945A95D1F79E014C
:1059800040E050E0C801B7010E94C2393B014C0120
:105990004AE096948794779467944A95D1F7A11436
:1059A000B104C104D10429F480E090E0A0E0B0E0AB
:1059B0000FC0C401B3013AE0660F771F881F991F1B
:1059C0003A95D1F7A60195010E94ED39C901DA0196
:1059D0000196A11DB11DB695A79597958795813420
:1059E0009105A105B10528F462EF71E0CEEBD1E09D
:1059F00049C081389105A105B10528F464E172E040
:105A0000C1EDD2E03FC0813C9105A105B10528F46C
:105A10006FE372E0CBE7D3E035C0813021E092073D
:105A200020E0A20720E0B20728F460E772E0CEEFA2
:105A3000D3E028C0893321E0920720E0A20720E0CC
:105A4000B20728F46FE671E0CCEFD1E01BC08B39D0
:105A500021E0920720E0A20720E0B20728F462EDDF
:105A600070E0CBEFD0E00EC08B599240A040B04028
:105A700028F060E070E0C0E0D0E004C068E170E0D1
:105A8000C2E1D0E080E090E0A60195010E94C23919
:105A90007B018C0180E090E2A0E0B0E0E80EF91E0E
:105AA0000A1F1B1FBE0180E090E0A40193010E9429
:105AB000C239E61AF70A080B190B8EE016950795FE
:105AC000F794E7948A95D1F703C0EE24FF24870169
:105AD000B701C801DF91CF911F910F91FF90EF9017
