:100000000C9436010C94F72F0C9424300C945E0160
:100010000C945E010C945E010C945E010C945E01E4
:100020000C945E010C945E010C945E010C945E01D4
:100030000C945E010C945E010C945E010C945E01C4
:100040000C9451300C945E010C94D8340C945B35B4
:100050000C945E010C945E010C945E010C945E01A4
:100060000C94D91F0C945E0107634236B79BD8A746
:100070001A39685618AEBAAB558C1D3CB7CC5763CD
:10008000BD6DEDFD753EF6177231BF000000803F7B
:1000900008000000BE922449123EABAAAA2ABECD97
:1000A000CCCC4C3E00000080BEABAAAAAA3E000009
:1000B0000000BF000000803F000000000008417801
:1000C000D3BB4387D1133D190E3CC3BD4282AD2B38
:1000D0003E68EC8276BED98FE1A93E4C80EFFFBE30
:1000E00001C4FF7F3F00000000007C3C3E5E2B3DD2
:1000F0003F2F5B5D3B2C2A225C00005EBCE2613F2F
:10010000DD83C29C7E20A3FD1F419DC3217FFCA2F5
:10011000401E5F01E3BD3E6082DC237D9FC1421C27
:10012000FEA0E1BF5D0380DE3C62BEE0025CDF81D9
:10013000633D7C22C09E1D43A1FF4618FAA4277987
:100140009BC584DA3866E5BB5907DB856739BAE4B5
:1001500006581947A5FB7826C49A653BD987045AE7
:10016000B8E6A7F91B45C6987A24F8A6441A99C799
:10017000257B3A6486D85B05E7B98CD2306EEDB347
:10018000510F4E10F2AC2F7193CD114FADF3702E75
:10019000CC92D38D6F31B2EC0E50AFF1134DCE90A7
:1001A000722C6D33D18F0C52B0EE326C8ED0530D59
:1001B000EFB1F0AE4C1291CF2D73CA947628ABF507
:1001C00017490856B4EA6937D58B5709EBB5366835
:1001D0008AD495CB2977F4AA4816E9B7550B88D667
:1001E000346A2B7597C94A14F6A8742AC896154B19
:1001F000A9F7B6E80A54D7896B351F1C1F1E1F1EAE
:100200001F1F1E1F1E1F00000000240027002A00C1
:1002100000000000250028002B0000000000230043
:100220002600290004040404040404040202020257
:1002300002020303030303030102040810204080A9
:100240000102040810200102040810200000000729
:10025000000201000003040600000000000000008E
:10026000EC01CE08EB1D711E0E35E50111241FBEF9
:10027000CFEFD8E0DEBFCDBF11E0A0E0B1E0EEE40B
:10028000F4E702C005900D92AC38B107D9F717E03A
:10029000ACE8B1E001C01D92AA33B107E1F712E06A
:1002A000CAE6D2E004C02297FE010E94163AC03688
:1002B000D107C9F70E9481350C941A3A0C940000BA
:1002C000FB01DC0104C08D910190801921F44150A3
:1002D0005040C8F7881B990B0895FC01819186173F
:1002E00021F08823D9F7992708953197CF010895F0
:1002F000FB01DC014150504048F001900D9200207C
:10030000C9F701C01D9241505040E0F7089508958B
:100310000F931F938130910509F04BC06F5F7F4FA2
:1003200009F050C08CE891E069E00E9472238AE9EC
:1003300091E06CE871E00E94A8238DEA91E064E40A
:100340000E943C2A8EEA91E063E046E123E00E94AD
:10035000DD268CEB91E00E94D7268DEB91E069E3DE
:100360002FEF3FEF4FEF5FEF0E94EF2B85E992E019
:100370000E94B40780EB92E00E94E21B8EE293E0C1
:1003800040E052EA63E170E00EE31AE12AEA30E469
:100390000E94C61C86E393E06EE273E049E252E0FD
:1003A00020918D020E94D41C89E493E00E94B81B26
:1003B00009C0892B39F46F5F7F4F21F485E992E002
:1003C0000E94C7071F910F91089580E090E06FEFA2
:1003D0007FEF0E948801089581E090E06FEF7FEF4A
:1003E0000E9488010895DF93CF93CDB7DEB72E9793
:1003F0000FB6F894DEBF0FBECDBF0E94B728288786
:1004000039874A875B876C877D878E87DE011196E7
:10041000FE01389687E001900D928150E1F7CE0100
:1004200001960E940728AB01BC0120918D02243661
:1004300060F4E22FF0E0E75DFD4F872F9927AA27B0
:10044000BB2780832F5F20938D0220918D0224365D
:1004500068F4E22FF0E0E75DFD4FCB01BB2797FD8D
:10046000B095AB2F80832F5F20938D0220918D025A
:10047000243670F4E22FF0E0E75DFD4FBB2777FDF7
:10048000BA95A72F962F852F80832F5F20938D02FB
:1004900080918D02843640F4E82FF0E0E75DFD4F57
:1004A00040838F5F80938D022E960FB6F894DEBF47
:1004B0000FBECDBFCF91DF9108950E94F30140910F
:1004C00053035091540320918D02243660F4E22F9F
:1004D000F0E0E75DFD4F852F992787FD9A95808392
:1004E0002F5F20938D0280918D02843640F4E82F97
:1004F000F0E0E75DFD4F40838F5F80938D02409178
:1005000055035091560320918D02243660F4E22F5A
:10051000F0E0E75DFD4F852F992787FD9A95808351
:100520002F5F20938D0280918D02843640F4E82F56
:10053000F0E0E75DFD4F40838F5F80938D02409137
:1005400057035091580320918D02243660F4E22F16
:10055000F0E0E75DFD4F852F992787FD9A95808311
:100560002F5F20938D0280918D02843640F4E82F16
:10057000F0E0E75DFD4F40838F5F80938D024091F7
:10058000590350915A0320918D02243660F4E22FD2
:10059000F0E0E75DFD4F852F992787FD9A958083D1
:1005A0002F5F20938D0280918D02843640F4E82FD6
:1005B000F0E0E75DFD4F40838F5F80938D024091B7
:1005C0005B0350915C0320918D02243660F4E22F8E
:1005D000F0E0E75DFD4F852F992787FD9A95808391
:1005E0002F5F20938D0280918D02843640F4E82F96
:1005F000F0E0E75DFD4F40838F5F80938D02409177
:100600005D0350915E0320918D02243660F4E22F49
:10061000F0E0E75DFD4F852F992787FD9A95808350
:100620002F5F20938D0280918D02843640F4E82F55
:10063000F0E0E75DFD4F40838F5F80938D02409136
:100640005F035091600320918D02243660F4E22F05
:10065000F0E0E75DFD4F852F992787FD9A95808310
:100660002F5F20938D0280918D02843640F4E82F15
:10067000F0E0E75DFD4F40838F5F80938D024091F6
:1006800061035091620320918D02243660F4E22FC1
:10069000F0E0E75DFD4F852F992787FD9A958083D0
:1006A0002F5F20938D0280918D02843640F4E82FD5
:1006B000F0E0E75DFD4F40838F5F80938D02909166
:1006C000630380918D02843640F4E82FF0E0E75D0B
:1006D000FD4F90838F5F80938D0290918D029436B1
:1006E00048F4E92FF0E0E75DFD4F8AE080839F5FEB
:1006F00090938D020895DF93CF93CDB7DEB76397C4
:100700000FB6F894DEBF0FBECDBFCE0101966EE2EC
:1007100073E049E252E020918D020E94D41C8B814B
:10072000809338038C81809339038D819E819093CF
:100730003B0380933A038F8180933C03ADE3B3E0A6
:10074000FE01389688E001900D928150E1F788898A
:10075000998990934603809345038A898093470340
:100760008B898093480380EB92E066E373E00E94FC
:100770007B1D80EB92E064EF71E00E94001E8823F5
:10078000A9F080EB92E00E94291C0E94B01B8B38DC
:1007900099F480EB92E00E94291C69E473E00E94C6
:1007A000BF1B89E493E00E94B91B06C080EB92E076
:1007B0000E94291C0E94B31B63960FB6F894DEBFFB
:1007C0000FBECDBFCF91DF9108950F931F9305E921
:1007D00012E040918D02C80169E272E050E00E948F
:1007E0007808C8010E9416086CE271E080E090E091
:1007F0000E94F8301F910F91089584E061E00E94FB
:10080000C431089584E060E00E94C431089585E019
:1008100061E00E94C43160ED77E080E090E00E94EA
:10082000F830089585E060E00E94C43108950F9388
:100830001F935A9A529883B7817F846083BF0FE8D1
:1008400012E0C8010E940C2A83B7816083BF80E058
:1008500067E871E040E050E00E94C12FC80162E00B
:100860000E94832883B7816083BF889583B78E7F7A
:1008700083BF1F910F9108950E9412040E940204E9
:100880000E941704089580E00E94E42F83B78E7FB2
:1008900083BF08950E9443040E9407040E94FD0341
:1008A0000895EF92FF920F931F93DF93CF93CDB7ED
:1008B000DEB72E970FB6F894DEBF0FBECDBF0E94F5
:1008C00043047E010894E11CF11C8E01085F1F4F58
:1008D00004C00E943C040E9443040E94B728288759
:1008E00039874A875B876C877D878E87D701F801B8
:1008F00087E001900D928150E1F78D8180FDE9CF75
:100900002E960FB6F894DEBF0FBECDBFCF91DF910C
:100910001F910F91FF90EF9008956F927F928F92A9
:100920009F92AF92BF92CF92DF92EF92FF920F937E
:100930001F93CF93DF93EC010E94A53066247724A8
:100940004301AA24BB2465017E010027F7FC009522
:10095000102FE60EF71E081F191F0E94A5306E15F6
:100960007F0580079107A0F41C161D068CF480E01B
:100970000E946331AA2797FDA095BA2F680E791EB1
:100980008A1E9B1E0894A11CB11CC11CD11CE5CF62
:10099000C401B301A60195010E94F939C901DF9193
:1009A000CF911F910F91FF90EF90DF90CF90BF906C
:1009B000AF909F908F907F906F90089584E690E025
:1009C0000E948D049093600380935F030895EF92DB
:1009D000FF920F931F937B018C01CA01019704972B
:1009E00028F061E070E080E090E015C0BA0188274F
:1009F00077FD8095982F0E940D379B01AC0160E038
:100A000070E080E291E40E94FC379B01AC01CA01D6
:100A1000B9010E94DA360E940D379B01AC01C80172
:100A2000B7010E9499370E94DA36CB011F910F91CE
:100A3000FF90EF9008950F931F9303E912E0C80110
:100A40000E94B22FC8010E949C2F809363031092D2
:100A500064031F910F9108958BEC91E068EE73E0B1
:100A60000E94B90642E050E00E94E70490936203BE
:100A7000809361030895DF93CF93CDB7DEB7A4973A
:100A80000FB6F894DEBF0FBECDBF8DEB91E0BE0177
:100A90006F5F7F4F0E94222F6D897E898F89988D8D
:100AA0000E94DA3670935E0360935D03A4960FB6DE
:100AB000F894DEBF0FBECDBFCF91DF9108958EEACF
:100AC00091E00E94B02742E050E00E94E70490933A
:100AD0005C0380935B0308950F931F930AE911E071
:100AE000C8010E946D25C80160E00E94472642E0CF
:100AF00050E00E94E7049093540380935303C8018D
:100B000061E00E94472642E050E00E94E704909393
:100B10005603809355038DEA91E00E94AA2A42E091
:100B200050E00E94E70490935803809357030FE826
:100B300012E0C8010E94F729C8010E94962942E0EC
:100B400050E00E94E70490935A03809359031F9149
:100B50000F9108950E945F050E946C050E943B055D
:100B60000E94DE040E942C050E941B0510928D023B
:100B700010928E020E945D020E947B030E94E50398
:100B800060ED77E080E090E00E94F8300E943C0445
:100B90000E9451040E944A0408950F93DF93CF935B
:100BA000CDB7DEB76B970FB6F894DEBF0FBECDBFE3
:100BB0008AE061E00E9485310CC089E996E064E03A
:100BC00071E00E94F93568EE73E080E090E00E94E9
:100BD000F83085E693E06AE04FEF2FEF0FEF0E94C9
:100BE000330B882351F3CE01019665E673E049E3A8
:100BF00051E026E10E940E0A8B819C81909398021D
:100C0000809397028D819E81AF81B88580939902F0
:100C100090939A02A0939B02B0939C0289859A8537
:100C2000AB85BC8580939D0290939E02A0939F020A
:100C3000B093A002A1EAB2E0FE013D968DE00190E2
:100C40000D928150E1F78A8D9B8D9093AF02809336
:100C5000AE02CE0101960E94C70785E992E00E948C
:100C60000908882339F489E996E06FE071E00E9471
:100C7000F935FFCF6B960FB6F894DEBF0FBECDBF30
:100C8000CF91DF910F91089585E061E00E94853159
:100C90000E94070480EB92E069E976E00E94F41B71
:100CA00008958DEB91E00E94432E08958CEB91E026
:100CB0000E94D8268EEA91E00E94E42608958AE9EF
:100CC00091E00E946E268DEA91E060E00E94C32BC5
:100CD0008FE892E00E941B2A089589E996E040E09F
:100CE00051EE60E070E026E00E94D03382E196E0B1
:100CF0000E94151F0E9444068FE892E00E941B2A62
:100D000010928D0210928E020E94CD050E9456060E
:100D10000E945F060E94510608958EE480937C0035
:100D200062E070E080E090E00E94F83080917A000C
:100D3000806480937A0080917A0086FDFCCF809158
:100D4000780090E0A0E0B0E060917900362F20E0DC
:100D5000442737FD4095542F282B392B4A2B5B2BEA
:100D600060E070E381E190E00E94F939CA01B901C5
:100D700008952F923F924F925F926F927F928F923F
:100D80009F92AF92BF92CF92DF92EF92FF920F931A
:100D90001F93CF93DF93EC012B010E948D063B0143
:100DA0004C01CC24DD249CE4A92EB12CAC0EBD1E3C
:100DB00088E4282E312C2C0E3D1E53C08AA59BA5FD
:100DC00099A788A78E890E9463319BA78AA7E8AC60
:100DD000F9AC0AAD1BADECAAFDAA0EAB1FABAA275E
:100DE00097FDA095BA2FBC01CD010E940D379B0144
:100DF000AC01C801B7010E940E367B018C0168A5C9
:100E000079A5882777FD8095982F0E940D379B0143
:100E1000AC01C801B7010E940D362BED39EF4EE74A
:100E20005FE30E9499379B01AC0168AF79AF8AAF4D
:100E30009BAF0E9499379B01AC01F10160837183E4
:100E400082839383F50160817181828193810E9405
:100E50000E36F50160837183828393830894C11CED
:100E6000D11CC414D5040CF4A9CFB201882777FD96
:100E70008095982F0E940D379B01AC01F501608190
:100E80007181828193810E9472360E944C387B016D
:100E90008C01B301882777FD8095982F0E940D372C
:100EA00020E030E04AE754E40E94723620E030E06F
:100EB00040E85AE30E9499372C8D3D8D4E8D5F8D11
:100EC0000E949937A80197010E949937688B798B06
:100ED0008A8B9B8B80E090E0A0E0B0E0F5018083FE
:100EE0009183A283B383288939894A895B89B901AF
:100EF000CA01DF91CF911F910F91FF90EF90DF908A
:100F0000CF90BF90AF909F908F907F906F905F90A9
:100F10004F903F902F9008952CB5382F33702C7F31
:100F2000322B3CBD2DB590E095958795959587958D
:100F300081702E7F822B8DBD08958AE061E00E9432
:100F4000C4318AE061E00E9485318CB580618CBD3E
:100F50008CB580648CBD8DE061E00E9485318BE0B2
:100F600061E00E9485310895FC011382128288EEAF
:100F700093E0A0E0B0E084839583A683B78385E403
:100F800091E091838083128E118E14860895FC0166
:100F900085E491E0918380830895DF93CF930F924E
:100FA000CDB7DEB7FC016983A081B18112962D9186
:100FB0003C911397BE016F5F7F4F41E050E0F90114
:100FC00009950F90CF91DF910895DC015996ED912D
:100FD000FC915A97309719F420E030E018C023892B
:100FE00034894589568982859385A485B585281BD2
:100FF000390B4A0B5B0B2030B0E83B07B0E04B07E6
:10100000B0E05B0720F02FEF3FE740E050E0C90180
:101010000895DC015996ED91FC915A97309711F49F
:1010200080E008958581811181E00895FC01818D22
:10103000928D009711F00E9451100895DF93CF9385
:101040000F92CDB7DEB7FC01818D928D009749F0EC
:10105000BE016F5F7F4F41E050E00E947211019727
:1010600019F02FEF3FEF03C08981282F30E0C9012D
:101070000F90CF91DF910895EF92FF920F931F93FE
:10108000DF93CF930F92CDB7DEB77C01DC01599689
:101090008D919C915A97009719F400E010E01FC0C1
:1010A000BE016F5F7F4F41E050E00E9472110197D7
:1010B00019F00FEF1FEF13C08981082F10E0D7013F
:1010C0005996ED91FC915A974285538564857585B3
:1010D0004150504060407040CF010E948B0FC801CA
:1010E0000F90CF91DF911F910F91FF90EF90089596
:1010F000CF93DF93EC01E98DFA8D309761F0138285
:101100001282CF010E94B7139C01E98DFA8D828172
:101110009381892B31F081E090E09B838A8320E0EA
:1011200030E0C901DF91CF910895EF92FF920F93C4
:101130001F93CF93DF93EC01F62EE72E8A011B82DB
:101140001A8288EE93E0A0E0B0E08C839D83AE83AA
:10115000BF8385E491E0998388838DE190E00E94CC
:101160006B329A8F898F009791F0DC018F2D9E2D25
:101170009C01F9018DE101900D928150E1F7CE01C2
:101180000C96B8014CE050E00E947801188EDF9177
:10119000CF911F910F91FF90EF90089510926A03E5
:1011A00010926B0310926E031092700382E090E035
:1011B000A0E0B0E08093720390937303A093740354
:1011C000B0937503109289031092930310929203C7
:1011D00085E591E09093910380939003109295039D
:1011E00008952F923F924F925F926F927F928F92CB
:1011F0009F92AF92BF92CF92DF92EF92FF920F93A6
:101200001F93DF93CF93CDB7DEB7C754D0400FB64F
:10121000F894DEBF0FBECDBF582E492EFB013A0118
:10122000190185A596A5998B888B25E531E03F8727
:101230002E8787A58A8B80A98B8B81A992A9A3A9C8
:10124000B4A98C8B9D8BAE8BBF8B85A996A9A7A9C2
:10125000B0AD888F998FAA8FBB8F81AD92ADA3ADB2
:10126000B4AD8C8F9D8FAE8FBF8F85AD88A3FE965A
:1012700081919191A191B19189A39AA3ABA3BCA3B0
:1012800081919191A191B1918DA39EA3AFA3B8A794
:10129000808191819AA789A71EA61DA63CA72BA78E
:1012A00018AA7A018E01025F1F4F3BE2A32EB12CD8
:1012B000AC0EBD1E4E010894811C911C35C0D70197
:1012C0008C918F3221F40894E11CF11C2DC0422F27
:1012D0004E194D3008F04CE0C42EDD24C401B70196
:1012E000A6010E947801F401EC0DFD1D1082C501DC
:1012F0000E949B10C501B801A40121E00E94E415E1
:10130000882351F4E52DF42D1382128285E591E0B6
:1013100091838083158266C0EC0CFD1CC8010E947D
:101320009B10C50158018C01C7016FE270E00E945B
:101330006D019C01009719F6E618F708F101F1829A
:10134000E082E52DF42DD80112968D919C91139792
:101350009383828385E591E09183808314968C91B9
:101360001497848315968C911597858316962D91E5
:101370003D914D915C911997268337834087518722
:101380001A962D913D914D915C911D97228733873F
:10139000448755871E962D913D914D915C915197B3
:1013A00026873787408B518B52968C915297828B30
:1013B00053962D913D914D915C915697238B348B93
:1013C000458B568B57962D913D914D915C915A9737
:1013D000278B308F418F528F5B968D919C915C97BC
:1013E000948F838F852D942DC95BDF4F0FB6F894B2
:1013F000DEBF0FBECDBFCF91DF911F910F91FF9048
:10140000EF90DF90CF90BF90AF909F908F907F90A4
:101410006F905F904F903F902F9008959F92AF9262
:10142000BF92CF92DF92EF92FF920F931F93DF93C1
:10143000CF93CDB7DEB7C657D0400FB6F894DEBF16
:101440000FBECDBFC82E992E8A01D22E43E0A42E06
:10145000B12CAC0EBD1EC501A8019E012F5F3F4FF0
:101460000E94F108E980FA80E00EF11EF701808108
:1014700045E551E02885882309F03FC08D819E8194
:101480009BA38AA359A348A38F818CA32DA38985ED
:101490009A85AB85BC858EA39FA3A8A7B9A78D8588
:1014A0009E85AF85B8898AA79BA7ACA7BDA7898968
:1014B0009A89AB89BC898EA79FA7A8ABB9AB8D8948
:1014C0008AAB8E899F89A88DB98D8BAB9CABADAB58
:1014D000BEAB8A8D9B8DAC8DBD8D8FAB98AFA9AF08
:1014E000BAAF8E8D9F8D9CAF8BAF8C2D992DBE0189
:1014F000605E7F4F4AE151E09FC0FE01FF9611827E
:1015000010825EAF4DAFFE01EE5BFF4F10822223D3
:10151000A9F02250CE01CD96223048F460E973E064
:10152000A7012D2D0E94E415882381F407C0B50181
:10153000A7012D2D0E94E415882329F48C2D992DC7
:101540000E94B4077BC0C5010E949B10F6E0DF2219
:1015500059F0FE01E05BFF4F408151816281738150
:10156000CE01CD960E948B0F9E01265A3F4FFE0161
:10157000FF9680819181F9019383828385E591E0D3
:1015800091838083FE01EF5BFF4F8081F9018483AB
:10159000FE01EE5BFF4F8081F9018583FE01ED5B6B
:1015A000FF4F80819181A281B381F9018683978366
:1015B000A087B187FE01E95BFF4F80819181A28105
:1015C000B381F90182879387A487B587FE01E55B24
:1015D000FF4F80819181A281B381F901868797872E
:1015E000A08BB18BFE01E15BFF4F8081F901828B03
:1015F000FE01E05BFF4F80819181A281B381F901FF
:10160000838B948BA58BB68BFE01EC5AFF4F8081A8
:101610009181A281B381F901878B908FA18FB28FC5
:10162000FE01E85AFF4F80819181F901948F838FE9
:101630008C2D992DB901A7010E9495088C2D992D0B
:10164000CA58DF4F0FB6F894DEBF0FBECDBFCF91A3
:10165000DF911F910F91FF90EF90DF90CF90BF909F
:10166000AF909F900895EF920F931F93CF93DF93C6
:10167000EC01362F542F722FE02E61E0432F252FDF
:10168000072F0E94260E8823D1F08E01035F1F4F83
:10169000C801BE0141E00E948517882339F4C801C2
:1016A000BE0140E00E948517882349F0CE018B9649
:1016B000B8010E94D112882319F081E001C080E0B6
:1016C000DF91CF911F910F91EF900895382F809166
:1016D000AF038F3F31F43EBD0DB407FEFDCF8EB595
:1016E0000895F894A091B003B091B1035091B20362
:1016F000252F2095E091B303F091B4034091B503F9
:10170000642F609590E08C9182238C9337FF03C007
:101710008081842B02C08081862380838C91852BDD
:101720008C939F5F983011F0330FEDCF00000000D5
:10173000000000008C9128232C93789408958091C8
:10174000AF038F3F31F48EBD0DB407FEFDCF2EB534
:1017500030C0F894E091B303F091B403808190918C
:10176000B503892B8083E091B003F091B1036091C0
:10177000B203A091B603B091B7038091B803482F8C
:1017800050E0762F709520E030E08081862B8083BA
:10179000220F8C9190E084239523892B09F02160FE
:1017A000808187238083000000003F5F383069F725
:1017B0007894822F08950F931F93CF93DF938B011B
:1017C0000E94A530EB010E949F0B8F3F11F481E036
:1017D00008C00E94A5306C1B7D0B6017710798F341
:1017E00080E0DF91CF911F910F910895FC01673048
:1017F00020F086E1858380E008956330B9F064309D
:1018000028F4613069F0623070F407C06530A1F0EF
:10181000653078F06630A9F412C084E090E011C021
:1018200080E090E00EC085E090E00BC081E090E0A9
:1018300008C086E090E005C082E090E002C083E04E
:1018400090E00E948C0781E00895FC01848160E0B3
:101850000E94C4310895FC01848161E00E94C4317A
:101860000895CF92DF92EF92FF920F931F93CF9341
:10187000DF937C016A01FC018485882319F40FEF52
:101880001FEF30C000E010E040E050E0212F332790
:1018900027FD3A95F601E40FF51F808190E0282797
:1018A00039273070C901F4E095958795FA95E1F7ED
:1018B00082279327102F0027082719279C01322FF2
:1018C00022273295307F0227132725E0880F991FA2
:1018D0002A95E1F7082719274F5F5F4FF2E0403064
:1018E0005F07A1F6862F0E94660BC0E0D0E0F601EC
:1018F000EC0FFD1F80810E94660B219682E0C030B4
:10190000D807A9F7812F992787FD9A950E94660B22
:10191000802F0E94660B0E949F0BF70182878F71B8
:10192000853011F481E007C081E1F7018583C701AB
:101930000E942B0C80E0DF91CF911F910F91FF90BF
:10194000EF90DF90CF9008950F931F93CF93DF9385
:10195000EC010E94A5308B0109C00E94A530601BDC
:10196000710B6D52714010F08FE00AC00E949F0B06
:101970008A878F3F91F38E3F11F481E006C08DE09E
:101980008D83CE010E942B0C80E0DF91CF911F91BF
:101990000F910895CF93DF93EC018E81882319F482
:1019A0000FC00E949F0B8F819885019698878F8327
:1019B000019782509240A8F3CE010E942B0C1E8208
:1019C000DF91CF910895DF92EF92FF920F931F93D3
:1019D000CF93DF93EC01D62E79018A010E94CA0CC5
:1019E000CE010E94250CCE016CE271E00E94DB0B5F
:1019F0008D2D80640E94660B812F9927AA27BB2713
:101A00000E94660BC801AA27BB270E94660BBB2752
:101A1000A12F902F8F2D0E94660B8E2D0E94660B9A
:101A2000DD2011F485E906C088E0D81611F487E8B6
:101A300001C08FEF0E94660B10E00E949F0B8A8707
:101A400087FF02C01150C9F7DF91CF911F910F910D
:101A5000FF90EF90DF900895CF92DF92EF92FF9288
:101A60000F931F93CF93DF93EC017A018B016901F0
:101A7000411551056105710511F482E133C08B8573
:101A8000833039F039E0EE0CFF1C001F111F3A952E
:101A9000D1F7CE0168E1A80197010E94E30C8823E9
:101AA00011F084E01FC0CE016EEFA6010E94310C40
:101AB0008823C9F0CE0168E572E00E94DB0B882321
:101AC00011F485E10FC0CE016DE020E030E040E090
:101AD00050E00E94E30C882321F40E949F0B88238E
:101AE00079F084E18D83CE010E942B0C80E0DF91A0
:101AF000CF911F910F91FF90EF90DF90CF900895BD
:101B0000CE010E942B0C81E0F2CF6F927F928F92D8
:101B10009F92AF92BF92CF92DF92EF92FF920F937C
:101B20001F93CF93DF93EC015A016B0139014801F8
:101B30000115110509F46AC0C801820F931F815075
:101B4000924008F05EC08E81882371F0888199816F
:101B5000AA81BB81481759076A077B0729F48F813F
:101B600098856816790650F5A882B982CA82DB8208
:101B70008B85833039F0E9E0AA0CBB1CCC1CDD1C42
:101B8000EA95D1F7CE0161E1A60195010E94E30C2F
:101B9000882319F083E08D8334C0CE010E94A40C09
:101BA000882379F118861F8281E08E8307C00E9406
:101BB0009F0B8F819885019698878F838F81988559
:101BC00086159705A0F300E010E008C00E949F0B67
:101BD000F701E00FF11F80830F5F1F4F08151905F4
:101BE000A8F32F813885280D391D38872F838985E3
:101BF000882319F02050324048F0CE010E94CA0CD0
:101C000005C0CE010E942B0C80E001C081E0DF9175
:101C1000CF911F910F91FF90EF90DF90CF90BF90E9
:101C2000AF909F908F907F906F900895EF92FF926A
:101C30000F931F93790120E030E000E012E00E9452
:101C4000850D1F910F91FF90EF900895BF92CF9255
:101C5000DF92EF92FF920F931F93CF93DF93EC01EC
:101C6000B62E1E2D1B8619861E821D821C864C8355
:101C70002093B9030093BA03E092AF030E94A5300A
:101C80006B018C8161E00E948531CE010E942B0C9A
:101C90001F3F09F462C08091BA0360E00E94853161
:101CA0008091B90361E00E9485318091AF0361E0CA
:101CB0000E948531E091AF032E2F332727FD309509
:101CC000F901EC5DFD4FE491F0E0EE0FFF1FE05FE6
:101CD000FD4F859194919093B1038093B003285C5C
:101CE0003D4FF90184918093B203E091B9032E2F07
:101CF000332727FD3095F901EC5DFD4FE491F0E0CD
:101D0000EE0FFF1FE05FFD4F859194919093B40318
:101D10008093B303285C3D4FF90184918093B50310
:101D2000E091BA032E2F332727FD3095F901EC5DA2
:101D3000FD4FE491F0E0EE0FFF1FE65EFD4F859151
:101D400094919093B7038093B603285C3D4FF901BB
:101D500084918093B80310E006C00E949D0783E041
:101D60000E948C07F8CF8FEF0E94660B1F5F1A301E
:101D7000D1F7CE010E94250C09C00E94A5306C1934
:101D80007D09615D774010F081E05AC0CE0160E0CE
:101D900020E030E040E050E00E94E30C182F8A87FA
:101DA000813059F7CE0168E02AEA31E040E050E0A6
:101DB0000E94E30C82FF02C01B870DC010E00E944E
:101DC0009F0B8A871F5F1430D1F78A3A11F082E0A7
:101DD00037C082E08B878B85823021F0EE24FF2490
:101DE00087010FC0E12CF12C012DF0E41F2F09C059
:101DF0000E94A5306C197D09615D774010F088E084
:101E00001FC0CE0167E320E030E040E050E00E94D8
:101E1000E30CCE0169E2A80197010E94E30C8A87D6
:101E2000882331F78B858230F1F4CE016AE320E01C
:101E300030E040E050E00E94E30C882339F086E077
:101E40008D83CE010E942B0C80E01AC00E949F0B54
:101E5000807C803C11F483E08B870E949F0B0E9462
:101E60009F0B0E949F0BCE010E942B0C8091AF0311
:101E70008F3F11F081E004C0CE016B2D0E94F60B64
:101E8000DF91CF911F910F91FF90EF90DF90CF9056
:101E9000BF900895CF93DF93EC01DB0180E090E0E9
:101EA00020E2FD01E80FF91F208301968B30910598
:101EB000C1F757E040E021C02E3219F08AEE90E0E1
:101EC00007C05A3019F15AE048E017C03217F1F054
:101ED000FC01019634913323C9F75417B8F021322D
:101EE000A8F02F3798F4822F81568A3108F42052B7
:101EF000FD01E40FF11D20834F5F29912223E1F6BC
:101F000090E08C91803219F091E001C090E0892F2F
:101F1000DF91CF9108956F927F928F929F92AF92AF
:101F2000BF92CF92DF92EF92FF920F931F93CF93C6
:101F3000DF93EC017A018B012D81222309F480C00B
:101F40008B899C89AD89BE8984179507A607B70739
:101F500008F476C085C0E114F1040105110549F4C7
:101F60001E821F82188619861A861B861C861D866D
:101F700065C02A853B854C855D85EB8DFC8D85850F
:101F800090E00996215030404040504039014A01CC
:101F9000082E04C096948794779467940A94D2F795
:101FA0002F5F3F4F4F4F5F4F0894E108F108010941
:101FB00011095701680104C0D694C794B794A79437
:101FC0008A95D2F70894E11CF11C011D111DA6147D
:101FD000B704C804D90428F021153105410551057D
:101FE00049F48F89988DA98DBA8D8E839F83A88798
:101FF000B98716C0A618B708C808D90811C04E81FD
:102000005F81688579858B8D9C8D94010E9466190E
:102010000894A108B108C108D108882331F410C080
:1020200086E0882E912C8C0E9D1EA114B104C10453
:10203000D10429F7EA86FB860C871D8781E001C061
:1020400080E0DF91CF911F910F91FF90EF90DF9093
:10205000CF90BF90AF909F908F907F906F9008959A
:10206000223009F078CFE6CFCF93DF93EC01462FF3
:102070006E857F85888999890E944A17882319F47B
:1020800020E030E00AC08A89282F30E095E0220F56
:10209000331F9A95E1F723543C4FC901DF91CF914B
:1020A00008950F931F93CF93DF938C01FC018581DB
:1020B0008823D9F1848187FF35C0C80161E00E947F
:1020C0003410EC01009789F1F8018581823040F4E9
:1020D00083899489A589B6898C8F9D8FAE8FBF8F98
:1020E000F8018789908D9B8F8A8F8789908DA18D2C
:1020F000B28DCD01AA27BB279D8B8C8BE091BB03B2
:10210000F091BC03309751F0BE016A5E7F4FCE0163
:1021100048960995888D998D9B8B8A8BF8018481CF
:102120008F7784830E94EB1601C080E0DF91CF910E
:102130001F910F910895CF93DF93EC010E945110EE
:10214000882311F01D8281E0DF91CF9108956F9275
:102150007F928F929F92AF92BF92CF92DF92EF9237
:10216000FF920F931F93DF93CF9300D000D0CDB792
:10217000DEB77C015A016B01DC0115968C91159735
:10218000813009F08FC014968C9181FF8BC09EC066
:102190000097A105B10511F481E085C0F7016284C3
:1021A000738484849584C701B601A5010E948B0FB6
:1021B000882309F477C0D7015B968D919C915C9739
:1021C000A114B104C104D10489F457964D915D91D5
:1021D0006D917C915A970E94D919882309F462C0A5
:1021E000F701178A108E118E128E3DC0D7011696F8
:1021F0004D915D916D917C9119979E012F5F3F4F9D
:102200000E946619882309F44DC0D7015B96ED91B1
:10221000FC915C9749815A816B817C8187898031EF
:1022200029F088EF9FEFAFEFBFE004C088EF9FEF8A
:10223000A0E0B0E0481759076A077B07A0F4CF0178
:102240000E94D919882371F1F70146815781608571
:102250007185838D948D0FEF1FEF2FEF3FE00E946C
:10226000CA188823F9F0D7015396AD92BD92CD924A
:10227000DC92569714968C911497806814968C93E0
:10228000C7010E945110882369F0B601A5016A14A4
:102290007B048C049D0410F4B401A301C7010E94C7
:1022A0008B0F01C080E00F900F900F900F90CF9197
:1022B000DF911F910F91FF90EF90DF90CF90BF9033
:1022C000AF909F908F907F906F900895F7018389D2
:1022D0009489A589B68984179507A607B70708F0DA
:1022E00057CFE0CF2F923F924F925F926F927F92A3
:1022F0008F929F92AF92BF92CF92DF92EF92FF9216
:102300000F931F93CF93DF93EC012A018D818823D4
:1023100009F4C6C08C8180FFC3C0D8C025014E1807
:102320005F084B0176E0272E312C2C0E3D1E32012A
:10233000B1C02A853B854C855D856FEFA62E61E097
:10234000B62EA222B3228D8179018A0199E01695D9
:102350000795F794E7949A95D1F7EB8DFC8D823031
:1023600049F4428D538D648D758D4E0D5F1D601F38
:10237000711F3FC0D480DA94DE20A114B104D9F4D7
:10238000DD20C9F4211531054105510549F48F8936
:10239000988DA98DBA8D8E839F83A887B9870BC02E
:1023A0004E815F8168857985CF0191010E94661910
:1023B000882309F475C0EB8DFC8D4E815F816885A3
:1023C00079854250504060407040058404C0440FFD
:1023D000551F661F771F0A94D2F786859785A089B7
:1023E000B189480F591F6A1F7B1F4D0D511D611D7B
:1023F000711D80E092E08A199B096301861597059B
:1024000008F46C018C8186FD06C080E0C81682E06D
:10241000D80609F073C080912E0190912F01A091F0
:102420003001B0913101481759076A077B0709F459
:1024300065C08091BD059091BE059501860174012E
:102440000E94850D882361F18C0C9D1C12C09501A2
:1024500023543C4FA9014C0D5D1DD401F90102C06C
:1024600081918D93E417F507D9F7E21BF30B8E0EDC
:102470009F1E960140E050E08A859B85AC85BD8516
:10248000820F931FA41FB51F8A879B87AC87BD87C8
:102490006C187D086114710409F04BCFA20102C0D1
:1024A0004FEF5FEFCA01DF91CF911F910F91FF9026
:1024B000EF90DF90CF90BF90AF909F908F907F90E4
:1024C0006F905F904F903F902F900895AB88BC889D
:1024D000CD88DE88EA84FB840C851D859A0140E066
:1024E00050E0D601C5018E199F09A00BB10B8217D0
:1024F0009307A407B50708F411CF13CFCB01BA0196
:1025000040E00E944A17882309F0A1CFC9CFCF929B
:10251000DF92EF92FF920F931F93DF93CF930F926F
:10252000CDB7DEB76C01FC018581823070F0E284AA
:10253000F38404851585C601BE016F5F7F4F41E0BE
:1025400050E00E947211019769F020E030E0C9016B
:102550000F90CF91DF911F910F91FF90EF90DF903F
:10256000CF900895F60182859385A485B5854F9611
:10257000A11DB11D82879387A487B587F5E01695C5
:102580000795F794E794FA95D1F78E2D8F70282F41
:1025900030E0E5E0220F331FEA95E1F723543C4F8A
:1025A000D6CF0F931F93CF93DF93EC018B018D81D7
:1025B000882309F041C0FB0187898031B1F482E0B2
:1025C0008D831F8A188E198E1A8E808D918DA0E0B2
:1025D000B0E045E0880F991FAA1FBB1F4A95D1F7AD
:1025E0008B8B9C8BAD8BBE8B15C0803229F583E025
:1025F0008D83FB01428D538D648D758D4F8B588F6C
:10260000698F7A8F9E012D5E3F4FC8010E94321A5A
:10261000882391F01C8F0B8F81E08C831E821F8298
:10262000188619861A861B861C861D861E861F869E
:10263000188A198A1A8A01C080E0DF91CF911F9110
:102640000F9108951F93CF93DF93EC01142FE62F82
:10265000F0E075E0EE0FFF1F7A95E1F7E354FC4FD1
:102660008385817121F0842F827409F054C06A8BB4
:1026700080912E0190912F01A0913001B0913101F4
:102680008E879F87A88BB98B84899589A0E0B0E05D
:10269000BC0155274427828D938DA0E0B0E0482BE4
:1026A000592B6A2B7B2B4F8B588F698F7A8F8385A1
:1026B00090E088719070009751F4848D958DA68D6F
:1026C000B78D8B8B9C8BAD8BBE8B81E00CC0409704
:1026D00011F59E012D5E3F4F8B8D9C8D0E94321A0D
:1026E0008823C9F084E08D83812F8F708C831E82B4
:1026F0001F82188619861A861B861C861D8616FD63
:1027000002C081E009C0CE0140E050E060E070E02E
:102710000E94A71001C080E0DF91CF911F91089522
:10272000CF93DF93EC019C012A5F3F4F8B8D9C8DF3
:1027300041E050E060E070E00E94A11A8823A1F01F
:102740008F89988DA98DBA8D0097A105B10559F48F
:102750008E819F81A885B9858F8B988FA98FBA8F1D
:102760008C8180688C8381E0DF91CF9108952F92D6
:102770003F924F925F927F928F929F92AF92BF92C1
:10278000CF92DF92EF92FF920F931F93DF93CF933D
:1027900000D000D000D0CDB7DEB76C01162F072FC8
:1027A0005E834D83DC0115968C911597813009F07D
:1027B00070C114968C9181FF6CC18EC1F601438962
:1027C00054896589768982859385A485B585841722
:1027D0009507A607B70731F0C6010E948B0F882323
:1027E00009F457C1812F902F9C0129012D803E8033
:1027F00017C1D6015B96ED91FC915C97DA01C90196
:1028000019E0B695A795979587951A95D1F7748095
:102810007A9478227FEF872E71E0972E822293227E
:10282000772009F04EC08114910409F04AC0D60106
:1028300016964D915D916D917C91199741155105B9
:102840006105710581F457968D919D910D90BC9114
:10285000A02D0097A105B10549F1F6018683978364
:10286000A087B1872EC0CF019E012F5F3F4F0E94EE
:102870006619882309F414C129813A814B815C814E
:10288000D6015B96ED91FC915C978789803129F0A8
:1028900088EF9FEFAFEFBFE004C088EF9FEFA0E0AD
:1028A000B0E0281739074A075B0730F0C6010E94DD
:1028B0009013882331F4EDC0F601268337834087D7
:1028C000518780E092E0881999095101821593059A
:1028D00008F45C01D6015B96ED91FC915C9716962D
:1028E000ED90FD900D911C9119978EEF9FEFAFEF3A
:1028F000BFEFE80EF91E0A1F1B1F058404C0EE0C73
:10290000FF1C001F111F0A94D2F786859785A089A6
:10291000B189E80EF91E0A1F1B1FE70CF11C011DEF
:10292000111D90E0A91692E0B90651F580912E0193
:1029300090912F01A0913001B09131018E159F052A
:10294000A007B10761F48FEF9FEFAFEFBFEF809368
:102950002E0190932F01A0933001B093310180910B
:10296000BD059091BE05B801A70192010E942C0DF2
:10297000882309F48EC0A0E0B2E04A0E5B1E3EC080
:102980008114910409F5F601228533854485558526
:1029900083899489A589B689281739074A075B076F
:1029A00098F00E94EB16882309F473C0E0922E0180
:1029B000F0922F0100933001109331018091BF05F7
:1029C00081608093BF0508C0C801B70141E00E9443
:1029D0004A17882309F45DC0940123543C4FA90190
:1029E0004A0D5B1DD201F90102C08D918193E4175C
:1029F000F507D9F7E21BF30B4E0E5F1E2A183B08B2
:102A0000950140E050E0F60182859385A485B58567
:102A1000820F931FA41FB51F82879387A487B58752
:102A2000D6011A962D913D914D915C911D972114DF
:102A3000310409F0DECE53968D919D910D90BC919D
:102A4000A02D82179307A407B50748F4F601238B3E
:102A5000348B458B568B84818068848311C0809130
:102A6000BB039091BC03892B59F08D819E81892BEA
:102A700039F0D60114968C911497806814968C9333
:102A8000F601848183FF0EC0C6010E945110882385
:102A900049F481E090E0D60113969C938E931297AF
:102AA0001E821D828D819E8126960FB6F894DEBF10
:102AB0000FBECDBFCF91DF911F910F91FF90EF908F
:102AC000DF90CF90BF90AF909F908F907F905F905E
:102AD0004F903F902F90089582FD70CE83CEDF936C
:102AE000CF930F92CDB7DEB76983BE016F5F7F4F83
:102AF00041E050E00E94B7130F90CF91DF9108950D
:102B0000DF92EF92FF920F931F93CF93DF93EC012D
:102B10000E949013882309F44EC0EB8DFC8DEE804B
:102B2000FF80088519858EEF9FEFAFEFBFEFE80EAE
:102B3000F91E0A1F1B1F058404C0EE0CFF1C001F9A
:102B4000111F0A94D2F786859785A089B189E80E6E
:102B5000F91E0A1F1B1FD4800894E108F10801091F
:102B600011090BC0C801B7016D0D711D811D911DAB
:102B70000E9426178823F9F0DA94DD2099F7EB8D6F
:102B8000FC8D20E032E040E050E0058404C0220FDC
:102B9000331F441F551F0A94D2F78B899C89AD8936
:102BA000BE89820F931FA41FB51F8B8B9C8BAD8B8F
:102BB000BE8B81E001C080E0DF91CF911F910F912A
:102BC000FF90EF90DF9008956F927F928F929F9287
:102BD000AF92BF92CF92DF92EF92FF920F931F932B
:102BE000DF93CF93CDB7DEB72B970FB6F894DEBF48
:102BF0000FBECDBF5C016B01822EDC0115968C915E
:102C0000882309F0D2C0CA018E010F5F1F4FB8019F
:102C10000E944A0F882309F4C8C0F601838D948D61
:102C2000D5015C969C938E935B97168217821086D3
:102C30001186D6011A961D921D921D921C921D9707
:102C40009924380141C0C6010E948712FC010097F7
:102C500009F4ABC085E016950795F794E7948A953B
:102C6000D1F71E2D1F708081882311F0853ED1F48D
:102C7000992091F4D50152961C93529720912E01E0
:102C800030912F0140913001509131011E962D93CA
:102C90003D934D935C9351978081882399F49924B7
:102CA000939421C0C301BF014BE050E00E9460013A
:102CB000009751F4882D8073803309F476C0C501E4
:102CC000612F6FC099249394F601E284F384048504
:102CD000158583899489A589B689E816F9060A07B6
:102CE0001B0708F4B0CF882D8271823109F05DC0D6
:102CF000992041F0C50161E00E9434108C010097D9
:102D000089F453C0D60115968C91823009F44DC0D8
:102D1000C6010E948015882309F447C0F501128A74
:102D20000DEB13E080E2D8011D928A95E9F7D801F6
:102D3000FE0131968BE001900D928150E1F7E09118
:102D4000BB03F091BC03309739F0B801625F7F4F4D
:102D5000C8014096099509C081E298E2F801918B7B
:102D6000808B80E098E097878687D80150968D9178
:102D70009C91519753969C938E93529759969C93FE
:102D80008E9358971E968D919C911F9757969C9362
:102D90008E9356970E94EB16882339F0C501F501F2
:102DA0006289482D0E94221301C080E02B960FB645
:102DB000F894DEBF0FBECDBFCF91DF911F910F9171
:102DC000FF90EF90DF90CF90BF90AF909F908F904B
:102DD0007F906F9008958091BF05882399F140916D
:102DE0002E0150912F01609130017091310180913D
:102DF000BD059091BE052DEB33E00E942C0D88237C
:102E000019F14091C0055091C1056091C2057091C2
:102E1000C305411551056105710591F08091BD050E
:102E20009091BE052DEB33E00E942C0D882361F0BC
:102E30001092C0051092C1051092C2051092C305F0
:102E40001092BF0581E0089580E00895EF92FF920F
:102E50000F931F937B018C010E94EB168823A9F02E
:102E6000EDEBF3E0119285E0ED3BF807D9F7E09246
:102E70002E01F0922F0100933001109331018091C7
:102E8000BF0581608093BF0581E01F910F91FF9086
:102E9000EF900895DF92EF92FF920F931F937B01C3
:102EA0008C01D42E80912E0190912F01A0913001A0
:102EB000B09131018E159F05A007B107C1F00E94A6
:102EC000EB168823D9F08091BD059091BE05B8011D
:102ED000A7012DEB33E00E94160E882379F0E092D3
:102EE0002E01F0922F010093300110933101809157
:102EF000BF058D298093BF0581E001C080E01F914F
:102F00000F91FF90EF90DF9008958F929F92AF9274
:102F1000BF92CF92DF92EF92FF920F931F93CF93C6
:102F2000DF936C01142F7093BE056093BD0544239D
:102F300021F488249924540140C0453008F01CC174
:102F400060E070E080E090E040E00E944A17882353
:102F500009F412C1C12FD0E02197FE0174E0EE0FF9
:102F6000FF1F7A95E1F7E354FC4FE254FE4F808156
:102F7000EE5BF14090E08F779070892B09F0FCC0F8
:102F8000E653FE4F80819181A281B3818436910501
:102F9000A105B10508F4F0C064E0CC0FDD1F6A950F
:102FA000E1F7CD57DA4F88809980AA80BB808114E1
:102FB0009104A104B10409F4DFC0C501B40140E0EB
:102FC0000E944A17882309F4D7C08091C8039091C2
:102FD000C9038050924009F0CFC02091CD03222335
:102FE00009F4CAC08091CB039091CC03892B09F4DA
:102FF000C3C08091CA03882309F4BEC0F601228BA6
:103000008091CA038483158661E070E007C04F5F3A
:10301000F60145874150483008F0AEC0F6014585BD
:10302000848190E09B01042E02C0220F331F0A947A
:10303000E2F78217930759F72091D3033091D40315
:103040002115310519F040E050E008C02091E1035E
:103050003091E2034091E3035091E403F6012583AC
:10306000368347835087E090CB03F090CC0300E099
:1030700010E0E80CF91C0A1D1B1DE38AF48A058B7D
:10308000168B8091CE039091CF03918F808F6091AA
:10309000CD0370E080E090E00E94B8396E0D7F1D96
:1030A000801F911FF601628F738F848F958F2091FF
:1030B000CE033091CF0355E0220F331F5A95E1F72D
:1030C00021503E4F232F3327269540E050E0260F16
:1030D000371F481F591F26873787408B518B809198
:1030E000D0039091D103009719F0A0E0B0E008C0A0
:1030F0008091DD039091DE03A091DF03B091E003A6
:1031000085017401E21AF30A040B150BA80197015B
:10311000280F391F4A1F5B1FF601058404C056950E
:103120004795379527950A94D2F7218732874387A9
:103130005487253FFFE03F07F0E04F07F0E05F07CF
:1031400010F48CE006C0255F3F4F4040504028F40B
:1031500080E1F601878B81E010C08091E9039091B6
:10316000EA03A091EB03B091EC03F601828F938FF9
:10317000A48FB58F80E2EECF80E0DF91CF911F91D9
:103180000F91FF90EF90DF90CF90BF90AF909F9006
:103190008F9008954F925F926F927F928F929F923D
:1031A000AF92BF92CF92DF92EF92FF920F931F9355
:1031B000CF93DF93EC016A017B0128013901423092
:1031C00051056105710508F46FC089859A85AB8545
:1031D000BC850196A11DB11D84179507A607B707E9
:1031E00008F462C02B893C894D895E898F898031C2
:1031F00029F499278F2D7E2D6D2D09C0C701B601A9
:1032000017E096958795779567951A95D1F74B01B5
:103210005C01820E931EA41EB51E80912E0190911A
:103220002F01A0913001B091310188169906AA06AC
:10323000BB0639F0C501B40140E00E944A1788235B
:1032400099F18F89803149F4F601F070EE0FFF1F7C
:10325000E354FC4F518240820DC0F601EF77F070CD
:10326000EE0FFF1FEE0FFF1FE354FC4F4082518211
:10327000628273828091BF0581608093BF058A89D5
:10328000823080F08D819E81AF81B885880E991E35
:10329000AA1EBB1E8092C0059092C105A092C205D5
:1032A000B092C30581E001C080E0DF91CF911F9112
:1032B0000F91FF90EF90DF90CF90BF90AF909F90D5
:1032C0008F907F906F905F904F900895CF92DF9294
:1032D000EF92FF920F931F93CF93DF93EC017A014C
:1032E0008B01690189859A85AB85BC850196A11DF5
:1032F000B11D84179507A607B70708F450C02B899E
:103300003C894D895E898F89803129F49927812FE5
:10331000702F6F2D09C0C801B701E7E0969587951A
:1033200077956795EA95D1F7260F371F481F591FE4
:1033300080912E0190912F01A0913001B091310127
:10334000281739074A075B0739F0CA01B90140E07D
:103350000E944A17882319F18F89803159F4F701A7
:10336000F070EE0FFF1FE354FC4F80819181A0E0CD
:10337000B0E00EC0F701EF77F070EE0FFF1FEE0F19
:10338000FF1FE354FC4F80819181A281B381BF7004
:10339000F60180839183A283B38381E001C080E042
:1033A000DF91CF911F910F91FF90EF90DF90CF9021
:1033B0000895AF92BF92CF92DF92EF92FF920F9358
:1033C0001F93DF93CF9300D000D0CDB7DEB76C0151
:1033D0007A018B0182E090E0A0E0B0E0F60180830A
:1033E0009183A283B3835E010894A11CB11CC60122
:1033F000B801A70195010E946619882319F1C60139
:10340000B801A70100E010E020E030E00E94CA18F7
:103410008823C1F0E980FA800B811C81F60187893D
:10342000803129F088EF9FEFAFEFBFE004C088EF55
:103430009FEFA0E0B0E0E816F9060A071B07B8F214
:1034400081E001C080E00F900F900F900F90CF911E
:10345000DF911F910F91FF90EF90DF90CF90BF9081
:10346000AF9008954F925F926F927F928F929F924A
:10347000AF92BF92CF92DF92EF92FF920F931F9382
:10348000DF93CF9300D000D0CDB7DEB76C01498376
:103490005A836B837C833901EE24FF2487012E013C
:1034A0000894411C511C812CA2E09A2EA12CB12C15
:1034B00049815A816B817C81C60192010E94661903
:1034C000882351F1D501C401F601058404C0880F99
:1034D000991FAA1FBB1F0A94D2F7E80EF91E0A1FF4
:1034E0001B1F29813A814B815C818789803129F0BA
:1034F00088EF9FEFAFEFBFE004C088EF9FEFA0E041
:10350000B0E0281739074A075B0790F2F301E08221
:10351000F1820283138381E00F900F900F900F9040
:10352000CF91DF911F910F91FF90EF90DF90CF909F
:10353000BF90AF909F908F907F906F905F904F90D3
:1035400008952F923F924F925F926F927F928F9247
:103550009F92AF92BF92CF92DF92EF92FF920F9322
:103560001F93DF93CF93CDB7DEB72F970FB6F894A5
:10357000DEBF0FBECDBF1C014A875B876C877D878E
:103580003F872E87D9010D911D912D913C910115F9
:1035900011052105310549F0480159010894811CA4
:1035A000911CA11CB11C198610C0FC018080918067
:1035B000A280B38019868A859B85AC85BD850197DD
:1035C000A105B10511F491E09987D10119968D916A
:1035D0009D910D90BC91A02D0196A11DB11D8D83D3
:1035E0009E83AF83B887750164014424552432015A
:1035F0008E010F5F1F4FF10181859285A385B485F0
:10360000481659066A067B0608F090C08D819E8197
:10361000AF81B8858C159D05AE05BF0550F482E0DD
:10362000882E912CA12CB12CB2E0CB2ED12CE12CE8
:10363000F12CC101B701A60198010E9466198823E7
:1036400009F474C089819A81AB81BC81A70196017C
:103650002F5F3F4F4F4F5F4F0097A105B10519F006
:1036600049015A010DC0281939094A095B098A859F
:103670009B85AC85BD85281739074A075B0759F03C
:103680000894411C511C611C711C0894C11CD11C64
:10369000E11CF11CB0CFC101A601B7010FEF1FEF74
:1036A0002FEF3FE00E94CA18882399F43FC02601FB
:1036B000370108944108510861087108C101B3013C
:1036C000A201970186010E94CA18882379F173012B
:1036D00062018C149D04AE04BF0448F3AE85BF851F
:1036E0004D915D916D917C9141155105610571057B
:1036F00039F0C101950184010E94CA188823B1F0F4
:10370000EE85FF8580829182A282B382F985FF23B4
:1037100059F00894811C911CA11CB11CD1018D92FF
:103720009D92AD92BC92139781E001C080E02F96EC
:103730000FB6F894DEBF0FBECDBFCF91DF911F91C2
:103740000F91FF90EF90DF90CF90BF90AF909F9040
:103750008F907F906F905F904F903F902F90089543
:10376000FC0182810895FC018085811181E008952A
:103770000895FC010190F081E02D84810895FC0101
:10378000DB018081918111969C938E9382811296A8
:103790008C931297878117968C931797858115962E
:1037A0008C931597808518968C931897868116961A
:1037B0008C931697838113968C9313978481149618
:1037C0008C930895FC011286118614861586178243
:1037D000108615820E9691838083E458FF4F89E905
:1037E00096E0918380830895FC01E458FF4F718334
:1037F00060830895FC01E458FF4FA081B181ED91F1
:10380000FC9111970480F581E02DCD01099520E010
:10381000892B09F021E0822F0895FC01E458FF4F25
:10382000A081B181ED91FC9111970680F781E02D87
:10383000CD0109950895FC01E458FF4FA081B181A5
:10384000ED91FC9111970284F385E02DCD0109954E
:1038500008950895DF92EF92FF920F931F93CF93F5
:10386000DF93EC018F81882321F48885882309F474
:1038700077C01A8619861C861F821A821B821C82B8
:103880001D821E8218866CC0CE010E940D1C982FCE
:103890008B878A85882399F09E3711F483E03BC09B
:1038A0009D3769F4CE010E94FA1B882331F0CE01C6
:1038B0000E940D1C81278B8702C0098759C089850A
:1038C000882321F08B8581278B8719868A85833011
:1038D00020F08C859B85890F8C878A85813061F0EB
:1038E000813028F0823061F0833091F40DC08B85F7
:1038F0008E37F1F50A873CC08B858B83DA8638C01A
:103900008B858C83EA8634C08B858A83FA8630C0A7
:103910008F3618F082E0888731C0282F30E08C8104
:1039200090E003962817390781F48C858F3F31F496
:103930008B858D8381E08F83188602C081E0888724
:103940008A8584508E831A8619C0E881F981E20F36
:10395000F31F34978B8580838A858F5F8A8708C0A1
:1039600032E0D32E01E023E0E22E94E0F92E10E2C3
:10397000CE010E94FA1B882309F086CFDF91CF91F8
:103980001F910F91FF90EF90DF9008950F931F9379
:10399000FC014083518362837383048315832683F0
:1039A00037831F910F910895CF93DF93FC0180E13E
:1039B000828381E083835583448326838DE591E070
:1039C00091838083EF012796DB0188E00D900992B7
:1039D0008150E1F78EEF9FEF908B8787118A128AD3
:1039E000DF91CF910895FC01662311F4828508953B
:1039F000613011F481850895623029F487819085C2
:103A0000A185B28512C0633011F4878108956430B6
:103A100011F486850895653011F485850895663022
:103A200049F483859485A585B685892F9A2FAB2F78
:103A3000BB270895673011F483850895683011F429
:103A400080890895693011F4878508956A3011F4EA
:103A5000818908956B3011F4828908950480F5817D
:103A6000E02DE60FF11D3C9780810895FC018681D1
:103A7000845F08950F93DF93CF9300D0CDB7DEB767
:103A8000FC01062F442321F1862F8D57823020F030
:103A9000613111F06331E1F4CF0184589F4F9A8373
:103AA0008983DC01ED91FC91A081B1812D913C9144
:103AB000CF016DE7F9010995A981BA81ED91FC91DA
:103AC000A081B18160E260272D913C91CF010BC0B4
:103AD000E458FF4F0190F081E02DA081B1812D913C
:103AE0003C91CF01602FF90109950F900F90CF9174
:103AF000DF910F910895CF92DF92FF920F931F9362
:103B0000CF93DF936C01EB016EE740E00E943A1D1A
:103B1000E881F9810280F381E02DCE010995082F1B
:103B2000E881F9810280F381E02DCE010995F82E1C
:103B300010E00E5F1F4FC601612F41E00E943A1D49
:103B400082E0F80EC6016F2D41E00E943A1DC601C9
:103B50006A8141E00E943A1DC6016B8141E00E94EA
:103B60003A1DFB808A81F80E00E010E018C0E88161
:103B7000F9810190F081E02DCE01602F0995682F29
:103B8000C60141E00E943A1DE881F9810190F0816F
:103B9000E02DCE01602F0995F80E0F5F1F4FE881D1
:103BA000F9810280F381E02DCE01099590E008179C
:103BB0001907ECF2F094C6016F2D41E00E943A1D06
:103BC000C6010E941B1CDF91CF911F910F91FF90A6
:103BD000DF90CF9008951092C4051092C505109201
:103BE000C6051092C7058FEF9FEFA0E0B0E080936D
:103BF000C8059093C905A093CA05B093CB05089555
:103C0000CF92DF92EF92FF920F931F93CF93DF93A8
:103C1000EC016B0177FD17C00E94A5307B018C0180
:103C20000BC0CE010E942A1C8F81882311F081E0F5
:103C30000BC08885882339F40E94A5306E197F094E
:103C40006C157D0574F380E0DF91CF911F910F918A
:103C5000FF90EF90DF90CF90089581E08093110660
:103C60006093EE0510920F0610921006089581E001
:103C7000809311066093EE0510920F0610921006C5
:103C800008952091ED0530E08091EC05281B310965
:103C9000C90108954091EC058091ED05481718F091
:103CA0002FEF3FEF0AC0E42FF0E0E453FA4F80819A
:103CB000282F30E04F5F4093EC05C9010895E09153
:103CC000EC058091ED05E81718F0EFEFFFEF06C067
:103CD000F0E0E453FA4F8081E82FF0E0CF0108953F
:103CE0000895109215061092140688EE93E0A0E055
:103CF000B0E08093160690931706A0931806B09331
:103D0000190685E691E090931306809312060895B4
:103D1000CF92DF92EF92FF920F931F93CF93DF9397
:103D20007C016B018A01809111068823A1F0C0E01B
:103D3000D0E00DC0D701ED91FC91D601AC0FBD1FB5
:103D40000190F081E02DC7016C9109952196C01773
:103D5000D10780F304C0CB01642F0E94BE1FC801AD
:103D6000DF91CF911F910F91FF90EF90DF90CF9057
:103D70000895DF93CF930F92CDB7DEB7FC0169832F
:103D8000809111068823C9F080911006803238F0A6
:103D900081E090E09383828320E030E015C0809141
:103DA0000F06E82FF0E0E151FA4F998190838F5F81
:103DB00080930F068093100605C0CE01019661E046
:103DC0000E94BE1F21E030E0C9010F90CF91DF912A
:103DD00008950F93062F8091EE056FEE75E04091E8
:103DE000100621E00E94691F10920F061092100623
:103DF000109211060F91089561E00E94E91E089546
:103E0000413208F040E2862F6CEC75E00E94201FE2
:103E10001092EC058093ED05089521E00E94001FAB
:103E2000089521E00E94001F08951092EC05109261
:103E3000ED0510920F06109210060E946A21089557
:103E4000382F413210F040E042C080911E06882396
:103E5000E1F791E090931E06209320068FEF809368
:103E60008B06109246064150409347064F5F909351
:103E70001F0680911F06330F832B80931F068091AE
:103E80002106813041F41092210680911F06809313
:103E9000BB0085EC01C085EE8093BC0080911E06BE
:103EA0008130E1F380914606841710F44091460674
:103EB00020E030E00AC0FB01E20FF31FD901AA5D48
:103EC000B94F8C9180832F5F3F4F2417A0F3842F2D
:103ED00008950F931F93582F122F413210F081E055
:103EE0004AC080911E068823E1F782E080931E0677
:103EF000009320068FEF80938B0610924606409326
:103F00004706A6E2B6E0FB0102C081918D938E2F99
:103F1000861B8417D0F310921F0680911F06550F41
:103F2000852B80931F0680912106813041F41092E9
:103F3000210680911F068093BB0085EC01C085EEB1
:103F40008093BC00112321F080911E068230E1F3A2
:103F500080918B068F3F11F480E00DC080918B061D
:103F6000803211F482E007C080918B06803311F01B
:103F700084E001C083E01F910F910895482F6132C2
:103F800010F081E0089580911E06843011F082E0E7
:103F9000089560936906A8E4B6E0842F9C01F901B6
:103FA00002C081918D938E2F841B8617D0F380E001
:103FB00008951F920F920FB60F9211242F933F93E3
:103FC0004F935F936F937F938F939F93AF93BF9321
:103FD000EF93FF938091B90090E0887F90708036D6
:103FE000910509F4F2C081369105CCF5883291052E
:103FF00009F47BC089329105B4F48031910509F44C
:104000006FC0813191053CF4009709F447C10897CE
:1040100009F04FC165C08831910509F466C08097E9
:1040200009F047C182C08034910509F4A4C08134ED
:10403000910544F48033910509F482C0C89709F0D2
:1040400038C189C08035910509F489C0883591054A
:1040500009F496C08834910509F02BC1AEC08839A7
:10406000910509F413C189399105ECF4883791055C
:1040700009F4ABC0893791054CF48836910509F4F1
:10408000A4C08037910509F014C19FC088389105FC
:1040900009F4FCC08039910509F49DC08038910570
:1040A00009F007C198C0803B910509F4C6C0813B67
:1040B00091054CF4803A910509F49FC0883A910526
:1040C00009F0F7C0BAC0803C910509F4E3C0883C10
:1040D000910509F4DFC0883B910509F0EAC0C2C030
:1040E00080911F068093BB00CFC0909146068091BF
:1040F0004706981768F490914606E92FF0E0EA5DCC
:10410000F94F80818093BB009F5F90934606BCC0AF
:1041100080912006882309F44BC085ED8093BC0074
:104120008091BC0084FDFCCFC2C080E280938B06EE
:1041300085ED8093BC008091BC0084FDFCCFB7C0AE
:1041400080E380938B0685ED8093BC008091BC005A
:1041500084FDFCCFACC088E380938B069BC080912C
:1041600046069091BB00E82FF0E0EA5DF94F90839E
:104170008F5F80934606909146068091470682C0E5
:10418000809146069091BB00E82FF0E0EA5DF94F80
:1041900090838F5F8093460680912006882341F0AC
:1041A00085ED8093BC008091BC0084FDFCCF7FC076
:1041B00081E08093210684EA6EC085ED8093BC0087
:1041C0008091BC0084FDFCCF72C083E080931E060A
:1041D00010928A0659C080918A06803208F056C033
:1041E00080918A069091BB00E82FF0E0E659F94FE4
:1041F00090838F5F80938A0647C080918A068032C1
:1042000030F4E0918A06F0E0E659F94F108285ED2E
:104210008093BC008091BC0084FDFCCF10921E06F0
:1042200060918A06E0912406F09125068AE696E0E0
:1042300070E0099510928A062DC084E080931E06D6
:104240001092680610926906E0912206F09123060A
:10425000099580916906882329F481E08093690695
:104260001092480690916806E92FF0E0E85BF94F5C
:1042700080818093BB009F5F909368069091680651
:1042800080916906981710F485EC01C085E8809349
:10429000BC000FC085EC8093BC0009C010928B0657
:1042A00085ED8093BC008091BC0084FDFCCF109212
:1042B0001E06FF91EF91BF91AF919F918F917F91DA
:1042C0006F915F914F913F912F910F900FBE0F9083
:1042D0001F90189510921E0681E080932006109280
:1042E000210682E161E00E94C43183E161E00E9425
:1042F000C431E9EBF0E080818E7F808380818D7F07
:10430000808380E28093B80085E48093BC000895A8
:10431000FC0113861586148687E090E0128631979B
:10432000009711F00197FACF0895DC0180E00BC0EF
:10433000E82FF0E08D9190E0E827F927E650FF4F55
:10434000E49161508E2F662399F70895DF92EF92E2
:10435000FF920F931F93FC01E08001811281F8947A
:10436000F80181818E2981838281DE2CD0948D2178
:10437000828383E090E00E94B330F80181818D2137
:1043800081838AE090E00E94B330F8010081789444
:1043900085E390E00E94B33080E010E0FF240E211E
:1043A0001F21012B09F081E01F910F91FF90EF90E9
:1043B000DF900895EF92FF920F931F93CF93DF93B7
:1043C0007C0101E010E0C0E0D0E0C7010E94A6211E
:1043D0008111102B000F2196C830D105B1F7812F24
:1043E000DF91CF911F910F91FF90EF9008951F9350
:1043F000CF93DF93FC011081C181D281912F9095E1
:1044000060FF12C0F8948A8189238A838981812B75
:1044100089838AE090E00E94B3308A81812B8A836D
:10442000789487E390E011C0F8948A8189238A8385
:104430008981812B898381E490E00E94B3308A8155
:10444000812B8A83789485E090E00E94B330DF91DD
:10445000CF911F910895CF92DF92EF92FF920F9329
:104460001F93CF93DF938C01E42EFF24F394C0E0DD
:10447000D0E0C62EDD2460E08F2D90E08C219D21C0
:10448000892B09F061E0C8010E94F721FF0C2196F9
:10449000C830D10581F7EE20A9F4F894D80111961F
:1044A000ED91FC91129791818C9180959823918345
:1044B0001196ED91FC91129792818C9180959823A1
:1044C00092837894DF91CF911F910F91FF90EF909D
:1044D000DF90CF9008956CEC40E00E942B2208956D
:1044E000EF92FF920F931F93CF93DF938C017B0189
:1044F00065E540E00E942B22C0E0D0E0F701EC0F20
:10450000FD1FC801608140E00E942B222196C83027
:10451000D105A1F7DF91CF911F910F91FF90EF90FF
:104520000895DF92EF92FF920F931F93CF93DF9343
:10453000FC010081C181D281F8948981D02ED09470
:104540008D21898378941DE7E02EFF24115059F1C5
:1045500082E090E00E94B330888190E08E219F211C
:10456000892BA1F3F8948A818D218A838981802BFC
:104570008983789480EE91E00E94B330F894898129
:104580008D21898386E490E00E94B330888110E019
:1045900090E0E822F922EF2809F411E078948AE902
:1045A00091E00E94B330812FDF91CF911F910F9145
:1045B000FF90EF90DF900895AF92BF92DF92EF925D
:1045C000FF920F931F93CF93DF93EC015B018D85D7
:1045D000882309F061C0CE010E949122882329F42A
:1045E0001B861D861C8690E06BC0CE0160EF40E00C
:1045F0000E942B2201E0DD24EE24FF24F394CE015F
:104600000E94A621182FCE010E94A621113019F474
:104610008130E1F439C0181709F58B85081770F45B
:1046200060E0FE01EE0DF11D838190E02F2D30E062
:1046300082239323181619064CF003C060E0081774
:1046400029F0093008F04CC00C874AC0FE01EE0D7D
:10465000F11D83818F29838361E009C0612FFE01F1
:10466000EE0DF11D9F2D9095838189238383CE01CB
:104670000E94F7210F5FFF0C19F4E394FF24F394D9
:1046800087E08E1508F0BBCF013430F0DB86DD20EB
:1046900011F581E08D871FC01B861D861C8690E06A
:1046A000DE0120E030E0F501E20FF31F13968C915C
:1046B000139780832F5F3F4F11962830310599F76C
:1046C000892FDF91CF911F910F91FF90EF90DF9095
:1046D000BF90AF9008958B818823F1F291E0E0CFF5
:1046E000D02EBDCFFF920F931F938C01F62E862FF5
:1046F00060E00E9485318F2D90E0FC01E85CFD4F69
:10470000E491D801EC938C5D9D4FFC016491E62F00
:10471000F0E0EE0FFF1FE65EFD4F8591949112963B
:104720009C938E9311971B961C921B971D961C921F
:104730001D971C961C92F80187E090E01286319735
:10474000009711F00197FACF1F910F91FF900895F4
:10475000FC018EE694E2928B818B768365831482D2
:10476000108289E0818381E08283838308956F9240
:104770007F928F929F92AF92BF92CF92DF92EF92F1
:10478000FF920F931F93CF93DF93FB01EA0199816F
:1047900080E0288130E0282B392BE081E23231F0B3
:1047A000E83221F0E03109F084C04BC04C814F3336
:1047B00029F1403420F44F3109F07BC02FC04F3530
:1047C00079F04F3709F075C0B901882777FD8095DA
:1047D000982F0E940D3720E030E040E85DE32EC0C6
:1047E00035952795B901882777FD8095982F0E94E8
:1047F0000D3720E030E040E05EE320C0359527959E
:1048000035952795B901882777FD8095982F0E94C7
:104810000D3720E030E040E85EE310C093E03595CE
:1048200027959A95E1F7B901882777FD8095982F0C
:104830000E940D3720E030E040E05FE30E949937AE
:1048400032C0EF8035952795B901882777FD80958F
:10485000982F0E940D3720E030E040E85EE30E9490
:104860000D363B014C016E2D70E02E81621B7109EB
:10487000882777FD8095982F0E940D375B016C018A
:10488000FF2400E010E0C801B7010E940B379B0134
:10489000AC01C601B5010E9472369B01AC01C40196
:1048A000B3010E940E369B01AC01832F942F752F0C
:1048B00000C0262F382F492F572FB901CA01DF9189
:1048C000CF911F910F91FF90EF90DF90CF90BF900D
:1048D000AF909F908F907F906F9008950895EF9282
:1048E000FF920F931F938C017B01FC0185819681C0
:1048F0000E949122F80185819681B7010E94702261
:10490000F8018581968164EB40E00E942B22F8013A
:10491000858196810E94A621F82EF80185819681D5
:104920000E94912280E0FF2009F481E01F910F9105
:10493000FF90EF900895CF92DF92EF92FF920F9346
:104940001F938C016B017A01FC01858196810E9485
:104950009122F80185819681B6010E947022F801AA
:10496000858196816EEB40E00E942B22F8018581C3
:1049700096810E94DA21F7018083F8018581968172
:104980000E94DA21F7018183F801858196810E94D6
:10499000DA21F7018283F801858196810E94DA216C
:1049A000F7018383F801858196810E94DA21F7015E
:1049B0008483F801858196810E94DA21F70185833D
:1049C000F801858196810E94DA21F7018683F8013A
:1049D000858196810E94DA21F7018783F80185811C
:1049E00096810E94DA21F7018087F80185819681FE
:1049F0000E9491221F910F91FF90EF90DF90CF9036
:104A00000895DF93CF93CDB7DEB729970FB6F8940B
:104A1000DEBF0FBECDBFAE014F5F5F4F0E949B2434
:104A20008981811181E029960FB6F894DEBF0FBE0F
:104A3000CDBFCF91DF910895CF92DF92EF92FF9299
:104A40000F931F93CF93DF93EC016B01452BE1F0A4
:104A50008B818823C9F088818823B1F40E94A53016
:104A60007B018C01CE0160E070E00E94012588236B
:104A700059F40E94A5306E197F09800B910B6E5E70
:104A800072408040904070F3F6016081693039F0E7
:104A90006930A0F06A3041F06B3081F40AC06EE5F5
:104AA00070E080E090E00EC06CEB70E080E090E0A1
:104AB00009C067E771E080E090E004C06EEE72E04C
:104AC00080E090E00E94F830DF91CF911F910F912C
:104AD000FF90EF90DF90CF900895CF93DF93EC019C
:104AE0008D819E810E9491228D819E810E946B22E8
:104AF0008D819E8164E448810E942B228A818823D3
:104B000039F0CE012196BE0140E050E00E941C2504
:104B1000DF91CF9108950F931F938A010E949B24E8
:104B2000C80168E00E94952120E0F801908589176E
:104B300009F421E0822F1F910F910895CF92DF9207
:104B4000EF92FF920F931F93DF93CF93CDB7DEB712
:104B500029970FB6F894DEBF0FBECDBF8C017B0145
:104B60006E010894C11CD11CA6010E948B258823CC
:104B700029F460E070E08EEF92EC05C0C801B70147
:104B8000A6010E94B72329960FB6F894DEBF0FBE88
:104B9000CDBFCF91DF911F910F91FF90EF90DF90EC
:104BA000CF900895DF93CF93CDB7DEB729970FB697
:104BB000F894DEBF0FBECDBF9C01FB018081803128
:104BC000D9F0C901AE014F5F5F4F0E948B2588234A
:104BD000A9F08D818F3371F0803418F48F3171F426
:104BE0000BC08F3519F08F3749F402C08BE007C036
:104BF0008CE005C08AE003C089E001C080E029960E
:104C00000FB6F894DEBF0FBECDBFCF91DF910895F0
:104C10000F931F938B01CB0167E00E94952120E049
:104C2000F8019781891709F421E0822F1F910F91D4
:104C30000895EF92FF920F931F93CF93DF93EC01B0
:104C40007B01042F8D819E810E94882110E007C086
:104C5000CE01B7010E9408268823A9F00AC08D81E1
:104C60009E81B7010E94DC22882329F0101759F495
:104C7000EFCF81E001C080E0DF91CF911F910F91D4
:104C8000FF90EF9008951F5F0117A8F3E8CFEF9210
:104C9000FF920F931F93DF93CF93CDB7DEB7289783
:104CA0000FB6F894DEBF0FBECDBF7C01462F8E013C
:104CB0000F5F1F4FB8010E941926C701B8010E945B
:104CC0009E2528960FB6F894DEBF0FBECDBFCF91BC
:104CD000DF911F910F91FF90EF900895AF92BF92D7
:104CE000CF92DF92EF92FF920F931F93DF93CF93B8
:104CF000CDB7DEB761970FB6F894DEBF0FBECDBF5C
:104D00007C01FC01858196810E948821F701148233
:104D10006E010894C11CD11C79E0A72EB12CAC0EF9
:104D2000BD1E01E02BC0C701B6010E9408268823E2
:104D300029F1F7018081882341F4C701B6010E945F
:104D40006F24882311F0F7010083C701B601A50184
:104D50000E949B24F7011181C701B6010E94D22550
:104D6000811718F4F701818104C0C701B6010E94C0
:104D7000D225F701818384818F5F8483F701858148
:104D80009681B6010E94DC22882369F661960FB6EF
:104D9000F894DEBF0FBECDBFCF91DF911F910F9171
:104DA000FF90EF90DF90CF90BF90AF90089508955F
:104DB00082E196E00E94151F0895FC0166834783F7
:104DC000208781E0858708950F931F938C01FC0154
:104DD000868160E00E948531F801868161E00E9451
:104DE000C431F80111861286138614861F910F9123
:104DF0000895CF92DF92EF92FF920F931F93CF937C
:104E0000DF93EC018E8161E00E94C4316AEF70E0B3
:104E100080E090E00E94F8300E94A5309B01AC0138
:104E200089859A85AB85BC85281739074A075B07B2
:104E300020F419861A861B861C868D85882371F4BA
:104E400089859A85AB85BC85281B390B4A0B5B0B82
:104E5000205D37404040504008F477C01D860E94D6
:104E6000A53069877A878B879C871C821B821A8270
:104E7000198218828E8161E00E9485318E8160E006
:104E80000E94C43164E170E080E090E00E94F8305C
:104E9000F8948E8161E00E94C43188E290E00E9423
:104EA000B3308E8160E00E94853181E0EE2400E025
:104EB00010E00AC0F39481E090E00E94B3308FEFDD
:104EC000F81629F40AC0822FFF24C82EDD248E8113
:104ED0000E9418328C159D0569F38E810E9418324C
:104EE000282F8FEFF816C9F0043090F000FD10C0A5
:104EF0008E2D869586958695FE01E80FF11D908191
:104F0000990F908388858F1510F491609083E394B6
:104F10000F5F1F4F05351105B1F6789487E28E15A6
:104F200010F030E013C030E04C8150E029818881DE
:104F300090E0820F911D2A81820F911D2B81820F9B
:104F4000911D90704817590709F431E0832FDF91C4
:104F5000CF911F910F91FF90EF90DF90CF90089528
:104F6000EF92FF920F931F93CF93DF93EC010E9478
:104F7000F9268823A9F18F818B3031F08B3080F1B5
:104F80008551823068F507C0688170E080E090E06C
:104F90000E940B3722C0688170E080E090E00E94A0
:104FA0000B3720E030E040E853E40E9499377B0162
:104FB0008C01698170E0882777FD8095982F0E9489
:104FC0000D379B01AC01C801B7010E940E3620E0ED
:104FD00030E040E251E40E947236E62F692F0AC0A9
:104FE00089E996E06CE171E00E94F635E0E070E05E
:104FF00080EC6FE72E2F372F482F562FB901CA01AB
:10500000DF91CF911F910F91FF90EF900895CF9373
:10501000DF93EC018881282F30E069818A81482F55
:1050200050E0EAEFF1E091E005C08491480F511D96
:105030009F5F31969617C8F3633038F0C9018370CB
:105040009070892B11F44F5F5F4F8DE691E0289FA0
:10505000B001299F700D389F700D11246150704070
:105060002D5F3F4F3695279536952795620F731F15
:10507000640F751F80E090E028E130E040E050E0F0
:105080000E94B8392B81620F711D811D911D2CE387
:1050900030E040E050E00E94B8392C81620F711D71
:1050A000811D911D2CE330E040E050E00E94B839B2
:1050B0009B01AC018D81280F311D411D511DB9018E
:1050C000CA01DF91CF910895EF92FF920F931F9342
:1050D000162F042F22E1E22E26E0F22EC70168E609
:1050E00070E00E94371EC701612F0E94B91EC701E0
:1050F000602F0E94B91EC7010E94FC1E1F910F91D4
:10510000FF90EF9008951F93CF93DF93EC01162F3C
:105110006EE04DE10E946428123041F0133079F0C6
:10512000113009F5CE0167E040E803C0CE0167E029
:1051300040E00E946428CE0168E040E808C0CE014B
:1051400067E040E00E946428CE0168E040E00E94F1
:105150006428CE0169E040E80E946428CE016AE03C
:1051600040E80E946428DF91CF911F910895AF928B
:10517000BF92CF92DF92EF92FF920F931F93DF9334
:10518000CF93CDB7DEB727970FB6F894DEBF0FBE2B
:10519000CDBF02E116E0C80168E670E00E94371E4C
:1051A000C80160E00E94B91EC8010E94FC1EC8012F
:1051B00068E670E048E050E00E940D1FC8010E94C0
:1051C0004A1EB82EC8010E944A1EC82EC8010E945D
:1051D0004A1E9FE3D92ED822C8010E944A1EA82E3B
:1051E000C8010E944A1EE82EC8010E944A1EF82EDD
:1051F000C8010E944A1E282F30E0B4E0359527955B
:10520000BA95E1F74AEF5FEFB901649F9001659F9E
:10521000300D749F300D1124820F90E02B2D30E063
:10522000A4E035952795AA95E1F7B901649F90010F
:10523000659F300D749F300D1124B20E2C2D30E07F
:10524000F4E035952795FA95E1F7B901649F90014F
:10525000659F300D749F300D1124C20E2D2D30E04E
:10526000E4E035952795EA95E1F7B901649F90014F
:10527000659F300D749F300D1124D20E2E2D30E01D
:1052800074E0359527957A95E1F7B901649F90010F
:10529000659F300D749F300D1124E20E2F2D30E0EC
:1052A00064E0359527956A95E1F7B901649F90010F
:1052B000659F300D749F300D1124F20E282F3F2D65
:1052C0004E2D5D2D6C2D7B2D8A2D27960FB6F894D3
:1052D000DEBF0FBECDBFCF91DF911F910F91FF9029
:1052E000EF90DF90CF90BF90AF900895FF920F9313
:1052F0001F93F62E02E116E0C80168E670E00E94F6
:10530000371EC8016F2D0E94B91EC8010E94FC1EE5
:10531000C80168E670E041E050E00E940D1FC8013E
:105320000E944A1E1F910F91FF900895EF92FF92E5
:105330000F931F93CF93DF938C0161E10E94762935
:10534000E82EC80162E10E947629C82FD0E0E7FE6E
:1053500025C0E1946E2D70E0882777FD8095982F09
:105360000E940D377B018C0136E0D595C7953A95A3
:10537000E1F7BE01882777FD8095982F0E940D37B1
:1053800020E030E040E85EE30E9499379B01AC01E9
:10539000C801B7010E940E36905822C06E2D70E0F1
:1053A000882777FD8095982F0E940D377B018C010F
:1053B00026E0D595C7952A95E1F7BE01882777FDA8
:1053C0008095982F0E940D3720E030E040E85EE3A2
:1053D0000E9499379B01AC01C801B7010E940E36AB
:1053E000DF91CF911F910F91FF90EF900895CF9390
:1053F000DF93EC016EE00E947629482F4062CE01D7
:105400006EE00E946428CE016EE00E94762985FD40
:10541000FACFDF91CF9108950F931F938C016FE026
:105420000E947629482F4E7FC8016FE00E946428B1
:105430001F910F9108950F931F938C016EE04CE123
:105440000E9464286AE070E080E090E00E94F830FA
:10545000C80162E00E947629482F4F7BC80162E0B4
:105460000E9464286AE070E080E090E00E94F830DA
:1054700081E01F910F910895FC0160830895DF92F0
:10548000EF92FF920F931F93FC01F62ED42EE52E80
:1054900002E116E0C80160810E942D1EC8016F2D37
:1054A0000E94B91EC8016E2D0E94B91EC8016D2D43
:1054B0000E94B91EC8010E94FC1E1F910F91FF900F
:1054C000EF90DF900895CF92DF92EF92FF920F93CB
:1054D0001F938C01D62E82E1E82E86E0F82EC701BC
:1054E000F80160810E942D1EC7016D2D0E94B91E1A
:1054F000C7010E94FC1EC701F80160810E942D1E99
:10550000C701F801608142E00E94111FC7010E949B
:105510004A1E182F00E0C7010E944A1E6C01C701F5
:105520000E94FC1E0C291D29C8011F910F91FF909C
:10553000EF90DF90CF90089560E00E94632A089575
:1055400061E00E94632A9C01359527953595279542
:10555000C90108952F923F924F925F926F927F926E
:105560008F929F92AF92BF92CF92DF92EF92FF9273
:105570000F931F93DF93CF9300D000D0CDB7DEB74A
:105580008C010E94A02AAA2797FDA095BA2FBC01E2
:10559000CD010E940D376B017C01C8010E949C2A3D
:1055A000AA2797FDA095BA2FBC01CD010E940D3707
:1055B00020E030E44CE153E40E94993720E030E0F1
:1055C0004AE754E40E94723620E030E04AE754E4AF
:1055D0000E9472361B012C01C701B60120E030E0A9
:1055E00040E05DE30E94993723E333E948E853E460
:1055F0000E940E363B014C0123E333E145E953E4BD
:105600000E940D367B018C0122E430E645EE5AE320
:105610000E94993720E030E040E85FE30E940E36B8
:105620005B016C01C801B70127EC32EC4CE857EB89
:105630000E949937A80197010E9499379B01AC01FC
:10564000C601B5010E940E362DEC3CEC4CEC50E44A
:105650000E94993720E836E948E15BE40E947236FF
:1056600069837A838B839C83C201B10120E030E09F
:105670004AE754E40E9472361B012C01C801B701AD
:105680002AE132E049E155EB0E94993725E030EA02
:1056900046EF57E30E940D365B016C01C801B7016C
:1056A00029EE35E14FE951E30E949937A8019701AE
:1056B0000E9499379B01AC01C601B5010E940E36CC
:1056C0009B01AC01C201B1010E940D367B018C012E
:1056D000C401B301A40193010E949937A40193016D
:1056E0000E949937A40193010E9499375B016C01D4
:1056F000C801B70126E636E646E551E40E9499372F
:10570000A80197010E9499379B01AC01C801B7011C
:105710000E940E367B018C0169817A818B819C818C
:1057200020E836E948E15BE40E9472369B01AC0157
:10573000C801B7010E9472369B01AC01C601B501D8
:105740000E940E360E944C380E944C3823E333E905
:1057500048E853E40E940D360F900F900F900F9081
:10576000CF91DF911F910F91FF90EF90DF90CF903D
:10577000BF90AF909F908F907F906F905F904F9071
:105780003F902F900895EF92FF920F931F938C01FB
:10579000E62E82E196E00E94151F4E2D50E05167E3
:1057A000C80162E00E943F2AC8016EEF0E94632A8E
:1057B0007C01C8016FEF0E94632A29E4E21624E508
:1057C000F20611F020E005C020E08736910509F4CB
:1057D00021E0822F1F910F91FF90EF900895FC011F
:1057E00085E791E091838083638314821582178219
:1057F000168211861086228733874487558708953D
:10580000FC01658308956F927F928F929F92AF9271
:10581000BF92CF92DF92EF92FF920F931F93CF939D
:10582000DF93FC01EA01468157814115510531F0B2
:105830004130510531F488E890E905C084E293E1F4
:1058400002C088EE9DEF8617970708F4DEC08C171C
:105850009D0708F4DAC04115510551F0413051055A
:1058600071F417EEE12E1FE0F12E012D112D0CC069
:10587000B7E1EB2EB5E7FB2E012D112D05C0E12C74
:10588000A4E0FA2E012D112D80859185892B39F404
:10589000E4E0EE0CFF1C001F111FEA95D1F79B01FD
:1058A00040E050E0C801B7010E94B8395B016C01CB
:1058B0005AE0D694C794B794A7945A95D1F79E010D
:1058C00040E050E0C801B7010E94B8393B014C01EB
:1058D0004AE096948794779467944A95D1F7A114F7
:1058E000B104C104D10429F480E090E0A0E0B0E06C
:1058F0000FC0C401B3013AE0660F771F881F991FDC
:105900003A95D1F7A60195010E94D739C901DA016C
:105910000196A11DB11DB695A795979587958134E0
:105920009105A105B10528F462EF71E0CEEBD1E05D
:1059300049C081389105A105B10528F464E172E000
:10594000C1EDD2E03FC0813C9105A105B10528F42D
:105950006FE372E0CBE7D3E035C0813021E09207FE
:1059600020E0A20720E0B20728F460E772E0CEEF63
:10597000D3E028C0893321E0920720E0A20720E08D
:10598000B20728F46FE671E0CCEFD1E01BC08B3991
:1059900021E0920720E0A20720E0B20728F462EDA0
:1059A00070E0CBEFD0E00EC08B599240A040B040E9
:1059B00028F060E070E0C0E0D0E004C068E170E092
:1059C000C2E1D0E080E090E0A60195010E94B839E4
:1059D0007B018C0180E090E2A0E0B0E0E80EF91ECF
:1059E0000A1F1B1FBE0180E090E0A40193010E94EA
:1059F000B839E61AF70A080B190B8EE016950795C9
:105A0000F794E7948A95D1F703C0EE24FF24870129
:105A1000B701C801DF91CF911F910F91FF90EF90D7
:105A2000DF90CF90BF90AF909F908F907F906F90BE
:105A30000895EF92FF920F931F937C018B0188E2F0
:105A4000FB0111928A95E9F7CB0166E271E04BE028
:105A500050E00E947801F801138681E090E0A0E018
:105A6000B0E084879587A687B787F70182859385FD
:105A7000A485B585F801808B918BA28BB38B85E0D3
:105A800090E0A0E0B0E0848B958BA68BB78B14A23E
:105A900015A216A217A280E090EDA4E8B6E4808FCC
:105AA000918FA28FB38F80E090E0A0E0B0E0848F70
:105AB000958FA68FB78F80E090E0A0E8BFE380A32A
:105AC00091A3A2A3B3A31F910F91FF90EF9008950C
:105AD000BF92CF92DF92EF92FF920F931F93B62E59
