:100000000C942E010C945F280C948C280C945601AF
:100010000C9456010C9456010C9456010C94560104
:100020000C9456010C9456010C9456010C945601F4
:100030000C9456010C9456010C9456010C945601E4
:100040000C94B9280C9456010C940B2C0C948E2C07
:100050000C9456010C9456010C9456010C945601C4
:100060000C947B170C94560107634236B79BD8A7B4
:100070001A39685618AEBAAB558C1D3CB7CC5763CD
:10008000BD6DEDFD753EF6177231BF000000803F7B
:1000900008000000BE922449123EABAAAA2ABECD97
:1000A000CCCC4C3E00000080BEABAAAAAA3E000009
:1000B0000000BF000000803F000000000008417801
:1000C000D3BB4387D1133D190E3CC3BD4282AD2B38
:1000D0003E68EC8276BED98FE1A93E4C80EFFFBE30
:1000E00001C4FF7F3F0000000000005EBCE2613FF2
:1000F000DD83C29C7E20A3FD1F419DC3217FFCA206
:10010000401E5F01E3BD3E6082DC237D9FC1421C37
:10011000FEA0E1BF5D0380DE3C62BEE0025CDF81E9
:10012000633D7C22C09E1D43A1FF4618FAA4277997
:100130009BC584DA3866E5BB5907DB856739BAE4C5
:1001400006581947A5FB7826C49A653BD987045AF7
:10015000B8E6A7F91B45C6987A24F8A6441A99C7A9
:10016000257B3A6486D85B05E7B98CD2306EEDB357
:10017000510F4E10F2AC2F7193CD114FADF3702E85
:10018000CC92D38D6F31B2EC0E50AFF1134DCE90B7
:10019000722C6D33D18F0C52B0EE326C8ED0530D69
:1001A000EFB1F0AE4C1291CF2D73CA947628ABF517
:1001B00017490856B4EA6937D58B5709EBB5366845
:1001C0008AD495CB2977F4AA4816E9B7550B88D677
:1001D000346A2B7597C94A14F6A8742AC896154B29
:1001E000A9F7B6E80A54D7896B351F1C1F1E1F1EBE
:1001F0001F1F1E1F1E1F00000000240027002A00D2
:1002000000000000250028002B0000000000230053
:100210002600290004040404040404040202020267
:1002200002020303030303030102040810204080B9
:100230000102040810200102040810200000000739
:10024000000201000003040600000000000000009E
:10025000C801CC098D151316412CC10111241FBEF4
:10026000CFEFD8E0DEBFCDBF12E0A0E0B1E0E8E123
:10027000F5E602C005900D92A23DB107D9F718E04E
:10028000A2EDB2E001C01D92A937B107E1F712E07B
:10029000CAE5D2E004C02297FE010E947B32C0353D
:1002A000D107C9F70E94B42C0C947F320C94000043
:1002B000FB01DC014150504048F001900D920020BC
:1002C000C9F701C01D9241505040E0F708950895CC
:1002D0000F931F938130910509F047C06F5F7F4FE7
:1002E00009F04CC082ED92E069E00E94141B80EEA0
:1002F00092E062ED72E00E944A1B83EF92E064E4B8
:100300000E94862284EF92E063E046E123E00E94AF
:10031000271F82E093E069E32FEF3FEF4FEF5FEF9E
:100320000E9439248AED93E00E94F80885EF93E05B
:100330000E945B1383E794E040E050E060E070E0EF
:1003400000E010E020E030E00E943F148BE794E0F2
:1003500063E774E04EE653E02091D2030E947614E6
:100360008EE894E00E94311309C0892B39F46F5F45
:100370007F4F21F48AED93E00E940B091F910F91AA
:10038000089580E090E06FEF7FEF0E94680108958C
:1003900081E090E06FEF7FEF0E946801089584E0B4
:1003A00060E00E942C2A089585E060E00E942C2ADB
:1003B00008958CED97E060E071E00E94522E089560
:1003C0008CED97E06BE071E00E94522E08958CED69
:1003D00097E067E371E00E94522E089585E061E0A6
:1003E0000E942C2A68EE73E080E090E00E94602971
:1003F00008950F931F935A9A529883B7817F846010
:1004000083BF04ED13E0C8010E94562280E067E636
:1004100071E040E050E00E942928C80162E00E949B
:10042000CD2083B7816083BF83B7816083BF889508
:1004300083B78E7F83BF1F910F9108950E94D401CF
:100440000E94CF010E94F901089580E00E944C288B
:1004500083B78E7F83BF089580E161E00E94ED291C
:1004600080E161E00E942C2A85E597E00E94B716A2
:1004700008950E9425020E94EE010E942C02089518
:100480000F931F9308ED13E0C8010E941A28C801BA
:100490000E94E6278093A8041092A9041F910F914F
:1004A00008956F927F928F929F92AF92BF92CF9258
:1004B000DF92EF92FF920F931F93CF93DF93EC01A4
:1004C0000E940D29662477244301AA24BB246501D8
:1004D0007E010027F7FC0095102FE60EF71E081F7F
:1004E000191F0E940D296E157F0580079107A0F442
:1004F0001C161D068CF480E00E94CB29AA2797FDCC
:10050000A095BA2F680E791E8A1E9B1E0894A11C06
:10051000B11CC11CD11CE5CFC401B301A6019501DA
:100520000E945E32C901DF91CF911F910F91FF9020
:10053000EF90DF90CF90BF90AF909F908F907F9083
:100540006F90089584E690E00E9451029093A50474
:100550008093A4040895DF93CF93CDB7DEB7A4971B
:100560000FB6F894DEBF0FBECDBF82E093E0BE01B0
:100570006F5F7F4F0E946C276D897E898F89988D70
:100580000E94332F7093A3046093A204A4960FB625
:10059000F894DEBF0FBECDBFCF91DF9108950F93CA
:1005A0001F9302E013E0C8010E948D26C80162E09B
:1005B00070E00E94C1271F910F91089584EF92E08F
:1005C0000E942E1F08950F931F9300EE12E0C801A2
:1005D0000E94BE1EC8016CE00E947B1E83EF92E069
:1005E00060E00E940D241F910F9108950E94E30284
:1005F0000E94DE020E94CF020895DF92EF92FF92E6
:100600000F931F93DF93CF93CDB7DEB72E970FB61F
:10061000F894DEBF0FBECDBF0E9401212887398725
:100620004A875B876C877D878E87DE011196FE0186
:10063000389687E001900D928150E1F7DE80ED80E1
:10064000FC800B811A81698170E06053784F8CEDDA
:1006500097E04AE050E00E949C2D8CED97E060E628
:1006600071E00E944F2E1A3040F48CED97E060E06C
:1006700070E04AE050E00E941D2E8CED97E0612F63
:100680004AE050E00E94AD2D8CED97E060E671E00D
:100690000E944F2E0A3040F48CED97E060E070E04D
:1006A0004AE050E00E941D2E8CED97E0602F4AE05A
:1006B00050E00E94AD2D8CED97E062E671E00E9463
:1006C0004F2E89E08F1540F08CED97E060E070E0F0
:1006D0004AE050E00E941D2E8CED97E06F2D4AE01D
:1006E00050E00E94AD2D8CED97E064E671E00E9431
:1006F0004F2E89E08E1540F08CED97E060E070E0C1
:100700004AE050E00E941D2E8CED97E06E2D4AE0ED
:1007100050E00E94AD2D8CED97E064E671E00E9400
:100720004F2E89E08D1540F08CED97E060E070E091
:100730004AE050E00E941D2E8CED97E06D2D4AE0BE
:1007400050E00E94BF2D2E960FB6F894DEBF0FBE6C
:10075000CDBFCF91DF911F910F91FF90EF90DF9070
:1007600008958CED97E066E671E00E944F2E0E949E
:10077000FD020895EF92FF920F931F939CEDE92ED7
:1007800097E0F92EC7016FE671E00E944F2E08ED49
:1007900013E0C8010E941A28C8010E94E627682FAA
:1007A000C7014AE050E00E94AD2DC70167E871E043
:1007B0000E944F2EC8010E94FC27BC01C7010E9465
:1007C000522EC7010E94992B1F910F91FF90EF901D
:1007D0000895EF92FF920F931F93DF93CF93CDB7BE
:1007E000DEB72E970FB6F894DEBF0FBECDBF0E94C6
:1007F0001E020E9425027E010894E11CF11C8E015C
:10080000085F1F4F06C00E94BA030E941E020E948A
:1008100025020E940121288739874A875B876C87D8
:100820007D878E87D701F80187E001900D92815076
:10083000E1F78D816AE00E943032992321F72E96EC
:100840000FB6F894DEBF0FBECDBFCF91DF911F91E1
:100850000F91FF90EF9008950F931F930CED17E009
:10086000C8016CE871E00E944F2E6091980470916D
:100870009904C8014AE050E00E94302EC80167E99F
:1008800071E00E944F2E60919A0470919B04C80100
:100890004AE050E00E94302EC80163EA71E00E94F5
:1008A0004F2E60919C0470919D04C8014AE050E075
:1008B0000E94302EC80162EB71E00E944F2E6091C1
:1008C0009E0470919F04C8014AE050E00E94302EBF
:1008D000C8016EEB71E00E944F2E6091A0047091F0
:1008E000A104C8014AE050E00E94302EC80169EC22
:1008F00071E00E944F2E6091A2047091A304C80180
:100900004AE050E00E94302EC80167ED71E00E947D
:100910004F2E6091A4047091A504C8014AE050E0F4
:100920000E94302EC80165EE71E00E944F2E60914A
:10093000A6047091A704C8014AE050E00E94302E3E
:100940001F910F9108950F931F930CED17E0C801AD
:100950006FEE71E00E944F2EC80168E070E04AE03F
:1009600050E00E94302E1F910F910895AF92CF92C8
:10097000EF92FF920F931F93DF93CF93CDB7DEB724
:1009800063970FB6F894DEBF0FBECDBFCE010196C0
:1009900063E774E04EEF5FEF20E000E0EEE6EE2E5E
:1009A000E3E0FE2EC090D20338E0A32E0E944D1447
:1009B0008B8180937D048C8180937E048D819E81C8
:1009C0009093800480937F048F8180938104A2E8B8
:1009D000B4E0FE01389688E001900D928150E1F775
:1009E0008889998990938B0480938A048A8980935B
:1009F0008C048B8980938D0400E010E0A89585EF2E
:100A000093E06BE774E00E941D1585EF93E068EEBC
:100A100073E00E94A2158823F9F08CED97E06BE05B
:100A200072E00E94522E85EF93E00E94A2130E9472
:100A300029138B3831F585EF93E00E94A2136EE8FD
:100A400074E00E9438138EE894E00E9432138823E9
:100A5000C1F40E94E0011BC085EF93E00E94A21345
:100A60000E942C13882339F08CED97E06DE172E041
:100A70000E94522E06C08CED97E064E372E00E9463
:100A80004F2E0F5F1F4F0430110509F0B7CF63964B
:100A90000FB6F894DEBF0FBECDBFCF91DF911F918F
:100AA0000F91FF90EF90CF90AF90089585E061E0B7
:100AB0000E94ED290E94EE0185EF93E06CED77E056
:100AC0000E946D130895EF92FF920F931F937B0185
:100AD0008C01CA010197049728F061E070E080E082
:100AE00090E015C0BA01882777FD8095982F0E9465
:100AF000662F9B01AC0160E070E080E291E40E940F
:100B000055309B01AC01CA01B9010E94332F0E94EC
:100B1000662F9B01AC01C801B7010E94F22F0E9411
:100B2000332FCB011F910F91FF90EF90089580E13B
:100B300093E068EE73E00E94250842E050E00E94D6
:100B400063059093A7048093A604089584EF92E030
:100B50000E94FA1F42E050E00E9463059093A104B6
:100B60008093A00408950F931F9300EE12E0C80134
:100B70000E945E1DC80162E772E00E948F1D42E084
:100B800050E00E9463059093990480939804C801F3
:100B90006AE772E00E948F1D42E050E00E94630508
:100BA00090939B0480939A0483EF92E00E94F42236
:100BB00042E050E00E94630590939D0480939C0462
:100BC00004ED13E0C8010E944122C8010E94E02107
:100BD00042E050E00E94630590939F0480939E043E
:100BE0001F910F9108950E94A6050E94B3050E94CF
:100BF000AB020E94A2020E9497050E944002089543
:100C0000DF93CF93CDB7DEB72E970FB6F894DEBF44
:100C10000FBECDBF0E940121288739874A875B8795
:100C20006C877D878E87DE011196FE01389687E0FE
:100C300001900D928150E1F7CE0101960E94512062
:100C4000AB01BC012091D203243660F4E22FF0E026
:100C5000E259FC4F872F9927AA27BB2780832F5F54
:100C60002093D2032091D203243668F4E22FF0E0DF
:100C7000E259FC4FCB01BB2797FDB095AB2F80838A
:100C80002F5F2093D2032091D203243670F4E22FF9
:100C9000F0E0E259FC4FBB2777FDBA95A72F962FBE
:100CA000852F80832F5F2093D2038091D2038436D7
:100CB00040F4E82FF0E0E259FC4F40838F5F8093CF
:100CC000D2032E960FB6F894DEBF0FBECDBFCF91E4
:100CD000DF9108959091D203943648F4E92FF0E023
:100CE000E259FC4F88E080839F5F9093D2030E947B
:100CF000000640919804509199042091D203243623
:100D000060F4E22FF0E0E259FC4F852F992787FD30
:100D10009A9580832F5F2093D2038091D2038436EB
:100D200040F4E82FF0E0E259FC4F40838F5F80935E
:100D3000D20340919A0450919B042091D20324360F
:100D400060F4E22FF0E0E259FC4F852F992787FDF0
:100D50009A9580832F5F2093D2038091D2038436AB
:100D600040F4E82FF0E0E259FC4F40838F5F80931E
:100D7000D20340919C0450919D042091D2032436CB
:100D800060F4E22FF0E0E259FC4F852F992787FDB0
:100D90009A9580832F5F2093D2038091D20384366B
:100DA00040F4E82FF0E0E259FC4F40838F5F8093DE
:100DB000D20340919E0450919F042091D203243687
:100DC00060F4E22FF0E0E259FC4F852F992787FD70
:100DD0009A9580832F5F2093D2038091D20384362B
:100DE00040F4E82FF0E0E259FC4F40838F5F80939E
:100DF000D2034091A0045091A1042091D203243643
:100E000060F4E22FF0E0E259FC4F852F992787FD2F
:100E10009A9580832F5F2093D2038091D2038436EA
:100E200040F4E82FF0E0E259FC4F40838F5F80935D
:100E3000D2034091A2045091A3042091D2032436FE
:100E400060F4E22FF0E0E259FC4F852F992787FDEF
:100E50009A9580832F5F2093D2038091D2038436AA
:100E600040F4E82FF0E0E259FC4F40838F5F80931D
:100E7000D2034091A4045091A5042091D2032436BA
:100E800060F4E22FF0E0E259FC4F852F992787FDAF
:100E90009A9580832F5F2093D2038091D20384366A
:100EA00040F4E82FF0E0E259FC4F40838F5F8093DD
:100EB000D2034091A6045091A7042091D203243676
:100EC00060F4E22FF0E0E259FC4F852F992787FD6F
:100ED0009A9580832F5F2093D2038091D20384362A
:100EE00040F4E82FF0E0E259FC4F40838F5F80939D
:100EF000D2039091A8048091D203843640F4E82F65
:100F0000F0E0E259FC4F90838F5F8093D203909181
:100F1000D203943648F4E92FF0E0E259FC4F8AE01E
:100F200080839F5F9093D20308950E94B103F89449
:100F3000A89589E228E130E00FB6F894A8952093AF
:100F400060000FBE8093600078940E94F3050E94B9
:100F50002C04A8951092D2031092D3030E946A0623
:100F600060E679E080E090E00E9460290E94B6048B
:100F70000E94E701F894A89588E10FB6F894809351
:100F80006000109260000FBE789468E873E180E022
:100F900090E00E9460290E94D9010E94E9030E940A
:100FA00039020895F894A89588E10FB6F8948093D3
:100FB0006000109260000FBE78948CED97E040E0E6
:100FC00051EE60E070E026E00E94032B85E597E09B
:100FD0000E94B7160E94560584ED93E00E94652298
:100FE0001092D2031092D3030E94F6020E94A3042F
:100FF00008958EE480937C0062E070E080E090E0F1
:101000000E94602980917A00806480937A008091A8
:101010007A0086FDFCCF8091780090E0A0E0B0E0FF
:1010200060917900362F20E0442737FD4095542FFA
:10103000282B392B4A2B5B2B60E070E381E190E099
:101040000E945E32CA01B90108952F923F924F92D9
:101050005F926F927F928F929F92AF92BF92CF9248
:10106000DF92EF92FF920F931F93CF93DF93EC01E8
:101070002B010E94F9073B014C01CC24DD249CE4A8
:10108000A92EB12CAC0EBD1E88E4282E312C2C0EBE
:101090003D1E53C08AA59BA599A788A78E890E944B
:1010A000CB299BA78AA7E8ACF9AC0AAD1BADECAA8B
:1010B000FDAA0EAB1FABAA2797FDA095BA2FBC01C6
:1010C000CD010E94662F9B01AC01C801B7010E94AF
:1010D000672E7B018C0168A579A5882777FD80950F
:1010E000982F0E94662F9B01AC01C801B7010E9496
:1010F000662E2BED39EF4EE75FE30E94F22F9B0146
:10110000AC0168AF79AF8AAF9BAF0E94F22F9B0111
:10111000AC01F1016083718382839383F501608167
:101120007181828193810E94672EF50160837183B2
:10113000828393830894C11CD11CC414D5040CF47D
:10114000A9CFB201882777FD8095982F0E94662F3E
:101150009B01AC01F50160817181828193810E94C4
:10116000CB2E0E94A5307B018C01B301882777FD2F
:101170008095982F0E94662F20E030E04AE754E4E3
:101180000E94CB2E20E030E040E85AE30E94F22F8C
:101190002C8D3D8D4E8D5F8D0E94F22FA801970101
:1011A0000E94F22F688B798B8A8B9B8B80E090E07A
:1011B000A0E0B0E0F50180839183A283B383288906
:1011C00039894A895B89B901CA01DF91CF911F91A1
:1011D0000F91FF90EF90DF90CF90BF90AF909F90D6
:1011E0008F907F906F905F904F903F902F900895D9
:1011F000FC011382128288EE93E0A0E0B0E08483C9
:101200009583A683B7838BE892E091838083128EC7
:10121000118E14860895FC018BE892E091838083FF
:101220000895DF93CF930F92CDB7DEB7FC016983AA
:10123000A081B18112962D913C911397BE016F5FF1
:101240007F4F41E050E0F90109950F90CF91DF9178
:101250000895DC015996ED91FC915A97309719F455
:1012600020E030E018C02389348945895689828579
:101270009385A485B585281B390B4A0B5B0B203061
:10128000B0E83B07B0E04B07B0E05B0720F02FEF82
:101290003FE740E050E0C9010895FC01818D928D47
:1012A000009711F00E94460D0895DF93CF930F929F
:1012B000CDB7DEB7FC01818D928D009749F0BE015C
:1012C0006F5F7F4F41E050E00E94900D019719F051
:1012D0002FEF3FEF03C08981282F30E0C9010F9025
:1012E000CF91DF910895EF92FF920F931F93DF93B9
:1012F000CF930F92CDB7DEB77C01DC0159968D916B
:101300009C915A97009719F400E010E01FC0BE01AD
:101310006F5F7F4F41E050E00E94900D019719F000
:101320000FEF1FEF13C08981082F10E0D7015996E6
:10133000ED91FC915A97428553856485758541509E
:10134000504060407040CF010E94800CC8010F9057
:10135000CF91DF911F910F91FF90EF900895CF9360
:10136000DF93EC01E98DFA8D309761F013821282E0
:10137000CF010E94CC0E9C01E98DFA8D8281938170
:10138000892B31F081E090E09B838A8320E030E07C
:10139000C901DF91CF9108951092AF041092B0046B
:1013A0001092B3041092B50482E090E0A0E0B0E0A7
:1013B0008093B7049093B804A093B904B093BA048F
:1013C0001092CE041092D8041092D7048BE992E0C8
:1013D0009093D6048093D5041092DA040895382FA0
:1013E0008091F4048F3F31F43EBD0DB407FEFDCF74
:1013F0008EB50895F894A091F504B091F60450913B
:10140000F704252F2095E091F804F091F90440911C
:10141000FA04642F609590E08C9182238C9337FFBF
:1014200003C08081842B02C08081862380838C91BD
:10143000852B8C939F5F983011F0330FEDCF000018
:101440000000000000008C9128232C9378940895CC
:101450008091F4048F3F31F48EBD0DB407FEFDCFB3
:101460002EB530C0F894E091F804F091F904808131
:101470009091FA04892B8083E091F504F091F604B1
:101480006091F704A091FB04B091FC048091FD04ED
:10149000482F50E0762F709520E030E08081862B39
:1014A0008083220F8C9190E084239523892B09F06F
:1014B0002160808187238083000000003F5F3830F7
:1014C00069F77894822F08950F931F93CF93DF933A
:1014D0008B010E940D29EB010E94280A8F3F11F415
:1014E00081E008C00E940D296C1B7D0B60177107FD
:1014F00098F380E0DF91CF911F910F910895FC0147
:10150000848160E00E942C2A0895FC01848161E0BE
:101510000E942C2A0895CF92DF92EF92FF920F93B0
:101520001F93CF93DF937C016A01FC01848588239C
:1015300019F40FEF1FEF30C000E010E040E050E082
:10154000212F332727FD3A95F601E40FF51F8081FF
:1015500090E0282739273070C901F4E095958795E8
:10156000FA95E1F782279327102F002708271927DC
:101570009C01322F22273295307F0227132725E046
:10158000880F991F2A95E1F7082719274F5F5F4FAA
:10159000F2E040305F07A1F6862F0E94EF09C0E01D
:1015A000D0E0F601EC0FFD1F80810E94EF0921962B
:1015B00082E0C030D807A9F7812F992787FD9A9537
:1015C0000E94EF09802F0E94EF090E94280AF7016C
:1015D00082878F71853011F481E007C081E1F701C6
:1015E0008583C7010E94850A80E0DF91CF911F911A
:1015F0000F91FF90EF90DF90CF9008950F931F937E
:10160000CF93DF93EC010E940D298B0109C00E944A
:101610000D29601B710B6D52714010F08FE00AC0F4
:101620000E94280A8A878F3F91F38E3F11F481E050
:1016300006C08DE08D83CE010E94850A80E0DF9197
:10164000CF911F910F910895CF93DF93EC018E817D
:10165000882319F40FC00E94280A8F81988501966B
:1016600098878F83019782509240A8F3CE010E9401
:10167000850A1E82DF91CF910895DF92EF92FF924B
:101680000F931F93CF93DF93EC01D62E79018A013C
:101690000E94240BCE010E947F0ACE016CE271E011
:1016A0000E94640A8D2D80640E94EF09812F992782
:1016B000AA27BB270E94EF09C801AA27BB270E94BF
:1016C000EF09BB27A12F902F8F2D0E94EF098E2DA0
:1016D0000E94EF09DD2011F485E906C088E0D816E4
:1016E00011F487E801C08FEF0E94EF0910E00E941B
:1016F000280A8A8787FF02C01150C9F7DF91CF916E
:101700001F910F91FF90EF90DF900895CF92DF929D
:10171000EF92FF920F931F93CF93DF93EC017A0127
:101720008B016901411551056105710511F482E1D3
:1017300033C08B85833039F039E0EE0CFF1C001F7D
:10174000111F3A95D1F7CE0168E1A80197010E94D7
:101750003D0B882311F084E01FC0CE016EEFA6017F
:101760000E948B0A8823C9F0CE0168E572E00E94CE
:10177000640A882311F485E10FC0CE016DE020E0FA
:1017800030E040E050E00E943D0B882321F40E94AD
:10179000280A882379F084E18D83CE010E94850A8E
:1017A00080E0DF91CF911F910F91FF90EF90DF903C
:1017B000CF900895CE010E94850A81E0F2CF6F920A
:1017C0007F928F929F92AF92BF92CF92DF92EF92D1
:1017D000FF920F931F93CF93DF93EC015A016B019C
:1017E000390148010115110509F46AC0C801820FC9
:1017F000931F8150924008F05EC08E81882371F063
:1018000088819981AA81BB81481759076A077B079C
:1018100029F48F8198856816790650F5A882B982D7
:10182000CA82DB828B85833039F0E9E0AA0CBB1CCD
:10183000CC1CDD1CEA95D1F7CE0161E1A601950132
:101840000E943D0B882319F083E08D8334C0CE01C4
:101850000E94FE0A882379F118861F8281E08E8318
:1018600007C00E94280A8F819885019698878F83E8
:101870008F81988586159705A0F300E010E008C0D9
:101880000E94280AF701E00FF11F80830F5F1F4FAE
:1018900008151905A8F32F813885280D391D3887BB
:1018A0002F838985882319F02050324048F0CE01DB
:1018B0000E94240B05C0CE010E94850A80E001C071
:1018C00081E0DF91CF911F910F91FF90EF90DF901A
:1018D000CF90BF90AF909F908F907F906F90089522
:1018E000EF92FF920F931F93790120E030E000E028
:1018F00012E00E94DF0B1F910F91FF90EF9008956F
:101900006F927F928F929F92AF92BF92CF92DF920F
:10191000EF92FF920F931F93CF93DF93EC017A0125
:101920008B012D81222309F480C08B899C89AD898C
:10193000BE8984179507A607B70708F476C085C047
:10194000E114F1040105110549F41E821F82188675
:1019500019861A861B861C861D8665C02A853B85CE
:101960004C855D85EB8DFC8D858590E00996215039
:1019700030404040504039014A01082E04C096943E
:101980008794779467940A94D2F72F5F3F4F4F4F15
:101990005F4F0894E108F108010911095701680136
:1019A00004C0D694C794B794A7948A95D2F70894A4
:1019B000E11CF11C011D111DA614B704C804D904B3
:1019C00028F0211531054105510549F48F89988D7D
:1019D000A98DBA8D8E839F83A887B98716C0A61854
:1019E000B708C808D90811C04E815F81688579851C
:1019F0008B8D9C8D94010E94A7110894A108B108B9
:101A0000C108D108882331F410C086E0882E912CBB
:101A10008C0E9D1EA114B104C104D10429F7EA86DD
:101A2000FB860C871D8781E001C080E0DF91CF91AC
:101A30001F910F91FF90EF90DF90CF90BF90AF90EC
:101A40009F908F907F906F900895223009F078CF0B
:101A5000E6CFCF93DF93EC01462F6E857F85888993
:101A600099890E94D010882319F420E030E00AC040
:101A70008A89282F30E095E0220F331F9A95E1F7ED
:101A800020503B4FC901DF91CF9108950F931F93D1
:101A9000CF93DF938C01FC0185818823D9F1848168
:101AA00087FF35C0C80161E00E94290DEC01009755
:101AB00089F1F8018581823040F483899489A58970
:101AC000B6898C8F9D8FAE8FBF8FF8018789908DDF
:101AD0009B8F8A8F8789908DA18DB28DCD01AA278A
:101AE000BB279D8B8C8BE091FE04F091FF04309717
:101AF00051F0BE016A5E7F4FCE0148960995888DF0
:101B0000998D9B8B8A8BF80184818F7784830E94C7
:101B1000951001C080E0DF91CF911F910F91089542
:101B20002F923F924F925F926F927F928F929F92ED
:101B3000AF92BF92CF92DF92EF92FF920F931F93DB
:101B4000CF93DF93EC012A018D81882309F4C6C06D
:101B50008C8180FFC3C0D8C025014E185F084B019F
:101B600076E0272E312C2C0E3D1E3201B1C02A8585
:101B70003B854C855D856FEFA62E61E0B62EA222D7
:101B8000B3228D8179018A0199E016950795F79422
:101B9000E7949A95D1F7EB8DFC8D823049F4428D14
:101BA000538D648D758D4E0D5F1D601F711F3FC07D
:101BB000D480DA94DE20A114B104D9F4DD20C9F474
:101BC000211531054105510549F48F89988DA98D5D
:101BD000BA8D8E839F83A887B9870BC04E815F81A2
:101BE00068857985CF0191010E94A711882309F4A6
:101BF00075C0EB8DFC8D4E815F8168857985425083
:101C0000504060407040058404C0440F551F661F5B
:101C1000771F0A94D2F786859785A089B189480FE6
:101C2000591F6A1F7B1F4D0D511D611D711D80E0E5
:101C300092E08A199B0963018615970508F46C01E7
:101C40008C8186FD06C080E0C81682E0D80609F0C7
:101C500073C08091820290918302A0918402B0911E
:101C60008502481759076A077B0709F465C0809108
:101C70000007909101079501860174010E94DF0B16
:101C8000882361F18C0C9D1C12C0950120503B4FA4
:101C9000A9014C0D5D1DD401F90102C081918D9304
:101CA000E417F507D9F7E21BF30B8E0E9F1E960182
:101CB00040E050E08A859B85AC85BD85820F931FEF
:101CC000A41FB51F8A879B87AC87BD876C187D08CA
:101CD0006114710409F04BCFA20102C04FEF5FEF16
:101CE000CA01DF91CF911F910F91FF90EF90DF908C
:101CF000CF90BF90AF909F908F907F906F905F90AC
:101D00004F903F902F900895AB88BC88CD88DE8897
:101D1000EA84FB840C851D859A0140E050E0D601E1
:101D2000C5018E199F09A00BB10B82179307A40759
:101D3000B50708F411CF13CFCB01BA0140E00E94E0
:101D4000D010882309F0A1CFC9CFCF93DF93EC0146
:101D50009C012A5F3F4F8B8D9C8D41E050E060E0FD
:101D600070E00E941A128823A1F08F89988DA98DA6
:101D7000BA8D0097A105B10559F48E819F81A88580
:101D8000B9858F8B988FA98FBA8F8C8180688C834F
:101D900081E0DF91CF9108952F923F924F925F9211
:101DA0007F928F929F92AF92BF92CF92DF92EF92EB
:101DB000FF920F931F93DF93CF9300D000D000D0FA
:101DC000CDB7DEB76C01162F072F5E834D83DC0184
:101DD00015968C911597813009F070C114968C91ED
:101DE00081FF6CC18EC1F60143895489658976896A
:101DF00082859385A485B58584179507A607B707BF
:101E000031F0C6010E94800C882309F457C1812F4C
:101E1000902F9C0129012D803E8017C1D6015B9631
:101E2000ED91FC915C97DA01C90119E0B695A7958F
:101E3000979587951A95D1F774807A9478227FEFD9
:101E4000872E71E0972E82229322772009F04EC0D0
:101E50008114910409F04AC0D60116964D915D9106
:101E60006D917C911997411551056105710581F4BA
:101E700057968D919D910D90BC91A02D0097A10535
:101E8000B10549F1F60186839783A087B1872EC0FB
:101E9000CF019E012F5F3F4F0E94A711882309F4B5
:101EA00014C129813A814B815C81D6015B96ED9109
:101EB000FC915C978789803129F088EF9FEFAFEF25
:101EC000BFE004C088EF9FEFA0E0B0E0281739071B
:101ED0004A075B0730F0C6010E94A50E882331F443
:101EE000EDC0F601268337834087518780E092E07A
:101EF0008819990951018215930508F45C01D601EE
:101F00005B96ED91FC915C971696ED90FD900D918E
:101F10001C9119978EEF9FEFAFEFBFEFE80EF91E00
:101F20000A1F1B1F058404C0EE0CFF1C001F111F9D
:101F30000A94D2F786859785A089B189E80EF91EA3
:101F40000A1F1B1FE70CF11C011D111D90E0A916B3
:101F500092E0B90651F58091820290918302A0919E
:101F60008402B09185028E159F05A007B10761F428
:101F70008FEF9FEFAFEFBFEF8093820290938302CA
:101F8000A0938402B093850280910007909101078D
:101F9000B801A70192010E94860B882309F48EC024
:101FA000A0E0B2E04A0E5B1E3EC08114910409F528
:101FB000F601228533854485558583899489A589D1
:101FC000B689281739074A075B0798F00E949510D1
:101FD000882309F473C0E0928202F0928302009396
:101FE000840210938502809102078160809302072A
:101FF00008C0C801B70141E00E94D010882309F44D
:102000005DC0940120503B4FA9014A0D5B1DD201D8
:10201000F90102C08D918193E417F507D9F7E21B0E
:10202000F30B4E0E5F1E2A183B08950140E050E06E
:10203000F60182859385A485B585820F931FA41F21
:10204000B51F82879387A487B587D6011A962D91ED
:102050003D914D915C911D972114310409F0DECE24
:1020600053968D919D910D90BC91A02D8217930751
:10207000A407B50748F4F601238B348B458B568BA8
:1020800084818068848311C08091FE049091FF0454
:10209000892B59F08D819E81892B39F0D6011496B8
:1020A0008C911497806814968C93F601848183FF39
:1020B0000EC0C6010E94460D882349F481E090E0DD
:1020C000D60113969C938E9312971E821D828D814A
:1020D0009E8126960FB6F894DEBF0FBECDBFCF917E
:1020E000DF911F910F91FF90EF90DF90CF90BF9005
:1020F000AF909F908F907F905F904F903F902F90E8
:10210000089582FD70CE83CEDF93CF930F92CDB72B
:10211000DEB76983BE016F5F7F4F41E050E00E94F0
:10212000CC0E0F90CF91DF91089580910207882304
:1021300099F14091820250918302609184027091E2
:102140008502809100079091010720E035E00E9410
:10215000860B882319F14091030750910407609181
:10216000050770910607411551056105710591F04C
:10217000809100079091010720E035E00E94860BD6
:10218000882361F01092030710920407109205074C
:10219000109206071092020781E0089580E00895EA
:1021A000DF92EF92FF920F931F937B018C01D42E4D
:1021B0008091820290918302A0918402B091850265
:1021C0008E159F05A007B107C1F00E9495108823C6
:1021D000D9F08091000790910107B801A70120E094
:1021E00035E00E94700C882379F0E0928202F09230
:1021F00083020093840210938502809102078D2947
:102200008093020781E001C080E01F910F91FF9051
:10221000EF90DF9008954F925F926F927F928F922E
:102220009F92AF92BF92CF92DF92EF92FF920F9365
:102230001F93CF93DF93EC016A017B0128013901E1
:10224000423051056105710508F46FC089859A8592
:10225000AB85BC850196A11DB11D84179507A60706
:10226000B70708F462C02B893C894D895E898F8944
:10227000803129F499278F2D7E2D6D2D09C0C7013E
:10228000B60117E096958795779567951A95D1F7DA
:102290004B015C01820E931EA41EB51E809182022A
:1022A00090918302A0918402B091850288169906CC
:1022B000AA06BB0639F0C501B40140E00E94D01067
:1022C000882399F18F89803149F4F601F070EE0F7F
:1022D000FF1FE050FB4F518240820DC0F601EF77A7
:1022E000F070EE0FFF1FEE0FFF1FE050FB4F40821C
:1022F000518262827382809102078160809302071B
:102300008A89823080F08D819E81AF81B885880E68
:10231000991EAA1EBB1E8092030790920407A092EA
:102320000507B092060781E001C080E0DF91CF9100
:102330001F910F91FF90EF90DF90CF90BF90AF90E3
:102340009F908F907F906F905F904F900895CF9265
:10235000DF92EF92FF920F931F93CF93DF93EC01E5
:102360007A018B01690189859A85AB85BC850196C7
:10237000A11DB11D84179507A607B70708F450C023
:102380002B893C894D895E898F89803129F4992771
:10239000812F702F6F2D09C0C801B701E7E0969516
:1023A000879577956795EA95D1F7260F371F481FD0
:1023B000591F8091820290918302A0918402B09172
:1023C0008502281739074A075B0739F0CA01B901A6
:1023D00040E00E94D010882319F18F89803159F490
:1023E000F701F070EE0FFF1FE050FB4F80819181ED
:1023F000A0E0B0E00EC0F701EF77F070EE0FFF1F26
:10240000EE0FFF1FE050FB4F80819181A281B381CD
:10241000BF70F60180839183A283B38381E001C002
:1024200080E0DF91CF911F910F91FF90EF90DF90AF
:10243000CF9008952F923F924F925F926F927F922A
:102440008F929F92AF92BF92CF92DF92EF92FF92C4
:102450000F931F93DF93CF93CDB7DEB72F970FB6B0
:10246000F894DEBF0FBECDBF1C014A875B876C8727
:102470007D873F872E87D9010D911D912D913C912C
:10248000011511052105310549F04801590108944C
:10249000811C911CA11CB11C198610C0FC018080FC
:1024A0009180A280B38019868A859B85AC85BD8585
:1024B0000197A105B10511F491E09987D101199611
:1024C0008D919D910D90BC91A02D0196A11DB11DE6
:1024D0008D839E83AF83B88775016401442455249E
:1024E00032018E010F5F1F4FF10181859285A38517
:1024F000B485481659066A067B0608F090C08D819F
:102500009E81AF81B8858C159D05AE05BF0550F441
:1025100082E0882E912CA12CB12CB2E0CB2ED12CB4
:10252000E12CF12CC101B701A60198010E94A7116D
:10253000882309F474C089819A81AB81BC81A70189
:1025400096012F5F3F4F4F4F5F4F0097A105B10599
:1025500019F049015A010DC0281939094A095B09C6
:102560008A859B85AC85BD85281739074A075B0797
:1025700059F00894411C511C611C711C0894C11C29
:10258000D11CE11CF11CB0CFC101A601B7010FEFB6
:102590001FEF2FEF3FE00E940B11882399F43FC0FB
:1025A0002601370108944108510861087108C101EA
:1025B000B301A201970186010E940B11882379F1D2
:1025C000730162018C149D04AE04BF0448F3AE8510
:1025D000BF854D915D916D917C91411551056105CE
:1025E000710539F0C101950184010E940B11882306
:1025F000B1F0EE85FF8580829182A282B382F98557
:10260000FF2359F00894811C911CA11CB11CD1011D
:102610008D929D92AD92BC92139781E001C080E0B3
:102620002F960FB6F894DEBF0FBECDBFCF91DF91CE
:102630001F910F91FF90EF90DF90CF90BF90AF90E0
:102640009F908F907F906F905F904F903F902F90D2
:102650000895FC0182810895FC018085811181E04B
:1026600008950895FC010190F081E02D8481089582
:10267000FC01DB018081918111969C938E93828174
:1026800012968C931297878117968C931797858152
:1026900015968C931597808518968C93189786813C
:1026A00016968C931697838113968C931397848137
:1026B00014968C930895FC01128611861486158653
:1026C0001782108615820E9691838083E458FF4FFF
:1026D0008CED97E0918380830895FC01E458FF4FCF
:1026E000718360830895FC01E458FF4FA081B1819C
:1026F000ED91FC9111970480F581E02DCD010995B4
:1027000020E0892B09F021E0822F0895FC01E45894
:10271000FF4FA081B181ED91FC9111970680F78167
:10272000E02DCD0109950895FC01E458FF4FA081EB
:10273000B181ED91FC9111970284F385E02DCD01DB
:10274000099508950895DF92EF92FF920F931F93DA
:10275000CF93DF93EC018F81882321F48885882330
:1027600009F477C01A8619861C861F821A821B827A
:102770001C821D821E8218866CC0CE010E948613A8
:10278000982F8B878A85882399F09E3711F483E0F0
:102790003BC09D3769F4CE010E947313882331F04A
:1027A000CE010E94861381278B8702C0098759C0FA
:1027B0008985882321F08B8581278B8719868A85D7
:1027C000833020F08C859B85890F8C878A858130AA
:1027D00061F0813028F0823061F0833091F40DC0D7
:1027E0008B858E37F1F50A873CC08B858B83DA8623
:1027F00038C08B858C83EA8634C08B858A83FA86C1
:1028000030C08F3618F082E0888731C0282F30E042
:102810008C8190E003962817390781F48C858F3FCF
:1028200031F48B858D8381E08F83188602C081E02F
:1028300088878A8584508E831A8619C0E881F98139
:10284000E20FF31F34978B8580838A858F5F8A8799
:1028500008C032E0D32E01E023E0E22E94E0F92E0E
:1028600010E2CE010E947313882309F086CFDF9116
:10287000CF911F910F91FF90EF90DF9008950F93EC
:102880001F93FC0140835183628373830483158308
:10289000268337831F910F910895AF92CF92EF92C5
:1028A000FF920F931F93CF93DF93FC01122F80E1D0
:1028B0008283A382F582E482C68283EA92E09183D6
:1028C0008083EF012796DB0188E00D90099281500B
:1028D000E1F7508B4787118B028BDF91CF911F91CE
:1028E0000F91FF90EF90CF90AF900895CF93DF932B
:1028F000FC0180E1828381E08383558344832683C6
:1029000083EA92E091838083EF012796DB0188E0E0
:102910000D9009928150E1F78EEF9FEF908B8787A2
:10292000118A128ADF91CF910895FC01662311F478
:1029300082850895613011F481850895623029F40B
:1029400087819085A185B28512C0633011F487819B
:102950000895643011F486850895653011F48585F5
:102960000895663049F483859485A585B685892FB9
:102970009A2FAB2FBB270895673011F483850895F4
:10298000683011F480890895693011F487850895BD
:102990006A3011F4818908956B3011F482890895A9
:1029A0000480F581E02DE60FF11D3C9780810895AC
:1029B000FC018681845F08950F93DF93CF9300D04D
:1029C000CDB7DEB7FC01062F442321F1862F8D57AA
:1029D000823020F0613111F06331E1F4CF0184588D
:1029E0009F4F9A838983DC01ED91FC91A081B18195
:1029F0002D913C91CF016DE7F9010995A981BA812B
:102A0000ED91FC91A081B18160E260272D913C9114
:102A1000CF010BC0E458FF4F0190F081E02DA08161
:102A2000B1812D913C91CF01602FF90109950F9053
:102A30000F90CF91DF910F910895CF92DF92FF9287
:102A40000F931F93CF93DF936C01EB016EE740E090
:102A50000E94DC14E881F9810280F381E02DCE012F
:102A60000995082FE881F9810280F381E02DCE01DC
:102A70000995F82E10E00E5F1F4FC601612F41E04F
:102A80000E94DC1482E0F80EC6016F2D41E00E9426
:102A9000DC14C6016A8141E00E94DC14C6016B812E
:102AA00041E00E94DC14FB808A81F80E00E010E017
:102AB00018C0E881F9810190F081E02DCE01602FEE
:102AC0000995682FC60141E00E94DC14E881F98174
:102AD0000190F081E02DCE01602F0995F80E0F5F77
:102AE0001F4FE881F9810280F381E02DCE01099525
:102AF00090E008171907ECF2F094C6016F2D41E041
:102B00000E94DC14C6010E949413DF91CF911F91A3
:102B10000F91FF90DF90CF900895109207071092C9
:102B200008071092090710920A078FEF9FEFA0E0A5
:102B3000B0E080930B0790930C07A0930D07B09320
:102B40000E070895CF92DF92EF92FF920F931F939B
:102B5000CF93DF93EC016B0177FD17C00E940D2925
:102B60007B018C010BC0CE010E94A3138F818823AF
:102B700011F081E00BC08885882339F40E940D296B
:102B80006E197F096C157D0574F380E0DF91CF919C
:102B90001F910F91FF90EF90DF90CF90089581E00B
:102BA0008093540760933107109252071092530795
:102BB000089581E080935407609331071092520783
:102BC0001092530708952091300730E080912F072D
:102BD000281B3109C901089540912F0780913007C2
:102BE000481718F02FEF3FEF0AC0E42FF0E0E15F45
:102BF000F84F8081282F30E04F5F40932F07C901A5
:102C00000895E0912F0780913007E81718F0EFEF53
:102C1000FFEF06C0F0E0E15FF84F8081E82FF0E0C1
:102C2000CF0108950895109258071092570788EE23
:102C300093E0A0E0B0E08093590790935A07A093E7
:102C40005B07B0935C078BEA92E090935607809302
:102C500055070895CF92DF92EF92FF920F931F9343
:102C6000CF93DF937C016B018A0180915407882305
:102C7000A1F0C0E0D0E00DC0D701ED91FC91D601EC
:102C8000AC0FBD1F0190F081E02DC7016C9109953B
:102C90002196C017D10780F304C0CB01642F0E9496
:102CA0006017C801DF91CF911F910F91FF90EF90B6
:102CB000DF90CF900895DF93CF930F92CDB7DEB71B
:102CC000FC016983809154078823C9F080915307E0
:102CD000803238F081E090E09383828320E030E01E
:102CE00015C080915207E82FF0E0EE5CF84F998113
:102CF00090838F5F809352078093530705C0CE0166
:102D0000019661E00E94601721E030E0C9010F9058
:102D1000CF91DF9108950F93062F8091310762E3E1
:102D200077E04091530721E00E940B171092520761
:102D300010925307109254070F91089561E00E947A
:102D40008B160895413208F040E2862F6FE077E05D
:102D50000E94C21610922F0780933007089521E039
:102D60000E94A216089521E00E94A21608951092D2
:102D70002F071092300710925207109253070E94AB
:102D80000C190895382F413210F040E042C0809174
:102D900061078823E1F791E090936107209363072F
:102DA0008FEF8093CE0710928907415040938A0796
:102DB0004F5F9093620780916207330F832B80935C
:102DC000620780916407813041F41092640780911A
:102DD00062078093BB0085EC01C085EE8093BC0048
:102DE000809161078130E1F380918907841710F4A5
:102DF0004091890720E030E00AC0FB01E20FF31F99
:102E0000D901A759B84F8C9180832F5F3F4F24176A
:102E1000A0F3842F08950F931F93582F122F413240
:102E200010F081E04AC0809161078823E1F782E0D9
:102E300080936107009363078FEF8093CE07109212
:102E4000890740938A07A9E6B7E0FB0102C0819198
:102E50008D938E2F861B8417D0F31092620780917A
:102E60006207550F852B809362078091640781303C
:102E700041F410926407809162078093BB0085EC57
:102E800001C085EE8093BC00112321F08091610781
:102E90008230E1F38091CE078F3F11F480E00DC0C6
:102EA0008091CE07803211F482E007C08091CE0776
:102EB000803311F084E001C083E01F910F910895E9
:102EC000482F613210F081E00895809161078430CD
:102ED00011F082E008956093AC07ABE8B7E0842F6F
:102EE0009C01F90102C081918D938E2F841B86175E
:102EF000D0F380E008951F920F920FB60F92112425
:102F00002F933F934F935F936F937F938F939F93F1
:102F1000AF93BF93EF93FF938091B90090E0887FC8
:102F200090708036910509F4F2C081369105CCF598
:102F30008832910509F47BC089329105B4F480315F
:102F4000910509F46FC0813191053CF4009709F4B3
:102F500047C1089709F04FC165C08831910509F450
:102F600066C0809709F047C182C08034910509F49A
:102F7000A4C08134910544F48033910509F482C0E2
:102F8000C89709F038C189C08035910509F489C016
:102F90008835910509F496C08834910509F02BC154
:102FA000AEC08839910509F413C189399105ECF453
:102FB0008837910509F4ABC0893791054CF4883600
:102FC000910509F4A4C08037910509F014C19FC090
:102FD0008838910509F4FCC08039910509F49DC039
:102FE0008038910509F007C198C0803B910509F42C
:102FF000C6C0813B91054CF4803A910509F49FC00D
:10300000883A910509F0F7C0BAC0803C910509F4EF
:10301000E3C0883C910509F4DFC0883B910509F0C5
:10302000EAC0C2C0809162078093BB00CFC090917C
:10303000890780918A07981768F490918907E92F8A
:10304000F0E0E759F84F80818093BB009F5F909339
:103050008907BCC080916307882309F44BC085EDC4
:103060008093BC008091BC0084FDFCCFC2C080E294
:103070008093CE0785ED8093BC008091BC0084FDD9
:10308000FCCFB7C080E38093CE0785ED8093BC0072
:103090008091BC0084FDFCCFACC088E38093CE0758
:1030A0009BC0809189079091BB00E82FF0E0E75921
:1030B000F84F90838F5F8093890790918907809163
:1030C0008A0782C0809189079091BB00E82FF0E0C9
:1030D000E759F84F90838F5F80938907809163074A
:1030E000882341F085ED8093BC008091BC0084FD75
:1030F000FCCF7FC081E08093640784EA6EC085EDD9
:103100008093BC008091BC0084FDFCCF72C083E042
:10311000809361071092CD0759C08091CD0780320E
:1031200008F056C08091CD079091BB00E82FF0E0E9
:10313000E355F84F90838F5F8093CD0747C0809110
:10314000CD07803230F4E091CD07F0E0E355F84F41
:10315000108285ED8093BC008091BC0084FDFCCF83
:10316000109261076091CD07E0916707F0916807C1
:103170008DEA97E070E009951092CD072DC084E0AC
:10318000809361071092AB071092AC07E09165073E
:10319000F091660709958091AC07882329F481E0B6
:1031A0008093AC0710928B079091AB07E92FF0E06A
:1031B000E557F84F80818093BB009F5F9093AB07EA
:1031C0009091AB078091AC07981710F485EC01C083
:1031D00085E88093BC000FC085EC8093BC0009C0DB
:1031E0001092CE0785ED8093BC008091BC0084FDD9
:1031F000FCCF10926107FF91EF91BF91AF919F912A
:103200008F917F916F915F914F913F912F910F908F
:103210000FBE0F901F9018951092610781E0809368
:1032200063071092640782E161E00E942C2A83E127
:1032300061E00E942C2AE9EBF0E080818E7F8083A0
:1032400080818D7F808380E28093B80085E48093C5
:10325000BC000895FC0113861586148687E090E073
:1032600012863197009711F00197FACF0895DC018B
:1032700080E00BC0E82FF0E08D9190E0E827F9277F
:10328000E651FF4FE49161508E2F662399F7089520
:10329000DF92EF92FF920F931F93FC01E080018178
:1032A0001281F894F80181818E2981838281DE2C3C
:1032B000D0948D21828383E090E00E941B29F80145
:1032C00081818D2181838AE090E00E941B29F80191
:1032D0000081789485E390E00E941B2980E010E053
:1032E000FF240E211F21012B09F081E01F910F9176
:1032F000FF90EF90DF900895EF92FF920F931F934E
:10330000CF93DF937C0101E010E0C0E0D0E0C70183
:103310000E9448198111102B000F2196C830D10549
:10332000B1F7812FDF91CF911F910F91FF90EF9017
:1033300008951F93CF93DF93FC011081C181D28147
:10334000912F909560FF12C0F8948A8189238A8317
:103350008981812B89838AE090E00E941B298A81E0
:10336000812B8A83789487E390E011C0F8948A8156
:1033700089238A838981812B898381E490E00E945B
:103380001B298A81812B8A83789485E090E00E94B2
:103390001B29DF91CF911F910895CF92DF92EF9279
:1033A000FF920F931F93CF93DF938C01E42EFF24A2
:1033B000F394C0E0D0E0C62EDD2460E08F2D90E0D5
:1033C0008C219D21892B09F061E0C8010E94991987
:1033D000FF0C2196C830D10581F7EE20A9F4F894AE
:1033E000D8011196ED91FC91129791818C91809565
:1033F000982391831196ED91FC91129792818C9173
:103400008095982392837894DF91CF911F910F91AB
:10341000FF90EF90DF90CF9008956CEC40E00E9419
:10342000CD190895EF92FF920F931F93CF93DF93DF
:103430008C017B0165E540E00E94CD19C0E0D0E041
:10344000F701EC0FFD1FC801608140E00E94CD191B
:103450002196C830D105A1F7DF91CF911F910F912F
:10346000FF90EF900895DF92EF92FF920F931F93DA
:10347000CF93DF93FC010081C181D281F8948981CF
:10348000D02ED0948D21898378941DE7E02EFF24DF
:10349000115059F182E090E00E941B29888190E050
:1034A0008E219F21892BA1F3F8948A818D218A8313
:1034B0008981802B8983789480EE91E00E941B297A
:1034C000F89489818D21898386E490E00E941B29EC
:1034D000888110E090E0E822F922EF2809F411E059
:1034E00078948AE991E00E941B29812FDF91CF9186
:1034F0001F910F91FF90EF90DF900895AF92BF92D0
:10350000DF92EF92FF920F931F93CF93DF93EC0123
:103510005B018D85882309F061C0CE010E94331ABA
:10352000882329F41B861D861C8690E06BC0CE0183
:1035300060EF40E00E94CD1901E0DD24EE24FF247D
:10354000F394CE010E944819182FCE010E94481909
:10355000113019F48130E1F439C0181709F58B8561
:10356000081770F460E0FE01EE0DF11D838190E01C
:103570002F2D30E082239323181619064CF003C038
:1035800060E0081729F0093008F04CC00C874AC0E9
:10359000FE01EE0DF11D83818F29838361E009C057
:1035A000612FFE01EE0DF11D9F2D909583818923E2
:1035B0008383CE010E9499190F5FFF0C19F4E394E5
:1035C000FF24F39487E08E1508F0BBCF013430F070
:1035D000DB86DD2011F581E08D871FC01B861D86EF
:1035E0001C8690E0DE0120E030E0F501E20FF31FE1
:1035F00013968C91139780832F5F3F4F119628303D
:10360000310599F7892FDF91CF911F910F91FF908D
:10361000EF90DF90BF90AF9008958B818823F1F2F7
:1036200091E0E0CFD02EBDCFFF920F931F938C017E
:10363000F62E862F60E00E94ED298F2D90E0FC0190
:10364000E85DFD4FE491D801EC938C5E9D4FFC0149
:103650006491E62FF0E0EE0FFF1FE65FFD4F8591CE
:10366000949112969C938E9311971B961C921B9784
:103670001D961C921D971C961C92F80187E090E005
:1036800012863197009711F00197FACF1F910F9191
:10369000FF900895FC0180E19CE1928B818B768301
:1036A00065831482108289E0818381E08283838331
:1036B00008956F927F928F929F92AF92BF92CF9216
:1036C000DF92EF92FF920F931F93CF93DF93FB0153
:1036D000EA01998180E0288130E0282B392BE081B4
:1036E000E23231F0E83221F0E03109F084C04BC021
:1036F0004C814F3329F1403420F44F3109F07BC025
:103700002FC04F3579F04F3709F075C0B9018827C0
:1037100077FD8095982F0E94662F20E030E040E8EA
:103720005DE32EC035952795B901882777FD8095F3
:10373000982F0E94662F20E030E040E05EE320C03A
:103740003595279535952795B901882777FD80957B
:10375000982F0E94662F20E030E040E85EE310C022
:1037600093E0359527959A95E1F7B901882777FD7C
:103770008095982F0E94662F20E030E040E05FE3C4
:103780000E94F22F32C0EF8035952795B901882726
:1037900077FD8095982F0E94662F20E030E040E86A
:1037A0005EE30E94662E3B014C016E2D70E02E817F
:1037B000621B7109882777FD8095982F0E94662FDC
:1037C0005B016C01FF2400E010E0C801B7010E941A
:1037D000642F9B01AC01C601B5010E94CB2E9B0159
:1037E000AC01C401B3010E94672E9B01AC01832F81
:1037F000942F752F00C0262F382F492F572FB9012E
:10380000CA01DF91CF911F910F91FF90EF90DF9050
:10381000CF90BF90AF909F908F907F906F900895C2
:103820000895EF92FF920F931F938C017B01FC018F
:10383000858196810E94331AF80185819681B701AE
:103840000E94121AF8018581968164EB40E00E9483
:10385000CD19F801858196810E944819F82EF8014A
:10386000858196810E94331A80E0FF2009F481E06F
:103870001F910F91FF90EF900895EF92FF920F9399
:103880001F93CF93DF93EC018B017A018D819E8191
:103890000E94331A8D819E81B8010E94121A8D8177
:1038A0009E816EE440E00E94CD198D819E81F701DA
:1038B000628140E00E94CD198D819E81F701638174
:1038C00040E00E94CD19F8018081803139F08D816E
:1038D0009E81F701648140E00E94CD198D819E8117
:1038E0000E94331A8D819E8168E448810E94CD191F
:1038F0008881882331F06AE070E080E090E00E94E7
:1039000060298D819E810E94331ADF91CF911F9192
:103910000F91FF90EF900895CF92DF92EF92FF9278
:103920000F931F938C016B017A01FC0185819681B5
:103930000E94331AF80185819681B6010E94121AFD
:10394000F801858196816EEB40E00E94CD19F80167
:10395000858196810E947C19F7018083F801858119
:1039600096810E947C19F7018183F80185819681F7
:103970000E947C19F7018283F801858196810E945B
:103980007C19F7018383F801858196810E947C1957
:10399000F7018483F801858196810E947C19F701E3
:1039A0008583F801858196810E947C19F7018683C1
:1039B000F801858196810E947C19F7018783F801BF
:1039C000858196810E947C19F7018087F8018581A5
:1039D00096810E94331A1F910F91FF90EF90DF9014
:1039E000CF900895DF93CF93CDB7DEB729970FB669
:1039F000F894DEBF0FBECDBFAE014F5F5F4F0E9498
:103A00008C1C8981811181E029960FB6F894DEBF64
:103A10000FBECDBFCF91DF910895CF92DF92EF928D
:103A2000FF920F931F93CF93DF93EC016B01452B14
:103A3000E1F08B818823C9F088818823B1F40E944A
:103A40000D297B018C01CE0160E070E00E94F21C28
:103A5000882359F40E940D296E197F09800B910B60
:103A60006E5E72408040904070F3F6016081693074
:103A700039F06930A0F06A3041F06B3081F40AC04F
:103A80006EE570E080E090E00EC06CEB70E080E0EE
:103A900090E009C067E771E080E090E004C06EEE5E
:103AA00072E080E090E00E946029DF91CF911F9149
:103AB0000F91FF90EF90DF90CF900895CF93DF9319
:103AC000EC018D819E810E94331A8D819E810E941E
:103AD0000D1A8D819E8164E448810E94CD198A81EE
:103AE000882339F0CE012196BE0140E050E00E94CB
:103AF0000D1DDF91CF9108950F931F938A010E94AE
:103B00008C1CC80168E00E94371920E0F8019085FC
:103B1000891709F421E0822F1F910F910895CF9208
:103B2000DF92EF92FF920F931F93DF93CF93CDB766
:103B3000DEB729970FB6F894DEBF0FBECDBF8C015C
:103B40007B016E010894C11CD11CA6010E947C1D42
:103B5000882329F460E070E08EEF92EC05C0C80184
:103B6000B701A6010E94591B29960FB6F894DEBF33
:103B70000FBECDBFCF91DF911F910F91FF90EF90BE
:103B8000DF90CF900895DF93CF93CDB7DEB729971D
:103B90000FB6F894DEBF0FBECDBF9C01FB01808144
:103BA0008031D9F0C901AE014F5F5F4F0E947C1D8B
:103BB0008823A9F08D818F3371F0803418F48F3110
:103BC00071F40BC08F3519F08F3749F402C08BE0C8
:103BD00007C08CE005C08AE003C089E001C080E036
:103BE00029960FB6F894DEBF0FBECDBFCF91DF91FF
:103BF0000895CF92DF92EF92FF921F93DF93CF93BE
:103C0000CDB7DEB729970FB6F894DEBF0FBECDBF94
:103C10006C017B01142FAE014F5F5F4F0E947C1D32
:103C20008823E1F0F70180818031B9F01A3051F03A
:103C30001A3050F01B3021F01C3031F48FE705C0F2
:103C40008FE503C08FE301C08FE18D83C601B7010B
:103C5000AE014F5F5F4F0E943D1C81E029960FB679
:103C6000F894DEBF0FBECDBFCF91DF911F91FF90C3
:103C7000EF90DF90CF9008950F931F938B01CB01AE
:103C800067E00E94371920E0F8019781891709F44D
:103C900021E0822F1F910F910895EF92FF920F93D1
:103CA0001F93CF93DF93EC017B01042F8D819E81C5
:103CB0000E942A1910E007C0CE01B7010E943C1EE5
:103CC0008823A9F00AC08D819E81B7010E947E1AC7
:103CD000882329F0101759F4EFCF81E001C080E06C
:103CE000DF91CF911F910F91FF90EF9008951F5F8B
:103CF0000117A8F3E8CFCF92DF92EF92FF920F93D4
:103D00001F93DF93CF93CDB7DEB728970FB6F89404
:103D1000DEBF0FBECDBF7C01693010F469E003C087
:103D20006D3008F06CE0F701618300E010E06E0197
:103D30000894C11CD11C0DC0C701B601402F0E94C0
:103D40004D1EC701B601F70141810E94F91D0F5FA9
:103D50001F4FF701848190E0081719076CF328962C
:103D60000FB6F894DEBF0FBECDBFCF91DF911F918C
:103D70000F91FF90EF90DF90CF900895AF92BF9298
:103D8000CF92DF92EF92FF920F931F93DF93CF9327
:103D9000CDB7DEB761970FB6F894DEBF0FBECDBFCB
:103DA0007C01FC01858196810E942A19F701148209
:103DB0006E010894C11CD11C79E0A72EB12CAC0E69
:103DC000BD1E01E02BC0C701B6010E943C1E882326
:103DD00029F1F7018081882341F4C701B6010E94CF
:103DE000111C882311F0F7010083C701B601A5015A
:103DF0000E948C1CF7011181C701B6010E94C31DEE
:103E0000811718F4F701818104C0C701B6010E942F
:103E1000C31DF701818384818F5F8483F7018581CE
:103E20009681B6010E947E1A882369F661960FB6C4
:103E3000F894DEBF0FBECDBFCF91DF911F910F91E0
:103E4000FF90EF90DF90CF90BF90AF900895FC016E
:103E500066834783208781E0858708950F931F93AA
:103E60008C01FC01868160E00E94ED29F8018681C9
:103E700061E00E942C2AF8011186128613861486AE
:103E80001F910F910895CF92DF92EF92FF920F93BF
:103E90001F93CF93DF93EC018E8161E00E942C2A67
:103EA0006AEF70E080E090E00E9460290E940D2996
:103EB0009B01AC0189859A85AB85BC85281739079C
:103EC0004A075B0720F419861A861B861C868D8597
:103ED000882371F489859A85AB85BC85281B390BAD
:103EE0004A0B5B0B205D37404040504008F477C0E0
:103EF0001D860E940D2969877A878B879C871C8283
:103F00001B821A82198218828E8161E00E94ED293B
:103F10008E8160E00E942C2A64E170E080E090E0F5
:103F20000E946029F8948E8161E00E942C2A88E228
:103F300090E00E941B298E8160E00E94ED2981E0C3
:103F4000EE2400E010E00AC0F39481E090E00E94CB
:103F50001B298FEFF81629F40AC0822FFF24C82EE0
:103F6000DD248E810E94802A8C159D0569F38E8147
:103F70000E94802A282F8FEFF816C9F0043090F0A5
:103F800000FD10C08E2D869586958695FE01E80F62
:103F9000F11D9081990F908388858F1510F49160A1
:103FA0009083E3940F5F1F4F05351105B1F67894A8
:103FB00087E28E1510F030E013C030E04C8150E005
:103FC0002981888190E0820F911D2A81820F911DA5
:103FD0002B81820F911D90704817590709F431E029
:103FE000832FDF91CF911F910F91FF90EF90DF9082
:103FF000CF900895EF92FF920F931F93CF93DF938B
:10400000EC010E94431F8823A9F18F818B3031F08E
:104010008B3080F18551823068F507C0688170E08F
:1040200080E090E00E94642F22C0688170E080E010
:1040300090E00E94642F20E030E040E853E40E94CA
:10404000F22F7B018C01698170E0882777FD8095D4
:10405000982F0E94662F9B01AC01C801B7010E94F6
:10406000672E20E030E040E251E40E94CB2EE62FA4
:10407000692F0AC08CED97E06AE472E00E944F2E2F
:10408000E0E070E080EC6FE72E2F372F482F562F9F
:10409000B901CA01DF91CF911F910F91FF90EF906D
:1040A0000895CF93DF93EC018881282F30E0698158
:1040B0008A81482F50E0EAEEF1E091E005C084915A
:1040C000480F511D9F5F31969617C8F3633038F043
:1040D000C90183709070892B11F44F5F5F4F8DE69B
:1040E00091E0289FB001299F700D389F700D112419
:1040F000615070402D5F3F4F369527953695279537
:10410000620F731F640F751F80E090E028E130E0BC
:1041100040E050E00E9411322B81620F711D811D21
:10412000911D2CE330E040E050E00E9411322C81E0
:10413000620F711D811D911D2CE330E040E050E0C5
:104140000E9411329B01AC018D81280F311D411D50
:10415000511DB901CA01DF91CF910895EF92FF92ED
:104160000F931F93162F042F25E5E22E27E0F22E42
:10417000C70168E670E00E94D915C701612F0E944F
:104180005B16C701602F0E945B16C7010E949E1636
:104190001F910F91FF90EF9008951F93CF93DF939E
:1041A000EC01162F6EE04DE10E94AE20123041F07E
:1041B000133079F0113009F5CE0167E040E803C013
:1041C000CE0167E040E00E94AE20CE0168E040E80A
:1041D00008C0CE0167E040E00E94AE20CE0168E05A
:1041E00040E00E94AE20CE0169E040E80E94AE208F
:1041F000CE016AE040E80E94AE20DF91CF911F918E
:104200000895AF92BF92CF92DF92EF92FF920F93F9
:104210001F93DF93CF93CDB7DEB727970FB6F894F0
:10422000DEBF0FBECDBF05E517E0C80168E670E050
:104230000E94D915C80160E00E945B16C8010E9467
:104240009E16C80168E670E048E050E00E94AF1694
:10425000C8010E94EC15B82EC8010E94EC15C82EAA
:10426000C8010E94EC159FE3D92ED822C8010E94F4
:10427000EC15A82EC8010E94EC15E82EC8010E947A
:10428000EC15F82EC8010E94EC15282F30E0B4E0A0
:1042900035952795BA95E1F74AEF5FEFB901649F2D
:1042A0009001659F300D749F300D1124820F90E0B6
:1042B0002B2D30E0A4E035952795AA95E1F7B901BB
:1042C000649F9001659F300D749F300D1124B20ED4
:1042D0002C2D30E0F4E035952795FA95E1F7B901FA
:1042E000649F9001659F300D749F300D1124C20EA4
:1042F0002D2D30E0E4E035952795EA95E1F7B901F9
:10430000649F9001659F300D749F300D1124D20E73
:104310002E2D30E074E0359527957A95E1F7B901B7
:10432000649F9001659F300D749F300D1124E20E43
:104330002F2D30E064E0359527956A95E1F7B901B6
:10434000649F9001659F300D749F300D1124F20E13
:10435000282F3F2D4E2D5D2D6C2D7B2D8A2D2796E0
:104360000FB6F894DEBF0FBECDBFCF91DF911F9186
:104370000F91FF90EF90DF90CF90BF90AF90089596
:10438000FF920F931F93F62E05E517E0C80168E62C
:1043900070E00E94D915C8016F2D0E945B16C801FC
:1043A0000E949E16C80168E670E041E050E00E945D
:1043B000AF16C8010E94EC151F910F91FF90089550
:1043C000EF92FF920F931F93CF93DF938C0161E1E4
:1043D0000E94C021E82EC80162E10E94C021C82FBE
:1043E000D0E0E7FE25C0E1946E2D70E0882777FDD0
:1043F0008095982F0E94662F7B018C0136E0D59521
:10440000C7953A95E1F7BE01882777FD8095982FEB
:104410000E94662F20E030E040E85EE30E94F22F29
:104420009B01AC01C801B7010E94672E905822C0C1
:104430006E2D70E0882777FD8095982F0E94662F5B
:104440007B018C0126E0D595C7952A95E1F7BE0141
:10445000882777FD8095982F0E94662F20E030E016
:1044600040E85EE30E94F22F9B01AC01C801B70156
:104470000E94672EDF91CF911F910F91FF90EF90D7
:104480000895CF93DF93EC016EE00E94C021482F86
:104490004062CE016EE00E94AE20CE016EE00E942E
:1044A000C02185FDFACFDF91CF9108950F931F931F
:1044B0008C016FE00E94C021482F4E7FC8016FE041
:1044C0000E94AE201F910F9108950F931F938C01AE
:1044D0006EE04CE10E94AE206AE070E080E090E087
:1044E0000E946029C80162E00E94C021482F4F7BD2
:1044F000C80162E00E94AE206AE070E080E090E0D7
:104500000E94602981E01F910F910895FC01608352
:104510000895DF92EF92FF920F931F93FC01F62E06
:10452000D42EE52E05E517E0C80160810E94CF1565
:10453000C8016F2D0E945B16C8016E2D0E945B168C
:10454000C8016D2D0E945B16C8010E949E161F9126
:104550000F91FF90EF90DF900895CF92DF92EF924E
:10456000FF920F931F938C01D62E85E5E82E87E0EE
:10457000F82EC701F80160810E94CF15C7016D2D8B
:104580000E945B16C7010E949E16C701F801608158
:104590000E94CF15C701F801608142E00E94B31666
:1045A000C7010E94EC15182F00E0C7010E94EC150E
:1045B0006C01C7010E949E160C291D29C8011F917C
:1045C0000F91FF90EF90DF90CF90089560E00E94F0
:1045D000AD22089561E00E94AD229C01359527959A
:1045E00035952795C90108952F923F924F925F927A
:1045F0006F927F928F929F92AF92BF92CF92DF92F3
:10460000EF92FF920F931F93DF93CF9300D000D0D0
:10461000CDB7DEB78C010E94EA22AA2797FDA095AC
:10462000BA2FBC01CD010E94662F6B017C01C8012D
:104630000E94E622AA2797FDA095BA2FBC01CD01C2
:104640000E94662F20E030E44CE153E40E94F22FF8
:1046500020E030E04AE754E40E94CB2E20E030E036
:104660004AE754E40E94CB2E1B012C01C701B6017E
:1046700020E030E040E05DE30E94F22F23E333E9E5
:1046800048E853E40E94672E3B014C0123E333E1E9
:1046900045E953E40E94662E7B018C0122E430E65A
:1046A00045EE5AE30E94F22F20E030E040E85FE35D
:1046B0000E94672E5B016C01C801B70127EC32EC48
:1046C0004CE857EB0E94F22FA80197010E94F22FAD
:1046D0009B01AC01C601B5010E94672E2DEC3CEC9C
:1046E0004CEC50E40E94F22F20E836E948E15BE40C
:1046F0000E94CB2E69837A838B839C83C201B10194
:1047000020E030E04AE754E40E94CB2E1B012C014C
:10471000C801B7012AE132E049E155EB0E94F22FCE
:1047200025E030EA46EF57E30E94662E5B016C01FC
:10473000C801B70129EE35E14FE951E30E94F22F9C
:10474000A80197010E94F22F9B01AC01C601B5019F
:104750000E94672E9B01AC01C201B1010E94662E2E
:104760007B018C01C401B301A40193010E94F22FCB
:10477000A40193010E94F22FA40193010E94F22F41
:104780005B016C01C801B70126E636E646E551E457
:104790000E94F22FA80197010E94F22F9B01AC0109
:1047A000C801B7010E94672E7B018C0169817A8163
:1047B0008B819C8120E836E948E15BE40E94CB2EA6
:1047C0009B01AC01C801B7010E94CB2E9B01AC013B
:1047D000C601B5010E94672E0E94A5300E94A53037
:1047E00023E333E948E853E40E94662E0F900F90CC
:1047F0000F900F90CF91DF911F910F91FF90EF904D
:10480000DF90CF90BF90AF909F908F907F906F90F0
:104810005F904F903F902F900895EF92FF920F93EB
:104820001F938C01E62E85E597E00E94B7164E2D6A
:1048300050E05167C80162E00E948922C8016EEF12
:104840000E94AD227C01C8016FEF0E94AD2229E4D5
:10485000E21624E5F20611F020E005C020E08736DC
:10486000910509F421E0822F1F910F91FF90EF90A5
:104870000895FC018BEB92E0918380836383148223
:104880001582178216821186108622873387448705
:1048900055870895FC01658308956F927F928F92EA
:1048A0009F92AF92BF92CF92DF92EF92FF920F93BF
:1048B0001F93CF93DF93FC01EA0146815781411595
:1048C000510531F04130510531F488E890E905C0D7
:1048D00084E293E102C088EE9DEF8617970708F403
:1048E000DEC08C179D0708F4DAC04115510551F060
:1048F0004130510571F417EEE12E1FE0F12E012D2C
:10490000112D0CC0B7E1EB2EB5E7FB2E012D112DBB
:1049100005C0E12CA4E0FA2E012D112D8085918592
:10492000892B39F4E4E0EE0CFF1C001F111FEA95FF
:10493000D1F79B0140E050E0C801B7010E9411325D
:104940005B016C015AE0D694C794B794A7945A952A
:10495000D1F79E0140E050E0C801B7010E9411323A
:104960003B014C014AE096948794779467944A956A
:10497000D1F7A114B104C104D10429F480E090E07E
:10498000A0E0B0E00FC0C401B3013AE0660F771FAA
:10499000881F991F3A95D1F7A60195010E943C32D4
:1049A000C901DA010196A11DB11DB695A79597958C
:1049B000879581349105A105B10528F462EF71E076
:1049C000CEEBD1E049C081389105A105B10528F4AD
:1049D00064E172E0C1EDD2E03FC0813C9105A105E8
:1049E000B10528F46FE372E0CBE7D3E035C0813046
:1049F00021E0920720E0A20720E0B20728F460E758
:104A000072E0CEEFD3E028C0893321E0920720E0A6
:104A1000A20720E0B20728F46FE671E0CCEFD1E006
:104A20001BC08B3921E0920720E0A20720E0B207EB
:104A300028F462ED70E0CBEFD0E00EC08B599240CD
:104A4000A040B04028F060E070E0C0E0D0E004C0DA
:104A500068E170E0C2E1D0E080E090E0A60195015D
:104A60000E9411327B018C0180E090E2A0E0B0E076
:104A7000E80EF91E0A1F1B1FBE0180E090E0A40192
:104A800093010E941132E61AF70A080B190B8EE007
:104A900016950795F794E7948A95D1F703C0EE240D
:104AA000FF248701B701C801DF91CF911F910F91BA
:104AB000FF90EF90DF90CF90BF90AF909F908F903E
:104AC0007F906F900895EF92FF920F931F937C0158
:104AD0008B0188E2FB0111928A95E9F7CB0164E52D
:104AE00072E04BE050E00E945801F801138681E02B
:104AF00090E0A0E0B0E084879587A687B787F701AC
:104B000082859385A485B585F801808B918BA28BD6
:104B1000B38B85E090E0A0E0B0E0848B958BA68B12
:104B2000B78B14A215A216A217A280E090EDA4E8FC
:104B3000B6E4808F918FA28FB38F80E090E0A0E0E9
:104B4000B0E0848F958FA68FB78F80E090E0A0E8CB
:104B5000BFE380A391A3A2A3B3A31F910F91FF90E2
:104B6000EF900895BF92CF92DF92EF92FF920F9352
:104B70001F93B62E79018A0125E5C22E27E0D22E99
:104B8000DC0113966C91772767FD7095C6010E9432
:104B9000D915C6016B2D0E945B168FEF90E0A0E047
:104BA000B0E0E822F9220A231B23C6016E2D0E94E1
:104BB0005B16C6010E949E161F910F91FF90EF9009
:104BC000DF90CF90BF90089560E820E030E040E0B3
:104BD00050E00E94B225089560E823E030E040E014
:104BE00050E00E94B2250895DF92EF92FF920F935A
:104BF0001F937C01D62E05E517E0FC016381772722
:104C000067FD7095C8010E94D915C8016D2D0E94DD
:104C10005B16C8010E949E16F7016381772767FD26
:104C20007095C80142E050E00E94AF16C8010E9492
:104C3000EC157C01C8010E94EC15382F20E02E29CC
:104C40003F29C9011F910F91FF90EF90DF900895C8
:104C5000EF92FF920F931F93CF93DF93EC018B01A1
:104C60007A010E94EC258E819F81009719F00197AF
:104C700059F405C06EE070E080E090E009C066E69F
:104C800070E080E090E004C063E971E080E090E0D3
:104C90000E946029CE016CEA0E94F425F8019183FC
:104CA0008083CE016EEA0E94F425F7019183808310
:104CB000CE010E94E425DF91CF911F910F91FF90CB
:104CC000EF900895DF92EF92FF920F931F937C0174
:104CD000D62E05E517E0FC016381772767FD709507
:104CE000C8010E94D915C8016D2D0E945B16C8012C
:104CF0000E949E16F7016381772767FD7095C801B2
:104D000041E050E00E94AF16C8010E94EC151F91CF
:104D10000F91FF90EF90DF900895CF93DF93EC0118
:104D200085E597E00E94B716CE016AE00E946226F0
:104D30008A7081F081E08C836E817F81CE010E9438
:104D4000C12768857985CE010E94AD26CE010E94DB
:104D5000E42581E0DF91CF9108950F931F93CF93C6
:104D6000DF93EC018B018C81882319F4CE010E9422
:104D70008D26CE010E94EC252E813F81202B312BE8
:104D8000442737FD4095542FCE0161E80E94B2259B
:104D900019870887CE010E94E425DF91CF911F91EA
:104DA0000F9108953F924F925F926F927F928F92F0
:104DB0009F92AF92BF92CF92DF92EF92FF920F93AA
:104DC0001F93DF93CF9300D000D0CDB7DEB78C0117
:104DD0005B014A01FC018481882319F4C8010E9407
:104DE0008D26F8018581882331F4C801B501A4011D
:104DF0000E9428265BC03324F3E04F2E512C4C0E2A
:104E00005D1E3E010894611C711CF801868197812A
:104E1000009751F0019781F4E0EACE2EECE8DE2E07
:104E200078ECE72EF12C10C062EFC62E62E1D62E90
:104E300054E6E52EF12C08C048E1C42E46EFD42EEE
:104E400034EFE32E31E0F32EC801B301A2010E943A
:104E5000282629813A81332009F52E153F0548F48B
:104E6000F80180859185892B21F4C80160E170E00B
:104E70000BC0C216D30690F4F80180859185409747
:104E800069F4C80160E070E00E94AD26C801B3017A
:104E9000A2010E94282633243394B7CFF501318331
:104EA00020838B819C81F401918380830F900F90EC
:104EB0000F900F90CF91DF911F910F91FF90EF9086
:104EC000DF90CF90BF90AF909F908F907F906F902A
:104ED0005F904F903F900895EF92FF920F931F9332
:104EE000DF93CF9300D000D0CDB7DEB77C018B012C
:104EF00084E2FB0111928A95E9F784E290E0A0E058
:104F0000B0E0FB0180839183A283B383F7018285A4
:104F10009385A485B585FB0184839583A683B78398
:104F200085E090E0A0E0B0E080879187A287B3871A
:104F30000E940D29F801608B718B828B938BC701C6
:104F4000BE016F5F7F4FAE014D5F5F4F0E94D22663
:104F500069817A814B815C81C7010E944D240E9446
:104F6000642FF801648B758B868B978B0F900F9055
:104F70000F900F90CF91DF911F910F91FF90EF90C5
:104F800008950F931F93CF93DF93EC018B018C81D6
:104F9000882319F4CE010E948D26CE010E94EC25B3
:104FA00028853985202B312B442737FD4095542FF8
:104FB000CE0161E80E94B2251F830E83CE010E94BC
:104FC000E425DF91CF911F910F910895FC0160813D
:104FD000718162537240882777FD8095982F0E94D7
:104FE000662F28EE3FE948E85FE30E94F22F0E9417
:104FF000382FDC01CB01089583E00E94C82984E1A9
:105000000E94CB2923E0853892071CF02CE532E082
:105010000FC022E0873292071CF020E632E008C081
:105020008F5591401CF029E632E002C02EE632E0B6
:10503000C90108950F931F938C0183E00E94C82932
:1050400085E10E94CB29F801918380831F910F9104
:105050000895823000F5E82FF0E0EE0FFF1FE153D6
:10506000F84F71836083882319F08130A1F408C060
:10507000809169008C7F842B80936900E89A089561
:1050800080916900440F551F440F551F837F842B67
:1050900080936900E99A0895823080F4882319F09A
:1050A000813021F402C0E89801C0E998E82FF0E0CF
:1050B000EE0FFF1FE153F84F1182108208951F92E7
:1050C0000F920FB60F9211242F933F934F935F933C
:1050D0006F937F938F939F93AF93BF93EF93FF93C0
:1050E0008091CF079091D007892B29F0E091CF07CD
:1050F000F091D0070995FF91EF91BF91AF919F91EA
:105100008F917F916F915F914F913F912F910F9070
:105110000FBE0F901F9018951F920F920FB60F920F
:1051200011242F933F934F935F936F937F938F93AC
:105130009F93AF93BF93EF93FF938091D10790918B
:10514000D207892B29F0E091D107F091D207099578
:10515000FF91EF91BF91AF919F918F917F916F914F
:105160005F914F913F912F910F900FBE0F901F9025
:1051700018951F920F920FB60F9211242F933F9301
:105180004F935F936F937F938F939F93AF93BF934F
:105190002091D7073091D8074091D9075091DA076D
:1051A0007091DB07DA01C9010296A11DB11D672FBD
:1051B0006A5F6D3730F06D57DA01C9010396A11DA2
:1051C000B11D6093DB078093D7079093D807A09316
:1051D000D907B093DA078091D3079091D407A091B3
:1051E000D507B091D6070196A11DB11D8093D307B5
:1051F0009093D407A093D507B093D607BF91AF91F2
:105200009F918F917F916F915F914F913F912F91DE
:105210000F900FBE0F901F9018958FB7F8942091A4
:10522000D7073091D8074091D9075091DA078FBF3F
:10523000B901CA010895019739F0019729F0880F43
:10524000991F01970197F1F70895789484B58260CA
:1052500084BD84B5816084BD85B5826085BD85B51A
:10526000816085BDEEE6F0E0808181608083E1E8C9
:10527000F0E0108280818260808380818160808301
:10528000E0E8F0E0808181608083E1EBF0E0808104
:1052900084608083E0EBF0E0808181608083EAE7D6
:1052A000F0E080818460808380818260808380815F
:1052B000816080838081806880831092C10008951E
:1052C000EF92FF920F931F93CF93DF937B018C019B
:1052D0003FB7F8948091D3079091D407A091D50758
:1052E000B091D60726B5A89B05C02F3F19F00196AF
:1052F000A11DB11D3FBFBA2FA92F982F8827820F5C
:10530000911DA11DB11D53E0880F991FAA1FBB1F3E
:105310005A95D1F7EC0130C00E94652E3FB7F89442
:105320008091D3079091D407A091D507B091D6076B
:1053300026B5A89B05C02F3F19F00196A11DB11DF0
:105340003FBFBA2FA92F982F8827820F911DA11D2B
:10535000B11D33E0880F991FAA1FBB1F3A95D1F7E3
:105360008C1B9D0B885E9340B8F20894E108F1080D
:1053700001091109C851DC4FE114F10401051105BF
:1053800059F6DF91CF911F910F91FF90EF90089503
:10539000809386020895982F8E3008F09E50977063
:1053A000809186028295880F880F807C892B80935C
:1053B0007C0080917A00806480937A0080917A00EA
:1053C00086FDFCCF2091780040917900942F80E0F9
:1053D00030E0282B392BC9010895CF93DF93482F54
:1053E00050E0CA01885D9D4FFC0134914C5E5D4FD9
:1053F000FA018491882369F190E0880F991FFC01DC
:10540000EA50FE4FA591B491FC01E050FE4FC591CA
:10541000D491662351F42FB7F8948C91932F9095E3
:1054200089238C93888189230BC0623061F42FB764
:10543000F8948C91932F909589238C938881832B5A
:1054400088832FBF06C09FB7F8948C91832B8C93D1
:105450009FBFDF91CF910895482F50E0CA01845C2F
:105460009D4FFC012491CA01885D9D4FFC019491E0
:105470004C5E5D4FFA013491332309F440C022237E
:1054800051F1233071F0243028F42130A1F0223082
:1054900011F514C02630B1F02730C1F02430D9F412
:1054A00004C0809180008F7703C0809180008F7D41
:1054B0008093800010C084B58F7702C084B58F7D43
:1054C00084BD09C08091B0008F7703C08091B00087
:1054D0008F7D8093B000E32FF0E0EE0FFF1FE050D0
:1054E000FE4FA591B4912FB7F894662321F48C91C7
:1054F0009095892302C08C91892B8C932FBF08959E
:10550000682F70E0CB01845C9D4FFC012491CB019E
:10551000885D9D4FFC0144916C5E7D4FFB01949131
:10552000992319F420E030E03CC0222351F12330CC
:1055300071F0243028F42130A1F0223011F514C08C
:105540002630B1F02730C1F02430D9F404C0809166
:1055500080008F7703C0809180008F7D80938000D2
:1055600010C084B58F7702C084B58F7D84BD09C01B
:105570008091B0008F7703C08091B0008F7D8093C1
:10558000B000892F90E0880F991F865F9D4FFC0126
:10559000A591B4918C9120E030E0842311F021E0BA
:1055A00030E0C9010895DC015C968C915C97FD01A7
:1055B000E80FF11DE35AFF4F20815C968C915C97B8
:1055C00090E001968F7390705C968C935C975696E2
:1055D000ED91FC91579720835096ED91FC91519756
:1055E0008081806480835B969C915B975C968C91B4
:1055F0005C97981739F45296ED91FC9153978081FE
:105600008F7D80830895DF92EF92FF920F931F9317
:10561000CF93DF93EC017A018B01D22E60E874E81E
:105620008EE190E0A80197010E943C322150304069
:10563000404050405695479537952795E889F98918
:1056400082E0808380E12030380798F0E889F9898A
:10565000108260E472E48FE090E0A80197010E945C
:105660003C32215030404040504056954795379548
:105670002795EC85FD853083EE85FF852083188E88
:10568000EC89FD89D082EA89FB89808180618083F1
:10569000EA89FB89808188608083EA89FB8980812F
:1056A00080688083EA89FB8980818F7D8083DF9198
:1056B000CF911F910F91FF90EF90DF900895FC0123
:1056C000218D828D30E0205C3F4F281B31092F73E4
:1056D0003070C9010895FC01918D828D981719F4DD
:1056E0002FEF3FEF06C0828DE80FF11D858D282F2B
:1056F00030E0C9010895DC0159969C9159975A965A
:105700008C915A97981719F42FEF3FEF10C05A96C3
:105710008C915A97FD01E80FF11D958D5A968C9149
:105720005A978F5F8F735A968C93292F30E0C90157
:105730000895CF93DF93EC01888D882361F419C01D
:105740008C9185FF0AC0E889F989808185FF05C0B1
:10575000CE010E94D32AAA89BB898C9185FD05C000
:10576000E889F989808186FD04C00FB607FEE8CF7D
:10577000F4CFDF91CF9108950F931F93CF93DF93D1
:10578000EC01062F9B8D8C8D981791F5E889F9898E
:10579000808185FF2DC0EE89FF896083E889F989C2
:1057A0008081806480831DC00FB607FC08C0E88933
:1057B000F989808185FF03C0CE010E94D32A8C8D98
:1057C000181791F38B8DFE01E80FF11DE35AFF4F7F
:1057D00000831B8FEA89FB8980818062808381E05E
:1057E000888F81E090E0DF91CF911F910F91089514
:1057F0001B8D1F5F1F73E3CF84E89CE2892B51F060
:1058000080E090E0892B31F00E94842C882311F0F5
:105810000E94000008951F920F920FB60F9211245C
:105820002F938F939F93EF93FF93E091EC07F09169
:10583000ED07808182FD16C0E091F207F091F30739
:1058400020819091F5079F5F9F738091F6079817CD
:1058500071F0E091F507F0E0E452F84F258F909356
:10586000F50705C0E091F207F091F307E081FF91A1
:10587000EF919F918F912F910F900FBE0F901F90DE
:1058800018951092DF071092DE0788EE93E0A0E0F3
:10589000B0E08093E0079093E107A093E207B09314
:1058A000E30785EC92E09093DD078093DC0785ECBD
:1058B00090E09093E9078093E80784EC90E0909360
:1058C000EB078093EA0780EC90E09093ED078093DC
:1058D000EC0781EC90E09093EF078093EE0782EC69
:1058E00090E09093F1078093F00786EC90E090931E
:1058F000F3078093F2071092F5071092F6071092C3
:10590000F7071092F80708958CED97E00E945F2B3F
:1059100020E0892B09F021E0822F08951F920F9239
:105920000FB60F9211242F933F934F935F936F9372
:105930007F938F939F93AF93BF93EF93FF938CEDE0
:1059400097E00E94D32AFF91EF91BF91AF919F9171
:105950008F917F916F915F914F913F912F910F9018
:105960000FBE0F901F901895CF93DF930E942529AB
:105970000E94D207CCEFDBE20E9495072097E1F36B
:105980000E94FC2BF9CFCF92DF92EF92FF920F9300
:105990001F93CF93DF937C016B018A01C0E0D0E0BD
:1059A0000FC0D6016D916D01D701ED91FC91019071
:1059B000F081E02DC7010995C80FD91F0150104093
:1059C0000115110571F7CE01DF91CF911F910F9154
:1059D000FF90EF90DF90CF900895EF92FF920F939A
:1059E0001F938C01DC01ED91FC910190F081E02D81
:1059F0006DE009957C01D801ED91FC910190F08159
:105A0000E02DC8016AE009959C012E0D3F1DC901DA
:105A10001F910F91FF90EF900895CF93DF93EC01CA
:105A20006115710519F420E030E00FC0DB010D9025
:105A30000020E9F71197A61BB70BE881F9810280D6
:105A4000F381E02DAD0109959C01C901DF91CF9152
:105A500008954F925F927F928F929F92AF92BF92E2
:105A6000CF92DF92EF92FF920F931F93DF93CF932A
:105A7000CDB7DEB7A1970FB6F894DEBF0FBECDBF8E
:105A80002C01742ECB01223008F42AE019A231E255
:105A9000C32ED12CCC0EDD1E822E9924AA24BB2429
:105AA000672D752FA50194010E943C3279018A016E
:105AB000C801B701A50194010E941132472D461B70
:105AC0000894C108D1084A3014F4405D01C0495C13
:105AD000F6014083E114F1040105110521F07E2C4B
