:100000000C942E010C9441260C946E260C945601EF
:100010000C9456010C9456010C9456010C94560104
:100020000C9456010C9456010C9456010C945601F4
:100030000C9456010C9456010C9456010C945601E4
:100040000C949B260C9456010C94A4290C94D6294C
:100050000C9456010C9456010C9456010C945601C4
:100060000C94E5150C94560107634236B79BD8A74C
:100070001A39685618AEBAAB558C1D3CB7CC5763CD
:10008000BD6DEDFD753EF6177231BF000000803F7B
:1000900008000000BE922449123EABAAAA2ABECD97
:1000A000CCCC4C3E00000080BEABAAAAAA3E000009
:1000B0000000BF000000803F000000000008417801
:1000C000D3BB4387D1133D190E3CC3BD4282AD2B38
:1000D0003E68EC8276BED98FE1A93E4C80EFFFBE30
:1000E00001C4FF7F3F0000000000005EBCE2613FF2
:1000F000DD83C29C7E20A3FD1F419DC3217FFCA206
:10010000401E5F01E3BD3E6082DC237D9FC1421C37
:10011000FEA0E1BF5D0380DE3C62BEE0025CDF81E9
:10012000633D7C22C09E1D43A1FF4618FAA4277997
:100130009BC584DA3866E5BB5907DB856739BAE4C5
:1001400006581947A5FB7826C49A653BD987045AF7
:10015000B8E6A7F91B45C6987A24F8A6441A99C7A9
:10016000257B3A6486D85B05E7B98CD2306EEDB357
:10017000510F4E10F2AC2F7193CD114FADF3702E85
:10018000CC92D38D6F31B2EC0E50AFF1134DCE90B7
:10019000722C6D33D18F0C52B0EE326C8ED0530D69
:1001A000EFB1F0AE4C1291CF2D73CA947628ABF517
:1001B00017490856B4EA6937D58B5709EBB5366845
:1001C0008AD495CB2977F4AA4816E9B7550B88D677
:1001D000346A2B7597C94A14F6A8742AC896154B29
:1001E000A9F7B6E80A54D7896B351F1C1F1E1F1EBE
:1001F0001F1F1E1F1E1F0000000800020100000339
:1002000004070000000000000000010204081020A4
:100210004080010204081020010204081020040498
:10022000040404040404020202020202030303039E
:100230000303000000002300260029000000000046
:10024000250028002B0000000000240027002A00C1
:100250006A052A08EB130315062AAD0511241FBEF3
:10026000CFEFD8E0DEBFCDBF12E0A0E0B1E0E2E327
:10027000F0E602C005900D92A63CB107D9F728E040
:10028000A6ECB2E001C01D92AD36B207E1F712E074
:10029000CAE5D2E004C02297FE010E94EA2FC035D1
:1002A000D107C9F70E944A2A0C940C300C94000024
:1002B000089590919D03943640F4E92FF0E0E256C2
:1002C000FC4F80839F5F90939D030895CF93C82F29
:1002D000892F0E9459018C2FCF910C9459011092B3
:1002E0009D0310929C0308951F93CF93DF93CDB786
:1002F000DEB729970FB6F894DEBF0FBECDBF0E94C0
:10030000E91E29833A834B835C836D837E838F83CD
:10031000CE0101960E94391E182F892F6987788790
:100320000E945901812F0E9459017885872F0E94D0
:1003300059016985862F0E94590129960FB6F894B4
:10034000DEBF0FBECDBFDF91CF911F91089588E032
:100350000E9459010E9474018091D6029091D702A7
:100360000E9466018091D4029091D5020E9466019C
:100370008091D2029091D3020E9466018091D002B6
:100380009091D1020E9466018091CE029091CF029D
:100390000E9466018091CC029091CD020E9466017C
:1003A0008091CA029091CB020E9466018091C8029E
:1003B0009091C9020E9466018091C6020E94590173
:1003C0008AE00C945901CF92DF92EF92FF926B0179
:1003D0007C01CA010197049790F4BA01882777FD40
:1003E0008095982F0E94BB2C9B01AC0160E070E0CF
:1003F00080E291E40E94AA2D0E94882C04C061E052
:1004000070E080E090E00E94BB2C9B01AC01C70132
:10041000B6010E94472D0E94882CCB01FF90EF90DF
:10042000DF90CF90089560E085E00C94042861E0AF
:1004300085E00E94042868EE73E080E090E00C9470
:10044000142761E085E00E94CB270E94170260ED2F
:1004500077E08DEF92E00C94CB116FE371E080EDCB
:1004600097E00E94972A4AE050E068E070E080ED53
:1004700097E00C94712B6BE571E080ED97E00E94A2
:10048000972A6091D6027091D7024AE050E080ED41
:1004900097E00E94712B66E671E080ED97E00E9484
:1004A000972A6091D4027091D5024AE050E080ED25
:1004B00097E00E94712B62E771E080ED97E00E9467
:1004C000972A6091D2027091D3024AE050E080ED09
:1004D00097E00E94712B61E871E080ED97E00E9447
:1004E000972A6091CE027091CF024AE050E080EDF1
:1004F00097E00E94712B6CE871E080ED97E00E941C
:10050000972A6091CC027091CD024AE050E080EDD4
:1005100097E00E94712B6AE971E080ED97E00E94FC
:10052000972A6091CA027091CB024AE050E080EDB8
:1005300097E00E94712B68EA71E080ED97E00E94DD
:10054000972A6091C8027091C9024AE050E080ED9C
:1005500097E00C94712B62EB71E080ED97E00C94C6
:10056000B42A65EC71E080ED97E00C94B42AAF9268
:10057000CF92EF92FF920F931F93CF93DF93CDB75C
:10058000DEB763970FB6F894DEBF0FBECDBF88E02D
:10059000A82EC0909D039EE9E92E93E0F92E00E07D
:1005A00020E04EEF5FEF65EF72E0CE0101960E9412
:1005B000AB128C819B819093E4028093E5028D8144
:1005C0009E819093E7028093E6028F818093E802F8
:1005D00088E0FE013896A9EEB2E001900D928A956E
:1005E000E1F7888999899093F2028093F1028A89D0
:1005F0008093F3028B898093F40206E010E0A895C3
:1006000062EE72E08DEF92E00E947B1368EE73E081
:100610008DEF92E00E9400148823F9F061EF71E001
:1006200080ED97E00E94B42A8DEF92E00E940012C4
:100630000E9487118B3831F58DEF92E00E940012F5
:1006400068ED72E00E94961188ED92E00E94901190
:10065000811118C00E94B10219C08DEF92E00E9472
:1006600000120E948A11882339F063E072E080ED65
:1006700097E00E94B42A06C06AE172E080ED97E03C
:100680000E94972A0150110909F0B9CF63960FB65D
:10069000F894DEBF0FBECDBFDF91CF911F910F91B8
:1006A000FF90EF90CF90AF90089560E372E080EDFF
:1006B00097E00C94B42ADF92EF92FF920F931F936E
:1006C000CF93DF93CDB7DEB727970FB6F894DEBF91
:1006D0000FBECDBF0E94E91ED32E7A018B0130E000
:1006E000B9016053784F4AE050E080ED97E00E94F6
:1006F000B42B6BE372E080ED97E00E94972A89E0CB
:100700008D1540F04AE050E060E070E080ED97E049
:100710000E94692B4AE050E06D2D80ED97E00E9429
:10072000962B6BE372E080ED97E00E94972A89E0B8
:100730008E1540F04AE050E060E070E080ED97E018
:100740000E94692B4AE050E06E2D80ED97E00E94F8
:10075000962B66E472E080ED97E00E94972A89E08C
:100760008F1540F04AE050E060E070E080ED97E0E7
:100770000E94692B4AE050E06F2D80ED97E00E94C7
:10078000962B6DE372E080ED97E00E94972A0A3085
:1007900040F44AE050E060E070E080ED97E00E94B5
:1007A000692B4AE050E0602F80ED97E00E94962B85
:1007B0006DE372E080ED97E00E94972A1A3040F4D2
:1007C0004AE050E060E070E080ED97E00E94692B25
:1007D0004AE050E0612F80ED97E027960FB6F8943D
:1007E000DEBF0FBECDBFDF91CF911F910F91FF9064
:1007F000EF90DF900C949D2B6FE372E080ED97E01B
:100800000E94972A0C945B038DE794E00E94A61C3B
:100810006CE08DE794E00E94631C60E08CE794E05C
:100820000C94F5218EE694E00C94161D80E694E07D
:100830000C9475240E9404040E9412040C94160463
:100840008DE794E00E94461B62E371E08DE794E03F
:100850000E94771B42E050E00E94E3019093D70290
:100860008093D6026AE271E08DE794E00E94771BE4
:1008700042E050E00E94E3019093D5028093D402BD
:100880008CE794E00E94DC2042E050E00E94E3010B
:100890009093D3028093D20288E993E00E942920AA
:1008A00088E993E00E94C81F42E050E00E94E30103
:1008B0009093D1028093D00208958EE694E00E9436
:1008C000E21D42E050E00E94E3019093CF0280934A
:1008D000CE0208958F929F92AF92BF92CF92DF92F5
:1008E000EF92FF920F931F93CF93DF9300D000D02E
:1008F000CDB7DEB78C010E94E5264B015C0120E0FC
:1009000030E0A901C12CD12C7601C801AA2797FD9E
:10091000A095BA2F880E991EAA1EBB1E29833A8362
:100920004B835C830E94E52629813A814B815C815F
:10093000681579058A059B05B8F410161106A4F40C
:1009400080E00E948527AA2797FDA095BA2FC80EA0
:10095000D91EEA1EFB1E29813A814B815C812F5FE3
:100960003F4F4F4F5F4FDACFC701B6010E94AA2F0A
:10097000C9010F900F900F900F90DF91CF911F91B1
:100980000F91FF90EF90DF90CF90BF90AF909F902E
:100990008F90089584E690E00E946A049093CB02C1
:1009A0008093CA02089568EE73E082E094E00E94AA
:1009B000830642E050E00E94E3019093C9028093D5
:1009C000C802089586E993E00E94022686E993E032
:1009D0000E94CE2590E09093C7028093C6020895AE
:1009E00061E080E10E94CB2761E080E10E94042861
:1009F00083E097E00C94C41480E00E94312683B712
:100A00008E7F83BF08950E94FC040E9417020C94FD
:100A1000F0045A9A529883B7817F846083BF88E933
:100A200093E00E943E2040E050E068E571E080E005
:100A30000E94112662E088E993E00E94B51E83B708
:100A4000816083BF83B7816083BF889583B78E7FC2
:100A500083BF0895F894A89529E288E190E00FB645
:100A6000F894A895809360000FBE2093600078945E
:100A70000895F894A89588E10FB6F89480936000E3
:100A8000109260000FBE789408950E94390526E008
:100A900040E051EE60E070E080ED97E00E94482970
:100AA00083E097E00E94C4140E94210288E993E049
:100AB0000E944D200E946F010E941A040C942D0286
:100AC00060E084E00C9404280E9413020E946005F8
:100AD0000C9409050F931F9369E080E994E00E944C
:100AE000FC1860E974E08DE794E00E94321964E438
:100AF0008CE794E00E946E2023E046E163E08EE6FE
:100B000094E00E940F1D2FEF3FEFA90169E380E6FB
:100B100094E00E9421228BE793E00E9456078DEF1C
:100B200092E00E94B91100E010E0980140E050E02E
:100B3000BA0185EF92E00E949D1220919D034EE93B
:100B400053E065EF72E082EE92E00E94D41288EDED
:100B500092E01F910F910C948F118BE793E00C940E
:100B600069076EE572E080ED97E00E94972A86E9BA
:100B700093E00E94022686E993E00E94CE254AE097
:100B800050E0682F80ED97E00E94962B66E772E0B8
:100B900080ED97E00E94972A86E993E00E94E42581
:100BA000BC0180ED97E00E94B42A80ED97E00C94A0
:100BB000C1281F93CF93DF93CDB7DEB727970FB62A
:100BC000F894DEBF0FBECDBF0E9464050E94FC04F6
:100BD0001AE00E94E91E862F612F0E94682F992338
:100BE00039F00E94B1050E9464050E94FC04F1CF17
:100BF00027960FB6F894DEBF0FBECDBFDF91CF9121
:100C00001F910895CF93DF93CDB7DEB7A4970FB6AA
:100C1000F894DEBF0FBECDBFBE016F5F7F4F80E691
:100C200094E00E9454256D897E898F89988D0E9459
:100C3000882C7093CD026093CC02A4960FB6F894E2
:100C4000DEBF0FBECDBFDF91CF9108950E945D043E
:100C50000E9420040E9402060E94CA040E94D3043B
:100C60000C94E2040E94FC030E942A050E942606BE
:100C70000E943B02A8950E946F010E94A70160E4B8
:100C800076E080E090E00E9414270E94B7020E9464
:100C9000AB020E94390560E177E280E090E00E94BB
:100CA00014270E9455030E94D9050C9403058EE475
:100CB00080937C0062E070E080E090E00E94142766
:100CC00080917A00806480937A0080917A0086FD1A
:100CD000FCCF8091780090E0A0E0B0E060917900D6
:100CE000362F20E0442737FD4095542F282B392BF1
:100CF0004A2B5B2B60E070E381E190E00E94AA2F19
:100D0000CA01B90108952F923F924F925F926F925C
:100D10007F928F929F92AF92BF92CF92DF92EF928B
:100D2000FF920F931F93CF93DF93EC012B010E944F
:100D300057063B014C01CC24DD249CE4A92EB12CA8
:100D4000AC0EBD1E88E4282E312C2C0E3D1E53C047
:100D50008AA59BA599A788A78E890E9485279BA70E
:100D60008AA7E8ACF9AC0AAD1BADECAAFDAA0EABA4
:100D70001FABAA2797FDA095BA2FBC01CD010E94F9
:100D8000BB2C9B01AC01C801B7010E94BC2B7B01AD
:100D90008C0168A579A5882777FD8095982F0E94FA
:100DA000BB2C9B01AC01C801B7010E94BB2B2BEDF2
:100DB00039EF4EE75FE30E94472D9B01AC0168AF1E
:100DC00079AF8AAF9BAF0E94472D9B01AC01F10127
:100DD0006083718382839383F50160817181828155
:100DE00093810E94BC2BF50160837183828393837E
:100DF0000894C11CD11CC414D5040CF4A9CFB201B1
:100E0000882777FD8095982F0E94BB2C9B01AC0111
:100E1000F50160817181828193810E94202C0E9462
:100E2000FA2D7B018C01B301882777FD8095982FDF
:100E30000E94BB2C20E030E04AE754E40E94202CC2
:100E400020E030E040E85AE30E94472D2C8D3D8D94
:100E50004E8D5F8D0E94472DA80197010E94472D5E
:100E6000688B798B8A8B9B8B80E090E0A0E0B0E070
:100E7000F50180839183A283B383288939894A89C4
:100E80005B89B901CA01DF91CF911F910F91FF904A
:100E9000EF90DF90CF90BF90AF909F908F907F901A
:100EA0006F905F904F903F902F900895FC011382B8
:100EB000128288EE93E0A0E0B0E084839583A6835D
:100EC000B7838FE792E091838083128E118E148610
:100ED0000895FC018FE792E0918380830895DF936A
:100EE000CF930F92CDB7DEB7FC016983A081B181AA
:100EF00012962D913C911397BE016F5F7F4F41E099
:100F000050E0F90109950F90CF91DF910895DC0130
:100F10005996ED91FC915A97309719F420E030E002
:100F200018C0238934894589568982859385A4858B
:100F3000B585281B390B4A0B5B0B2030B0E83B070B
:100F4000B0E04B07B0E05B0720F02FEF3FE740E059
:100F500050E0C9010895FC01818D928D009711F038
:100F60000E94A40B0895DF93CF930F92CDB7DEB705
:100F7000FC01818D928D009749F0BE016F5F7F4F1C
:100F800041E050E00E94EE0B019719F02FEF3FEF88
:100F900003C08981282F30E0C9010F90CF91DF91E4
:100FA0000895EF92FF920F931F93DF93CF930F92C9
:100FB000CDB7DEB77C01DC0159968D919C915A9793
:100FC000009719F400E010E01FC0BE016F5F7F4F73
:100FD00041E050E00E94EE0B019719F00FEF1FEF78
:100FE00013C08981082F10E0D7015996ED91FC912B
:100FF0005A974285538564857585415050406040BD
:101000007040CF010E94DE0AC8010F90CF91DF919E
:101010001F910F91FF90EF900895CF93DF93EC0114
:10102000E98DFA8D309761F013821282CF010E9410
:101030002A0D9C01E98DFA8D82819381892B31F0F3
:1010400081E090E09B838A8320E030E0C901DF915A
:10105000CF9108951092A3041092A4041092A704B3
:101060001092A90482E090E0A0E0B0E08093AB048D
:101070009093AC04A093AD04B093AE041092C2045C
:101080001092CC041092CB048FE892E09093CA04A3
:101090008093C9041092CE040895382F8091E804FB
:1010A0008F3F31F43EBD0DB407FEFDCF8EB50895E0
:1010B000F894A091E904B091EA045091EB04252F33
:1010C0002095E091EC04F091ED044091EE04642F42
:1010D000609590E08C9182238C9337FF03C08081D0
:1010E000842B02C08081862380838C91852B8C93F6
:1010F0009F5F983011F0330FEDCF0000000000002B
:1011000000008C9128232C93789408958091E80412
:101110008F3F31F48EBD0DB407FEFDCF2EB530C02C
:10112000F894E091EC04F091ED0480819091EE044C
:10113000892B8083E091E904F091EA046091EB044B
:10114000A091EF04B091F0048091F104482F50E099
:10115000762F709520E030E08081862B8083220FEF
:101160008C9190E084239523892B09F02160808164
:1011700087238083000000003F5F383069F7789450
:10118000822F08950F931F93CF93DF938B010E94BB
:10119000E526EB010E9486088F3F11F481E008C02C
:1011A0000E94E5266C1B7D0B6017710798F380E0A9
:1011B000DF91CF911F910F910895FC01848160E030
:1011C0000E9404280895FC01848161E00E940428A3
:1011D0000895CF92DF92EF92FF920F931F93CF93D8
:1011E000DF937C016A01FC018485882319F40FEFE9
:1011F0001FEF30C000E010E040E050E0212F332727
:1012000027FD3A95F601E40FF51F808190E028272D
:1012100039273070C901F4E095958795FA95E1F783
:1012200082279327102F0027082719279C01322F88
:1012300022273295307F0227132725E0880F991F38
:101240002A95E1F7082719274F5F5F4FF2E04030FA
:101250005F07A1F6862F0E944D08C0E0D0E0F6019E
:10126000EC0FFD1F80810E944D08219682E0C03066
:10127000D807A9F7812F992787FD9A950E944D08D5
:10128000802F0E944D080E948608F70182878F7187
:10129000853011F481E007C081E1F7018583C70142
:1012A0000E94E30880E0DF91CF911F910F91FF90A2
:1012B000EF90DF90CF9008950F931F93CF93DF931C
:1012C000EC010E94E5268B0109C00E94E526601B07
:1012D000710B6D52714010F08FE00AC00E948608B9
:1012E0008A878F3F91F38E3F11F481E006C08DE035
:1012F0008D83CE010E94E30880E0DF91CF911F91A2
:101300000F910895CF93DF93EC018E81882319F418
:101310000FC00E9486088F819885019698878F83D9
:10132000019782509240A8F3CE010E94E3081E82EA
:10133000DF91CF910895DF92EF92FF920F931F9369
:10134000CF93DF93EC01D62E79018A010E948209A6
:10135000CE010E94DD08CE016CE271E00E94C2085D
:101360008D2D80640E944D08812F9927AA27BB27C5
:101370000E944D08C801AA27BB270E944D08BB2721
:10138000A12F902F8F2D0E944D088E2D0E944D0869
:10139000DD2011F485E906C088E0D81611F487E84D
:1013A00001C08FEF0E944D0810E00E9486088A87D6
:1013B00087FF02C01150C9F7DF91CF911F910F91A4
:1013C000FF90EF90DF900895CF92DF92EF92FF921F
:1013D0000F931F93CF93DF93EC017A018B01690187
:1013E000411551056105710511F482E133C08B850A
:1013F000833039F039E0EE0CFF1C001F111F3A95C5
:10140000D1F7CE0168E1A80197010E949B098823CA
:1014100011F084E01FC0CE016EEFA6010E94E90822
:101420008823C9F0CE0168E572E00E94C2088823D3
:1014300011F485E10FC0CE016DE020E030E040E026
:1014400050E00E949B09882321F40E94860888238B
:1014500079F084E18D83CE010E94E30880E0DF9182
:10146000CF911F910F91FF90EF90DF90CF90089553
:10147000CE010E94E30881E0F2CF6F927F928F92BB
:101480009F92AF92BF92CF92DF92EF92FF920F9313
:101490001F93CF93DF93EC015A016B01390148018F
:1014A0000115110509F46AC0C801820F931F81500C
:1014B000924008F05EC08E81882371F08881998106
:1014C000AA81BB81481759076A077B0729F48F81D6
:1014D00098856816790650F5A882B982CA82DB829F
:1014E0008B85833039F0E9E0AA0CBB1CCC1CDD1CD9
:1014F000EA95D1F7CE0161E1A60195010E949B0911
:10150000882319F083E08D8334C0CE010E945C09EA
:10151000882379F118861F8281E08E8307C00E949C
:1015200086088F819885019698878F838F8198850B
:1015300086159705A0F300E010E008C00E94860819
:10154000F701E00FF11F80830F5F1F4F081519058A
:10155000A8F32F813885280D391D38872F83898579
:10156000882319F02050324048F0CE010E948209B1
:1015700005C0CE010E94E30880E001C081E0DF9158
:10158000CF911F910F91FF90EF90DF90CF90BF9080
:10159000AF909F908F907F906F900895EF92FF9201
:1015A0000F931F93790120E030E000E012E00E94E9
:1015B0003D0A1F910F91FF90EF9008956F927F92D7
:1015C0008F929F92AF92BF92CF92DF92EF92FF9253
:1015D0000F931F93CF93DF93EC017A018B012D8141
:1015E000222309F480C08B899C89AD89BE89841728
:1015F0009507A607B70708F476C085C0E114F10483
:101600000105110549F41E821F82188619861A8663
:101610001B861C861D8665C02A853B854C855D859D
:10162000EB8DFC8D858590E009962150304040403F
:10163000504039014A01082E04C09694879477944B
:1016400067940A94D2F72F5F3F4F4F4F5F4F089434
:10165000E108F108010911095701680104C0D69495
:10166000C794B794A7948A95D2F70894E11CF11C0B
:10167000011D111DA614B704C804D90428F02115B2
:1016800031054105510549F48F89988DA98DBA8D91
:101690008E839F83A887B98716C0A618B708C80885
:1016A000D90811C04E815F81688579858B8D9C8DAD
:1016B00094010E9405100894A108B108C108D1083E
:1016C000882331F410C086E0882E912C8C0E9D1E4C
:1016D000A114B104C104D10429F7EA86FB860C8762
:1016E0001D8781E001C080E0DF91CF911F910F91B4
:1016F000FF90EF90DF90CF90BF90AF909F908F9032
:101700007F906F900895223009F078CFE6CFCF9385
:10171000DF93EC01462F6E857F85888999890E9429
:101720002E0F882319F420E030E00AC08A89282F80
:1017300030E095E0220F331F9A95E1F72C503B4F94
:10174000C901DF91CF9108950F931F93CF93DF933A
:101750008C01FC0185818823D9F1848187FF35C004
:10176000C80161E00E94870BEC01009789F1F80144
:101770008581823040F483899489A589B6898C8FCC
:101780009D8FAE8FBF8FF8018789908D9B8F8A8F39
:101790008789908DA18DB28DCD01AA27BB279D8B06
:1017A0008C8BE091F204F091F304309751F0BE017C
:1017B0006A5E7F4FCE0148960995888D998D9B8BE7
:1017C0008A8BF80184818F7784830E94F30E01C095
:1017D00080E0DF91CF911F910F9108952F923F925A
:1017E0004F925F926F927F928F929F92AF92BF9231
:1017F000CF92DF92EF92FF920F931F93CF93DF93DD
:10180000EC012A018D81882309F4C6C08C8180FFF8
:10181000C3C0D8C025014E185F084B0176E0272EC3
:10182000312C2C0E3D1E3201B1C02A853B854C85E2
:101830005D856FEFA62E61E0B62EA222B3228D81C8
:1018400079018A0199E016950795F794E7949A959E
:10185000D1F7EB8DFC8D823049F4428D538D648D30
:10186000758D4E0D5F1D601F711F3FC0D480DA94CF
:10187000DE20A114B104D9F4DD20C9F4211531050D
:101880004105510549F48F89988DA98DBA8D8E83B4
:101890009F83A887B9870BC04E815F816885798552
:1018A000CF0191010E940510882309F475C0EB8DCA
:1018B000FC8D4E815F816885798542505040604043
:1018C0007040058404C0440F551F661F771F0A949B
:1018D000D2F786859785A089B189480F591F6A1F5D
:1018E0007B1F4D0D511D611D711D80E092E08A1915
:1018F0009B0963018615970508F46C018C8186FDB0
:1019000006C080E0C81682E0D80609F073C0809156
:101910003A0190913B01A0913C01B0913D014817E3
:1019200059076A077B0709F465C08091F406909116
:10193000F5069501860174010E943D0A882361F134
:101940008C0C9D1C12C095012C503B4FA9014C0DD5
:101950005D1DD401F90102C081918D93E417F50753
:10196000D9F7E21BF30B8E0E9F1E960140E050E06C
:101970008A859B85AC85BD85820F931FA41FB51FEB
:101980008A879B87AC87BD876C187D0861147104BA
:1019900009F04BCFA20102C04FEF5FEFCA01DF9108
:1019A000CF911F910F91FF90EF90DF90CF90BF905C
:1019B000AF909F908F907F906F905F904F903F90EF
:1019C0002F900895AB88BC88CD88DE88EA84FB849C
:1019D0000C851D859A0140E050E0D601C5018E19A5
:1019E0009F09A00BB10B82179307A407B50708F452
:1019F00011CF13CFCB01BA0140E00E942E0F8823F4
:101A000009F0A1CFC9CFCF93DF93EC019C012A5FEE
:101A10003F4F8B8D9C8D41E050E060E070E00E9474
:101A200078108823A1F08F89988DA98DBA8D0097A1
:101A3000A105B10559F48E819F81A885B9858F8B49
:101A4000988FA98FBA8F8C8180688C8381E0DF9119
:101A5000CF9108952F923F924F925F927F928F92F3
:101A60009F92AF92BF92CF92DF92EF92FF920F932D
:101A70001F93DF93CF9300D000D000D0CDB7DEB757
:101A80006C01162F072F5E834D83DC0115968C9118
:101A90001597813009F070C114968C9181FF6CC14B
:101AA0008EC1F6014389548965897689828593853B
:101AB000A485B58584179507A607B70731F0C60139
:101AC0000E94DE0A882309F457C1812F902F9C01C0
:101AD00029012D803E8017C1D6015B96ED91FC91C6
:101AE0005C97DA01C90119E0B695A7959795879596
:101AF0001A95D1F774807A9478227FEF872E71E05F
:101B0000972E82229322772009F04EC081149104EF
:101B100009F04AC0D60116964D915D916D917C9168
:101B20001997411551056105710581F457968D91FD
:101B30009D910D90BC91A02D0097A105B10549F193
:101B4000F60186839783A087B1872EC0CF019E01BF
:101B50002F5F3F4F0E940510882309F414C129818B
:101B60003A814B815C81D6015B96ED91FC915C974B
:101B70008789803129F088EF9FEFAFEFBFE004C085
:101B800088EF9FEFA0E0B0E0281739074A075B070E
:101B900030F0C6010E94030D882331F4EDC0F60138
:101BA000268337834087518780E092E0881999091E
:101BB00051018215930508F45C01D6015B96ED9105
:101BC000FC915C971696ED90FD900D911C911997E4
:101BD0008EEF9FEFAFEFBFEFE80EF91E0A1F1B1F3E
:101BE000058404C0EE0CFF1C001F111F0A94D2F7DD
:101BF00086859785A089B189E80EF91E0A1F1B1FEB
:101C0000E70CF11C011D111D90E0A91692E0B90628
:101C100051F580913A0190913B01A0913C01B09126
:101C20003D018E159F05A007B10761F48FEF9FEF6F
:101C3000AFEFBFEF80933A0190933B01A0933C013B
:101C4000B0933D018091F4069091F506B801A7018B
:101C500092010E94E409882309F48EC0A0E0B2E05A
:101C60004A0E5B1E3EC08114910409F5F6012285DF
:101C700033854485558583899489A589B689281734
:101C800039074A075B0798F00E94F30E882309F48E
:101C900073C0E0923A01F0923B0100933C01109333
:101CA0003D018091F60681608093F60608C0C80168
:101CB000B70141E00E942E0F882309F45DC0940112
:101CC0002C503B4FA9014A0D5B1DD201F90102C006
:101CD0008D918193E417F507D9F7E21BF30B4E0EB4
:101CE0005F1E2A183B08950140E050E0F60182850E
:101CF0009385A485B585820F931FA41FB51F828786
:101D00009387A487B587D6011A962D913D914D9161
:101D10005C911D972114310409F0DECE53968D910C
:101D20009D910D90BC91A02D82179307A407B50734
:101D300048F4F601238B348B458B568B8481806865
:101D4000848311C08091F2049091F304892B59F09F
:101D50008D819E81892B39F0D60114968C91149730
:101D6000806814968C93F601848183FF0EC0C601AF
:101D70000E94A40B882349F481E090E0D6011396D9
:101D80009C938E9312971E821D828D819E81269632
:101D90000FB6F894DEBF0FBECDBFCF91DF911F917C
:101DA0000F91FF90EF90DF90CF90BF90AF909F90FA
:101DB0008F907F905F904F903F902F90089582FD7D
:101DC00070CE83CEDF93CF930F92CDB7DEB769830A
:101DD000BE016F5F7F4F41E050E00E942A0D0F90DF
:101DE000CF91DF9108958091F606882399F1409173
:101DF0003A0150913B0160913C0170913D0180910D
:101E0000F4069091F50624EF34E00E94E40988235B
:101E100019F14091F7065091F8066091F90670911A
:101E2000FA06411551056105710591F08091F4069E
:101E30009091F50624EF34E00E94E409882361F0D4
:101E40001092F7061092F8061092F9061092FA0610
:101E50001092F60681E0089580E00895DF92EF92F7
:101E6000FF920F931F937B018C01D42E80913A0136
:101E700090913B01A0913C01B0913D018E159F05D1
:101E8000A007B107C1F00E94F30E8823D9F080911A
:101E9000F4069091F506B801A70124EF34E00E9402
:101EA000CE0A882379F0E0923A01F0923B01009348
:101EB0003C0110933D018091F6068D298093F60632
:101EC00081E001C080E01F910F91FF90EF90DF90C3
:101ED00008954F925F926F927F928F929F92AF92EE
:101EE000BF92CF92DF92EF92FF920F931F93CF9307
:101EF000DF93EC016A017B01280139014230510571
:101F00006105710508F46FC089859A85AB85BC852C
:101F10000196A11DB11D84179507A607B70708F400
:101F200062C02B893C894D895E898F89803129F473
:101F300099278F2D7E2D6D2D09C0C701B60117E0A1
:101F400096958795779567951A95D1F74B015C0122
:101F5000820E931EA41EB51E80913A0190913B0102
:101F6000A0913C01B0913D0188169906AA06BB06D6
:101F700039F0C501B40140E00E942E0F882399F189
:101F80008F89803149F4F601F070EE0FFF1FEC509D
:101F9000FB4F518240820DC0F601EF77F070EE0FDB
:101FA000FF1FEE0FFF1FEC50FB4F408251826282F9
:101FB00073828091F60681608093F6068A8982306A
:101FC00080F08D819E81AF81B885880E991EAA1EF2
:101FD000BB1E8092F7069092F806A092F906B09286
:101FE000FA0681E001C080E0DF91CF911F910F914F
:101FF000FF90EF90DF90CF90BF90AF909F908F9029
:102000007F906F905F904F900895CF92DF92EF9204
:10201000FF920F931F93CF93DF93EC017A018B0113
:10202000690189859A85AB85BC850196A11DB11D85
:1020300084179507A607B70708F450C02B893C8979
:102040004D895E898F89803129F49927812F702FDE
:102050006F2D09C0C801B701E7E096958795779580
:102060006795EA95D1F7260F371F481F591F8091B2
:102070003A0190913B01A0913C01B0913D0128179C
:1020800039074A075B0739F0CA01B90140E00E94ED
:102090002E0F882319F18F89803159F4F701F070E0
:1020A000EE0FFF1FEC50FB4F80819181A0E0B0E06C
:1020B0000EC0F701EF77F070EE0FFF1FEE0FFF1F5E
:1020C000EC50FB4F80819181A281B381BF70F601FA
:1020D00080839183A283B38381E001C080E0DF919C
:1020E000CF911F910F91FF90EF90DF90CF900895C7
:1020F0002F923F924F925F926F927F928F929F9218
:10210000AF92BF92CF92DF92EF92FF920F931F9305
:10211000DF93CF93CDB7DEB72F970FB6F894DEBF1E
:102120000FBECDBF1C014A875B876C877D873F87C9
:102130002E87D9010D911D912D913C91011511050D
:102140002105310549F0480159010894811C911C71
:10215000A11CB11C198610C0FC0180809180A28056
:10216000B38019868A859B85AC85BD850197A105BD
:10217000B10511F491E09987D10119968D919D9146
:102180000D90BC91A02D0196A11DB11D8D839E8344
:10219000AF83B887750164014424552432018E0150
:1021A0000F5F1F4FF10181859285A385B485481685
:1021B00059066A067B0608F090C08D819E81AF812A
:1021C000B8858C159D05AE05BF0550F482E0882EBC
:1021D000912CA12CB12CB2E0CB2ED12CE12CF12CE6
:1021E000C101B701A60198010E940510882309F4D6
:1021F00074C089819A81AB81BC81A70196012F5F50
:102200003F4F4F4F5F4F0097A105B10519F04901AE
:102210005A010DC0281939094A095B098A859B852D
:10222000AC85BD85281739074A075B0759F0089424
:10223000411C511C611C711C0894C11CD11CE11C67
:10224000F11CB0CFC101A601B7010FEF1FEF2FEFB7
:102250003FE00E94690F882399F43FC026013701AF
:1022600008944108510861087108C101B301A20135
:10227000970186010E94690F882379F17301620139
:102280008C149D04AE04BF0448F3AE85BF854D9108
:102290005D916D917C91411551056105710539F094
:1022A000C101950184010E94690F8823B1F0EE8578
:1022B000FF8580829182A282B382F985FF2359F043
:1022C0000894811C911CA11CB11CD1018D929D927E
:1022D000AD92BC92139781E001C080E02F960FB6BB
:1022E000F894DEBF0FBECDBFCF91DF911F910F914C
:1022F000FF90EF90DF90CF90BF90AF909F908F9026
:102300007F906F905F904F903F902F900895FC01C9
:1023100082810895FC018085811181E008950895EE
:10232000FC010190F081E02D84810895FC01DB0126
:102330008081918111969C938E93828112968C93C9
:102340001297878117968C931797858115968C9392
:102350001597808518968C931897868116968C937E
:102360001697838113968C931397848114968C937C
:102370000895FC0112861186148615861782108630
:1023800015820E9691838083E458FF4F80ED97E08D
:10239000918380830895FC01E458FF4F718360832B
:1023A0000895FC01E458FF4FA081B181ED91FC91AB
:1023B00011970480F581E02DCD01099520E0892B4E
:1023C00009F021E0822F0895FC01E458FF4FA0811D
:1023D000B181ED91FC9111970680F781E02DCD013F
:1023E00009950895FC01E458FF4FA081B181ED915A
:1023F000FC9111970284F385E02DCD010995089594
:102400000895DF92EF92FF920F931F93CF93DF9384
:10241000EC018F81882321F48885882309F477C013
:102420001A8619861C861F821A821B821C821D82B4
:102430001E8218866CC0CE010E94E411982F8B87F3
:102440008A85882399F09E3711F483E03BC09D373D
:1024500069F4CE010E94D111882331F0CE010E948F
:10246000E41181278B8702C0098759C08985882399
:1024700021F08B8581278B8719868A85833020F010
:102480008C859B85890F8C878A85813061F08130AE
:1024900028F0823061F0833091F40DC08B858E3747
:1024A000F1F50A873CC08B858B83DA8638C08B8533
:1024B0008C83EA8634C08B858A83FA8630C08F3657
:1024C00018F082E0888731C0282F30E08C8190E0BE
:1024D00003962817390781F48C858F3F31F48B855B
:1024E0008D8381E08F83188602C081E088878A858A
:1024F00084508E831A8619C0E881F981E20FF31F98
:1025000034978B8580838A858F5F8A8708C032E005
:10251000D32E01E023E0E22E94E0F92E10E2CE016A
:102520000E94D111882309F086CFDF91CF911F91AE
:102530000F91FF90EF90DF9008950F931F93FC0190
:102540004083518362837383048315832683378397
:102550001F910F910895AF92CF92EF92FF920F9338
:102560001F93CF93DF93FC01122F80E18283A3821C
:10257000F582E482C68287E992E091838083EF014D
:102580002796DB0188E00D9009928150E1F7508B8E
:102590004787118B028BDF91CF911F910F91FF9095
:1025A000EF90CF90AF900895CF93DF93FC0180E13F
:1025B000828381E0838355834483268387E992E085
:1025C00091838083EF012796DB0188E00D900992CB
:1025D0008150E1F78EEF9FEF908B8787118A128AE7
:1025E000DF91CF910895FC01662311F4828508954F
:1025F000613011F481850895623029F487819085D6
:10260000A185B28512C0633011F4878108956430CA
:1026100011F486850895653011F485850895663036
:1026200049F483859485A585B685892F9A2FAB2F8C
:10263000BB270895673011F483850895683011F43D
:1026400080890895693011F4878508956A3011F4FE
:10265000818908956B3011F4828908950480F58191
:10266000E02DE60FF11D3C9780810895FC018681E5
:10267000845F08950F93DF93CF9300D0CDB7DEB77B
:10268000FC01062F442321F1862F8D57823020F044
:10269000613111F06331E1F4CF0184589F4F9A8387
:1026A0008983DC01ED91FC91A081B1812D913C9158
:1026B000CF016DE7F9010995A981BA81ED91FC91EE
:1026C000A081B18160E260272D913C91CF010BC0C8
:1026D000E458FF4F0190F081E02DA081B1812D9150
:1026E0003C91CF01602FF90109950F900F90CF9188
:1026F000DF910F910895CF92DF92FF920F931F9376
:10270000CF93DF936C01EB016EE740E00E943A1338
:10271000E881F9810280F381E02DCE010995082F2F
:10272000E881F9810280F381E02DCE010995F82E30
:1027300010E00E5F1F4FC601612F41E00E943A1367
:1027400082E0F80EC6016F2D41E00E943A13C601E7
:102750006A8141E00E943A13C6016B8141E00E9408
:102760003A13FB808A81F80E00E010E018C0E8817F
:10277000F9810190F081E02DCE01602F0995682F3D
:10278000C60141E00E943A13E881F9810190F0818D
:10279000E02DCE01602F0995F80E0F5F1F4FE881E5
:1027A000F9810280F381E02DCE01099590E00817B0
:1027B0001907ECF2F094C6016F2D41E00E943A1324
:1027C000C6010E94F211DF91CF911F910F91FF90EE
:1027D000DF90CF9008951092FB061092FC061092A5
:1027E000FD061092FE068FEF9FEFA0E0B0E0809311
:1027F000FF0690930007A0930107B0930207089586
:10280000CF92DF92EF92FF920F931F93CF93DF93BC
:10281000EC016B0177FD17C00E94E5267B018C015E
:102820000BC0CE010E9401128F81882311F081E03C
:102830000BC08885882339F40E94E5266E197F092C
:102840006C157D0574F380E0DF91CF911F910F919E
:10285000FF90EF90DF90CF9008958091330790E044
:1028600020913407821B91090895209134078091AB
:102870003307281750F4E22FF0E0EB5CF84F80812B
:1028800090E02F5F2093340708958FEF9FEF089516
:10289000E091340780913307E81730F4F0E0EB5C07
:1028A000F84F808190E008958FEF9FEF089508958D
:1028B000CF92DF92EF92FF920F931F93CF93DF930C
:1028C0007C01CB018A0120910F07222389F0EB01C3
:1028D0006B01C40ED51ECC15DD0569F06991D701D9
:1028E000ED91FC910190F081E02DC7010995F3CFA6
:1028F000642F0E94BC15C801DF91CF911F910F91E9
:10290000FF90EF90DF90CF900895CF93DF931F92C9
:10291000CDB7DEB7698320910F072223D1F0209134
:102920001007203240F021E030E0FC0133832283A5
:1029300080E090E015C080911107E82FF0E0EE5E96
:10294000F84F998190838F5F8093110780931007D0
:1029500005C061E0CE0101960E94BC1581E090E0C7
:102960000F90DF91CF910895FC011382128248EEFF
:1029700053E060E070E044835583668377838FE99A
:1029800092E0918380830895109234071092330768
:1029900010921107109210070C940715862F4132E0
:1029A00008F040E265E377E00E94251510923407B5
:1029B00080933307089521E00C94CE1421E00C9409
:1029C000CE1481E080930F076093320710921107B5
:1029D0001092100708950C94E1140F93062F21E034
:1029E0004091100762E177E0809132070E946915FB
:1029F000109211071092100710920F070F9108956F
:102A000061E00C94ED1483E097E00C94B414109200
:102A1000C20781E08093C0071092BF0761E082E1A6
:102A20000E94042861E083E10E940428E9EBF0E0C1
:102A300080818E7F808380818D7F808380E2809300
:102A4000B80085E48093BC000895413208F03FC08F
:102A50009091C2079111FCCF91E09093C20720930F
:102A6000C0072FEF2093550710929A07240F209349
:102A700099079093C1079091C107880F892B809384
:102A8000C1078091BF07813041F41092BF07809148
:102A9000C1078093BB0085EC01C085EE8093BC002C
:102AA0008091C2078130E1F380919A07841710F476
:102AB00040919A072BE937E0FB01D9018A2F821B4D
:102AC000841718F48D918193F9CF842F089580E0B5
:102AD00008950F93413208F046C09091C2079111BA
:102AE000FCCF92E09093C2070093C0079FEF9093B2
:102AF000550710929A0740939907FB016BE977E01D
:102B0000DB019A2F961B941718F491919D93F9CF9E
:102B10001092C1079091C107880F892B8093C1073C
:102B20008091BF07813041F41092BF078091C107A7
:102B30008093BB0085EC01C085EE8093BC0022230E
:102B400021F08091C2078230E1F3809155078F3FD9
:102B500061F080915507803251F0809155078033A4
:102B600041F483E007C081E005C080E003C082E05B
:102B700001C084E00F910895613298F42091C2075A
:102B8000243089F460937707FC0189E797E0DC0142
:102B90002A2F281B261718F421912D93F9CF80E0B6
:102BA000089581E0089582E0089585ED8093BC004A
:102BB0008091BC0084FDFCCF1092C207089585EC83
:102BC0008093BC001092C20708951F920F920FB617
:102BD0000F9211242F933F934F935F936F937F93A3
:102BE0008F939F93AF93BF93EF93FF938091B9001F
:102BF000887F803609F49CC068F5883209F45BC090
:102C000090F4803109F454C038F4882309F4F5C0F5
:102C1000883009F44DC0F5C0883109F44CC08032C9
:102C200009F45DC0EEC0803409F468C048F4803314
:102C300009F455C0883309F0E4C080935507A8C053
:102C4000803509F44FC0883509F45DC0883409F037
:102C5000D8C0D5C0883909F4C6C0A8F4883709F4AB
:102C600067C038F4883609F463C0803709F460C05F
:102C7000C8C0883809F4B7C0803909F45FC080380B
:102C800009F0BFC05BC0803B09F485C038F4803ACE
:102C900009F466C0883A09F47EC0B3C0803C09F4E8
:102CA000A6C0883C09F4A3C0883B09F489C0A9C028
:102CB0008091C10710C090919A0780919907981749
:102CC00070F5E0919A0781E08E0F80939A07F0E00B
:102CD000E556F84F80818093BB0085EC85C08093DA
:102CE00055078DC0E0919A0781E08E0F80939A0777
:102CF0008091BB00F0E0E556F84F808390919A07F1
:102D0000809199076DC0E0919A0781E08E0F8093C2
:102D10009A078091BB00F0E0E556F84F80838091E0
:102D2000C00781116CC081E08093BF0784EA60C056
:102D300083E08093C20710925607CFCF8091560749
:102D4000803208F050C0E091560781E08E0F8093EA
:102D500056078091BB00F0E0E95AF84F8083BDCF61
:102D600080915607803230F4E0915607F0E0E95A3E
:102D7000F84F10820E94D5156091560770E0E091DF
:102D8000BB07F091BC0787E597E0099510925607BD
:102D90000E94DF1536C084E08093C2071092780746
:102DA00010927707E091BD07F091BE0709958091D9
:102DB0007707811105C081E080937707109279072A
:102DC000E091780781E08E0F80937807F0E0E75874
:102DD000F84F80818093BB009091780780917707AE
:102DE000981708F47ACF85E88093BC000AC085EC78
:102DF0008093BC001092C20704C0109255070E9435
:102E0000D515FF91EF91BF91AF919F918F917F91D8
:102E10006F915F914F913F912F910F900FBE0F9047
:102E20001F901895FC0113861586148687E090E0A4
:102E300012863197009711F00197FACF0895DC01BF
:102E400080E00BC0E82FF0E08D9190E0E827F927B3
:102E5000E651FF4FE49161508E2F662399F7089554
:102E6000DF92EF92FF920F931F93FC01E0800181AC
:102E70001281F894F80181818E2981838281DE2C70
:102E8000D0948D21828383E090E00E943C27F8015A
:102E900081818D2181838AE090E00E943C27F801A6
:102EA0000081789485E390E00E943C2780E010E068
:102EB000FF240E211F21012B09F081E01F910F91AA
:102EC000FF90EF90DF900895EF92FF920F931F9382
:102ED000CF93DF937C0101E010E0C0E0D0E0C701B8
:102EE0000E9430178111102B000F2196C830D10598
:102EF000B1F7812FDF91CF911F910F91FF90EF904C
:102F000008951F93CF93DF93FC011081C181D2817B
:102F1000912F909560FF12C0F8948A8189238A834B
:102F20008981812B89838AE090E00E943C278A81F5
:102F3000812B8A83789487E390E011C0F8948A818A
:102F400089238A838981812B898381E490E00E948F
:102F50003C278A81812B8A83789485E090E00E94C7
:102F60003C27DF91CF911F910895CF92DF92EF928E
:102F7000FF920F931F93CF93DF938C01E42EFF24D6
:102F8000F394C0E0D0E0C62EDD2460E08F2D90E009
:102F90008C219D21892B09F061E0C8010E948117D5
:102FA000FF0C2196C830D10581F7EE20A9F4F894E2
:102FB000D8011196ED91FC91129791818C91809599
:102FC000982391831196ED91FC91129792818C91A7
:102FD0008095982392837894DF91CF911F910F91E0
:102FE000FF90EF90DF90CF9008956CEC40E00E944E
:102FF000B5170895EF92FF920F931F93CF93DF932E
:103000008C017B0165E540E00E94B517C0E0D0E08F
:10301000F701EC0FFD1FC801608140E00E94B51769
:103020002196C830D105A1F7DF91CF911F910F9163
:10303000FF90EF900895DF92EF92FF920F931F930E
:10304000CF93DF93FC010081C181D281F894898103
:10305000D02ED0948D21898378941DE7E02EFF2413
:10306000115059F182E090E00E943C27888190E065
:103070008E219F21892BA1F3F8948A818D218A8347
:103080008981802B8983789480EE91E00E943C278F
:10309000F89489818D21898386E490E00E943C2701
:1030A000888110E090E0E822F922EF2809F411E08D
:1030B00078948AE991E00E943C27812FDF91CF919B
:1030C0001F910F91FF90EF90DF900895AF92BF9204
:1030D000DF92EF92FF920F931F93CF93DF93EC0158
:1030E0005B018D85882309F061C0CE010E941B1809
:1030F000882329F41B861D861C8690E06BC0CE01B8
:1031000060EF40E00E94B51701E0DD24EE24FF24CB
:10311000F394CE010E943017182FCE010E94301771
:10312000113019F48130E1F439C0181709F58B8595
:10313000081770F460E0FE01EE0DF11D838190E050
:103140002F2D30E082239323181619064CF003C06C
:1031500060E0081729F0093008F04CC00C874AC01D
:10316000FE01EE0DF11D83818F29838361E009C08B
:10317000612FFE01EE0DF11D9F2D90958381892316
:103180008383CE010E9481170F5FFF0C19F4E39433
:10319000FF24F39487E08E1508F0BBCF013430F0A4
:1031A000DB86DD2011F581E08D871FC01B861D8623
:1031B0001C8690E0DE0120E030E0F501E20FF31F15
:1031C00013968C91139780832F5F3F4F1196283071
:1031D000310599F7892FDF91CF911F910F91FF90C2
:1031E000EF90DF90BF90AF9008958B818823F1F22C
:1031F00091E0E0CFD02EBDCFFF920F931F938C01B3
:10320000F62E862F60E00E94CB278F2D90E0FC01E8
:10321000E65FFD4FE491D801EC93825E9D4FFC0187
:103220006491E62FF0E0EE0FFF1FEE5CFD4F8591FD
:10323000949112969C938E9311971B961C921B97B8
:103240001D961C921D971C961C92F80187E090E039
:1032500012863197009711F00197FACF1F910F91C5
:10326000FF900895FC0188EF99E1928B818B768322
:1032700065831482108289E0818381E08283838365
:1032800008956F927F928F929F92AF92BF92CF924A
:10329000DF92EF92FF920F931F93CF93DF93FB0187
:1032A000EA01998180E0288130E0282B392BE081E8
:1032B000E23231F0E83221F0E03109F084C04BC055
:1032C0004C814F3329F1403420F44F3109F07BC059
:1032D0002FC04F3579F04F3709F075C0B9018827F5
:1032E00077FD8095982F0E94BB2C20E030E040E8CD
:1032F0005DE32EC035952795B901882777FD809528
:10330000982F0E94BB2C20E030E040E05EE320C01C
:103310003595279535952795B901882777FD8095AF
:10332000982F0E94BB2C20E030E040E85EE310C004
:1033300093E0359527959A95E1F7B901882777FDB0
:103340008095982F0E94BB2C20E030E040E05FE3A6
:103350000E94472D32C0EF8035952795B901882707
:1033600077FD8095982F0E94BB2C20E030E040E84C
:103370005EE30E94BB2B3B014C016E2D70E02E8161
:10338000621B7109882777FD8095982F0E94BB2CBE
:103390005B016C01FF2400E010E0C801B7010E944E
:1033A000B92C9B01AC01C601B5010E94202C9B01E8
:1033B000AC01C401B3010E94BC2B9B01AC01832F63
:1033C000942F752F00C0262F382F492F572FB90162
:1033D000CA01DF91CF911F910F91FF90EF90DF9085
:1033E000CF90BF90AF909F908F907F906F900895F7
:1033F0000895EF92FF920F931F938C017B01FC01C4
:10340000858196810E941B18F80185819681B701FC
:103410000E94FA17F8018581968164EB40E00E94D2
:10342000B517F801858196810E943017F82EF801B2
:10343000858196810E941B1880E0FF2009F481E0BD
:103440001F910F91FF90EF900895EF92FF920F93CD
:103450001F93CF93DF93EC018B017A018D819E81C5
:103460000E941B188D819E81B8010E94FA178D81E0
:103470009E816EE440E00E94B5178D819E81F70128
:10348000628140E00E94B5178D819E81F7016381C2
:1034900040E00E94B517F8018081803139F08D81BC
:1034A0009E81F701648140E00E94B5178D819E8165
:1034B0000E941B188D819E8168E448810E94B51787
:1034C0008881882331F06AE070E080E090E00E941B
:1034D00014278D819E810E941B18DF91CF911F912F
:1034E0000F91FF90EF900895CF92DF92EF92FF92AD
:1034F0000F931F938C016B017A01FC0185819681EA
:103500000E941B18F80185819681B6010E94FA1766
:10351000F801858196816EEB40E00E94B517F801B5
:10352000858196810E946417F7018083F801858167
:1035300096810E946417F7018183F8018581968145
:103540000E946417F7018283F801858196810E94A9
:103550006417F7018383F801858196810E946417BF
:10356000F7018483F801858196810E946417F70131
:103570008583F801858196810E946417F70186830F
:10358000F801858196810E946417F7018783F8010D
:10359000858196810E946417F7018087F8018581F3
:1035A00096810E941B181F910F91FF90EF90DF9062
:1035B000CF900895DF93CF93CDB7DEB729970FB69D
:1035C000F894DEBF0FBECDBFAE014F5F5F4F0E94CC
:1035D000741A8981811181E029960FB6F894DEBFB3
:1035E0000FBECDBFCF91DF910895CF92DF92EF92C2
:1035F000FF920F931F93CF93DF93EC016B01452B49
:10360000E1F08B818823C9F088818823B1F40E947E
:10361000E5267B018C01CE0160E070E00E94DA1AA1
:10362000882359F40E94E5266E197F09800B910BBF
:103630006E5E72408040904070F3F60160816930A8
:1036400039F06930A0F06A3041F06B3081F40AC083
:103650006EE570E080E090E00EC06CEB70E080E022
:1036600090E009C067E771E080E090E004C06EEE92
:1036700072E080E090E00E941427DF91CF911F91CB
:103680000F91FF90EF90DF90CF900895CF93DF934D
:10369000EC018D819E810E941B188D819E810E946C
:1036A000F5178D819E8164E448810E94B5178A8157
:1036B000882339F0CE012196BE0140E050E00E94FF
:1036C000F51ADF91CF9108950F931F938A010E94FD
:1036D000741AC80168E00E941F1720E0F801908565
:1036E000891709F421E0822F1F910F910895CF923D
:1036F000DF92EF92FF920F931F93DF93CF93CDB79B
:10370000DEB729970FB6F894DEBF0FBECDBF8C0190
:103710007B016E010894C11CD11CA6010E94641B90
:10372000882329F460E070E08EEF92EC05C0C801B8
:10373000B701A6010E94411929960FB6F894DEBF81
:103740000FBECDBFCF91DF911F910F91FF90EF90F2
:10375000DF90CF900895DF93CF93CDB7DEB7299751
:103760000FB6F894DEBF0FBECDBF9C01FB01808178
:103770008031D9F0C901AE014F5F5F4F0E94641BD9
:103780008823A9F08D818F3371F0803418F48F3144
:1037900071F40BC08F3519F08F3749F402C08BE0FC
:1037A00007C08CE005C08AE003C089E001C080E06A
:1037B00029960FB6F894DEBF0FBECDBFCF91DF9133
:1037C0000895CF92DF92EF92FF921F93DF93CF93F2
:1037D000CDB7DEB729970FB6F894DEBF0FBECDBFC9
:1037E0006C017B01142FAE014F5F5F4F0E94641B81
:1037F0008823E1F0F70180818031B9F01A3051F06F
:103800001A3050F01B3021F01C3031F48FE705C026
:103810008FE503C08FE301C08FE18D83C601B7013F
:10382000AE014F5F5F4F0E94251A81E029960FB6C7
:10383000F894DEBF0FBECDBFCF91DF911F91FF90F7
:10384000EF90DF90CF9008950F931F938B01CB01E2
:1038500067E00E941F1720E0F8019781891709F49B
:1038600021E0822F1F910F910895EF92FF920F9305
:103870001F93CF93DF93EC017B01042F8D819E81F9
:103880000E94121710E007C0CE01B7010E94241C4D
:103890008823A9F00AC08D819E81B7010E94661815
:1038A000882329F0101759F4EFCF81E001C080E0A0
:1038B000DF91CF911F910F91FF90EF9008951F5FBF
:1038C0000117A8F3E8CFCF92DF92EF92FF920F9308
:1038D0001F93DF93CF93CDB7DEB728970FB6F89439
:1038E000DEBF0FBECDBF7C01693010F469E003C0BC
:1038F0006D3008F06CE0F701618300E010E06E01CC
:103900000894C11CD11C0DC0C701B601402F0E94F4
:10391000351CC701B601F70141810E94E11B0F5F11
:103920001F4FF701848190E0081719076CF3289660
:103930000FB6F894DEBF0FBECDBFCF91DF911F91C0
:103940000F91FF90EF90DF90CF900895AF92BF92CC
:10395000CF92DF92EF92FF920F931F93DF93CF935B
:10396000CDB7DEB761970FB6F894DEBF0FBECDBFFF
:103970007C01FC01858196810E941217F701148257
:103980006E010894C11CD11C79E0A72EB12CAC0E9D
:10399000BD1E01E02BC0C701B6010E94241C882374
:1039A00029F1F7018081882341F4C701B6010E9403
:1039B000F919882311F0F7010083C701B601A501A9
:1039C0000E94741AF7011181C701B6010E94AB1B56
:1039D000811718F4F701818104C0C701B6010E9464
:1039E000AB1BF701818384818F5F8483F70185811D
:1039F0009681B6010E946618882369F661960FB613
:103A0000F894DEBF0FBECDBFCF91DF911F910F9114
:103A1000FF90EF90DF90CF90BF90AF900895FC01A2
:103A200066834783208781E0858708950F931F93DE
:103A30008C01FC01868160E00E94CB27F801868121
:103A400061E00E940428F80111861286138614860C
:103A50001F910F910895CF92DF92EF92FF920F93F3
:103A60001F93CF93DF93EC018E8161E00E940428C5
:103A70006AEF70E080E090E00E9414270E94E52643
:103A80009B01AC0189859A85AB85BC8528173907D0
:103A90004A075B0720F419861A861B861C868D85CB
:103AA000882371F489859A85AB85BC85281B390BE1
:103AB0004A0B5B0B205D37404040504008F477C014
:103AC0001D860E94E52669877A878B879C871C82E2
:103AD0001B821A82198218828E8161E00E94CB2794
:103AE0008E8160E00E94042864E170E080E090E054
:103AF0000E941427F8948E8161E00E94042888E2D5
:103B000090E00E943C278E8160E00E94CB2781E0FC
:103B1000EE2400E010E00AC0F39481E090E00E94FF
:103B20003C278FEFF81629F40AC0822FFF24C82EF5
:103B3000DD248E810E943A288C159D0569F38E81C3
:103B40000E943A28282F8FEFF816C9F0043090F021
:103B500000FD10C08E2D869586958695FE01E80F96
:103B6000F11D9081990F908388858F1510F49160D5
:103B70009083E3940F5F1F4F05351105B1F67894DC
:103B800087E28E1510F030E013C030E04C8150E039
:103B90002981888190E0820F911D2A81820F911DD9
:103BA0002B81820F911D90704817590709F431E05D
:103BB000832FDF91CF911F910F91FF90EF90DF90B6
:103BC000CF900895EF92FF920F931F93CF93DF93BF
:103BD000EC010E942B1D8823A9F18F818B3031F0DD
:103BE0008B3080F18551823068F507C0688170E0C4
:103BF00080E090E00E94B92C22C0688170E080E0F3
:103C000090E00E94B92C20E030E040E853E40E94AC
:103C1000472D7B018C01698170E0882777FD8095B5
:103C2000982F0E94BB2C9B01AC01C801B7010E94D8
:103C3000BC2B20E030E040E251E40E94202CE62F33
:103C4000692F0AC080ED97E062E071E00E94972A38
:103C5000E0E070E080EC6FE72E2F372F482F562FD3
:103C6000B901CA01DF91CF911F910F91FF90EF90A1
:103C70000895CF93DF93EC018881282F30E069818C
:103C80008A81482F50E0EAEEF1E091E005C084918E
:103C9000480F511D9F5F31969617C8F3633038F077
:103CA000C90183709070892B11F44F5F5F4F8DE6CF
:103CB00091E0289FB001299F700D389F700D11244D
:103CC000615070402D5F3F4F36952795369527956B
:103CD000620F731F640F751F80E090E028E130E0F1
:103CE00040E050E00E94582F2B81620F711D811D12
:103CF000911D2CE330E040E050E00E94582F2C81D1
:103D0000620F711D811D911D2CE330E040E050E0F9
:103D10000E94582F9B01AC018D81280F311D411D40
:103D2000511DB901CA01DF91CF910895EF92FF9221
:103D30000F931F93162F042F23E0E22E27E0F22E7D
:103D4000C70168E670E00E94EB14C701612F0E9472
:103D50008514C701602F0E948514C7010E940015B9
:103D60001F910F91FF90EF9008951F93CF93DF93D2
:103D7000EC01162F6EE04DE10E94961E123041F0CC
:103D8000133079F0113009F5CE0167E040E803C047
:103D9000CE0167E040E00E94961ECE0168E040E858
:103DA00008C0CE0167E040E00E94961ECE0168E0A8
:103DB00040E00E94961ECE0169E040E80E94961EF7
:103DC000CE016AE040E80E94961EDF91CF911F91DC
:103DD0000895AF92BF92CF92DF92EF92FF920F932E
:103DE0001F93DF93CF93CDB7DEB727970FB6F89425
:103DF000DEBF0FBECDBF03E017E0C80168E670E08C
:103E00000E94EB14C80160E00E948514C8010E9462
:103E10000015C80168E670E048E050E00E94DE143A
:103E2000C8010E943514B82EC8010E943514C82E4E
:103E3000C8010E9435149FE3D92ED822C8010E94E0
:103E40003514A82EC8010E943514E82EC8010E941E
:103E50003514F82EC8010E943514282F30E0B4E044
:103E600035952795BA95E1F74AEF5FEFB901649F61
:103E70009001659F300D749F300D1124820F90E0EA
:103E80002B2D30E0A4E035952795AA95E1F7B901EF
:103E9000649F9001659F300D749F300D1124B20E08
:103EA0002C2D30E0F4E035952795FA95E1F7B9012E
:103EB000649F9001659F300D749F300D1124C20ED8
:103EC0002D2D30E0E4E035952795EA95E1F7B9012D
:103ED000649F9001659F300D749F300D1124D20EA8
:103EE0002E2D30E074E0359527957A95E1F7B901EC
:103EF000649F9001659F300D749F300D1124E20E78
:103F00002F2D30E064E0359527956A95E1F7B901EA
:103F1000649F9001659F300D749F300D1124F20E47
:103F2000282F3F2D4E2D5D2D6C2D7B2D8A2D279614
:103F30000FB6F894DEBF0FBECDBFCF91DF911F91BA
:103F40000F91FF90EF90DF90CF90BF90AF900895CA
:103F5000FF920F931F93F62E03E017E0C80168E667
:103F600070E00E94EB14C8016F2D0E948514C801F7
:103F70000E940015C80168E670E041E050E00E9430
:103F8000DE14C8010E9435141F910F91FF9008950F
:103F9000EF92FF920F931F93CF93DF938C0161E118
:103FA0000E94A81FE82EC80162E10E94A81FC82F26
:103FB000D0E0E7FE25C0E1946E2D70E0882777FD04
:103FC0008095982F0E94BB2C7B018C0136E0D59503
:103FD000C7953A95E1F7BE01882777FD8095982F20
:103FE0000E94BB2C20E030E040E85EE30E94472DB9
:103FF0009B01AC01C801B7010E94BC2B905822C0A4
:104000006E2D70E0882777FD8095982F0E94BB2C3D
:104010007B018C0126E0D595C7952A95E1F7BE0175
:10402000882777FD8095982F0E94BB2C20E030E0F8
:1040300040E85EE30E94472D9B01AC01C801B70137
:104040000E94BC2BDF91CF911F910F91FF90EF90B9
:104050000895CF93DF93EC016EE00E94A81F482FD4
:104060004062CE016EE00E94961ECE016EE00E947C
:10407000A81F85FDFACFDF91CF9108950F931F936D
:104080008C016FE00E94A81F482F4E7FC8016FE08F
:104090000E94961E1F910F9108950F931F938C01FC
:1040A0006EE04CE10E94961E6AE070E080E090E0D5
:1040B0000E941427C80162E00E94A81F482F4F7B6E
:1040C000C80162E00E94961E6AE070E080E090E025
:1040D0000E94142781E01F910F910895FC016083D5
:1040E0000895DF92EF92FF920F931F93FC01F62E3B
:1040F000D42EE52E03E017E0C80160810E94E11490
:10410000C8016F2D0E948514C8016E2D0E94851470
:10411000C8016D2D0E948514C8010E9400151F91D1
:104120000F91FF90EF90DF900895CF92DF92EF9282
:10413000FF920F931F938C01D62E83E0E82E87E029
:10414000F82EC701F80160810E94E114C7016D2DAE
:104150000E948514C7010E940015C701F801608103
:104160000E94E114C701F801608142E00E94DB1463
:10417000C7010E943514182F00E0C7010E943514B2
:104180006C01C7010E9400150C291D29C8011F914F
:104190000F91FF90EF90DF90CF90089560E00E9424
:1041A0009520089561E00E9495209C013595279502
:1041B00035952795C90108952F923F924F925F92AE
:1041C0006F927F928F929F92AF92BF92CF92DF9227
:1041D000EF92FF920F931F93DF93CF9300D000D005
:1041E000CDB7DEB78C010E94D220AA2797FDA095FB
:1041F000BA2FBC01CD010E94BB2C6B017C01C80110
:104200000E94CE20AA2797FDA095BA2FBC01CD0110
:104210000E94BB2C20E030E44CE153E40E94472D87
:1042200020E030E04AE754E40E94202C20E030E017
:104230004AE754E40E94202C1B012C01C701B6015F
:1042400020E030E040E05DE30E94472D23E333E9C6
:1042500048E853E40E94BC2B3B014C0123E333E1CB
:1042600045E953E40E94BB2B7B018C0122E430E63C
:1042700045EE5AE30E94472D20E030E040E85FE33E
:104280000E94BC2B5B016C01C801B70127EC32EC2A
:104290004CE857EB0E94472DA80197010E94472D3B
:1042A0009B01AC01C601B5010E94BC2B2DEC3CEC7E
:1042B0004CEC50E40E94472D20E836E948E15BE4ED
:1042C0000E94202C69837A838B839C83C201B10175
:1042D00020E030E04AE754E40E94202C1B012C012E
:1042E000C801B7012AE132E049E155EB0E94472DB0
:1042F00025E030EA46EF57E30E94BB2B5B016C01DF
:10430000C801B70129EE35E14FE951E30E94472D7D
:10431000A80197010E94472D9B01AC01C601B50180
:104320000E94BC2B9B01AC01C201B1010E94BB2BBE
:104330007B018C01C401B301A40193010E94472DAC
:10434000A40193010E94472DA40193010E94472DCF
:104350005B016C01C801B70126E636E646E551E48B
:104360000E94472DA80197010E94472D9B01AC0197
:10437000C801B7010E94BC2B7B018C0169817A8145
:104380008B819C8120E836E948E15BE40E94202C87
:104390009B01AC01C801B7010E94202C9B01AC011C
:1043A000C601B5010E94BC2B0E94FA2D0E94FA2D75
:1043B00023E333E948E853E40E94BB2B0F900F90AE
:1043C0000F900F90CF91DF911F910F91FF90EF9081
:1043D000DF90CF90BF90AF909F908F907F906F9025
:1043E0005F904F903F902F900895EF92FF920F9320
:1043F0001F938C01E62E83E097E00E94C4144E2D9B
:1044000050E05167C80162E00E947120C8016EEF60
:104410000E9495207C01C8016FEF0E94952029E43D
:10442000E21624E5F20611F020E005C020E0873610
:10443000910509F421E0822F1F910F91FF90EF90D9
:104440000895FC018FEA92E0918380836383148254
:104450001582178216821186108622873387448739
:1044600055870895FC01658308956F927F928F921E
:104470009F92AF92BF92CF92DF92EF92FF920F93F3
:104480001F93CF93DF93FC01EA01468157814115C9
:10449000510531F04130510531F488E890E905C00B
:1044A00084E293E102C088EE9DEF8617970708F437
:1044B000DEC08C179D0708F4DAC04115510551F094
:1044C0004130510571F417EEE12E1FE0F12E012D60
:1044D000112D0CC0B7E1EB2EB5E7FB2E012D112DF0
:1044E00005C0E12CA4E0FA2E012D112D80859185C7
:1044F000892B39F4E4E0EE0CFF1C001F111FEA9534
:10450000D1F79B0140E050E0C801B7010E94582F4D
:104510005B016C015AE0D694C794B794A7945A955E
:10452000D1F79E0140E050E0C801B7010E94582F2A
:104530003B014C014AE096948794779467944A959E
:10454000D1F7A114B104C104D10429F480E090E0B2
:10455000A0E0B0E00FC0C401B3013AE0660F771FDE
:10456000881F991F3A95D1F7A60195010E94882FBF
:10457000C901DA010196A11DB11DB695A7959795C0
:10458000879581349105A105B10528F462EF71E0AA
:10459000CEEBD1E049C081389105A105B10528F4E1
:1045A00064E172E0C1EDD2E03FC0813C9105A1051C
:1045B000B10528F46FE372E0CBE7D3E035C081307A
:1045C00021E0920720E0A20720E0B20728F460E78C
:1045D00072E0CEEFD3E028C0893321E0920720E0DB
:1045E000A20720E0B20728F46FE671E0CCEFD1E03B
:1045F0001BC08B3921E0920720E0A20720E0B20720
:1046000028F462ED70E0CBEFD0E00EC08B59924001
:10461000A040B04028F060E070E0C0E0D0E004C00E
:1046200068E170E0C2E1D0E080E090E0A601950191
:104630000E94582F7B018C0180E090E2A0E0B0E066
:10464000E80EF91E0A1F1B1FBE0180E090E0A401C6
:1046500093010E94582FE61AF70A080B190B8EE0F7
:1046600016950795F794E7948A95D1F703C0EE2441
:10467000FF248701B701C801DF91CF911F910F91EE
:10468000FF90EF90DF90CF90BF90AF909F908F9072
:104690007F906F900895EF92FF920F931F937C018C
:1046A0008B0188E2FB0111928A95E9F7CB016CE05E
:1046B00071E04BE050E00E94FD2FF801138681E08D
:1046C00090E0A0E0B0E084879587A687B787F701E0
:1046D00082859385A485B585F801808B918BA28B0B
:1046E000B38B85E090E0A0E0B0E0848B958BA68B47
:1046F000B78B14A215A216A217A280E090EDA4E831
:10470000B6E4808F918FA28FB38F80E090E0A0E01D
:10471000B0E0848F958FA68FB78F80E090E0A0E8FF
:10472000BFE380A391A3A2A3B3A31F910F91FF9016
:10473000EF900895BF92CF92DF92EF92FF920F9386
:104740001F93B62E79018A0123E0C22E27E0D22ED4
:10475000DC0113966C91772767FD7095C6010E9466
:10476000EB14C6016B2D0E9485148FEF90E0A0E042
:10477000B0E0E822F9220A231B23C6016E2D0E9415
:104780008514C6010E9400151F910F91FF90EF90B4
:10479000DF90CF90BF90089560E820E030E040E0E7
:1047A00050E00E949A23089560E823E030E040E062
:1047B00050E00E949A230895DF92EF92FF920F93A8
:1047C0001F937C01D62E03E017E0FC01638177275D
:1047D00067FD7095C8010E94EB14C8016D2D0E9401
:1047E0008514C8010E940015F7016381772767FDD2
:1047F0007095C80142E050E00E94DE14C8010E949A
:1048000035147C01C8010E943514382F20E02E2970
:104810003F29C9011F910F91FF90EF90DF900895FC
:10482000EF92FF920F931F93CF93DF93EC018B01D5
:104830007A010E94D4238E819F81009719F00197FD
:1048400059F405C06EE070E080E090E009C066E6D3
:1048500070E080E090E004C063E971E080E090E007
:104860000E941427CE016CEA0E94DC23F801918398
:104870008083CE016EEA0E94DC23F701918380835E
:10488000CE010E94CC23DF91CF911F910F91FF9019
:10489000EF900895DF92EF92FF920F931F937C01A8
:1048A000D62E03E017E0FC016381772767FD709542
:1048B000C8010E94EB14C8016D2D0E948514C80127
:1048C0000E940015F7016381772767FD7095C80185
:1048D00041E050E00E94DE14C8010E9435141F918F
:1048E0000F91FF90EF90DF900895CF93DF93EC014D
:1048F00083E097E00E94C414CE016AE00E944A243B
:104900008A7081F081E08C836E817F81CE010E946C
:10491000A92568857985CE010E949524CE010E9443
:10492000CC2381E0DF91CF9108950F931F93CF9314
:10493000DF93EC018B018C81882319F4CE010E9456
:104940007524CE010E94D4232E813F81202B312B50
:10495000442737FD4095542FCE0161E80E949A23E9
:1049600019870887CE010E94CC23DF91CF911F9138
:104970000F9108953F924F925F926F927F928F9224
:104980009F92AF92BF92CF92DF92EF92FF920F93DE
:104990001F93DF93CF9300D000D0CDB7DEB78C014B
:1049A0005B014A01FC018481882319F4C8010E943B
:1049B0007524F8018581882331F4C801B501A4016B
:1049C0000E9410245BC03324F3E04F2E512C4C0E78
:1049D0005D1E3E010894611C711CF801868197815F
:1049E000009751F0019781F4E0EACE2EECE8DE2E3C
:1049F00078ECE72EF12C10C062EFC62E62E1D62EC5
:104A000054E6E52EF12C08C048E1C42E46EFD42E22
:104A100034EFE32E31E0F32EC801B301A2010E946E
:104A2000102429813A81332009F52E153F0548F4D9
:104A3000F80180859185892B21F4C80160E170E03F
:104A40000BC0C216D30690F4F8018085918540977B
:104A500069F4C80160E070E00E949524C801B301C8
:104A6000A2010E94102433243394B7CFF50131837F
:104A700020838B819C81F401918380830F900F9020
:104A80000F900F90CF91DF911F910F91FF90EF90BA
:104A9000DF90CF90BF90AF909F908F907F906F905E
:104AA0005F904F903F900895EF92FF920F931F9366
:104AB000DF93CF9300D000D0CDB7DEB77C018B0160
:104AC00084E2FB0111928A95E9F784E290E0A0E08C
:104AD000B0E0FB0180839183A283B383F7018285D9
:104AE0009385A485B585FB0184839583A683B783CD
:104AF00085E090E0A0E0B0E080879187A287B3874F
:104B00000E94E526F801608B718B828B938BC70125
:104B1000BE016F5F7F4FAE014D5F5F4F0E94BA24B1
:104B200069817A814B815C81C7010E9435220E9494
:104B3000B92CF801648B758B868B978B0F900F9037
:104B40000F900F90CF91DF911F910F91FF90EF90F9
:104B500008950F931F93CF93DF93EC018B018C810A
:104B6000882319F4CE010E947524CE010E94D4231B
:104B700028853985202B312B442737FD4095542F2C
:104B8000CE0161E80E949A231F830E83CE010E940A
:104B9000CC23DF91CF911F910F910895FC0160818B
:104BA000718162537240882777FD8095982F0E940B
:104BB000BB2C28EE3FE948E85FE30E94472D0E94A6
:104BC0008D2CDC01CB01089583E00E94822784E1D3
:104BD0000E94852723E0853892071CF024E131E00C
:104BE0000FC022E0873292071CF028E131E008C0B4
:104BF0008F5591401CF021E231E002C026E231E005
:104C0000C90108950F931F938C0183E00E948227AE
:104C100085E10E948527F801918380831F910F9180
:104C200008958230E8F4E82FF0E0EE0FFF1FED5317
:104C3000F84F71836083813041F0809169008C7FEF
:104C4000842B80936900E89A089580916900440F4D
:104C5000551F440F551F837F842B80936900E99A69
:104C60000895823068F4813011F0E89801C0E99825
:104C7000E82FF0E0EE0FFF1FED53F84F1182108286
:104C800008951F920F920FB60F9211242F933F9306
:104C90004F935F936F937F938F939F93AF93BF9344
:104CA000EF93FF938091C3079091C407892B29F05C
:104CB000E091C307F091C4070995FF91EF91BF916F
:104CC000AF919F918F917F916F915F914F913F91A4
:104CD0002F910F900FBE0F901F9018951F920F925B
:104CE0000FB60F9211242F933F934F935F936F93BF
:104CF0007F938F939F93AF93BF93EF93FF93809195
:104D0000C5079091C607892B29F0E091C507F0915E
:104D1000C6070995FF91EF91BF91AF919F918F9138
:104D20007F916F915F914F913F912F910F900FBEA7
:104D30000F901F9018951F920F920FB60F9211248B
:104D40002F933F938F939F93AF93BF938091C80707
:104D50009091C907A091CA07B091CB073091C707BE
:104D600026E0230F2D3720F40296A11DB11D05C0AA
:104D700029E8230F0396A11DB11D2093C707809337
:104D8000C8079093C907A093CA07B093CB07809137
:104D9000CC079091CD07A091CE07B091CF07019697
:104DA000A11DB11D8093CC079093CD07A093CE0792
:104DB000B093CF07BF91AF919F918F913F912F916A
:104DC0000F900FBE0F901F9018952FB7F894609119
:104DD000C8077091C9078091CA079091CB072FBF70
:104DE00008953FB7F8948091CC079091CD07A0919A
:104DF000CE07B091CF0726B5A89B05C02F3F19F06D
:104E00000196A11DB11D3FBF6627782F892F9A2FCC
:104E1000620F711D811D911D43E0660F771F881F72
:104E2000991F4A95D1F70895CF92DF92EF92FF92A2
:104E3000CF93DF936B017C010E94F126EB01C1143B
:104E4000D104E104F10489F00E94BA2B0E94F126FA
:104E50006C1B7D0B683E734090F381E0C81AD1084B
:104E6000E108F108C851DC4FEACFDF91CF91FF9004
:104E7000EF90DF90CF9008958130910539F002973F
:104E800029F0880F991F01970197F1F708957894F9
:104E900084B5826084BD84B5816084BD85B582603F
:104EA00085BD85B5816085BDEEE6F0E080818160DD
:104EB0008083E1E8F0E010828081826080838081DD
:104EC00081608083E0E8F0E0808181608083E1EBB5
:104ED000F0E0808184608083E0EBF0E0808181609D
:104EE0008083EAE7F0E08081846080838081826053
:104EF000808380818160808380818068808310923C
:104F0000C100089580933E0108958E3008F08E50C0
:104F1000877020913E0190E4299F90011124822BFB
:104F200080937C0080917A00806480937A008091E5
:104F30007A0086FDFCCF809178002091790090E086
:104F4000922B0895833081F028F4813099F08230DB
:104F5000A1F008958730A9F08830B9F08430D1F4F9
:104F6000809180008F7D03C0809180008F77809337
:104F70008000089584B58F7702C084B58F7D84BD8D
:104F800008958091B0008F7703C08091B0008F7D2D
:104F90008093B0000895CF93DF9390E0FC01E65F2B
:104FA000FD4F2491FC01E25EFD4F8491882349F17D
:104FB00090E0880F991FFC01EA5BFD4FA591B49129
:104FC000845C9D4FFC01C591D4919FB7611108C0CD
:104FD000F8948C91209582238C93888182230AC037
:104FE000623051F4F8948C91322F309583238C9356
:104FF0008881822B888304C0F8948C91822B8C93B7
:105000009FBFDF91CF9108950F931F93CF93DF93AD
:105010001F92CDB7DEB7282F30E0F901EA50FE4FDE
:105020008491F901E65FFD4F1491F901E25EFD4FB5
:1050300004910023C9F0882321F069830E94A227EC
:105040006981E02FF0E0EE0FFF1FE45CFD4FA591BA
:10505000B4919FB7F8948C91611103C0109581238E
:1050600001C0812B8C939FBF0F90DF91CF911F9137
:105070000F910895CF93DF93282F30E0F901EA5084
:10508000FE4F8491F901E65FFD4FD491F901E25E94
:10509000FD4FC491CC2391F081110E94A227EC2FE7
:1050A000F0E0EE0FFF1FEE5CFD4FA591B4912C9147
:1050B0002D2381E090E021F480E002C080E090E0C8
:1050C000DF91CF910895FC01818D228D90E0805C6D
:1050D0009F4F821B910960E470E00E94742F089535
:1050E000FC01918D828D981731F0828DE80FF11DB2
:1050F000858D90E008958FEF9FEF0895FC01918DCD
:10510000828D981761F0828DDF01A80FB11D5D9629
:105110008C91928D9F5F9F73928F90E008958FEF97
:105120009FEF08958CEF99E2892B49F080E090E0A1
:10513000892B29F00E94FC2981110C94000008950C
:10514000FC01848DDF01A80FB11DA35ABF4F2C9124
:10515000848D90E001968F739927848FA689B789F3
:105160002C93A089B1898C9180648C93938D848DCC
:10517000981306C00288F389E02D80818F7D80839B
:105180000895CF93DF93EC01888D8823C9F0EA89D5
:10519000FB89808185FD05C0A889B9898C9186FD30
:1051A0000FC00FB607FCF5CF808185FFF2CFA8892D
:1051B000B9898C9185FFEDCFCE010E94A028E7CF61
:1051C000DF91CF910895CF92DF92FF920F931F93BB
:1051D000CF93DF931F92CDB7DEB76C01DC015B96F6
:1051E0009C915B975C968C915C97981307C0509646
:1051F000ED91FC915197808185FD32C0F601038DC0
:1052000010E00F5F1F4F0F731127F02EF601848DF2
:10521000F81211C00FB607FCF9CFD6015096ED91E8
:10522000FC915197808185FFF1CFC60169830E946F
:10523000A0286981EBCF838DE80FF11DE35AFF4F62
:105240006083D6015B960C935B975296ED91FC912F
:10525000539780818062808381E058968C930DC043
:10526000D6015696ED91FC91579760835096ED913B
:10527000FC91519780818064808381E090E00F9061
:10528000DF91CF911F910F91FF90DF90CF90089504
:10529000BF92CF92DF92EF92FF92CF93DF93EC0118
:1052A0006A017B01B22E60E874E88EE190E0A7010C
:1052B00096010E94882F21503109410951095695C4
:1052C000479537952795E889F98982E080832115EC
:1052D00080E1380798F0E889F989108260E472E487
:1052E0008FE090E0A70196010E94882F215031099C
:1052F000410951095695479537952795EC85FD85C8
:105300003083EE85FF852083188EEC89FD89B0827D
:10531000EA89FB89808180618083EA89FB898081B9
:1053200088608083EA89FB89808180688083EA893C
:10533000FB8980818F7D8083DF91CF91FF90EF90FB
:10534000DF90CF90BF9008951F920F920FB60F92EB
:1053500011242F938F939F93EF93FF93E091E00796
:10536000F091E1078081E091E607F091E70782FD87
:1053700012C090818091E9078F5F8F732091EA07B7
:10538000821751F0E091E907F0E0E053F84F958F74
:105390008093E90701C08081FF91EF919F918F91E8
:1053A0002F910F900FBE0F901F9018951F920F9284
:1053B0000FB60F9211242F933F934F935F936F93E8
:1053C0007F938F939F93AF93BF93EF93FF9380ED62
:1053D00097E00E94A028FF91EF91BF91AF919F911C
:1053E0008F917F916F915F914F913F912F910F908E
:1053F0000FBE0F901F90189580ED97E00E946328D4
:1054000021E0892B09F420E0822F08951092D30720
:105410001092D20788EE93E0A0E0B0E08093D4072A
:105420009093D507A093D607B093D70789EB92E066
:105430009093D1078093D00785EC90E09093DD079F
:105440008093DC0784EC90E09093DF078093DE0785
:1054500080EC90E09093E1078093E00781EC90E08E
:105460009093E3078093E20782EC90E09093E50746
:105470008093E40786EC90E09093E7078093E6073B
:105480001092E9071092EA071092EB071092EC07CE
:10549000089508950E9447270E94492A0E944505C1
:1054A000C2E9D8E20E9432062097E1F30E949228D6
:1054B000F9CFCF92DF92EF92FF920F931F93CF938A
:1054C000DF936C017A01EB01E60EF71E00E010E0BD
:1054D000CE15DF0561F06991D601ED91FC91019047
:1054E000F081E02DC6010995080F191FF1CFC80101
:1054F000DF91CF911F910F91FF90EF90DF90CF90B0
:1055000008956115710581F0DB010D900020E9F728
:10551000AD0141505109461B570BDC01ED91FC9147
:105520000280F381E02D099480E090E008950C94CE
:10553000812ADC01ED91FC910190F081E02D09942C
:105540000F931F93CF93DF93EC016DE00E94992A94
:105550008C016AE0CE010E94992A800F911FDF9191
:10556000CF911F910F9108950F931F93CF93DF93C6
:10557000EC010E94812A8C01CE010E94A02A800F9A
:10558000911FDF91CF911F910F9108958F929F925C
:10559000AF92BF92CF92DF92EF92FF920F931F9341
:1055A000CF93DF93CDB7DEB7A1970FB6F894DEBFE8
:1055B0000FBECDBF7C01C42EE52FCB01D22E19A288
:1055C00021E02D1510F02AE0D22E8E010F5D1F4F25
:1055D0008D2C912CA12CB12C6C2D7E2FA50194012A
:1055E0000E94882F8C2DD29E801911240150110900
:1055F0008A3014F4805D01C0895CF8018083211534
:1056000031054105510521F0C22EE32FCA01E4CF37
:10561000B801C7010E94812AA1960FB6F894DEBF97
:105620000FBECDBFDF91CF911F910F91FF90EF90F3
:10563000DF90CF90BF90AF909F908F900895CF92C2
:10564000DF92EF92FF920F931F93CF93DF93EC01C2
:105650006A017B012115310579F4E881F981019016
:10566000F081E02D642FDF91CF911F910F91FF907A
:10567000EF90DF90CF9009942A303105E9F477FF5D
:105680001AC06DE20E94992A8C0144275527BA015D
:105690004C195D096E097F092AE0CE010E94C62AD5
:1056A000800F911FDF91CF911F910F91FF90EF908D
:1056B000DF90CF9008952AE0B701A601CE01DF91D7
:1056C000CF911F910F91FF90EF90DF90CF900C94AE
:1056D000C62A9A01AB01662757FD6095762F0C9478
:1056E0001F2B0F931F93CF93DF93EC019A01AB0114
:1056F000662757FD6095762F0E941F2B8C01CE01E7
:105700000E94A02A800F911FDF91CF911F910F91CE
:1057100008952115310541F4DC01ED91FC910190D2
:10572000F081E02D642F09940C94C62A9A01462F2B
:1057300050E060E070E00C94892B0F931F93CF939F
:10574000DF93EC019A01462F50E060E070E00E9488
:10575000892B8C01CE010E94A02A800F911FDF911E
:10576000CF911F910F9108959A01AB0160E070E015
:105770000C94892B08955058BB27AA270ED04DC1F1
:105780003ED130F043D120F031F49F3F11F41EF4AC
:1057900033C10EF4E095E7FB29C1E92F4FD180F327
:1057A000BA17620773078407950718F071F49EF51E
:1057B00067C10EF4E0950B2EBA2FA02D0B01B90195
:1057C00090010C01CA01A0011124FF27591B99F077
:1057D000593F50F4503E68F11A16F040A22F232F83
:1057E000342F4427585FF3CF469537952795A795D3
:1057F000F0405395C9F77EF41F16BA0B620B730B7A
:10580000840BBAF09150A1F0FF0FBB1F661F771FEA
:10581000881FC2F70EC0BA0F621F731F841F48F49F
:10582000879577956795B795F7959E3F08F0B3CF25
:105830009395880F08F09927EE0F9795879508950F
:105840000CD0EBC0E3D040F0DAD030F021F45F3F71
:1058500019F0CCC0511115C1CFC0F0D098F39923E5
:10586000C9F35523B1F3951B550BBB27AA27621724
:105870007307840738F09F5F5F4F220F331F441F69
:10588000AA1FA9F333D00E2E3AF0E0E830D09150A1
:105890005040E695001CCAF729D0FE2F27D0660F8E
:1058A000771F881FBB1F261737074807AB07B0E8CD
:1058B00009F0BB0B802DBF01FF2793585F4F2AF0E3
:1058C0009E3F510568F092C0DCC05F3FECF3983E0C
:1058D000DCF3869577956795B795F7959F5FC9F740
:1058E000880F911D9695879597F90895E1E0660FC9
:1058F000771F881FBB1F621773078407BA0720F042
:10590000621B730B840BBA0BEE1F88F7E0950895AA
:1059100004D06894B111B5C0089598D088F09F570D
:1059200090F0B92F9927B751A0F0D1F0660F771FEB
:10593000881F991F1AF0BA95C9F712C0B13081F0CB
:105940009FD0B1E008959CC0672F782F8827B85F5B
:1059500039F0B93FCCF3869577956795B395D9F72C
:105960003EF490958095709561957F4F8F4F9F4F36
:105970000895E89409C097FB3EF490958095709542
:1059800061957F4F8F4F9F4F9923A9F0F92F96E98B
:10599000BB279395F695879577956795B795F11100
:1059A000F8CFFAF4BB0F11F460FF1BC06F5F7F4F9D
:1059B0008F4F9F4F16C0882311F096E911C07723AF
:1059C00021F09EE8872F762F05C0662371F096E8B8
:1059D000862F70E060E02AF09A95660F771F881F87
:1059E000DAF7880F9695879597F9089597F99F6745
:1059F00080E870E060E008959FEF80EC0895002457
:105A00000A941616170618060906089500240A9423
:105A100012161306140605060895092E0394000CA9
:105A200011F4882352F0BB0F40F4BF2B11F460FF38
:105A300004C06F5F7F4F8F4F9F4F089557FD905861
:105A4000440F551F59F05F3F71F04795880F97FB42
:105A5000991F61F09F3F79F08795089512161306FC
:105A60001406551FF2CF4695F1DF08C0161617062B
:105A70001806991FF1CF8695710561050894089560
:105A8000E894BB2766277727CB0197F908950BD0B9
:105A9000C4CFB5DF28F0BADF18F0952309F0A6CF00
:105AA000ABCF1124EECFCADFA0F3959FD1F3950FB2
:105AB00050E0551F629FF001729FBB27F00DB11D92
:105AC000639FAA27F00DB11DAA1F649F6627B00D22
:105AD000A11D661F829F2227B00DA11D621F739F0B
