:100000000C942E010C94A2260C94CF260C9456012D
:100010000C9456010C9456010C9456010C94560104
:100020000C9456010C9456010C9456010C945601F4
:100030000C9456010C9456010C9456010C945601E4
:100040000C94FC260C9456010C944E2A0C94D12A44
:100050000C9456010C9456010C9456010C945601C4
:100060000C94BE150C94560107634236B79BD8A773
:100070001A39685618AEBAAB558C1D3CB7CC5763CD
:10008000BD6DEDFD753EF6177231BF000000803F7B
:1000900008000000BE922449123EABAAAA2ABECD97
:1000A000CCCC4C3E00000080BEABAAAAAA3E000009
:1000B0000000BF000000803F000000000008417801
:1000C000D3BB4387D1133D190E3CC3BD4282AD2B38
:1000D0003E68EC8276BED98FE1A93E4C80EFFFBE30
:1000E00001C4FF7F3F0000000000005EBCE2613FF2
:1000F000DD83C29C7E20A3FD1F419DC3217FFCA206
:10010000401E5F01E3BD3E6082DC237D9FC1421C37
:10011000FEA0E1BF5D0380DE3C62BEE0025CDF81E9
:10012000633D7C22C09E1D43A1FF4618FAA4277997
:100130009BC584DA3866E5BB5907DB856739BAE4C5
:1001400006581947A5FB7826C49A653BD987045AF7
:10015000B8E6A7F91B45C6987A24F8A6441A99C7A9
:10016000257B3A6486D85B05E7B98CD2306EEDB357
:10017000510F4E10F2AC2F7193CD114FADF3702E85
:10018000CC92D38D6F31B2EC0E50AFF1134DCE90B7
:10019000722C6D33D18F0C52B0EE326C8ED0530D69
:1001A000EFB1F0AE4C1291CF2D73CA947628ABF517
:1001B00017490856B4EA6937D58B5709EBB5366845
:1001C0008AD495CB2977F4AA4816E9B7550B88D677
:1001D000346A2B7597C94A14F6A8742AC896154B29
:1001E000A9F7B6E80A54D7896B351F1C1F1E1F1EBE
:1001F0001F1F1E1F1E1F00000000240027002A00D2
:1002000000000000250028002B0000000000230053
:100210002600290004040404040404040202020267
:1002200002020303030303030102040810204080B9
:100230000102040810200102040810200000000739
:10024000000201000003040600000000000000009E
:10025000C8015409FD135614842AC10111241FBE7C
:10026000CFEFD8E0DEBFCDBF12E0A0E0B1E0EEE915
:10027000F1E602C005900D92AA35B107D9F718E052
:10028000AAE5B2E001C01D92A130B107E1F712E08A
:10029000CAE5D2E004C02297FE010E94BE30C035FC
:1002A000D107C9F70E94F72A0C94C2300C940000C1
:1002B000FB01DC014150504048F001900D920020BC
:1002C000C9F701C01D9241505040E0F708950895CC
:1002D0000F931F938130910509F047C06F5F7F4FE7
:1002E00009F04CC08AE592E069E00E94571988E65F
:1002F00092E06AE572E00E948D198BE792E064E477
:100300000E94C9208CE792E063E046E123E00E946E
:100310006A1D8AE892E069E32FEF3FEF4FEF5FEF4E
:100320000E947C2282E693E00E9480088DE793E0A1
:100330000E94B2128BEF93E040E050E060E070E08A
:1003400000E010E020E030E00E94D81283E094E06A
:100350006BEF73E046EF52E020915A030E94E612E1
:1003600086E194E00E94B11209C0892B39F46F5FD5
:100370007F4F21F482E693E00E9493081F910F9132
:10038000089580E090E06FEF7FEF0E94680108958C
:1003900081E090E06FEF7FEF0E946801089584E0B4
:1003A00060E00E946F28089585E060E00E946F2859
:1003B000089584E697E060E071E00E94952C08952E
:1003C00084E697E06BE071E00E94952C089585E04B
:1003D00061E00E946F2868EE73E080E090E00E9488
:1003E000A32708950F931F935A9A529883B7817F3A
:1003F000846083BF0CE513E0C8010E94992080E06F
:1004000067E671E040E050E00E946C26C80162E0BF
:100410000E94101F83B7816083BF83B7816083BF51
:10042000889583B78E7F83BF1F910F9108950E9497
:10043000D4010E94CF010E94F201089580E00E9441
:100440008F2683B78E7F83BF089580E161E00E948D
:10045000302880E161E00E946F288DED96E00E94D7
:10046000FA1408950E941E020E94E7010E942502CC
:1004700008950F931F9300E613E0C8010E945D26C4
:10048000C8010E94292680933004109231041F91E4
:100490000F9108956F927F928F929F92AF92BF9229
:1004A000CF92DF92EF92FF920F931F93CF93DF9340
:1004B000EC010E945027662477244301AA24BB2420
:1004C00065017E010027F7FC0095102FE60EF71E50
:1004D000081F191F0E9450276E157F05800791077E
:1004E000A0F41C161D068CF480E00E940E28AA279A
:1004F00097FDA095BA2F680E791E8A1E9B1E089440
:10050000A11CB11CC11CD11CE5CFC401B301A601C3
:1005100095010E94A130C901DF91CF911F910F91E8
:10052000FF90EF90DF90CF90BF90AF909F908F9013
:100530007F906F90089584E690E00E944A02909325
:100540002D0480932C040895DF93CF93CDB7DEB7AD
:10055000A4970FB6F894DEBF0FBECDBF8AE892E035
:10056000BE016F5F7F4F0E94AF256D897E898F89A5
:10057000988D0E94762D70932B0460932A04A49684
:100580000FB6F894DEBF0FBECDBFCF91DF910895B7
:100590008AE892E00E94D02408958CE792E00E94BD
:1005A000711D08950F931F9308E612E0C8010E9481
:1005B000011DC8016CE00E94BE1C8BE792E060E068
:1005C0000E9450221F910F9108950E94D2020E9412
:1005D000CD020E94C8020895DF92EF92FF920F931E
:1005E0001F93DF93CF93CDB7DEB72E970FB6F89456
:1005F000DEBF0FBECDBF0E94441F288739874A87C0
:100600005B876C877D878E87DE011196FE013896A9
:1006100087E001900D928150E1F7DE80ED80FC8053
:100620000B811A81698170E06053784F84E697E00E
:100630004AE050E00E94DF2B84E697E064E371E03B
:100640000E94922C1A3040F484E697E060E070E05B
:100650004AE050E00E94602C84E697E0612F4AE077
:1006600050E00E94F02B84E697E064E371E00E9482
:10067000922C0A3040F484E697E060E070E04AE0B3
:1006800050E00E94602C84E697E0602F4AE050E042
:100690000E94F02B84E697E066E371E00E94922CC2
:1006A00089E08F1540F084E697E060E070E04AE072
:1006B00050E00E94602C84E697E06F2D4AE050E005
:1006C0000E94F02B84E697E068E371E00E94922C90
:1006D00089E08E1540F084E697E060E070E04AE043
:1006E00050E00E94602C84E697E06E2D4AE050E0D6
:1006F0000E94F02B84E697E068E371E00E94922C60
:1007000089E08D1540F084E697E060E070E04AE013
:1007100050E00E94602C84E697E06D2D4AE050E0A6
:100720000E94022C2E960FB6F894DEBF0FBECDBFEE
:10073000CF91DF911F910F91FF90EF90DF9008957F
:1007400084E697E06AE371E00E94922C0E94EC023A
:100750000895EF92FF920F931F9394E6E92E97E08E
:10076000F92EC70163E471E00E94922C00E613E0C9
:10077000C8010E945D26C8010E942926682FC70172
:100780004AE050E00E94F02BC7016BE571E00E9447
:10079000922CC8010E943F26BC01C7010E94952CE3
:1007A000C7010E94DC291F910F91FF90EF900895DF
:1007B000EF92FF920F931F93DF93CF93CDB7DEB7E6
:1007C0002E970FB6F894DEBF0FBECDBF0E94170262
:1007D0000E941E027E010894E11CF11C8E01085F3C
:1007E0001F4F06C00E94A9030E9417020E941E020A
:1007F0000E94441F288739874A875B876C877D87DB
:100800008E87D701F80187E001900D928150E1F7C2
:100810008D816AE00E947330992321F72E960FB6DE
:10082000F894DEBF0FBECDBFCF91DF911F910F9126
:10083000FF90EF9008950F931F9304E617E0C8010F
:1008400060E671E00E94922C609120047091210476
:10085000C8014AE050E00E94732CC8016BE671E0C9
:100860000E94922C6091220470912304C8014AE0F6
:1008700050E00E94732CC80167E771E00E94922C3F
:100880006091240470912504C8014AE050E00E9460
:10089000732CC80166E871E00E94922C60912804D4
:1008A00070912904C8014AE050E00E94732CC801ED
:1008B00061E971E00E94922C60912A0470912B04EE
:1008C000C8014AE050E00E94732CC8016FE971E052
:1008D0000E94922C60912C0470912D04C8014AE072
:1008E00050E00E94732CC8016DEA71E00E94922CC6
:1008F00060912E0470912F04C8014AE050E00E94DC
:10090000732C1F910F9108950F931F9304E617E026
:10091000C80167EB71E00E94922CC8016EE070E0A4
:100920004AE050E00E94732C1F910F910895DF93CD
:10093000CF93CDB7DEB763970FB6F894DEBF0FBE87
:10094000CDBFCE0101966BEF73E046EF52E02091F0
:100950005A030E94E6128B81809305048C81809358
:1009600006048D819E8190930804809307048F81F3
:1009700080930904AAE0B4E0FE01389688E0019073
:100980000D928150E1F7888999899093130480939F
:1009900012048A89809314048B89809315048DE74F
:1009A00093E063E074E00E948D1363960FB6F894B1
:1009B000DEBF0FBECDBFCF91DF91089585E061E02E
:1009C0000E9430280E94E7018DE793E064E677E01B
:1009D0000E94C4120895EF92FF920F931F937B0120
:1009E0008C01CA010197049728F061E070E080E073
:1009F00090E015C0BA01882777FD8095982F0E9456
:100A0000A92D9B01AC0160E070E080E291E40E94BE
:100A1000982E9B01AC01CA01B9010E94762D0E945B
:100A2000A92D9B01AC01C801B7010E94352E0E947F
:100A3000762DCB011F910F91FF90EF90089588E9DB
:100A400092E068EE73E00E94AD0742E050E00E9441
:100A5000EB0490932F0480932E0408958CE792E08A
:100A60000E943D1E42E050E00E94EB049093290456
:100A70008093280408950F931F9308E612E0C8019D
:100A80000E94A11BC8016BEF71E00E94D21B42E0E3
:100A900050E00E94EB049093210480932004C8014D
:100AA00063E072E00E94D21B42E050E00E94EB043F
:100AB00090932304809322048BE792E00E943721D5
:100AC00042E050E00E94EB049093250480932404BC
:100AD0000CE513E0C8010E948420C8010E94232075
:100AE00042E050E00E94EB04909327048093260498
:100AF0001F910F9108950E942E050E943B050E94B0
:100B0000A4020E949B020E941F050E9439020895C0
:100B1000DF93CF93CDB7DEB72E970FB6F894DEBF35
:100B20000FBECDBF0E94441F288739874A875B8745
:100B30006C877D878E87DE011196FE01389687E0EF
:100B400001900D928150E1F7CE0101960E94941E12
:100B5000AB01BC0120915A03243660F4E22FF0E08F
:100B6000EA50FD4F872F9927AA27BB2780832F5F45
:100B700020935A0320915A03243668F4E22FF0E0C0
:100B8000EA50FD4FCB01BB2797FDB095AB2F80837B
:100B90002F5F20935A0320915A03243670F4E22FDA
:100BA000F0E0EA50FD4FBB2777FDBA95A72F962FAF
:100BB000852F80832F5F20935A0380915A038436B8
:100BC00040F4E82FF0E0EA50FD4F40838F5F8093C0
:100BD0005A032E960FB6F894DEBF0FBECDBFCF914D
:100BE000DF91089590915A03943648F4E92FF0E08C
:100BF000EA50FD4F8EE080839F5F90935A030E94DE
:100C00008805409120045091210420915A032436F4
:100C100060F4E22FF0E0EA50FD4F852F992787FD21
:100C20009A9580832F5F20935A0380915A038436CC
:100C300040F4E82FF0E0EA50FD4F40838F5F80934F
:100C40005A03409122045091230420915A032436E0
:100C500060F4E22FF0E0EA50FD4F852F992787FDE1
:100C60009A9580832F5F20935A0380915A0384368C
:100C700040F4E82FF0E0EA50FD4F40838F5F80930F
:100C80005A03409124045091250420915A0324369C
:100C900060F4E22FF0E0EA50FD4F852F992787FDA1
:100CA0009A9580832F5F20935A0380915A0384364C
:100CB00040F4E82FF0E0EA50FD4F40838F5F8093CF
:100CC0005A03409126045091270420915A03243658
:100CD00060F4E22FF0E0EA50FD4F852F992787FD61
:100CE0009A9580832F5F20935A0380915A0384360C
:100CF00040F4E82FF0E0EA50FD4F40838F5F80938F
:100D00005A03409128045091290420915A03243613
:100D100060F4E22FF0E0EA50FD4F852F992787FD20
:100D20009A9580832F5F20935A0380915A038436CB
:100D300040F4E82FF0E0EA50FD4F40838F5F80934E
:100D40005A0340912A0450912B0420915A032436CF
:100D500060F4E22FF0E0EA50FD4F852F992787FDE0
:100D60009A9580832F5F20935A0380915A0384368B
:100D700040F4E82FF0E0EA50FD4F40838F5F80930E
:100D80005A0340912C0450912D0420915A0324368B
:100D900060F4E22FF0E0EA50FD4F852F992787FDA0
:100DA0009A9580832F5F20935A0380915A0384364B
:100DB00040F4E82FF0E0EA50FD4F40838F5F8093CE
:100DC0005A0340912E0450912F0420915A03243647
:100DD00060F4E22FF0E0EA50FD4F852F992787FD60
:100DE0009A9580832F5F20935A0380915A0384360B
:100DF00040F4E82FF0E0EA50FD4F40838F5F80938E
:100E00005A039091300480915A03843640F4E82FBD
:100E1000F0E0EA50FD4F90838F5F80935A039091EA
:100E20005A03943648F4E92FF0E0EA50FD4F8AE087
:100E300080839F5F90935A0308950E94A003F894C3
:100E4000A89589E228E130E00FB6F894A8952093A0
:100E500060000FBE8093600078940E947B050E9422
:100E60001B04A89510925A0310925B030E94F2058E
:100E700060EF7AE080E090E00E94A3270E94970450
:100E80000E94E001F894A89588E10FB6F894809349
:100E90006000109260000FBE789460E177E280E01D
:100EA00090E00E94A3270E94D9010E94D8030E94CB
:100EB00032020895F894A89588E10FB6F8948093CB
:100EC0006000109260000FBE789484E697E040E0E6
:100ED00051EE60E070E026E00E9446298DED96E03C
:100EE0000E94FA140E94DE048CE593E00E94A82080
:100EF00010925A0310925B030E94E5020E94840440
:100F000008958EE480937C0062E070E080E090E0E1
:100F10000E94A32780917A00806480937A00809158
:100F20007A0086FDFCCF8091780090E0A0E0B0E0F0
:100F300060917900362F20E0442737FD4095542FEB
:100F4000282B392B4A2B5B2B60E070E381E190E08A
:100F50000E94A130CA01B90108952F923F924F9289
:100F60005F926F927F928F929F92AF92BF92CF9239
:100F7000DF92EF92FF920F931F93CF93DF93EC01D9
:100F80002B010E9481073B014C01CC24DD249CE411
:100F9000A92EB12CAC0EBD1E88E4282E312C2C0EAF
:100FA0003D1E53C08AA59BA599A788A78E890E943C
:100FB0000E289BA78AA7E8ACF9AC0AAD1BADECAA3A
:100FC000FDAA0EAB1FABAA2797FDA095BA2FBC01B7
:100FD000CD010E94A92D9B01AC01C801B7010E945F
:100FE000AA2C7B018C0168A579A5882777FD8095BF
:100FF000982F0E94A92D9B01AC01C801B7010E9446
:10100000A92C2BED39EF4EE75FE30E94352E9B01B3
:10101000AC0168AF79AF8AAF9BAF0E94352E9B01C0
:10102000AC01F1016083718382839383F501608158
:101030007181828193810E94AA2CF5016083718362
:10104000828393830894C11CD11CC414D5040CF46E
:10105000A9CFB201882777FD8095982F0E94A92DEE
:101060009B01AC01F50160817181828193810E94B5
:101070000E2D0E94E82E7B018C01B301882777FD9D
:101080008095982F0E94A92D20E030E04AE754E493
:101090000E940E2D20E030E040E85AE30E94352EF9
:1010A0002C8D3D8D4E8D5F8D0E94352EA8019701B0
:1010B0000E94352E688B798B8A8B9B8B80E090E029
:1010C000A0E0B0E0F50180839183A283B3832889F7
:1010D00039894A895B89B901CA01DF91CF911F9192
:1010E0000F91FF90EF90DF90CF90BF90AF909F90C7
:1010F0008F907F906F905F904F903F902F900895CA
:10110000FC011382128288EE93E0A0E0B0E08483B9
:101110009583A683B78384E192E091838083128EC6
:10112000118E14860895FC0184E192E091838083FE
:101130000895DF93CF930F92CDB7DEB7FC0169839B
:10114000A081B18112962D913C911397BE016F5FE2
:101150007F4F41E050E0F90109950F90CF91DF9169
:101160000895DC015996ED91FC915A97309719F446
:1011700020E030E018C0238934894589568982856A
:101180009385A485B585281B390B4A0B5B0B203052
:10119000B0E83B07B0E04B07B0E05B0720F02FEF73
:1011A0003FE740E050E0C9010895FC01818D928D38
:1011B000009711F00E94CE0C0895DF93CF930F9209
:1011C000CDB7DEB7FC01818D928D009749F0BE014D
:1011D0006F5F7F4F41E050E00E94180D019719F0BA
:1011E0002FEF3FEF03C08981282F30E0C9010F9016
:1011F000CF91DF910895EF92FF920F931F93DF93AA
:10120000CF930F92CDB7DEB77C01DC0159968D915B
:101210009C915A97009719F400E010E01FC0BE019E
:101220006F5F7F4F41E050E00E94180D019719F069
:101230000FEF1FEF13C08981082F10E0D7015996D7
:10124000ED91FC915A97428553856485758541508F
:10125000504060407040CF010E94080CC8010F90C0
:10126000CF91DF911F910F91FF90EF900895CF9351
:10127000DF93EC01E98DFA8D309761F013821282D1
:10128000CF010E94540E9C01E98DFA8D82819381D9
:10129000892B31F081E090E09B838A8320E030E06D
:1012A000C901DF91CF91089510923704109238044C
:1012B00010923B0410923D0482E090E0A0E0B0E088
:1012C00080933F0490934004A0934104B093420460
:1012D000109256041092600410925F0484E292E02F
:1012E00090935E0480935D04109262040895382FF9
:1012F00080917C048F3F31F43EBD0DB407FEFDCFDD
:101300008EB50895F894A0917D04B0917E0450911B
:101310007F04252F2095E0918004F0918104409175
:101320008204642F609590E08C9182238C9337FF28
:1013300003C08081842B02C08081862380838C91AE
:10134000852B8C939F5F983011F0330FEDCF000009
:101350000000000000008C9128232C9378940895BD
:1013600080917C048F3F31F48EBD0DB407FEFDCF1C
:101370002EB530C0F894E0918004F0918104808112
:1013800090918204892B8083E0917D04F0917E040A
:1013900060917F04A0918304B091840480918504BE
:1013A000482F50E0762F709520E030E08081862B2A
:1013B0008083220F8C9190E084239523892B09F060
:1013C0002160808187238083000000003F5F3830E8
:1013D00069F77894822F08950F931F93CF93DF932B
:1013E0008B010E945027EB010E94B0098F3F11F43E
:1013F00081E008C00E9450276C1B7D0B60177107AD
:1014000098F380E0DF91CF911F910F910895FC0137
:10141000848160E00E946F280895FC01848161E06E
:101420000E946F280895CF92DF92EF92FF920F9360
:101430001F93CF93DF937C016A01FC01848588238D
:1014400019F40FEF1FEF30C000E010E040E050E073
:10145000212F332727FD3A95F601E40FF51F8081F0
:1014600090E0282739273070C901F4E095958795D9
:10147000FA95E1F782279327102F002708271927CD
:101480009C01322F22273295307F0227132725E037
:10149000880F991F2A95E1F7082719274F5F5F4F9B
:1014A000F2E040305F07A1F6862F0E947709C0E086
:1014B000D0E0F601EC0FFD1F80810E947709219694
:1014C00082E0C030D807A9F7812F992787FD9A9528
:1014D0000E947709802F0E9477090E94B009F701C6
:1014E00082878F71853011F481E007C081E1F701B7
:1014F0008583C7010E940D0A80E0DF91CF911F9183
:101500000F91FF90EF90DF90CF9008950F931F936E
:10151000CF93DF93EC010E9450278B0109C00E94FA
:101520005027601B710B6D52714010F08FE00AC0A4
:101530000E94B0098A878F3F91F38E3F11F481E0BA
:1015400006C08DE08D83CE010E940D0A80E0DF9100
:10155000CF911F910F910895CF93DF93EC018E816E
:10156000882319F40FC00E94B0098F8198850196D5
:1015700098878F83019782509240A8F3CE010E94F2
:101580000D0A1E82DF91CF910895DF92EF92FF92B4
:101590000F931F93CF93DF93EC01D62E79018A012D
:1015A0000E94AC0ACE010E94070ACE016CE271E0F3
:1015B0000E94EC098D2D80640E947709812F992764
:1015C000AA27BB270E947709C801AA27BB270E9428
:1015D0007709BB27A12F902F8F2D0E9477098E2D81
:1015E0000E947709DD2011F485E906C088E0D8164D
:1015F00011F487E801C08FEF0E94770910E00E9484
:10160000B0098A8787FF02C01150C9F7DF91CF91D7
:101610001F910F91FF90EF90DF900895CF92DF928E
:10162000EF92FF920F931F93CF93DF93EC017A0118
:101630008B016901411551056105710511F482E1C4
:1016400033C08B85833039F039E0EE0CFF1C001F6E
:10165000111F3A95D1F7CE0168E1A80197010E94C8
:10166000C50A882311F084E01FC0CE016EEFA601E9
:101670000E94130A8823C9F0CE0168E572E00E9437
:10168000EC09882311F485E10FC0CE016DE020E064
:1016900030E040E050E00E94C50A882321F40E9417
:1016A000B009882379F084E18D83CE010E940D0A70
:1016B00080E0DF91CF911F910F91FF90EF90DF902D
:1016C000CF900895CE010E940D0A81E0F2CF6F9273
:1016D0007F928F929F92AF92BF92CF92DF92EF92C2
:1016E000FF920F931F93CF93DF93EC015A016B018D
:1016F000390148010115110509F46AC0C801820FBA
:10170000931F8150924008F05EC08E81882371F053
:1017100088819981AA81BB81481759076A077B078D
:1017200029F48F8198856816790650F5A882B982C8
:10173000CA82DB828B85833039F0E9E0AA0CBB1CBE
:10174000CC1CDD1CEA95D1F7CE0161E1A601950123
:101750000E94C50A882319F083E08D8334C0CE012E
:101760000E94860A882379F118861F8281E08E8381
:1017700007C00E94B0098F819885019698878F8352
:101780008F81988586159705A0F300E010E008C0CA
:101790000E94B009F701E00FF11F80830F5F1F4F18
:1017A00008151905A8F32F813885280D391D3887AC
:1017B0002F838985882319F02050324048F0CE01CC
:1017C0000E94AC0A05C0CE010E940D0A80E001C053
:1017D00081E0DF91CF911F910F91FF90EF90DF900B
:1017E000CF90BF90AF909F908F907F906F90089513
:1017F000EF92FF920F931F93790120E030E000E019
:1018000012E00E94670B1F910F91FF90EF900895D7
:101810006F927F928F929F92AF92BF92CF92DF9200
:10182000EF92FF920F931F93CF93DF93EC017A0116
:101830008B012D81222309F480C08B899C89AD897D
:10184000BE8984179507A607B70708F476C085C038
:10185000E114F1040105110549F41E821F82188666
:1018600019861A861B861C861D8665C02A853B85BF
:101870004C855D85EB8DFC8D858590E0099621502A
:1018800030404040504039014A01082E04C096942F
:101890008794779467940A94D2F72F5F3F4F4F4F06
:1018A0005F4F0894E108F108010911095701680127
:1018B00004C0D694C794B794A7948A95D2F7089495
:1018C000E11CF11C011D111DA614B704C804D904A4
:1018D00028F0211531054105510549F48F89988D6E
:1018E000A98DBA8D8E839F83A887B98716C0A61845
:1018F000B708C808D90811C04E815F81688579850D
:101900008B8D9C8D94010E942F110894A108B10821
:10191000C108D108882331F410C086E0882E912CAC
:101920008C0E9D1EA114B104C104D10429F7EA86CE
:10193000FB860C871D8781E001C080E0DF91CF919D
:101940001F910F91FF90EF90DF90CF90BF90AF90DD
:101950009F908F907F906F900895223009F078CFFC
:10196000E6CFCF93DF93EC01462F6E857F85888984
:1019700099890E945810882319F420E030E00AC0A9
:101980008A89282F30E095E0220F331F9A95E1F7DE
:1019900028573B4FC901DF91CF9108950F931F93B3
:1019A000CF93DF938C01FC0185818823D9F1848159
:1019B00087FF35C0C80161E00E94B10CEC010097BF
:1019C00089F1F8018581823040F483899489A58961
:1019D000B6898C8F9D8FAE8FBF8FF8018789908DD0
:1019E0009B8F8A8F8789908DA18DB28DCD01AA277B
:1019F000BB279D8B8C8BE0918604F09187043097F8
:101A000051F0BE016A5E7F4FCE0148960995888DE0
:101A1000998D9B8B8A8BF80184818F7784830E94B8
:101A20001D1001C080E0DF91CF911F910F910895AB
:101A30002F923F924F925F926F927F928F929F92DE
:101A4000AF92BF92CF92DF92EF92FF920F931F93CC
:101A5000CF93DF93EC012A018D81882309F4C6C05E
:101A60008C8180FFC3C0D8C025014E185F084B0190
:101A700076E0272E312C2C0E3D1E3201B1C02A8576
:101A80003B854C855D856FEFA62E61E0B62EA222C8
:101A9000B3228D8179018A0199E016950795F79413
:101AA000E7949A95D1F7EB8DFC8D823049F4428D05
:101AB000538D648D758D4E0D5F1D601F711F3FC06E
:101AC000D480DA94DE20A114B104D9F4DD20C9F465
:101AD000211531054105510549F48F89988DA98D4E
:101AE000BA8D8E839F83A887B9870BC04E815F8193
:101AF00068857985CF0191010E942F11882309F40F
:101B000075C0EB8DFC8D4E815F8168857985425073
:101B1000504060407040058404C0440F551F661F4C
:101B2000771F0A94D2F786859785A089B189480FD7
:101B3000591F6A1F7B1F4D0D511D611D711D80E0D6
:101B400092E08A199B0963018615970508F46C01D8
:101B50008C8186FD06C080E0C81682E0D80609F0B8
:101B600073C080910B0290910C02A0910D02B09174
:101B70000E02481759076A077B0709F465C0809170
:101B80008806909189069501860174010E94670B71
:101B9000882361F18C0C9D1C12C0950128573B4F86
:101BA000A9014C0D5D1DD401F90102C081918D93F5
:101BB000E417F507D9F7E21BF30B8E0E9F1E960173
:101BC00040E050E08A859B85AC85BD85820F931FE0
:101BD000A41FB51F8A879B87AC87BD876C187D08BB
:101BE0006114710409F04BCFA20102C04FEF5FEF07
:101BF000CA01DF91CF911F910F91FF90EF90DF907D
:101C0000CF90BF90AF909F908F907F906F905F909C
:101C10004F903F902F900895AB88BC88CD88DE8888
:101C2000EA84FB840C851D859A0140E050E0D601D2
:101C3000C5018E199F09A00BB10B82179307A4074A
:101C4000B50708F411CF13CFCB01BA0140E00E94D1
:101C50005810882309F0A1CFC9CFCF93DF93EC01AF
:101C60009C012A5F3F4F8B8D9C8D41E050E060E0EE
:101C700070E00E94A2118823A1F08F89988DA98D10
:101C8000BA8D0097A105B10559F48E819F81A88571
:101C9000B9858F8B988FA98FBA8F8C8180688C8340
:101CA00081E0DF91CF9108952F923F924F925F9202
:101CB0007F928F929F92AF92BF92CF92DF92EF92DC
:101CC000FF920F931F93DF93CF9300D000D000D0EB
:101CD000CDB7DEB76C01162F072F5E834D83DC0175
:101CE00015968C911597813009F070C114968C91DE
:101CF00081FF6CC18EC1F60143895489658976895B
:101D000082859385A485B58584179507A607B707AF
:101D100031F0C6010E94080C882309F457C1812FB5
:101D2000902F9C0129012D803E8017C1D6015B9622
:101D3000ED91FC915C97DA01C90119E0B695A79580
:101D4000979587951A95D1F774807A9478227FEFCA
:101D5000872E71E0972E82229322772009F04EC0C1
:101D60008114910409F04AC0D60116964D915D91F7
:101D70006D917C911997411551056105710581F4AB
:101D800057968D919D910D90BC91A02D0097A10526
:101D9000B10549F1F60186839783A087B1872EC0EC
:101DA000CF019E012F5F3F4F0E942F11882309F41E
:101DB00014C129813A814B815C81D6015B96ED91FA
:101DC000FC915C978789803129F088EF9FEFAFEF16
:101DD000BFE004C088EF9FEFA0E0B0E0281739070C
:101DE0004A075B0730F0C6010E942D0E882331F4AC
:101DF000EDC0F601268337834087518780E092E06B
:101E00008819990951018215930508F45C01D601DE
:101E10005B96ED91FC915C971696ED90FD900D917F
:101E20001C9119978EEF9FEFAFEFBFEFE80EF91EF1
:101E30000A1F1B1F058404C0EE0CFF1C001F111F8E
:101E40000A94D2F786859785A089B189E80EF91E94
:101E50000A1F1B1FE70CF11C011D111D90E0A916A4
:101E600092E0B90651F580910B0290910C02A0917D
:101E70000D02B0910E028E159F05A007B10761F407
:101E80008FEF9FEFAFEFBFEF80930B0290930C02A9
:101E9000A0930D02B0930E0280918806909189065E
:101EA000B801A70192010E940E0B882309F48EC08D
:101EB000A0E0B2E04A0E5B1E3EC08114910409F519
:101EC000F601228533854485558583899489A589C2
:101ED000B689281739074A075B0798F00E941D103A
:101EE000882309F473C0E0920B02F0920C02009375
:101EF0000D0210930E0280918A06816080938A06FB
:101F000008C0C801B70141E00E945810882309F4B5
:101F10005DC0940128573B4FA9014A0D5B1DD201BA
:101F2000F90102C08D918193E417F507D9F7E21BFF
:101F3000F30B4E0E5F1E2A183B08950140E050E05F
:101F4000F60182859385A485B585820F931FA41F12
:101F5000B51F82879387A487B587D6011A962D91DE
:101F60003D914D915C911D972114310409F0DECE15
:101F700053968D919D910D90BC91A02D8217930742
:101F8000A407B50748F4F601238B348B458B568B99
:101F900084818068848311C0809186049091870435
:101FA000892B59F08D819E81892B39F0D6011496A9
:101FB0008C911497806814968C93F601848183FF2A
:101FC0000EC0C6010E94CE0C882349F481E090E047
:101FD000D60113969C938E9312971E821D828D813B
:101FE0009E8126960FB6F894DEBF0FBECDBFCF916F
:101FF000DF911F910F91FF90EF90DF90CF90BF90F6
:10200000AF909F908F907F905F904F903F902F90D8
:10201000089582FD70CE83CEDF93CF930F92CDB71C
:10202000DEB76983BE016F5F7F4F41E050E00E94E1
:10203000540E0F90CF91DF91089580918A068823E6
:1020400099F140910B0250910C0260910D02709138
:102050000E02809188069091890628E834E00E945B
:102060000E0B882319F140918B0650918C066091DC
:102070008D0670918E06411551056105710591F02F
:10208000809188069091890628E834E00E940E0B22
:10209000882361F010928B0610928C0610928D06A8
:1020A00010928E0610928A0681E0089580E00895CD
:1020B000DF92EF92FF920F931F937B018C01D42E3E
:1020C00080910B0290910C02A0910D02B0910E0232
:1020D0008E159F05A007B107C1F00E941D1088232F
:1020E000D9F08091880690918906B801A70128E867
:1020F00034E00E94F80B882379F0E0920B02F09212
:102100000C0200930D0210930E0280918A068D2915
:1021100080938A0681E001C080E01F910F91FF90BB
:10212000EF90DF9008954F925F926F927F928F921F
:102130009F92AF92BF92CF92DF92EF92FF920F9356
:102140001F93CF93DF93EC016A017B0128013901D2
:10215000423051056105710508F46FC089859A8583
:10216000AB85BC850196A11DB11D84179507A607F7
:10217000B70708F462C02B893C894D895E898F8935
:10218000803129F499278F2D7E2D6D2D09C0C7012F
:10219000B60117E096958795779567951A95D1F7CB
:1021A0004B015C01820E931EA41EB51E80910B0292
:1021B00090910C02A0910D02B0910E028816990622
:1021C000AA06BB0639F0C501B40140E00E945810D0
:1021D000882399F18F89803149F4F601F070EE0F70
:1021E000FF1FE857FB4F518240820DC0F601EF7789
:1021F000F070EE0FFF1FEE0FFF1FE857FB4F4082FE
:1022000051826282738280918A06816080938A06FD
:102210008A89823080F08D819E81AF81B885880E59
:10222000991EAA1EBB1E80928B0690928C06A092CD
:102230008D06B0928E0681E001C080E0DF91CF91E3
:102240001F910F91FF90EF90DF90CF90BF90AF90D4
:102250009F908F907F906F905F904F900895CF9256
:10226000DF92EF92FF920F931F93CF93DF93EC01D6
:102270007A018B01690189859A85AB85BC850196B8
:10228000A11DB11D84179507A607B70708F450C014
:102290002B893C894D895E898F89803129F4992762
:1022A000812F702F6F2D09C0C801B701E7E0969507
:1022B000879577956795EA95D1F7260F371F481FC1
:1022C000591F80910B0290910C02A0910D02B091C8
:1022D0000E02281739074A075B0739F0CA01B9010E
:1022E00040E00E945810882319F18F89803159F4F9
:1022F000F701F070EE0FFF1FE857FB4F80819181CF
:10230000A0E0B0E00EC0F701EF77F070EE0FFF1F16
:10231000EE0FFF1FE857FB4F80819181A281B381AF
:10232000BF70F60180839183A283B38381E001C0F3
:1023300080E0DF91CF911F910F91FF90EF90DF90A0
:10234000CF9008952F923F924F925F926F927F921B
:102350008F929F92AF92BF92CF92DF92EF92FF92B5
:102360000F931F93DF93CF93CDB7DEB72F970FB6A1
:10237000F894DEBF0FBECDBF1C014A875B876C8718
:102380007D873F872E87D9010D911D912D913C911D
:10239000011511052105310549F04801590108943D
:1023A000811C911CA11CB11C198610C0FC018080ED
:1023B0009180A280B38019868A859B85AC85BD8576
:1023C0000197A105B10511F491E09987D101199602
:1023D0008D919D910D90BC91A02D0196A11DB11DD7
:1023E0008D839E83AF83B88775016401442455248F
:1023F00032018E010F5F1F4FF10181859285A38508
:10240000B485481659066A067B0608F090C08D818F
:102410009E81AF81B8858C159D05AE05BF0550F432
:1024200082E0882E912CA12CB12CB2E0CB2ED12CA5
:10243000E12CF12CC101B701A60198010E942F11D6
:10244000882309F474C089819A81AB81BC81A7017A
:1024500096012F5F3F4F4F4F5F4F0097A105B1058A
:1024600019F049015A010DC0281939094A095B09B7
:102470008A859B85AC85BD85281739074A075B0788
:1024800059F00894411C511C611C711C0894C11C1A
:10249000D11CE11CF11CB0CFC101A601B7010FEFA7
:1024A0001FEF2FEF3FE00E949310882399F43FC065
:1024B0002601370108944108510861087108C101DB
:1024C000B301A201970186010E949310882379F13C
:1024D000730162018C149D04AE04BF0448F3AE8501
:1024E000BF854D915D916D917C91411551056105BF
:1024F000710539F0C101950184010E949310882370
:10250000B1F0EE85FF8580829182A282B382F98547
:10251000FF2359F00894811C911CA11CB11CD1010E
:102520008D929D92AD92BC92139781E001C080E0A4
:102530002F960FB6F894DEBF0FBECDBFCF91DF91BF
:102540001F910F91FF90EF90DF90CF90BF90AF90D1
:102550009F908F907F906F905F904F903F902F90C3
:1025600008950895FC011286118614861586178237
:10257000108615820E9691838083E458FF4F84E67F
:1025800097E0918380830895FC01E458FF4F7183A5
:1025900060830895FC01E458FF4FA081B181ED9163
:1025A000FC9111970284F385E02DCD0109950895E2
:1025B0000F931F93FC0140835183628373830483D1
:1025C0001583268337831F910F910895CF93DF934F
:1025D000FC0180E1828381E08383558344832683E9
:1025E0008CE292E091838083EF012796DB0188E003
:1025F0000D9009928150E1F78EEF9FEF908B8787C6
:10260000118A128ADF91CF910895FC01662311F49B
:1026100082850895613011F481850895623029F42E
:1026200087819085A185B28512C0633011F48781BE
:102630000895643011F486850895653011F4858518
:102640000895663049F483859485A585B685892FDC
:102650009A2FAB2FBB270895673011F48385089517
:10266000683011F480890895693011F487850895E0
:102670006A3011F4818908956B3011F482890895CC
:102680000480F581E02DE60FF11D3C9780810895CF
:10269000FC018681845F08950F93DF93CF9300D070
:1026A000CDB7DEB7FC01062F442321F1862F8D57CD
:1026B000823020F0613111F06331E1F4CF018458B0
:1026C0009F4F9A838983DC01ED91FC91A081B181B8
:1026D0002D913C91CF016DE7F9010995A981BA814E
:1026E000ED91FC91A081B18160E260272D913C9138
:1026F000CF010BC0E458FF4F0190F081E02DA08185
:10270000B1812D913C91CF01602FF90109950F9076
:102710000F90CF91DF910F910895CF92DF92FF92AA
:102720000F931F93CF93DF936C01EB016EE740E0B3
:102730000E944C13E881F9810280F381E02DCE01E3
:102740000995082FE881F9810280F381E02DCE01FF
:102750000995F82E10E00E5F1F4FC601612F41E072
:102760000E944C1382E0F80EC6016F2D41E00E94DA
:102770004C13C6016A8141E00E944C13C6016B8173
:1027800041E00E944C13FB808A81F80E00E010E0CB
:1027900018C0E881F9810190F081E02DCE01602F11
:1027A0000995682FC60141E00E944C13E881F98128
:1027B0000190F081E02DCE01602F0995F80E0F5F9A
:1027C0001F4FE881F9810280F381E02DCE01099548
:1027D00090E008171907ECF2F094C6016F2D41E064
:1027E0000E944C13C6010E94CA12DF91CF911F9123
:1027F0000F91FF90DF90CF90089510928F06109266
:10280000900610929106109292068FEF9FEFA0E033
:10281000B0E08093930690939406A0939506B093AE
:102820009606089581E08093DC066093B9061092C5
:10283000DA061092DB06089581E08093DC0660934F
:10284000B9061092DA061092DB0608952091B806B8
:1028500030E08091B706281B3109C90108954091E5
:10286000B7068091B806481718F02FEF3FEF0AC05F
:10287000E42FF0E0E956F94F8081282F30E04F5FD8
:102880004093B706C9010895E091B7068091B80654
:10289000E81718F0EFEFFFEF06C0F0E0E956F94F48
:1028A0008081E82FF0E0CF01089508951092E006AE
:1028B0001092DF0688EE93E0A0E0B0E08093E1069E
:1028C0009093E206A093E306B093E40684E392E0DB
:1028D0009093DE068093DD060895CF92DF92EF920B
:1028E000FF920F931F93CF93DF937C016B018A01BB
:1028F0008091DC068823A1F0C0E0D0E00DC0D701B4
:10290000ED91FC91D601AC0FBD1F0190F081E02D3F
:10291000C7016C9109952196C017D10780F304C0B7
:10292000CB01642F0E94A315C801DF91CF911F91A5
:102930000F91FF90EF90DF90CF900895DF93CF93AA
:102940000F92CDB7DEB7FC0169838091DC06882346
:10295000C9F08091DB06803238F081E090E093830B
:10296000828320E030E015C08091DA06E82FF0E0A5
:10297000E654F94F998190838F5F8093DA068093B4
:10298000DB0605C0CE01019661E00E94A31521E09F
:1029900030E0C9010F90CF91DF9108950F93062F7A
:1029A0008091B9066AEB76E04091DB0621E00E9457
:1029B0004E151092DA061092DB061092DC060F918B
:1029C000089561E00E94CE140895413208F040E27B
:1029D000862F67E976E00E9405151092B70680936E
:1029E000B806089521E00E94E514089521E00E94B0
:1029F000E51408951092B7061092B8061092DA0600
:102A00001092DB060E944F170895382F413210F0C4
:102A100040E042C08091E9068823E1F791E090937D
:102A2000E9062093EB068FEF80935607109211076B
:102A30004150409312074F5F9093EA068091EA0657
:102A4000330F832B8093EA068091EC06813041F4AA
:102A50001092EC068091EA068093BB0085EC01C0E1
:102A600085EE8093BC008091E9068130E1F380918E
:102A70001107841710F44091110720E030E00AC0DC
:102A8000FB01E20FF31FD901AF50B94F8C91808346
:102A90002F5F3F4F2417A0F3842F08950F931F93A8
:102AA000582F122F413210F081E04AC08091E90680
:102AB0008823E1F782E08093E9060093EB068FEF2D
:102AC000809356071092110740931207A1EFB6E0CA
:102AD000FB0102C081918D938E2F861B8417D0F34A
:102AE0001092EA068091EA06550F852B8093EA063C
:102AF0008091EC06813041F41092EC068091EA0658
:102B00008093BB0085EC01C085EE8093BC0011234F
:102B100021F08091E9068230E1F3809156078F3FE2
:102B200011F480E00DC080915607803211F482E0EC
:102B300007C080915607803311F084E001C083E024
:102B40001F910F910895482F613210F081E0089590
:102B50008091E906843011F082E008956093340793
:102B6000A3E1B7E0842F9C01F90102C081918D930C
:102B70008E2F841B8617D0F380E008951F920F924A
:102B80000FB60F9211242F933F934F935F936F9340
:102B90007F938F939F93AF93BF93EF93FF93809116
:102BA000B90090E0887F90708036910509F4F2C0FA
:102BB00081369105CCF58832910509F47BC08932C4
:102BC0009105B4F48031910509F46FC0813191050C
:102BD0003CF4009709F447C1089709F04FC165C05C
:102BE0008831910509F466C0809709F047C182C019
:102BF0008034910509F4A4C08134910544F48033F4
:102C0000910509F482C0C89709F038C189C08035A0
:102C1000910509F489C08835910509F496C0883476
:102C2000910509F02BC1AEC08839910509F413C193
:102C300089399105ECF48837910509F4ABC08937DF
:102C400091054CF48836910509F4A4C080379105AC
:102C500009F014C19FC08838910509F4FCC080397F
:102C6000910509F49DC08038910509F007C198C00D
:102C7000803B910509F4C6C0813B91054CF4803A34
:102C8000910509F49FC0883A910509F0F7C0BAC0D0
:102C9000803C910509F4E3C0883C910509F4DFC04C
:102CA000883B910509F0EAC0C2C08091EA06809392
:102CB000BB00CFC09091110780911207981768F45C
:102CC00090911107E92FF0E0EF50F94F8081809348
:102CD000BB009F5F90931107BCC08091EB068823D7
:102CE00009F44BC085ED8093BC008091BC0084FD4D
:102CF000FCCFC2C080E28093560785ED8093BC0074
:102D00008091BC0084FDFCCFB7C080E38093560760
:102D100085ED8093BC008091BC0084FDFCCFACC0ED
:102D200088E3809356079BC0809111079091BB0068
:102D3000E82FF0E0EF50F94F90838F5F80931107F9
:102D4000909111078091120782C080911107909194
:102D5000BB00E82FF0E0EF50F94F90838F5F809336
:102D600011078091EB06882341F085ED8093BC002C
:102D70008091BC0084FDFCCF7FC081E08093EC0695
:102D800084EA6EC085ED8093BC008091BC0084FD18
:102D9000FCCF72C083E08093E9061092550759C0BA
:102DA00080915507803208F056C080915507909168
:102DB000BB00E82FF0E0EB5CF84F90838F5F8093CF
:102DC000550747C080915507803230F4E091550790
:102DD000F0E0EB5CF84F108285ED8093BC008091B1
:102DE000BC0084FDFCCF1092E90660915507E0918C
:102DF000EF06F091F00685E397E070E009951092F8
:102E000055072DC084E08093E90610923307109295
:102E10003407E091ED06F091EE06099580913407B4
:102E2000882329F481E0809334071092130790914E
:102E30003307E92FF0E0ED5EF84F80818093BB000F
:102E40009F5F9093330790913307809134079817D1
:102E500010F485EC01C085E88093BC000FC085ECC0
:102E60008093BC0009C01092560785ED8093BC008A
:102E70008091BC0084FDFCCF1092E906FF91EF9198
:102E8000BF91AF919F918F917F916F915F914F9182
:102E90003F912F910F900FBE0F901F901895109299
:102EA000E90681E08093EB061092EC0682E161E096
:102EB0000E946F2883E161E00E946F28E9EBF0E057
:102EC00080818E7F808380818D7F808380E280936C
:102ED000B80085E48093BC000895FC011386158634
:102EE000148687E090E012863197009711F00197E1
:102EF000FACF0895DC0180E00BC0E82FF0E08D915F
:102F000090E0E827F927E651FF4FE49161508E2FBA
:102F1000662399F70895DF92EF92FF920F931F9324
:102F2000FC01E08001811281F894F80181818E29F1
:102F300081838281DE2CD0948D21828383E090E096
:102F40000E945E27F80181818D2181838AE090E0D3
:102F50000E945E27F8010081789485E390E00E944A
:102F60005E2780E010E0FF240E211F21012B09F0D5
:102F700081E01F910F91FF90EF90DF900895EF9205
:102F8000FF920F931F93CF93DF937C0101E010E03A
:102F9000C0E0D0E0C7010E948B178111102B000FF9
:102FA0002196C830D105B1F7812FDF91CF911F91C4
:102FB0000F91FF90EF9008951F93CF93DF93FC0143
:102FC0001081C181D281912F909560FF12C0F89439
:102FD0008A8189238A838981812B89838AE090E091
:102FE0000E945E278A81812B8A83789487E390E010
:102FF00011C0F8948A8189238A838981812B8983EE
:1030000081E490E00E945E278A81812B8A837894F4
:1030100085E090E00E945E27DF91CF911F91089597
:10302000CF92DF92EF92FF920F931F93CF93DF9394
:103030008C01E42EFF24F394C0E0D0E0C62EDD2402
:1030400060E08F2D90E08C219D21892B09F061E0BB
:10305000C8010E94DC17FF0C2196C830D10581F70A
:10306000EE20A9F4F894D8011196ED91FC911297F5
:1030700091818C918095982391831196ED91FC918B
:10308000129792818C918095982392837894DF9106
:10309000CF911F910F91FF90EF90DF90CF90089507
:1030A0006CEC40E00E9410180895EF92FF920F938D
:1030B0001F93CF93DF938C017B0165E540E00E9475
:1030C0001018C0E0D0E0F701EC0FFD1FC8016081CF
:1030D00040E00E9410182196C830D105A1F7DF9179
:1030E000CF911F910F91FF90EF900895DF92EF9293
:1030F000FF920F931F93CF93DF93FC010081C18157
:10310000D281F8948981D02ED0948D2189837894AE
:103110001DE7E02EFF24115059F182E090E00E945B
:103120005E27888190E08E219F21892BA1F3F8945E
:103130008A818D218A838981802B8983789480EE8E
:1031400091E00E945E27F89489818D21898386E42D
:1031500090E00E945E27888110E090E0E822F9224A
:10316000EF2809F411E078948AE991E00E945E2743
:10317000812FDF91CF911F910F91FF90EF90DF9002
:103180000895AF92BF92DF92EF92FF920F931F9339
:10319000CF93DF93EC015B018D85882309F061C03B
:1031A000CE010E947618882329F41B861D861C8672
:1031B00090E06BC0CE0160EF40E00E94101801E08B
:1031C000DD24EE24FF24F394CE010E948B17182FE8
:1031D000CE010E948B17113019F48130E1F439C00F
:1031E000181709F58B85081770F460E0FE01EE0DE5
:1031F000F11D838190E02F2D30E082239323181658
:1032000019064CF003C060E0081729F0093008F0F7
:103210004CC00C874AC0FE01EE0DF11D83818F2941
:10322000838361E009C0612FFE01EE0DF11D9F2D2A
:103230009095838189238383CE010E94DC170F5FE1
:10324000FF0C19F4E394FF24F39487E08E1508F043
:10325000BBCF013430F0DB86DD2011F581E08D87B6
:103260001FC01B861D861C8690E0DE0120E030E03A
:10327000F501E20FF31F13968C91139780832F5F54
:103280003F4F11962830310599F7892FDF91CF9163
:103290001F910F91FF90EF90DF90BF90AF90089536
:1032A0008B818823F1F291E0E0CFD02EBDCFFF9249
:1032B0000F931F938C01F62E862F60E00E9430281A
:1032C0008F2D90E0FC01E85DFD4FE491D801EC9377
:1032D0008C5E9D4FFC016491E62FF0E0EE0FFF1F26
:1032E000E65FFD4F8591949112969C938E93119772
:1032F0001B961C921B971D961C921D971C961C9248
:10330000F80187E090E012863197009711F001975D
:10331000FACF1F910F91FF900895FC0183E59AE188
:10332000928B818B768365831482108289E08183FE
:1033300081E08283838308956F927F928F929F9220
:10334000AF92BF92CF92DF92EF92FF920F931F93B3
:10335000CF93DF93FB01EA01998180E0288130E07F
:10336000282B392BE081E23231F0E83221F0E031D4
:1033700009F084C04BC04C814F3329F1403420F414
:103380004F3109F07BC02FC04F3579F04F3709F02E
:1033900075C0B901882777FD8095982F0E94A92DC7
:1033A00020E030E040E85DE32EC035952795B90177
:1033B000882777FD8095982F0E94A92D20E030E086
:1033C00040E05EE320C03595279535952795B901F6
:1033D000882777FD8095982F0E94A92D20E030E066
:1033E00040E85EE310C093E0359527959A95E1F7A4
:1033F000B901882777FD8095982F0E94A92D20E09C
:1034000030E040E05FE30E94352E32C0EF8035951A
:103410002795B901882777FD8095982F0E94A92DBF
:1034200020E030E040E85EE30E94A92C3B014C0123
:103430006E2D70E02E81621B7109882777FD8095C3
:10344000982F0E94A92D5B016C01FF2400E010E081
:10345000C801B7010E94A72D9B01AC01C601B501AF
:103460000E940E2D9B01AC01C401B3010E94AA2C45
:103470009B01AC01832F942F752F00C0262F382F6E
:10348000492F572FB901CA01DF91CF911F910F9199
:10349000FF90EF90DF90CF90BF90AF909F908F9074
:1034A0007F906F9008950895EF92FF920F931F936E
:1034B0008C017B01FC01858196810E947618F801C0
:1034C00085819681B7010E945518F8018581968102
:1034D00064EB40E00E941018F801858196810E94FB
:1034E0008B17F82EF801858196810E94761880E06E
:1034F000FF2009F481E01F910F91FF90EF90089554
:10350000EF92FF920F931F93CF93DF93EC018B0108
:103510007A018D819E810E9476188D819E81B801ED
:103520000E9455188D819E816EE440E00E94101823
:103530008D819E81F701628140E00E9410188D818B
:103540009E81F701638140E00E941018F80180819C
:10355000803139F08D819E81F701648140E00E94C5
:1035600010188D819E810E9476188D819E8168E45D
:1035700048810E9410188881882331F06AE070E049
:1035800080E090E00E94A3278D819E810E947618A2
:10359000DF91CF911F910F91FF90EF900895CF92FF
:1035A000DF92EF92FF920F931F938C016B017A01D0
:1035B000FC01858196810E947618F80185819681AB
:1035C000B6010E945518F801858196816EEB40E0A6
:1035D0000E941018F801858196810E94BF17F7019B
:1035E0008083F801858196810E94BF17F70181834E
:1035F000F801858196810E94BF17F7018283F80147
:10360000858196810E94BF17F7018383F801858128
:1036100096810E94BF17F7018483F8018581968106
:103620000E94BF17F7018583F801858196810E946A
:10363000BF17F7018683F801858196810E94BF1725
:10364000F7018783F801858196810E94BF17F701F2
:103650008087F801858196810E9476181F910F91CD
:10366000FF90EF90DF90CF900895DF93CF93CDB789
:10367000DEB729970FB6F894DEBF0FBECDBFAE01FF
:103680004F5F5F4F0E94CF1A8981811181E0299697
:103690000FB6F894DEBF0FBECDBFCF91DF91089576
:1036A000CF92DF92EF92FF920F931F93CF93DF930E
:1036B000EC016B01452BE1F08B818823C9F08881F7
:1036C0008823B1F40E9450277B018C01CE0160E079
:1036D00070E00E94351B882359F40E9450276E1910
:1036E0007F09800B910B6E5E72408040904070F3BA
:1036F000F6016081693039F06930A0F06A3041F03C
:103700006B3081F40AC06EE570E080E090E00EC09E
:103710006CEB70E080E090E009C067E771E080E06A
:1037200090E004C06EEE72E080E090E00E94A3277B
:10373000DF91CF911F910F91FF90EF90DF90CF908D
:103740000895CF93DF93EC018D819E810E947618BE
:103750008D819E810E9450188D819E8164E44881F4
:103760000E9410188A81882339F0CE012196BE016B
:1037700040E050E00E94501BDF91CF9108950F93DD
:103780001F938A010E94CF1AC80168E00E947A172D
:1037900020E0F8019085891709F421E0822F1F911C
:1037A0000F910895CF92DF92EF92FF920F931F93A4
:1037B000DF93CF93CDB7DEB729970FB6F894DEBF6E
:1037C0000FBECDBF8C017B016E010894C11CD11CC2
:1037D000A6010E94BF1B882329F460E070E08EEFF1
:1037E00092EC05C0C801B701A6010E949C19299658
:1037F0000FB6F894DEBF0FBECDBFCF91DF911F9102
:103800000F91FF90EF90DF90CF900895DF93CF93CB
:10381000CDB7DEB729970FB6F894DEBF0FBECDBF88
:103820009C01FB0180818031D9F0C901AE014F5F5D
:103830005F4F0E94BF1B8823A9F08D818F3371F0E9
:10384000803418F48F3171F40BC08F3519F08F3735
:1038500049F402C08BE007C08CE005C08AE003C0D9
:1038600089E001C080E029960FB6F894DEBF0FBE54
:10387000CDBFCF91DF910895CF92DF92EF92FF926B
:103880001F93DF93CF93CDB7DEB729970FB6F89488
:10389000DEBF0FBECDBF6C017B01142FAE014F5FA9
:1038A0005F4F0E94BF1B8823E1F0F70180818031C8
:1038B000B9F01A3051F01A3050F01B3021F01C30A2
:1038C00031F48FE705C08FE503C08FE301C08FE1BE
:1038D0008D83C601B701AE014F5F5F4F0E94801A12
:1038E00081E029960FB6F894DEBF0FBECDBFCF9111
:1038F000DF911F91FF90EF90DF90CF9008950F938D
:103900001F938B01CB0167E00E947A1720E0F8013A
:103910009781891709F421E0822F1F910F91089553
:10392000EF92FF920F931F93CF93DF93EC017B01F4
:10393000042F8D819E810E946D1710E007C0CE017B
:10394000B7010E947F1C8823A9F00AC08D819E8147
:10395000B7010E94C118882329F0101759F4EFCF3E
:1039600081E001C080E0DF91CF911F910F91FF9026
:10397000EF9008951F5F0117A8F3E8CFCF92DF9271
:10398000EF92FF920F931F93DF93CF93CDB7DEB7E4
:1039900028970FB6F894DEBF0FBECDBF7C0169300B
:1039A00010F469E003C06D3008F06CE0F70161834A
:1039B00000E010E06E010894C11CD11C0DC0C701CD
:1039C000B601402F0E94901CC701B601F70141814A
:1039D0000E943C1C0F5F1F4FF701848190E0081785
:1039E00019076CF328960FB6F894DEBF0FBECDBF53
:1039F000CF91DF911F910F91FF90EF90DF90CF90CB
:103A00000895AF92BF92CF92DF92EF92FF920F9301
:103A10001F93DF93CF93CDB7DEB761970FB6F894BE
:103A2000DEBF0FBECDBF7C01FC01858196810E9467
:103A30006D17F70114826E010894C11CD11C79E046
:103A4000A72EB12CAC0EBD1E01E02BC0C701B601E4
:103A50000E947F1C882329F1F7018081882341F48B
:103A6000C701B6010E94541A882311F0F7010083A0
:103A7000C701B601A5010E94CF1AF7011181C70144
:103A8000B6010E94061C811718F4F701818104C059
:103A9000C701B6010E94061CF701818384818F5FF4
:103AA0008483F70185819681B6010E94C11888231D
:103AB00069F661960FB6F894DEBF0FBECDBFCF9109
:103AC000DF911F910F91FF90EF90DF90CF90BF900B
:103AD000AF900895FC0166834783208781E0858746
:103AE00008950F931F938C01FC01868160E00E9472
:103AF0003028F801868161E00E946F28F801118664
:103B00001286138614861F910F910895CF92DF922B
:103B1000EF92FF920F931F93CF93DF93EC018E816F
:103B200061E00E946F286AEF70E080E090E00E9400
:103B3000A3270E9450279B01AC0189859A85AB85FC
:103B4000BC85281739074A075B0720F419861A86AF
:103B50001B861C868D85882371F489859A85AB85A3
:103B6000BC85281B390B4A0B5B0B205D374040405E
:103B7000504008F477C01D860E94502769877A87D5
:103B80008B879C871C821B821A82198218828E81E5
:103B900061E00E9430288E8160E00E946F2864E11D
:103BA00070E080E090E00E94A327F8948E8161E0AD
:103BB0000E946F2888E290E00E945E278E8160E07C
:103BC0000E94302881E0EE2400E010E00AC0F39467
:103BD00081E090E00E945E278FEFF81629F40AC07A
:103BE000822FFF24C82EDD248E810E94C3288C15CD
:103BF0009D0569F38E810E94C328282F8FEFF81648
:103C0000C9F0043090F000FD10C08E2D8695869589
:103C10008695FE01E80FF11D9081990F90838885AC
:103C20008F1510F491609083E3940F5F1F4F05355B
:103C30001105B1F6789487E28E1510F030E013C0CC
:103C400030E04C8150E02981888190E0820F911D05
:103C50002A81820F911D2B81820F911D9070481730
:103C6000590709F431E0832FDF91CF911F910F9114
:103C7000FF90EF90DF90CF900895EF92FF920F9317
:103C80001F93CF93DF93EC010E94861D8823A9F137
:103C90008F818B3031F08B3080F18551823068F527
:103CA00007C0688170E080E090E00E94A72D22C0EC
:103CB000688170E080E090E00E94A72D20E030E075
:103CC00040E853E40E94352E7B018C01698170E04D
:103CD000882777FD8095982F0E94A92D9B01AC0124
:103CE000C801B7010E94AA2C20E030E040E251E474
:103CF0000E940E2DE62F692F0AC084E697E063ED3F
:103D000071E00E94922CE0E070E080EC6FE72E2FD3
:103D1000372F482F562FB901CA01DF91CF911F913C
:103D20000F91FF90EF900895CF93DF93EC0188817E
:103D3000282F30E069818A81482F50E0EAEEF1E0D7
:103D400091E005C08491480F511D9F5F31969617F1
:103D5000C8F3633038F0C90183709070892B11F477
:103D60004F5F5F4F8DE691E0289FB001299F700D56
:103D7000389F700D1124615070402D5F3F4F369574
:103D8000279536952795620F731F640F751F80E086
:103D900090E028E130E040E050E00E9454302B8178
:103DA000620F711D811D911D2CE330E040E050E059
:103DB0000E9454302C81620F711D811D911D2CE3D6
:103DC00030E040E050E00E9454309B01AC018D8116
:103DD000280F311D411D511DB901CA01DF91CF913D
:103DE0000895EF92FF920F931F93162F042F2DED3E
:103DF000E22E26E0F22EC70168E670E00E941C1455
:103E0000C701612F0E949E14C701602F0E949E145B
:103E1000C7010E94E1141F910F91FF90EF90089548
:103E20001F93CF93DF93EC01162F6EE04DE10E94BC
:103E3000F11E123041F0133079F0113009F5CE0146
:103E400067E040E803C0CE0167E040E00E94F11E59
:103E5000CE0168E040E808C0CE0167E040E00E9483
:103E6000F11ECE0168E040E00E94F11ECE0169E043
:103E700040E80E94F11ECE016AE040E80E94F11E77
:103E8000DF91CF911F910895AF92BF92CF92DF92B1
:103E9000EF92FF920F931F93DF93CF93CDB7DEB7CF
:103EA00027970FB6F894DEBF0FBECDBF0DED16E01D
:103EB000C80168E670E00E941C14C80160E00E941E
:103EC0009E14C8010E94E114C80168E670E048E051
:103ED00050E00E94F214C8010E942F14B82EC801AD
:103EE0000E942F14C82EC8010E942F149FE3D92EC0
:103EF000D822C8010E942F14A82EC8010E942F1496
:103F0000E82EC8010E942F14F82EC8010E942F1419
:103F1000282F30E0B4E035952795BA95E1F74AEFC0
:103F20005FEFB901649F9001659F300D749F300D64
:103F30001124820F90E02B2D30E0A4E035952795D9
:103F4000AA95E1F7B901649F9001659F300D749FB8
:103F5000300D1124B20E2C2D30E0F4E0359527956C
:103F6000FA95E1F7B901649F9001659F300D749F48
:103F7000300D1124C20E2D2D30E0E4E0359527954B
:103F8000EA95E1F7B901649F9001659F300D749F38
:103F9000300D1124D20E2E2D30E074E0359527958A
:103FA0007A95E1F7B901649F9001659F300D749F88
:103FB000300D1124E20E2F2D30E064E03595279569
:103FC0006A95E1F7B901649F9001659F300D749F78
:103FD000300D1124F20E282F3F2D4E2D5D2D6C2D0E
:103FE0007B2D8A2D27960FB6F894DEBF0FBECDBF6E
:103FF000CF91DF911F910F91FF90EF90DF90CF90C5
:10400000BF90AF900895FF920F931F93F62E0DED82
:1040100016E0C80168E670E00E941C14C8016F2D0C
:104020000E949E14C8010E94E114C80168E670E075
:1040300041E050E00E94F214C8010E942F141F9129
:104040000F91FF900895EF92FF920F931F93CF93DC
:10405000DF938C0161E10E940320E82EC80162E138
:104060000E940320C82FD0E0E7FE25C0E1946E2D0A
:1040700070E0882777FD8095982F0E94A92D7B01FD
:104080008C0136E0D595C7953A95E1F7BE018827B2
:1040900077FD8095982F0E94A92D20E030E040E820
:1040A0005EE30E94352E9B01AC01C801B7010E945E
:1040B000AA2C905822C06E2D70E0882777FD80953D
:1040C000982F0E94A92D7B018C0126E0D595C795DC
:1040D0002A95E1F7BE01882777FD8095982F0E94E9
:1040E000A92D20E030E040E85EE30E94352E9B01E0
:1040F000AC01C801B7010E94AA2CDF91CF911F919A
:104100000F91FF90EF900895CF93DF93EC016EE055
:104110000E940320482F4062CE016EE00E94F11EF3
:10412000CE016EE00E94032085FDFACFDF91CF9192
:1041300008950F931F938C016FE00E940320482F76
:104140004E7FC8016FE00E94F11E1F910F910895EC
:104150000F931F938C016EE04CE10E94F11E6AE008
:1041600070E080E090E00E94A327C80162E00E9416
:104170000320482F4F7BC80162E00E94F11E6AE0D5
:1041800070E080E090E00E94A32781E01F910F91F2
:104190000895FC0160830895DF92EF92FF920F93E0
:1041A0001F93FC01F62ED42EE52E0DED16E0C8016E
:1041B00060810E941214C8016F2D0E949E14C801D4
:1041C0006E2D0E949E14C8016D2D0E949E14C80180
:1041D0000E94E1141F910F91FF90EF90DF900895DE
:1041E000CF92DF92EF92FF920F931F938C01D62E06
:1041F0008DEDE82E86E0F82EC701F80160810E945F
:104200001214C7016D2D0E949E14C7010E94E11473
:10421000C701F80160810E941214C701F801608192
:1042200042E00E94F614C7010E942F14182F00E0EC
:10423000C7010E942F146C01C7010E94E1140C29D0
:104240001D29C8011F910F91FF90EF90DF90CF9033
:10425000089560E00E94F020089561E00E94F0203F
:104260009C013595279535952795C90108952F927D
:104270003F924F925F926F927F928F929F92AF92F6
:10428000BF92CF92DF92EF92FF920F931F93DF9333
:10429000CF9300D000D0CDB7DEB78C010E942D2186
:1042A000AA2797FDA095BA2FBC01CD010E94A92D88
:1042B0006B017C01C8010E942921AA2797FDA095C6
:1042C000BA2FBC01CD010E94A92D20E030E44CE1C1
:1042D00053E40E94352E20E030E04AE754E40E9487
:1042E0000E2D20E030E04AE754E40E940E2D1B0121
:1042F0002C01C701B60120E030E040E05DE30E9400
:10430000352E23E333E948E853E40E94AA2C3B010D
:104310004C0123E333E145E953E40E94A92C7B01DE
:104320008C0122E430E645EE5AE30E94352E20E06F
:1043300030E040E85FE30E94AA2C5B016C01C801F9
:10434000B70127EC32EC4CE857EB0E94352EA80160
:1043500097010E94352E9B01AC01C601B5010E9458
:10436000AA2C2DEC3CEC4CEC50E40E94352E20E8BD
:1043700036E948E15BE40E940E2D69837A838B83E2
:104380009C83C201B10120E030E04AE754E40E947E
:104390000E2D1B012C01C801B7012AE132E049E1D1
:1043A00055EB0E94352E25E030EA46EF57E30E9498
:1043B000A92C5B016C01C801B70129EE35E14FE979
:1043C00051E30E94352EA80197010E94352E9B01D2
:1043D000AC01C601B5010E94AA2C9B01AC01C2012F
:1043E000B1010E94A92C7B018C01C401B301A4017D
:1043F00093010E94352EA40193010E94352EA40141
:1044000093010E94352E5B016C01C801B70126E6BD
:1044100036E646E551E40E94352EA80197010E9438
:10442000352E9B01AC01C801B7010E94AA2C7B016B
:104430008C0169817A818B819C8120E836E948E191
:104440005BE40E940E2D9B01AC01C801B7010E94E4
:104450000E2D9B01AC01C601B5010E94AA2C0E9441
:10446000E82E0E94E82E23E333E948E853E40E9453
:10447000A92C0F900F900F900F90CF91DF911F916B
:104480000F91FF90EF90DF90CF90BF90AF909F90F3
:104490008F907F906F905F904F903F902F900895F6
:1044A000EF92FF920F931F938C01E62E8DED96E015
:1044B0000E94FA144E2D50E05167C80162E00E943C
:1044C000CC20C8016EEF0E94F0207C01C8016FEF84
:1044D0000E94F02029E4E21624E5F20611F020E023
:1044E00005C020E08736910509F421E0822F1F9155
:1044F0000F91FF90EF900895FC0184E492E0918386
:104500008083638314821582178216821186108637
:1045100022873387448755870895FC016583089572
:104520006F927F928F929F92AF92BF92CF92DF92C3
:10453000EF92FF920F931F93CF93DF93FC01EA0159
:10454000468157814115510531F04130510531F413
:1045500088E890E905C084E293E102C088EE9DEF0F
:104560008617970708F4DEC08C179D0708F4DAC099
:104570004115510551F04130510571F417EEE12E0E
:104580001FE0F12E012D112D0CC0B7E1EB2EB5E788
:10459000FB2E012D112D05C0E12CA4E0FA2E012DDA
:1045A000112D80859185892B39F4E4E0EE0CFF1CF8
:1045B000001F111FEA95D1F79B0140E050E0C801B0
:1045C000B7010E9454305B016C015AE0D694C79445
:1045D000B794A7945A95D1F79E0140E050E0C801E6
:1045E000B7010E9454303B014C014AE096948794F5
:1045F000779467944A95D1F7A114B104C104D1040A
:1046000029F480E090E0A0E0B0E00FC0C401B30165
:104610003AE0660F771F881F991F3A95D1F7A601D8
:1046200095010E947F30C901DA010196A11DB11DDB
:10463000B695A7959795879581349105A105B10504
:1046400028F462EF71E0CEEBD1E049C081389105EA
:10465000A105B10528F464E172E0C1EDD2E03FC0EC
:10466000813C9105A105B10528F46FE372E0CBE729
:10467000D3E035C0813021E0920720E0A20720E09E
:10468000B20728F460E772E0CEEFD3E028C08933A8
:1046900021E0920720E0A20720E0B20728F46FE6AD
:1046A00071E0CCEFD1E01BC08B3921E0920720E014
:1046B000A20720E0B20728F462ED70E0CBEFD0E073
:1046C0000EC08B599240A040B04028F060E070E0EE
:1046D000C0E0D0E004C068E170E0C2E1D0E080E07A
:1046E00090E0A60195010E9454307B018C0180E08E
:1046F00090E2A0E0B0E0E80EF91E0A1F1B1FBE0109
:1047000080E090E0A40193010E945430E61AF70A79
:10471000080B190B8EE016950795F794E7948A9588
:10472000D1F703C0EE24FF248701B701C801DF9150
:10473000CF911F910F91FF90EF90DF90CF90BF909E
:10474000AF909F908F907F906F900895EF92FF921F
:104750000F931F937C018B0188E2FB0111928A95D4
:10476000E9F7CB016DED71E04BE050E00E9458019C
:10477000F801138681E090E0A0E0B0E0848795879F
:10478000A687B787F70182859385A485B585F8014B
:10479000808B918BA28BB38B85E090E0A0E0B0E0A2
:1047A000848B958BA68BB78B14A215A216A217A289
:1047B00080E090EDA4E8B6E4808F918FA28FB38F54
:1047C00080E090E0A0E0B0E0848F958FA68FB78F57
:1047D00080E090E0A0E8BFE380A391A3A2A3B3A3ED
:1047E0001F910F91FF90EF900895BF92CF92DF92AB
:1047F000EF92FF920F931F93B62E79018A012DED50
:10480000C22E26E0D22EDC0113966C91772767FD2D
:104810007095C6010E941C14C6016B2D0E949E1447
:104820008FEF90E0A0E0B0E0E822F9220A231B23FA
:10483000C6016E2D0E949E14C6010E94E1141F91B4
:104840000F91FF90EF90DF90CF90BF90089560E8B8
:1048500020E030E040E050E00E94F523089560E859
:1048600023E030E040E050E00E94F5230895DF921D
:10487000EF92FF920F931F937C01D62E0DED16E061
:10488000FC016381772767FD7095C8010E941C14A5
:10489000C8016D2D0E949E14C8010E94E114F70109
:1048A0006381772767FD7095C80142E050E00E9460
:1048B000F214C8010E942F147C01C8010E942F1419
:1048C000382F20E02E293F29C9011F910F91FF9019
:1048D000EF90DF900895EF92FF920F931F93CF9385
:1048E000DF93EC018B017A010E942F248E819F813E
:1048F000009719F0019759F405C06EE070E080E070
:1049000090E009C066E670E080E090E004C063E9F2
:1049100071E080E090E00E94A327CE016CEA0E9443
:104920003724F80191838083CE016EEA0E943724F8
:10493000F70191838083CE010E942724DF91CF91DC
:104940001F910F91FF90EF900895DF92EF92FF92E9
:104950000F931F937C01D62E0DED16E0FC016381B1
:10496000772767FD7095C8010E941C14C8016D2D42
:104970000E949E14C8010E94E114F7016381772709
:1049800067FD7095C80141E050E00E94F214C80133
:104990000E942F141F910F91FF90EF90DF900895C8
:1049A000CF93DF93EC018DED96E00E94FA14CE01D7
:1049B0006AE00E94A5248A7081F081E08C836E8178
:1049C0007F81CE010E94042668857985CE010E94F0
:1049D000F024CE010E94272481E0DF91CF91089539
:1049E0000F931F93CF93DF93EC018B018C8188236E
:1049F00019F4CE010E94D024CE010E942F242E81D2
:104A00003F81202B312B442737FD4095542FCE0179
:104A100061E80E94F52319870887CE010E942724A8
:104A2000DF91CF911F910F9108953F924F925F9226
:104A30006F927F928F929F92AF92BF92CF92DF92AE
:104A4000EF92FF920F931F93DF93CF9300D000D08C
:104A5000CDB7DEB78C015B014A01FC01848188235C
:104A600019F4C8010E94D024F8018581882331F40B
:104A7000C801B501A4010E946B245BC03324F3E09C
:104A80004F2E512C4C0E5D1E3E010894611C711C72
:104A9000F80186819781009751F0019781F4E0EA4F
:104AA000CE2EECE8DE2E78ECE72EF12C10C062EF73
:104AB000C62E62E1D62E54E6E52EF12C08C048E160
:104AC000C42E46EFD42E34EFE32E31E0F32EC8018E
:104AD000B301A2010E946B2429813A81332009F598
:104AE0002E153F0548F4F80180859185892B21F426
:104AF000C80160E170E00BC0C216D30690F4F80163
:104B000080859185409769F4C80160E070E00E945B
:104B1000F024C801B301A2010E946B243324339412
:104B2000B7CFF501318320838B819C81F401918380
:104B300080830F900F900F900F90CF91DF911F9176
:104B40000F91FF90EF90DF90CF90BF90AF909F902C
:104B50008F907F906F905F904F903F900895EF926D
:104B6000FF920F931F93DF93CF9300D000D0CDB768
:104B7000DEB77C018B0184E2FB0111928A95E9F793
:104B800084E290E0A0E0B0E0FB0180839183A28307
:104B9000B383F70182859385A485B585FB01848362
:104BA0009583A683B78385E090E0A0E0B0E080879E
:104BB0009187A287B3870E945027F801608B718B81
:104BC000828B938BC701BE016F5F7F4FAE014D5F3C
:104BD0005F4F0E94152569817A814B815C81C701F5
:104BE0000E9490220E94A72DF801648B758B868B02
:104BF000978B0F900F900F900F90CF91DF911F9197
:104C00000F91FF90EF9008950F931F93CF93DF9331
:104C1000EC018B018C81882319F4CE010E94D024F1
:104C2000CE010E942F2428853985202B312B442743
:104C300037FD4095542FCE0161E80E94F5231F8374
:104C40000E83CE010E942724DF91CF911F910F91F7
:104C50000895FC016081718162537240882777FD5D
:104C60008095982F0E94A92D28EE3FE948E85FE340
:104C70000E94352E0E947B2DDC01CB01089583E03C
:104C80000E940B2884E10E940E2823E085389207B9
:104C90001CF025EE31E00FC022E0873292071CF0B5
:104CA00029EE31E008C08F5591401CF022EF31E031
:104CB00002C027EF31E0C90108950F931F938C01C3
:104CC00083E00E940B2885E10E940E28F801918361
:104CD00080831F910F910895823000F5E82FF0E056
:104CE000EE0FFF1FE95AF84F71836083882319F094
:104CF0008130A1F408C0809169008C7F842B80935F
:104D00006900E89A089580916900440F551F440F87
:104D1000551F837F842B80936900E99A0895823020
:104D200080F4882319F0813021F402C0E89801C092
:104D3000E998E82FF0E0EE0FFF1FE95AF84F1182D3
:104D4000108208951F920F920FB60F9211242F9385
:104D50003F934F935F936F937F938F939F93AF9303
:104D6000BF93EF93FF938091570790915807892B3A
:104D700029F0E0915707F09158070995FF91EF91BD
:104D8000BF91AF919F918F917F916F915F914F9163
:104D90003F912F910F900FBE0F901F9018951F926B
:104DA0000F920FB60F9211242F933F934F935F935F
:104DB0006F937F938F939F93AF93BF93EF93FF93E3
:104DC0008091590790915A07892B29F0E091590752
:104DD000F0915A070995FF91EF91BF91AF919F9183
:104DE0008F917F916F915F914F913F912F910F9094
:104DF0000FBE0F901F9018951F920F920FB60F9233
:104E000011242F933F934F935F936F937F938F93CF
:104E10009F93AF93BF9320915F07309160074091BC
:104E200061075091620770916307DA01C901029628
:104E3000A11DB11D672F6A5F6D3730F06D57DA0124
:104E4000C9010396A11DB11D6093630780935F079D
:104E500090936007A0936107B093620780915B070E
:104E600090915C07A0915D07B0915E070196A11D2E
:104E7000B11D80935B0790935C07A0935D07B0938F
:104E80005E07BF91AF919F918F917F916F915F91DD
:104E90004F913F912F910F900FBE0F901F9018953B
:104EA0008FB7F89420915F073091600740916107B8
:104EB000509162078FBFB901CA010895019739F077
:104EC000019729F0880F991F01970197F1F708952D
:104ED000789484B5826084BD84B5816084BD85B5D5
:104EE000826085BD85B5816085BDEEE6F0E080819C
:104EF00081608083E1E8F0E01082808182608083BD
:104F0000808181608083E0E8F0E08081816080833F
:104F1000E1EBF0E0808184608083E0EBF0E0808171
:104F200081608083EAE7F0E0808184608083808113
:104F300082608083808181608083808180688083BB
:104F40001092C1000895EF92FF920F931F93CF9399
:104F5000DF937B018C013FB7F89480915B079091C0
:104F60005C07A0915D07B0915E0726B5A89B05C0C0
:104F70002F3F19F00196A11DB11D3FBFBA2FA92FD8
:104F8000982F8827820F911DA11DB11D53E0880F16
:104F9000991FAA1FBB1F5A95D1F7EC0130C00E9480
:104FA000A82C3FB7F89480915B0790915C07A09183
:104FB0005D07B0915E0726B5A89B05C02F3F19F08D
:104FC0000196A11DB11D3FBFBA2FA92F982F882789
:104FD000820F911DA11DB11D33E0880F991FAA1FDB
:104FE000BB1F3A95D1F78C1B9D0B885E9340B8F29E
:104FF0000894E108F10801091109C851DC4FE114D6
:10500000F1040105110559F6DF91CF911F910F9120
:10501000FF90EF90089580930F020895982F8E309F
:1050200008F09E50977080910F028295880F880F2C
:10503000807C892B80937C0080917A0080648093AF
:105040007A0080917A0086FDFCCF20917800409113
:105050007900942F80E030E0282B392BC901089586
:10506000CF93DF93482F50E0CA01885D9D4FFC012C
:1050700034914C5E5D4FFA018491882369F190E090
:10508000880F991FFC01EA50FE4FA591B491FC01D5
:10509000E050FE4FC591D491662351F42FB7F89498
:1050A0008C91932F909589238C93888189230BC0B1
:1050B000623061F42FB7F8948C91932F90958923E7
:1050C0008C938881832B88832FBF06C09FB7F89469
:1050D0008C91832B8C939FBFDF91CF910895482FA4
:1050E00050E0CA01845C9D4FFC012491CA01885D97
:1050F0009D4FFC0194914C5E5D4FFA013491332336
:1051000009F440C0222351F1233071F0243028F4F7
:105110002130A1F0223011F514C02630B1F0273033
:10512000C1F02430D9F404C0809180008F7703C08F
:10513000809180008F7D8093800010C084B58F7730
:1051400002C084B58F7D84BD09C08091B0008F7787
:1051500003C08091B0008F7D8093B000E32FF0E01A
:10516000EE0FFF1FE050FE4FA591B4912FB7F894BA
:10517000662321F48C919095892302C08C91892B10
:105180008C932FBF0895682F70E0CB01845C9D4FF6
:10519000FC012491CB01885D9D4FFC0144916C5E24
:1051A0007D4FFB019491992319F420E030E03CC03D
:1051B000222351F1233071F0243028F42130A1F062
:1051C000223011F514C02630B1F02730C1F0243060
:1051D000D9F404C0809180008F7703C08091800053
:1051E0008F7D8093800010C084B58F7702C084B516
:1051F0008F7D84BD09C08091B0008F7703C08091FE
:10520000B0008F7D8093B000892F90E0880F991FA8
:10521000865F9D4FFC01A591B4918C9120E030E018
:10522000842311F021E030E0C9010895DC015C968F
:105230008C915C97FD01E80FF11DE35AFF4F20812F
:105240005C968C915C9790E001968F7390705C9661
:105250008C935C975696ED91FC91579720835096CE
:10526000ED91FC9151978081806480835B969C9145
:105270005B975C968C915C97981739F45296ED91F8
:10528000FC91539780818F7D80830895DF92EF9208
:10529000FF920F931F93CF93DF93EC017A018B0161
:1052A000D22E60E874E88EE190E0A80197010E9498
:1052B0007F302150304040405040569547953795BB
:1052C0002795E889F98982E0808380E120303807DA
:1052D00098F0E889F989108260E472E48FE090E048
:1052E000A80197010E947F3021503040404050403B
:1052F0005695479537952795EC85FD853083EE8546
:10530000FF852083188EEC89FD89D082EA89FB898C
:10531000808180618083EA89FB89808188608083C5
:10532000EA89FB89808180688083EA89FB898081A2
:105330008F7D8083DF91CF911F910F91FF90EF9030
:10534000DF900895FC01218D828D30E0205C3F4F7D
:10535000281B31092F733070C9010895FC01918D0C
:10536000828D981719F42FEF3FEF06C0828DE80F5A
:10537000F11D858D282F30E0C9010895DC01599673
:105380009C9159975A968C915A97981719F42FEF28
:105390003FEF10C05A968C915A97FD01E80FF11D0E
:1053A000958D5A968C915A978F5F8F735A968C93DE
:1053B000292F30E0C9010895CF93DF93EC01888D48
:1053C000882361F419C08C9185FF0AC0E889F989A6
:1053D000808185FF05C0CE010E941629AA89BB895C
:1053E0008C9185FD05C0E889F989808186FD04C01E
:1053F0000FB607FEE8CFF4CFDF91CF9108950F935A
:105400001F93CF93DF93EC01062F9B8D8C8D981704
:1054100091F5E889F989808185FF2DC0EE89FF89A2
:105420006083E889F9898081806480831DC00FB61C
:1054300007FC08C0E889F989808185FF03C0CE0197
:105440000E9416298C8D181791F38B8DFE01E80FA1
:10545000F11DE35AFF4F00831B8FEA89FB8980818E
:105460008062808381E0888F81E090E0DF91CF913E
:105470001F910F9108951B8D1F5F1F73E3CF87EC62
:105480009AE2892B51F080E090E0892B31F00E9464
:10549000C72A882311F00E94000008951F920F92DE
:1054A0000FB60F9211242F938F939F93EF93FF9337
:1054B000E0917407F0917507808182FD16C0E0913C
:1054C0007A07F0917B07208190917D079F5F9F7302
:1054D00080917E07981771F0E0917D07F0E0EC591C
:1054E000F84F258F90937D0705C0E0917A07F091E2
:1054F0007B07E081FF91EF919F918F912F910F900A
:105500000FBE0F901F9018951092670710926607B4
:1055100088EE93E0A0E0B0E080936807909369077D
:10552000A0936A07B0936B078EE492E090936507AF
:105530008093640785EC90E09093710780937007E7
:1055400084EC90E0909373078093720780EC90E076
:10555000909375078093740781EC90E090937707A0
:105560008093760782EC90E0909379078093780798
:1055700086EC90E090937B0780937A0710927D07EA
:1055800010927E0710927F0710928007089584E69C
:1055900097E00E94A22920E0892B09F021E0822FC8
:1055A00008951F920F920FB60F9211242F933F93DD
:1055B0004F935F936F937F938F939F93AF93BF931B
:1055C000EF93FF9384E697E00E941629FF91EF91F5
:1055D000BF91AF919F918F917F916F915F914F910B
:1055E0003F912F910F900FBE0F901F901895CF9362
:1055F000DF930E9468270E945A07CFE3DAE20E94F5
:105600001D072097E1F30E943F2AF9CFCF92DF9246
:10561000EF92FF920F931F93CF93DF937C016B0167
:105620008A01C0E0D0E00FC0D6016D916D01D701B5
:10563000ED91FC910190F081E02DC7010995C80F13
:10564000D91F015010400115110571F7CE01DF91EE
:10565000CF911F910F91FF90EF90DF90CF90089521
:10566000EF92FF920F931F938C01DC01ED91FC915F
:105670000190F081E02D6DE009957C01D801ED915C
:10568000FC910190F081E02DC8016AE009959C0130
:105690002E0D3F1DC9011F910F91FF90EF900895AE
:1056A000CF93DF93EC016115710519F420E030E030
:1056B0000FC0DB010D900020E9F71197A61BB70B77
:1056C000E881F9810280F381E02DAD0109959C010B
:1056D000C901DF91CF9108954F925F927F928F928F
:1056E0009F92AF92BF92CF92DF92EF92FF920F9371
:1056F0001F93DF93CF93CDB7DEB7A1970FB6F89482
:10570000DEBF0FBECDBF2C01742ECB01223008F4BA
:105710002AE019A231E2C32ED12CCC0EDD1E822E3E
:105720009924AA24BB24672D752FA50194010E94FA
:105730007F3079018A01C801B701A50194010E9457
:105740005430472D461B0894C108D1084A3014F440
:10575000405D01C0495CF6014083E114F10401059C
:10576000110521F07E2C5F2DC801DDCFC201B601ED
:105770000E94502BA1960FB6F894DEBF0FBECDBF8E
:10578000CF91DF911F910F91FF90EF90DF90CF901D
:10579000BF90AF909F908F907F905F904F900895B3
:1057A000DC012115310541F4ED91FC910190F0816E
:1057B000E02D642F099508950E946C2B0895EF92B7
:1057C000FF920F931F939A017B0100E010E0B80154
:1057D000A7010E94D02B1F910F91FF90EF90089589
:1057E000EF92FF920F931F939A01E62EFF2400E0A1
:1057F00010E0B801A7010E94D02B1F910F91FF90DC
:10580000EF900895CF92DF92EF92FF920F931F9344
:105810006C01E62E9A01FF2400E010E0B801A70118
:105820000E94D02B8C01C6010E94302B080F191F3B
:10583000C8011F910F91FF90EF90DF90CF900895D6
:10584000CF92DF92EF92FF920F931F93CF93DF934C
:10585000EC016A017B012115310541F4E881F981F0
:105860000190F081E02D642F09951FC02A30310589
:10587000D1F477FF17C0E881F9810190F081E02D24
:105880006DE209958C0144275527BA014C195D0931
:105890006E097F09CE012AE00E946C2B9801280F27
:1058A000391F04C02AE00E946C2B9C01C901DF91C2
:1058B000CF911F910F91FF90EF90DF90CF900895BF
:1058C000EF92FF920F931F937B019A010027F7FC41
:1058D0000095102FB801A7010E94202C1F910F9155
:1058E000FF90EF900895CF92DF92EF92FF920F9387
:1058F0001F936C017B019A010027F7FC0095102F84
:10590000B801A7010E94202C8C01C6010E94302BF7
:10591000080F191FC8011F910F91FF90EF90DF90A2
:10592000CF9008950E94502B0895EF92FF920F930D
:105930001F937C010E94502B8C01C7010E94302BC9
:10594000080F191FC8011F910F91FF90EF90089544
:1059500008955058BB27AA270ED04DC13ED130F034
:1059600043D120F031F49F3F11F41EF433C10EF403
:10597000E095E7FB29C1E92F4FD180F3BA17620701
:1059800073078407950718F071F49EF567C10EF44C
:10599000E0950B2EBA2FA02D0B01B90190010C013F
:1059A000CA01A0011124FF27591B99F0593F50F457
:1059B000503E68F11A16F040A22F232F342F4427AF
:1059C000585FF3CF469537952795A795F0405395A7
:1059D000C9F77EF41F16BA0B620B730B840BBAF077
:1059E0009150A1F0FF0FBB1F661F771F881FC2F7E2
:1059F0000EC0BA0F621F731F841F48F487957795F6
:105A00006795B795F7959E3F08F0B3CF9395880FAC
:105A100008F09927EE0F9795879508950CD0EBC065
:105A2000E3D040F0DAD030F021F45F3F19F0CCC081
:105A3000511115C1CFC0F0D098F39923C9F3552364
:105A4000B1F3951B550BBB27AA2762177307840771
:105A500038F09F5F5F4F220F331F441FAA1FA9F327
:105A600033D00E2E3AF0E0E830D091505040E69519
:105A7000001CCAF729D0FE2F27D0660F771F881F7A
:105A8000BB1F261737074807AB07B0E809F0BB0B69
:105A9000802DBF01FF2793585F4F2AF09E3F51058D
:105AA00068F092C0DCC05F3FECF3983EDCF3869573
:105AB00077956795B795F7959F5FC9F7880F911D03
:105AC0009695879597F90895E1E0660F771F881FEF
:105AD000BB1F621773078407BA0720F0621B730BA2
