:100000000C9463000C948B000C948B000C948B006C
:100010000C948B000C948B000C948B000C948B0034
:100020000C948B000C948B000C948B000C948B0024
:100030000C948B000C948B000C948B000C948B0014
:100040000C948B020C948B000C9422060C94A50645
:100050000C948B000C948B000C948B000C948B00F4
:100060000C948B000C948B000000000024002700EF
:100070002A0000000000250028002B0000000000DE
:1000800023002600290004040404040404040202DA
:100090000202020203030303030301020408102007
:1000A0004080010204081020010204081020000012
:1000B0000007000201000003040600000000000029
:1000C00000008D00580611241FBECFEFD8E0DEBF20
:1000D000CDBF11E0A0E0B1E0E2EDF6E102C0059095
:1000E0000D92A234B107D9F711E0A2E4B1E001C04A
:1000F0001D92AC3EB107E1F710E0C6ECD0E004C0C1
:100100002297FE010E94630BC23CD107C9F70E94EF
:10011000CB060C94670B0C94000082E491E066E03F
:1001200070E047E050E00E94E50008958F929F92B2
:10013000AF92BF92CF92DF92EF92FF920F931F93F5
:1001400002E411E0C8010E94E8016B017C01C801D2
:100150000E9418024B015C010FE411E0C80160E04D
:1001600071E00E94F307C801B701A60122E030E068
:100170000E94DA08C8016EE071E00E94F307C8012E
:10018000B501A40122E030E00E94DA081F910F912E
:10019000FF90EF90DF90CF90BF90AF909F908F90A7
:1001A00008950F931F930FE411E0C80140E051EE52
:1001B00060E070E026E00E941A05C80169E171E084
:1001C0000E94ED081F910F910895FC0171836083D7
:1001D0005383428308950F931F938C01FC01828106
:1001E00061E00E948203F801808161E00E94820345
:1001F000F801828161E00E94C103F801808161E021
:100200000E94C103F801808160E00E94C1031F9138
:100210000F910895FF920F931F938C01FC0182812F
:1002200060E00E948203F801808161E00E94820305
:10023000F8018281608141E00E94AA04F82EF80151
:10024000828161E00E948203F801828161E00E9464
:10025000C103F801828160E00E94C103F80180813E
:1002600061E00E94C103F801808160E00E94C10347
:10027000F801828160E00E948203F801828160813E
:1002800041E00E94AA045F2D40E0282F30E0242B9B
:10029000352BC9011F910F91FF9008950F931F9364
:1002A000CF93DF938C01FC01828160E00E94820386
:1002B000C0E0D0E062E070E080E090E00E941A03CD
:1002C000F80182810E941504892B29F02196F3E020
:1002D000C83EDF0779F7DF91CF911F910F91089505
:1002E000FF920F931F938C01F62EFC01828161E037
:1002F0000E948203F801808161E00E948203F8017C
:10030000828161E00E94C103F801808161E00E9466
:10031000C103F801828160E00E94C103F80180817D
:1003200060E00E94C103F801808161E00E94C10386
:10033000F801828161E00E94C103F801808160E0E0
:100340000E94C103F8018281608141E02F2D0E944B
:100350006804F801808161E00E94C103F801828194
:1003600060E00E948203F80182810E941504F80176
:10037000808160E00E94C103F80182810E9415041F
:100380001F910F91FF900895CF92DF92EF92FF920D
:100390000F931F936C0165E070E00E947001C6012D
:1003A0000E944E01C6010E940A017C01C6010E9402
:1003B000EB000027F7FC0095102FC801B7010E9441
:1003C000050A1F910F91FF90EF90DF90CF90089555
:1003D000CF92DF92EF92FF920F931F936C0163E035
:1003E00070E00E947001C6010E944E01C6010E9489
:1003F0000A017C01C6010E94EB000027F7FC009572
:10040000102FC801B7010E94050A2AE037ED43E228
:100410005CE30E94B90A20E030E040E252E40E942E
:1004200001091F910F91FF90EF90DF90CF900895F9
:100430006F927F928F929F92AF92BF92CF92DF92F4
:10044000EF92FF920F931F938C010E94E8015B01D2
:100450006C01C8010E94C4010E94D209882777FD5F
:100460008095982F0E94050A7B018C01C601B50179
:1004700020E030E048EC51E40E9401095B016C018E
:10048000C801B7012CEA35EC47EA58E30E94B90AE3
:100490002AE037ED43E25CE30E9402099B01AC01D4
:1004A000C601B5010E94B90A3B014C01C801B70160
:1004B0002DEB32E546E15DE30E94B90A25EC3EEF03
:1004C00042E050E40E9401095B016C01C801B701E0
:1004D00026EF34E246ED55EB0E94B90AA8019701D8
:1004E0000E94B90A9B01AC01C601B5010E94020934
:1004F0009B01AC01C401B3010E9402091F910F913D
:10050000FF90EF90DF90CF90BF90AF909F908F9033
:100510007F906F9008951F920F920FB60F92112443
:100520002F933F934F935F936F937F938F939F93FB
:10053000AF93BF9320914A0130914B0140914C0100
:1005400050914D0170914E01DA01C9010296A11D31
:10055000B11D672F6A5F6D3730F06D57DA01C90141
:100560000396A11DB11D60934E0180934A019093A3
:100570004B01A0934C01B0934D01809146019091A5
:100580004701A0914801B09149010196A11DB11DFB
:100590008093460190934701A0934801B09349018D
:1005A000BF91AF919F918F917F916F915F914F918B
:1005B0003F912F910F900FBE0F901F901895789438
:1005C00084B5826084BD84B5816084BD85B5826058
:1005D00085BD85B5816085BDEEE6F0E080818160F6
:1005E0008083E1E8F0E010828081826080838081F6
:1005F00081608083E0E8F0E0808181608083E1EBCE
:10060000F0E0808184608083E0EBF0E080818160B5
:100610008083EAE7F0E0808184608083808182606B
:100620008083808181608083808180688083109254
:10063000C1000895EF92FF920F931F93CF93DF9322
:100640007B018C013FB7F89480914601909147015E
:10065000A0914801B091490126B5A89B05C02F3F44
:1006600019F00196A11DB11D3FBFBA2FA92F982FD8
:100670008827820F911DA11DB11D53E0880F991F7E
:10068000AA1FBB1F5A95D1F7EC0130C00E94000988
:100690003FB7F8948091460190914701A09148019D
:1006A000B091490126B5A89B05C02F3F19F00196CE
:1006B000A11DB11D3FBFBA2FA92F982F8827820FE8
:1006C000911DA11DB11D33E0880F991FAA1FBB1FEB
:1006D0003A95D1F78C1B9D0B885E9340B8F2089435
:1006E000E108F10801091109C851DC4FE114F104D6
:1006F0000105110559F6DF91CF911F910F91FF90E0
:10070000EF900895CF93DF93482F50E0CA018656AB
:100710009F4FFC0134914A575F4FFA01849188231F
:1007200069F190E0880F991FFC01E859FF4FA591EE
:10073000B491FC01EE58FF4FC591D491662351F45A
:100740002FB7F8948C91932F909589238C9388815F
:1007500089230BC0623061F42FB7F8948C91932FEA
:10076000909589238C938881832B88832FBF06C023
:100770009FB7F8948C91832B8C939FBFDF91CF917F
:100780000895482F50E0CA0182559F4FFC012491E3
:10079000CA0186569F4FFC0194914A575F4FFA0158
:1007A0003491332309F440C0222351F1233071F0F6
:1007B000243028F42130A1F0223011F514C0263065
:1007C000B1F02730C1F02430D9F404C0809180000A
:1007D0008F7703C0809180008F7D8093800010C050
:1007E00084B58F7702C084B58F7D84BD09C08091A8
:1007F000B0008F7703C08091B0008F7D8093B000F0
:10080000E32FF0E0EE0FFF1FEE58FF4FA591B491DC
:100810002FB7F894662321F48C919095892302C018
:100820008C91892B8C932FBF0895682F70E0CB019A
:1008300082559F4FFC012491CB0186569F4FFC01AE
:1008400044916A577F4FFB019491992319F420E05A
:1008500030E03CC0222351F1233071F0243028F4E1
:100860002130A1F0223011F514C02630B1F027302C
:10087000C1F02430D9F404C0809180008F7703C088
:10088000809180008F7D8093800010C084B58F7729
:1008900002C084B58F7D84BD09C08091B0008F7780
:1008A00003C08091B0008F7D8093B000892F90E0CD
:1008B000880F991F84589F4FFC01A591B4918C918A
:1008C00020E030E0842311F021E030E0C9010895F8
:1008D000BF92CF92DF92EF92FF920F931F93CF932D
:1008E000DF93E82EF62EB42EC7E0D0E0022F10E002
:1008F00087E0C82ED12CBB2059F4B6016C1B7D0BB0
:10090000C80102C0959587956A95E2F7BC0107C0BA
:10091000B8010C2E02C0759567950A94E2F76170D4
:100920008E2D0E94C1038F2D61E00E94C1038F2D87
:1009300060E00E94C10321979FEFCF3FD907D9F60E
:10094000DF91CF911F910F91FF90EF90DF90CF90AB
:10095000BF900895CF92DF92EF92FF920F931F9373
:10096000CF93DF93F82E062FE42E10E0C7E0D0E0FF
:1009700097E0C92ED12C802F61E00E94C103EE20A8
:1009800061F48F2D0E94150496012C1B3D0B02C0B3
:10099000880F991F2A95E2F709C08F2D0E94150430
:1009A0000C2E02C0880F991F0A94E2F7182B802F93
:1009B00060E00E94C10321978FEFCF3FD807D9F69F
:1009C000812FDF91CF911F910F91FF90EF90DF90DA
:1009D000CF900895DC015C968C915C97FD01E80F47
:1009E000F11DE35AFF4F20815C968C915C9790E05B
:1009F00001968F7390705C968C935C975696ED91F0
:100A0000FC91579720835096ED91FC9151978081EE
:100A1000806480835B969C915B975C968C915C97DD
:100A2000981739F45296ED91FC91539780818F7D00
:100A300080830895DF92EF92FF920F931F93CF93DD
:100A4000DF93EC017A018B01D22E60E874E88EE12D
:100A500090E0A80197010E943F0B21503040404098
:100A600050405695479537952795E889F98982E052
:100A7000808380E12030380798F0E889F989108276
:100A800060E472E48FE090E0A80197010E943F0BC0
:100A90002150304040405040569547953795279516
:100AA000EC85FD853083EE85FF852083188EEC89EB
:100AB000FD89D082EA89FB89808180618083EA890F
:100AC000FB89808188608083EA89FB8980818068D6
:100AD0008083EA89FB8980818F7D8083DF91CF913C
:100AE0001F910F91FF90EF90DF900895FC01218DF1
:100AF000828D30E0205C3F4F281B31092F7330700E
:100B0000C9010895FC01918D828D981719F42FEF7A
:100B10003FEF06C0828DE80FF11D858D282F30E054
:100B2000C9010895DC0159969C9159975A968C9168
:100B30005A97981719F42FEF3FEF10C05A968C91DF
:100B40005A97FD01E80FF11D958D5A968C915A9791
:100B50008F5F8F735A968C93292F30E0C9010895C7
:100B6000CF93DF93EC01888D882361F419C08C91B9
:100B700085FF0AC0E889F989808185FF05C0CE011B
:100B80000E94EA04AA89BB898C9185FD05C0E88989
:100B9000F989808186FD04C00FB607FEE8CFF4CF47
:100BA000DF91CF9108950F931F93CF93DF93EC01C3
:100BB000062F9B8D8C8D981791F5E889F989808196
:100BC00085FF2DC0EE89FF896083E889F9898081DE
:100BD000806480831DC00FB607FC08C0E889F989CE
:100BE000808185FF03C0CE010E94EA048C8D181716
:100BF00091F38B8DFE01E80FF11DE35AFF4F008347
:100C00001B8FEA89FB8980818062808381E0888FE5
:100C100081E090E0DF91CF911F910F9108951B8D9E
:100C20001F5F1F73E3CF8BE996E0892B51F080E0C3
:100C300090E0892B31F00E949B06882311F00E94DE
:100C4000000008951F920F920FB60F9211242F9358
:100C50008F939F93EF93FF93E0915F01F091600179
:100C6000808182FD16C0E0916501F09166012081CE
:100C7000909168019F5F9F7380916901981771F04F
:100C8000E0916801F0E0E15BFE4F258F90936801F1
:100C900005C0E0916501F0916601E081FF91EF915F
:100CA0009F918F912F910F900FBE0F901F901895CD
:100CB000109252011092510188EE93E0A0E0B0E052
:100CC0008093530190935401A0935501B093560122
:100CD00086E391E09093500180934F0185EC90E082
:100CE00090935C0180935B0184EC90E090935E01B3
:100CF00080935D0180EC90E09093600180935F01B0
:100D000081EC90E0909362018093610182EC90E02D
:100D1000909364018093630186EC90E09093660168
:100D200080936501109268011092690110926A0126
:100D300010926B0108958FE491E00E94760520E007
:100D4000892B09F021E0822F08951F920F920FB690
:100D50000F9211242F933F934F935F936F937F9341
:100D60008F939F93AF93BF93EF93FF938FE491E0A3
:100D70000E94EA04FF91EF91BF91AF919F918F91F3
:100D80007F916F915F914F913F912F910F900FBE87
:100D90000F901F901895CF93DF930E94DF020E945F
:100DA000D100C3E1D6E00E9496002097E1F30E94B3
:100DB0001306F9CFCF92DF92EF92FF920F931F931A
:100DC000CF93DF937C016B018A01C0E0D0E00FC0BC
:100DD000D6016D916D01D701ED91FC910190F081EB
:100DE000E02DC7010995C80FD91F0150104001150A
:100DF000110571F7CE01DF91CF911F910F91FF90F7
:100E0000EF90DF90CF900895EF92FF920F931F9392
:100E10008C01DC01ED91FC910190F081E02D6DE001
:100E200009957C01D801ED91FC910190F081E02DB4
:100E3000C8016AE009959C012E0D3F1DC9011F9153
:100E40000F91FF90EF900895CF93DF93EC01611520
:100E5000710519F420E030E00FC0DB010D90002097
:100E6000E9F71197A61BB70BE881F9810280F3819E
:100E7000E02DAD0109959C01C901DF91CF91089545
:100E80004F925F927F928F929F92AF92BF92CF923A
:100E9000DF92EF92FF920F931F93DF93CF93CDB723
:100EA000DEB7A1970FB6F894DEBF0FBECDBF2C0101
:100EB000742ECB01223008F42AE019A231E2C32EAD
:100EC000D12CCC0EDD1E822E9924AA24BB24672DA2
:100ED000752FA50194010E943F0B79018A01C80179
:100EE000B701A50194010E94200B472D461B0894D1
:100EF000C108D1084A3014F4405D01C0495CF601D4
:100F00004083E114F1040105110521F07E2C5F2DD1
:100F1000C801DDCFC201B6010E942407A1960FB619
:100F2000F894DEBF0FBECDBFCF91DF911F910F911F
:100F3000FF90EF90DF90CF90BF90AF909F908F90F9
:100F40007F905F904F900895DC012115310541F4A9
:100F5000ED91FC910190F081E02D642F09950895A9
:100F60000E9440070895CF92DF92EF92FF920F9375
:100F70001F93CF93DF93EC016A017B0121153105AB
:100F800041F4E881F9810190F081E02D642F099509
:100F90001FC02A303105D1F477FF17C0E881F981ED
:100FA0000190F081E02D6DE209958C0144275527D1
:100FB000BA014C195D096E097F09CE012AE00E9431
:100FC00040079801280F391F04C02AE00E944007FB
:100FD0009C01C901DF91CF911F910F91FF90EF907C
:100FE000DF90CF9008950E94240708957F928F92FA
:100FF0009F92AF92BF92CF92DF92EF92FF920F93A8
:101000001F93CF93DF934C017A018B01722ECB019A
:10101000BA01A80197010E941C0B882321F0C4018A
:1010200064E271E021C0C0E0D0E057016801E894BB
:10103000D7F8C601B5012FEF3FEF4FE75FE70E94FA
:101040001C0B882351F4C601B5012FEF3FEF4FE78A
:101050005FE70E946609181614F0C1E0D0E02197FE
:1010600039F0C40168E271E00E942407EC0193C0EA
:10107000C801B7012FEF3FEF4FE75FE40E94B50AC9
:10108000181654F0C801B7012FEF3FEF4FE75FECA0
:101090000E946609882324F4C4016CE271E0E4CF65
:1010A000C801B70120E030E040E050E00E9466094E
:1010B00087FD03C0C0E0D0E00EC0D401ED91FC91EB
:1010C0000190F081E02DC4016DE20995EC0117FB60
:1010D000109517F9109520E030E040E05FE3DD2443
:1010E0000BC0CA01B90120E030E040E251E40E94A7
:1010F0006A099B01AC01D394D71498F3C801B701D6
:101100000E9402095B016C010E94D7097B018C01DE
:10111000C401B801A7012AE030E00E94A407C80F6B
:10112000D91F772039F0C40160E371E00E942407E1
:10113000C80FD91FC801B7010E94030A9B01AC0167
:10114000C601B5010E94010924C020E030E040E260
:1011500051E40E94B90A7B018C010E94D2095B0113
:101160006C01CC24B7FCC094DC2CC401B601A501F1
:101170002AE030E00E94B307C80FD91FC601B501AD
:101180000E94050A9B01AC01C801B7010E94010938
:101190007A947720D1F6CE01DF91CF911F910F91F4
:1011A000FF90EF90DF90CF90BF90AF909F908F9087
:1011B0007F900895EF92FF920F931F937C010E94FE
:1011C000F6078C01C7010E940407080F191FC80108
:1011D0001F910F91FF90EF900895EF92FF920F9360
:1011E0001F937C010E9424078C01C7010E94040701
:1011F000080F191FC8011F910F91FF90EF900895DC
:1012000008955058BB27AA270ED075C166D130F07B
:101210006BD120F031F49F3F11F41EF45BC10EF44A
:10122000E095E7FB51C1E92F77D180F3BA17620748
:1012300073078407950718F071F49EF58FC10EF4BB
:10124000E0950B2EBA2FA02D0B01B90190010C01D6
:10125000CA01A0011124FF27591B99F0593F50F4EE
:10126000503E68F11A16F040A22F232F342F442746
:10127000585FF3CF469537952795A795F04053953E
:10128000C9F77EF41F16BA0B620B730B840BBAF00E
:101290009150A1F0FF0FBB1F661F771F881FC2F779
:1012A0000EC0BA0F621F731F841F48F4879577958D
:1012B0006795B795F7959E3F08F0B3CF9395880F44
:1012C00008F09927EE0F979587950895D9D008F4DF
:1012D00081E008950CD00FC107D140F0FED030F06E
:1012E00021F45F3F19F0F0C0511139C1F3C014D19E
:1012F00098F39923C9F35523B1F3951B550BBB27DD
:10130000AA2762177307840738F09F5F5F4F220F89
:10131000331F441FAA1FA9F333D00E2E3AF0E0E882
:1013200030D091505040E695001CCAF729D0FE2FCE
:1013300027D0660F771F881FBB1F26173707480760
:10134000AB07B0E809F0BB0B802DBF01FF27935816
:101350005F4F2AF09E3F510568F0B6C000C15F3F65
:10136000ECF3983EDCF3869577956795B795F795FE
:101370009F5FC9F7880F911D9695879597F90895F6
:10138000E1E0660F771F881FBB1F62177307840792
:10139000BA0720F0621B730B840BBA0BEE1F88F7A1
:1013A000E095089504D06894B111D9C00895BCD0D7
:1013B00088F09F5790F0B92F9927B751A0F0D1F03E
:1013C000660F771F881F991F1AF0BA95C9F712C0C8
:1013D000B13081F0C3D0B1E00895C0C0672F782F3D
:1013E0008827B85F39F0B93FCCF386957795679534
:1013F000B395D9F73EF490958095709561957F4FA0
:101400008F4F9F4F0895E89409C097FB3EF4909545
:101410008095709561957F4F8F4F9F4F9923A9F0CD
:10142000F92F96E9BB279395F6958795779567955C
:10143000B795F111F8CFFAF4BB0F11F460FF1BC0A0
:101440006F5F7F4F8F4F9F4F16C0882311F096E933
:1014500011C0772321F09EE8872F762F05C06623E1
:1014600071F096E8862F70E060E02AF09A95660F9A
:10147000771F881FDAF7880F9695879597F9089553
:10148000990F0008550FAA0BE0E8FEEF1616170695
:10149000E807F907C0F012161306E407F50798F0FD
:1014A000621B730B840B950B39F40A2661F0232B16
:1014B000242B252B21F408950A2609F4A140A69592
:1014C0008FEF811D811D089597F99F6780E870E077
:1014D00060E008959FEF80EC089500240A941616AA
:1014E000170618060906089500240A941216130612
:1014F000140605060895092E0394000C11F48823A0
:1015000052F0BB0F40F4BF2B11F460FF04C06F5FBB
:101510007F4F8F4F9F4F089557FD9058440F551F91
:1015200059F05F3F71F04795880F97FB991F61F065
:101530009F3F79F087950895121613061406551FDC
:10154000F2CF4695F1DF08C0161617061806991F48
:10155000F1CF86957105610508940895E894BB273D
:1015600066277727CB0197F908958ADF08F48FEF74
:1015700008950BD0C0CFB1DF28F0B6DF18F0952367
:1015800009F0A2CFA7CF1124EACFC6DFA0F3959F21
:10159000D1F3950F50E0551F629FF001729FBB275A
:1015A000F00DB11D639FAA27F00DB11DAA1F649F06
:1015B0006627B00DA11D661F829F2227B00DA11DB9
:1015C000621F739FB00DA11D621F839FA00D611D3F
:1015D000221F749F3327A00D611D231F849F600D60
:1015E000211D822F762F6A2F11249F5750408AF099
:1015F000E1F088234AF0EE0FFF1FBB1F661F771F25
:10160000881F91505040A9F79E3F510570F05CCF64
:10161000A6CF5F3FECF3983EDCF386957795679510
:10162000B795F795E7959F5FC1F7FE2B880F911D42
:101630009695879597F9089523DF880B990B089560
:10164000629FD001739FF001829FE00DF11D649FA6
:10165000E00DF11D929FF00D839FF00D749FF00D32
:10166000659FF00D9927729FB00DE11DF91F639FD3
:10167000B00DE11DF91FBD01CF0111240895A1E2B4
:101680001A2EAA1BBB1BFD010DC0AA1FBB1FEE1FFC
:10169000FF1FA217B307E407F50720F0A21BB30B47
:1016A000E40BF50B661F771F881F991F1A9469F7C3
:1016B00060957095809590959B01AC01BD01CF011F
:1016C0000895EE0FFF1F0590F491E02D0994F89412
:0216D000FFCF4A
:1016D20054656D70657261747572653A2000487563
:1016E2006D69646974793A20005348543135205445
:1016F200657374006E616E00696E66006F766600D7
:101702002E0000000000D305DA0676059205820558
:02171200B00520
:00000001FF
