:100000000C9436010C94612F0C948E2F0C945E018D
:100010000C945E010C945E010C945E010C945E01E4
:100020000C945E010C945E010C945E010C945E01D4
:100030000C945E010C945E010C945E010C945E01C4
:100040000C94BB2F0C945E010C94C4340C94473573
:100050000C945E010C945E010C945E010C945E01A4
:100060000C94A41B0C945E0107634236B79BD8A77F
:100070001A39685618AEBAAB558C1D3CB7CC5763CD
:10008000BD6DEDFD753EF6177231BF000000803F7B
:1000900008000000BE922449123EABAAAA2ABECD97
:1000A000CCCC4C3E00000080BEABAAAAAA3E000009
:1000B0000000BF000000803F000000000008417801
:1000C000D3BB4387D1133D190E3CC3BD4282AD2B38
:1000D0003E68EC8276BED98FE1A93E4C80EFFFBE30
:1000E00001C4FF7F3F00000000007C3C3E5E2B3DD2
:1000F0003F2F5B5D3B2C2A225C00005EBCE2613F2F
:10010000DD83C29C7E20A3FD1F419DC3217FFCA2F5
:10011000401E5F01E3BD3E6082DC237D9FC1421C27
:10012000FEA0E1BF5D0380DE3C62BEE0025CDF81D9
:10013000633D7C22C09E1D43A1FF4618FAA4277987
:100140009BC584DA3866E5BB5907DB856739BAE4B5
:1001500006581947A5FB7826C49A653BD987045AE7
:10016000B8E6A7F91B45C6987A24F8A6441A99C799
:10017000257B3A6486D85B05E7B98CD2306EEDB347
:10018000510F4E10F2AC2F7193CD114FADF3702E75
:10019000CC92D38D6F31B2EC0E50AFF1134DCE90A7
:1001A000722C6D33D18F0C52B0EE326C8ED0530D59
:1001B000EFB1F0AE4C1291CF2D73CA947628ABF507
:1001C00017490856B4EA6937D58B5709EBB5366835
:1001D0008AD495CB2977F4AA4816E9B7550B88D667
:1001E000346A2B7597C94A14F6A8742AC896154B19
:1001F000A9F7B6E80A54D7896B351F1C1F1E1F1EAE
:100200001F1F1E1F1E1F00000000240027002A00C1
:1002100000000000250028002B0000000000230043
:100220002600290004040404040404040202020257
:1002300002020303030303030102040810204080A9
:100240000102040810200102040810200000000729
:10025000000201000003040600000000000000008E
:10026000D5010107E3193C1AFA34CE0111241FBE4F
:10027000CFEFD8E0DEBFCDBF11E0A0E0B1E0ECEF02
:10028000F5E702C005900D92A839B107D9F715E03E
:10029000A8E9B1E001C01D92AD3EB107E1F712E05F
:1002A000CAE6D2E004C02297FE010E94ED3AC036B1
:1002B000D107C9F70E946D350C94F13A0C940000F7
:1002C000FB01DC0104C08D910190801921F44150A3
:1002D0005040C8F7881B990B0895FC01819186173F
:1002E00021F08823D9F7992708953197CF010895F0
:1002F000FB01DC014150504048F001900D9200207C
:10030000C9F701C01D9241505040E0F7089508958B
:1003100081309105C9F56F5F7F4F09F03EC088E9D4
:1003200091E069E00E943D1F86EA91E068E971E092
:100330000E94731F89EB91E064E40E94A6298AEB76
:1003400091E063E046E123E00E94472688EC91E0DB
:100350000E94F52489EC91E067E070E046E050E00F
:100360000E944F238DEC91E069E32FEF3FEF4FEFB9
:100370005FEF0E94592B8BED91E00E94A22283EE49
:1003800091E00E94E7050895892B39F46F5F7F4F54
:1003900021F483EE91E00E94FA05089580E090E058
:1003A0006FEF7FEF0E948801089581E090E06FEF8A
:1003B0007FEF0E9488010895DF93CF93CDB7DEB71A
:1003C0002E970FB6F894DEBF0FBECDBF0E94212836
:1003D000288739874A875B876C877D878E87DE0110
:1003E0001196FE01389687E001900D928150E1F759
:1003F000CE0101960E947127AB01BC0183EE91E012
:100400002AE030E00E94953683EE91E060E071E0F2
:100410000E94E8366091FE017091FF0183EE91E049
:100420004AE050E00E94553683EE91E060E071E0D2
:100430000E94E836609100027091010283EE91E023
:100440004AE050E00E94553683EE91E060E071E0B2
:100450000E94E836609102027091030283EE91E0FF
:100460004AE050E00E94553683EE91E060E071E092
:100470000E94E836609104027091050283EE91E0DB
:100480004AE050E00E94553683EE91E060E071E072
:100490000E94E836609106027091070283EE91E0B7
:1004A0004AE050E00E94553683EE91E060E071E052
:1004B0000E94E836609108027091090283EE91E093
:1004C0004AE050E00E94553683EE91E060E071E032
:1004D0000E94E83660910A0270910B0283EE91E06F
:1004E0004AE050E00E94553683EE91E060E071E012
:1004F0000E94E83660910C0270910D0283EE91E04B
:100500004AE050E00E94553683EE91E060E071E0F1
:100510000E94E83660910E0270910F0283EE91E026
:100520004AE050E00E94553683EE91E060E071E0D1
:100530000E94E836609110027091110283EE91E002
:100540004AE050E00E94553683EE91E060E071E0B1
:100550000E94E836609112027091130283EE91E0DE
:100560004AE050E00E94553683EE91E060E071E091
:100570000E94E836609114027091150283EE91E0BA
:100580004AE050E00E94553683EE91E060E071E071
:100590000E94E836609116027091170283EE91E096
:1005A0004AE050E00E94D53683EE91E00E94A635E5
:1005B00083EE91E00E9449066CE271E080E090E0F9
:1005C0000E9462302E960FB6F894DEBF0FBECDBFEC
:1005D000CF91DF91089584E061E00E942E3108956B
:1005E00084E060E00E942E31089585E061E00E9481
:1005F0002E3160ED77E080E090E00E946230089557
:1006000085E060E00E942E3108950F931F935A9A5F
:10061000529883B7817F846083BF0DED11E0C801DC
:100620000E94762983B7816083BF80E067E871E02C
:1006300040E050E00E942B2FC80162E00E94ED27AD
:1006400083B7816083BF889583B78E7F83BF1F91F7
:100650000F9108950E9400030E94F0020E9405037A
:10066000089580E00E944E2F83B78E7F83BF089548
:100670000E9431030E94F5020E94EB0208950F933D
:100680001F93DF93CF93CDB7DEB727970FB6F894BC
:10069000DEBF0FBECDBF29833A834B835C83162F09
:1006A0006D837E838F83072F8CE495E0652F4AE06E
:1006B00050E00E9483368CE495E062E071E00E9495
:1006C000E8368CE495E0612F4AE050E00E948336E2
:1006D0008CE495E062E071E00E94E8360A3030F484
:1006E0008CE495E064E071E00E94E8368CE495E0EB
:1006F000602F4AE050E00E94833627960FB6F894A8
:10070000DEBF0FBECDBFCF91DF911F910F91089536
:10071000DF93CF93CDB7DEB72E970FB6F894DEBF39
:100720000FBECDBF0E942128288739874A875B8763
:100730006C877D878E87DE011196FE01389687E0F3
:1007400001900D928150E1F729813A814B815C81C2
:100750006D817E818F810E943F038CE495E066E08D
:1007600071E00E94E83660911602709117028CE4E5
:1007700095E04AE050E00E94D5368CE495E062E1D5
:1007800071E00E94E83660910402709105028CE4E9
:1007900095E04AE050E00E9466366CE271E080E04D
:1007A00090E00E9462302E960FB6F894DEBF0FBE26
:1007B000CDBFCF91DF910895EF92FF920F931F93DA
:1007C0007B018C01CA010197049728F061E070E079
:1007D00080E090E015C0BA01882777FD8095982FBA
:1007E0000E94FF379B01AC0160E070E080E291E481
:1007F0000E94EE389B01AC01CA01B9010E94CC37BE
:100800000E94FF379B01AC01C801B7010E948B38E1
:100810000E94CC37CB011F910F91FF90EF9008956C
:100820000F931F9301EE11E0C8010E941C2FC80115
:100830000E94062F80931602109217021F910F91AB
:100840000895DF93CF93CDB7DEB7A4970FB6F89492
:10085000DEBF0FBECDBF8DEC91E0BE016F5F7F4F5D
:100860000E948C2E6D897E898F89988D0E94D13748
:1008700070930D0260930C028BED91E00E94B922FF
:1008800090930F0280930E0282E00E94CD309093ED
:10089000110280931002A4960FB6F894DEBF0FBE2B
:1008A000CDBFCF91DF910895AF92BF92CF92DF92EB
:1008B000EF92FF920F931F938AEB91E00E941A2709
:1008C00042E050E00E94DC0390930702809306020E
:1008D00088ECC82E81E0D82EC6010E94F6247B0148
:1008E0008C01C6010E949C255B016C0160E070E0F8
:1008F00088EC91E4A80197010E94FF362AE939E9C2
:1009000049E15EEB0E948B389B01AC01C601B50149
:100910000E94003742E050E00E94DC0390930902FD
:100920008093080289EC91E00E94822442E050E02A
:100930000E94DC0390930B0280930A021F910F9197
:10094000FF90EF90DF90CF90BF90AF9008950F93FE
:100950001F9306EA11E0C8010E943821C80160E037
:100960000E94122242E050E00E94DC039093FF01BB
:100970008093FE01C80160E00E94122242E050E034
:100980000E94DC03909301028093000289EB91E0C6
:100990000E94142A42E050E00E94DC03909303027C
:1009A000809302020DED11E0C8010E946129C80187
:1009B0000E94002942E050E00E94DC03909305026F
:1009C000809304021F910F9108950E94A7040E9432
:1009D00054040E9421040E9410040E9488030E9473
:1009E000DC010E9488030E942A030E9431030E94B6
:1009F00021280E943803089585E061E00E94EF30CD
:100A00000E94F50208950F93DF93CF93CDB7DEB721
:100A10006B970FB6F894DEBF0FBECDBF8AE061E0E2
:100A20000E94EF300CC08CE495E069E171E00E9417
:100A3000EB3668EE73E080E090E00E94623088E17F
:100A400092E06AE04FEF2FEF0FEF0E9466098823D4
:100A500051F3CE01019668E172E04EE451E026E1E7
:100A60000E9441088B819C819093E6018093E5016F
:100A70008D819E81AF81B8858093E7019093E801D5
:100A8000A093E901B093EA0189859A85AB85BC857D
:100A90008093EB019093EC01A093ED01B093EE01F4
:100AA000AFEEB1E0FE013D968DE001900D928150D8
:100AB000E1F78A8D9B8D9093FD018093FC01CE011F
:100AC00001960E94FA0583EE91E00E943C0688237D
:100AD00039F48CE495E064E271E00E94EB36FFCFDC
:100AE0006B960FB6F894DEBF0FBECDBFCF91DF91EE
:100AF0000F9108950F931F938DEC91E00E94AD2DFF
:100B00000BED11E0C8010E943923C8016CE50E9479
:100B10002023C80160E10E940D231F910F910895C9
:100B20008AEB91E00E944E2688EC91E00E944226DA
:100B3000089586EA91E00E94392289EB91E060E015
:100B40000E942D2B8DED91E00E94852908958CE463
:100B500095E040E051EE60E070E026E00E94BC339A
:100B600085EC94E00E94E01A0E94FC040E940305B8
:100B70000E9499050E9490050E947A0508952CB55F
:100B8000382F33702C7F322B3CBD2DB590E09595DE
:100B900087959595879581702E7F822B8DBD0895C1
:100BA0008AE061E00E942E318AE061E00E94EF302D
:100BB0008CB580618CBD8CB580648CBD8DE061E0AE
:100BC0000E94EF308BE061E00E94EF300895FC015D
:100BD0001382128288EE93E0A0E0B0E084839583D4
:100BE000A683B7838AE591E091838083128E118E6C
:100BF00014860895FC018AE591E09183808308952D
:100C0000DF93CF930F92CDB7DEB7FC016983A0814C
:100C1000B18112962D913C911397BE016F5F7F4F6A
:100C200041E050E0F90109950F90CF91DF910895CF
:100C3000DC015996ED91FC915A97309719F420E018
:100C400030E018C023893489458956898285938587
:100C5000A485B585281B390B4A0B5B0B2030B0E807
:100C60003B07B0E04B07B0E05B0720F02FEF3FE71A
:100C700040E050E0C9010895DC015996ED91FC91E6
:100C80005A97309711F480E008958581811181E0B1
:100C90000895FC01818D928D009711F00E94840EC1
:100CA0000895DF93CF930F92CDB7DEB7FC01818D0E
:100CB000928D009749F0BE016F5F7F4F41E050E099
:100CC0000E94A50F019719F02FEF3FEF03C0898114
:100CD000282F30E0C9010F90CF91DF910895EF9256
:100CE000FF920F931F93DF93CF930F92CDB7DEB791
:100CF0007C01DC0159968D919C915A97009719F4CB
:100D000000E010E01FC0BE016F5F7F4F41E050E088
:100D10000E94A50F019719F00FEF1FEF13C08981F3
:100D2000082F10E0D7015996ED91FC915A97428512
:100D30005385648575854150504060407040CF01B7
:100D40000E94BE0DC8010F90CF91DF911F910F91AE
:100D5000FF90EF900895CF93DF93EC01E98DFA8D2A
:100D6000309761F013821282CF010E94EA119C0138
:100D7000E98DFA8D82819381892B31F081E090E0B9
:100D80009B838A8320E030E0C901DF91CF910895F1
:100D9000EF92FF920F931F93CF93DF93EC01F62E08
:100DA000E72E8A011B821A8288EE93E0A0E0B0E071
:100DB0008C839D83AE83BF838AE591E0998388838A
:100DC0008DE190E00E9457329A8F898F009791F0C1
:100DD000DC018F2D9E2D9C01F9018DE101900D927A
:100DE0008150E1F7CE010C96B8014CE050E00E9432
:100DF0007801188EDF91CF911F910F91FF90EF90A6
:100E0000089510921D0210921E021092210210925B
:100E1000230282E090E0A0E0B0E08093250290936E
:100E20002602A0932702B093280210923C0210924F
:100E30004602109245028AE691E090934402809324
:100E400043021092480208952F923F924F925F9270
:100E50006F927F928F929F92AF92BF92CF92DF92CA
:100E6000EF92FF920F931F93DF93CF93CDB7DEB72F
:100E7000C754D0400FB6F894DEBF0FBECDBF582E7A
:100E8000492EFB013A01190185A596A5998B888BFE
:100E90002AE631E03F872E8787A58A8B80A98B8B36
:100EA00081A992A9A3A9B4A98C8B9D8BAE8BBF8B72
:100EB00085A996A9A7A9B0AD888F998FAA8FBB8F56
:100EC00081AD92ADA3ADB4AD8C8F9D8FAE8FBF8F32
:100ED00085AD88A3FE9681919191A191B19189A34D
:100EE0009AA3ABA3BCA381919191A191B1918DA340
:100EF0009EA3AFA3B8A7808191819AA789A71EA6B8
:100F00001DA63CA72BA718AA7A018E01025F1F4FCE
:100F10003BE2A32EB12CAC0EBD1E4E010894811CE9
:100F2000911C35C0D7018C918F3221F40894E11CBB
:100F3000F11C2DC0422F4E194D3008F04CE0C42E4C
:100F4000DD24C401B701A6010E947801F401EC0D73
:100F5000FD1D1082C5010E94CE0EC501B801A4017D
:100F600021E00E941714882351F4E52DF42D1382FB
:100F700012828AE691E091838083158266C0EC0C30
:100F8000FD1CC8010E94CE0EC50158018C01C7018D
:100F90006FE270E00E946D019C01009719F6E6185F
:100FA000F708F101F182E082E52DF42DD8011296C7
:100FB0008D919C911397938382838AE691E091832C
:100FC000808314968C911497848315968C91159731
:100FD000858316962D913D914D915C9119972683AD
:100FE0003783408751871A962D913D914D915C91A1
:100FF0001D9722873387448755871E962D913D91F3
:101000004D915C91519726873787408B518B529633
:101010008C915297828B53962D913D914D915C917D
:101020005697238B348B458B568B57962D913D913C
:101030004D915C915A97278B308F418F528F5B96E1
:101040008D919C915C97948F838F852D942DC95B96
:10105000DF4F0FB6F894DEBF0FBECDBFCF91DF914B
:101060001F910F91FF90EF90DF90CF90BF90AF90C6
:101070009F908F907F906F905F904F903F902F90B8
:1010800008959F92AF92BF92CF92DF92EF92FF921C
:101090000F931F93DF93CF93CDB7DEB7C657D040E2
:1010A0000FB6F894DEBF0FBECDBFC82E992E8A01B1
:1010B000D22E43E0A42EB12CAC0EBD1EC501A8015A
:1010C0009E012F5F3F4F0E942407E980FA80E00EC7
:1010D000F11EF70180814AE651E02885882309F056
:1010E0003FC08D819E819BA38AA359A348A38F8172
:1010F0008CA32DA389859A85AB85BC858EA39FA3E0
:10110000A8A7B9A78D859E85AF85B8898AA79BA713
:10111000ACA7BDA789899A89AB89BC898EA79FA7EF
:10112000A8ABB9AB8D898AAB8E899F89A88DB98D03
:101130008BAB9CABADABBEAB8A8D9B8DAC8DBD8DAF
:101140008FAB98AFA9AFBAAF8E8D9F8D9CAF8BAF91
:101150008C2D992DBE01605E7F4F4FE251E09FC004
:10116000FE01FF96118210825EAF4DAFFE01EE5B75
:10117000FF4F10822223A9F02250CE01CD962230BB
:1011800048F463E472E0A7012D2D0E941714882310
:1011900081F407C0B501A7012D2D0E9417148823E3
:1011A00029F48C2D992D0E94E7057BC0C5010E9472
:1011B000CE0EF6E0DF2259F0FE01E05BFF4F4081EA
:1011C000518162817381CE01CD960E94BE0D9E0138
:1011D000265A3F4FFE01FF9680819181F90193834A
:1011E00082838AE691E091838083FE01EF5BFF4F6B
:1011F0008081F9018483FE01EE5BFF4F8081F9015C
:101200008583FE01ED5BFF4F80819181A281B381D7
:10121000F90186839783A087B187FE01E95BFF4FC1
:1012200080819181A281B381F90182879387A4870C
:10123000B587FE01E55BFF4F80819181A281B3817B
:10124000F90186879787A08BB18BFE01E15BFF4F89
:101250008081F901828BFE01E05BFF4F80819181EB
:10126000A281B381F901838B948BA58BB68BFE0190
:10127000EC5AFF4F80819181A281B381F901878B64
:10128000908FA18FB28FFE01E85AFF4F808191812C
:10129000F901948F838F8C2D992DB901A7010E949C
:1012A000C8068C2D992DCA58DF4F0FB6F894DEBFB3
:1012B0000FBECDBFCF91DF911F910F91FF90EF90A7
:1012C000DF90CF90BF90AF909F900895EF920F93D3
:1012D0001F93CF93DF93EC01362F542F722FE02E04
:1012E00061E0432F252F072F0E94590C8823D1F04E
:1012F0008E01035F1F4FC801BE0141E00E94B81577
:10130000882339F4C801BE0140E00E94B815882343
:1013100049F0CE018B96B8010E940411882319F080
:1013200081E001C080E0DF91CF911F910F91EF909C
:101330000895382F809162028F3F31F43EBD0DB485
:1013400007FEFDCF8EB50895F894A0916302B09189
:10135000640250916502252F2095E0916602F0917C
:10136000670240916802642F609590E08C9182231F
:101370008C9337FF03C08081842B02C08081862339
:1013800080838C91852B8C939F5F983011F0330F65
:10139000EDCF00000000000000008C9128232C936A
:1013A00078940895809162028F3F31F48EBD0DB420
:1013B00007FEFDCF2EB530C0F894E0916602F091A3
:1013C0006702808190916802892B8083E09163029B
:1013D000F091640260916502A0916902B0916A0285
:1013E00080916B02482F50E0762F709520E030E01E
:1013F0008081862B8083220F8C9190E0842395231B
:10140000892B09F021608081872380830000000000
:101410003F5F383069F77894822F08950F931F93B8
:10142000CF93DF938B010E940F30EB010E94D20912
:101430008F3F11F481E008C00E940F306C1B7D0BC0
:101440006017710798F380E0DF91CF911F910F91A2
:101450000895FC01673020F086E1858380E00895DF
:101460006330B9F0643028F4613069F0623070F4B0
:1014700007C06530A1F0653078F06630A9F412C07D
:1014800084E090E011C080E090E00EC085E090E044
:101490000BC081E090E008C086E090E005C082E0EB
:1014A00090E002C083E090E00E94BF0581E00895D3
:1014B000FC01848160E00E942E310895FC0184814A
:1014C00061E00E942E310895CF92DF92EF92FF9259
:1014D0000F931F93CF93DF937C016A01FC018485F6
:1014E000882319F40FEF1FEF30C000E010E040E058
:1014F00050E0212F332727FD3A95F601E40FF51F21
:10150000808190E0282739273070C901F4E0959553
:101510008795FA95E1F782279327102F0027082750
:1015200019279C01322F22273295307F022713275B
:1015300025E0880F991F2A95E1F7082719274F5FA3
:101540005F4FF2E040305F07A1F6862F0E949909B5
:10155000C0E0D0E0F601EC0FFD1F80810E949909E8
:10156000219682E0C030D807A9F7812F992787FDFF
:101570009A950E949909802F0E9499090E94D20988
:10158000F70182878F71853011F481E007C081E116
:10159000F7018583C7010E945E0A80E0DF91CF9149
:1015A0001F910F91FF90EF90DF90CF9008950F93D0
:1015B0001F93CF93DF93EC010E940F308B0109C082
:1015C0000E940F30601B710B6D52714010F08FE064
:1015D0000AC00E94D2098A878F3F91F38E3F11F48F
:1015E00081E006C08DE08D83CE010E945E0A80E01E
:1015F000DF91CF911F910F910895CF93DF93EC016D
:101600008E81882319F40FC00E94D2098F8198859A
:10161000019698878F83019782509240A8F3CE015C
:101620000E945E0A1E82DF91CF910895DF92EF92B1
:10163000FF920F931F93CF93DF93EC01D62E790186
:101640008A010E94FD0ACE010E94580ACE016CE276
:1016500071E00E940E0A8D2D80640E949909812FED
:101660009927AA27BB270E949909C801AA27BB2747
:101670000E949909BB27A12F902F8F2D0E949909B5
:101680008E2D0E949909DD2011F485E906C088E0BD
:10169000D81611F487E801C08FEF0E94990910E075
:1016A0000E94D2098A8787FF02C01150C9F7DF91D3
:1016B000CF911F910F91FF90EF90DF900895CF92FF
:1016C000DF92EF92FF920F931F93CF93DF93EC0182
:1016D0007A018B016901411551056105710511F40C
:1016E00082E133C08B85833039F039E0EE0CFF1C8A
:1016F000001F111F3A95D1F7CE0168E1A8019701AB
:101700000E94160B882311F084E01FC0CE016EEFFB
:10171000A6010E94640A8823C9F0CE0168E572E040
:101720000E940E0A882311F485E10FC0CE016DE0FE
:1017300020E030E040E050E00E94160B882321F4C6
:101740000E94D209882379F084E18D83CE010E9422
:101750005E0A80E0DF91CF911F910F91FF90EF9093
:10176000DF90CF900895CE010E945E0A81E0F2CF13
:101770006F927F928F929F92AF92BF92CF92DF92A1
:10178000EF92FF920F931F93CF93DF93EC015A01D7
:101790006B01390148010115110509F46AC0C8013E
:1017A000820F931F8150924008F05EC08E81882383
:1017B00071F088819981AA81BB81481759076A070E
:1017C0007B0729F48F8198856816790650F5A882E1
:1017D000B982CA82DB828B85833039F0E9E0AA0CBA
:1017E000BB1CCC1CDD1CEA95D1F7CE0161E1A60142
:1017F00095010E94160B882319F083E08D8334C075
:10180000CE010E94D70A882379F118861F8281E0D1
:101810008E8307C00E94D2098F8198850196988790
:101820008F838F81988586159705A0F300E010E0DF
:1018300008C00E94D209F701E00FF11F80830F5FFB
:101840001F4F08151905A8F32F813885280D391D5C
:1018500038872F838985882319F02050324048F03B
:10186000CE010E94FD0A05C0CE010E945E0A80E002
:1018700001C081E0DF91CF911F910F91FF90EF9018
:10188000DF90CF90BF90AF909F908F907F906F90A0
:101890000895EF92FF920F931F93790120E030E0BB
:1018A00000E012E00E94B80B1F910F91FF90EF90A3
:1018B0000895BF92CF92DF92EF92FF920F931F9302
:1018C000CF93DF93EC01B62E1E2D1B8619861E8248
:1018D0001D821C864C8320936C0200936D02E09263
:1018E00062020E940F306B018C8161E00E94EF3038
:1018F000CE010E945E0A1F3F09F462C080916D0212
:1019000060E00E94EF3080916C0261E00E94EF3055
:101910008091620261E00E94EF30E09162022E2F1E
:10192000332727FD3095F901EC5DFD4FE491F0E0A0
:10193000EE0FFF1FE05FFD4F85919491909364023D
:1019400080936302285C3D4FF90184918093650286
:10195000E0916C022E2F332727FD3095F901EC5DC5
:10196000FD4FE491F0E0EE0FFF1FE05FFD4F85912A
:1019700094919093670280936602285C3D4FF90131
:10198000849180936802E0916D022E2F332727FD0A
:101990003095F901EC5DFD4FE491F0E0EE0FFF1F93
:1019A000E65EFD4F8591949190936A02809369025F
:1019B000285C3D4FF901849180936B0210E006C0D2
:1019C0000E94D00583E00E94BF05F8CF8FEF0E94F0
:1019D00099091F5F1A30D1F7CE010E94580A09C039
:1019E0000E940F306C197D09615D774010F081E035
:1019F0005AC0CE0160E020E030E040E050E00E94BC
:101A0000160B182F8A87813059F7CE0168E02AEA31
:101A100031E040E050E00E94160B82FF02C01B87BD
:101A20000DC010E00E94D2098A871F5F1430D1F7E1
:101A30008A3A11F082E037C082E08B878B85823052
:101A400021F0EE24FF2487010FC0E12CF12C012DA1
:101A5000F0E41F2F09C00E940F306C197D09615DF1
:101A6000774010F088E01FC0CE0167E320E030E04F
:101A700040E050E00E94160BCE0169E2A8019701F8
:101A80000E94160B8A87882331F78B858230F1F408
:101A9000CE016AE320E030E040E050E00E94160B07
:101AA000882339F086E08D83CE010E945E0A80E0B3
:101AB0001AC00E94D209807C803C11F483E08B879D
:101AC0000E94D2090E94D2090E94D209CE010E942E
:101AD0005E0A809162028F3F11F081E004C0CE0166
:101AE0006B2D0E94290ADF91CF911F910F91FF90DA
:101AF000EF90DF90CF90BF900895CF93DF93EC01EC
:101B0000DB0180E090E020E2FD01E80FF91F208377
:101B100001968B309105C1F757E040E021C02E328D
:101B200019F08AEE90E007C05A3019F15AE048E007
:101B300017C03217F1F0FC01019634913323C9F735
:101B40005417B8F02132A8F02F3798F4822F81561D
:101B50008A3108F42052FD01E40FF11D20834F5F0C
:101B600029912223E1F690E08C91803219F091E0E6
:101B700001C090E0892FDF91CF9108956F927F92FD
:101B80008F929F92AF92BF92CF92DF92EF92FF928D
:101B90000F931F93CF93DF93EC017A018B012D817B
:101BA000222309F480C08B899C89AD89BE89841762
:101BB0009507A607B70708F476C085C0E114F104BD
:101BC0000105110549F41E821F82188619861A869E
:101BD0001B861C861D8665C02A853B854C855D85D8
:101BE000EB8DFC8D858590E009962150304040407A
:101BF000504039014A01082E04C096948794779486
:101C000067940A94D2F72F5F3F4F4F4F5F4F08946E
:101C1000E108F108010911095701680104C0D694CF
:101C2000C794B794A7948A95D2F70894E11CF11C45
:101C3000011D111DA614B704C804D90428F02115EC
:101C400031054105510549F48F89988DA98DBA8DCB
:101C50008E839F83A887B98716C0A618B708C808BF
:101C6000D90811C04E815F81688579858B8D9C8DE7
:101C700094010E9499170894A108B108C108D108DD
:101C8000882331F410C086E0882E912C8C0E9D1E86
:101C9000A114B104C104D10429F7EA86FB860C879C
:101CA0001D8781E001C080E0DF91CF911F910F91EE
:101CB000FF90EF90DF90CF90BF90AF909F908F906C
:101CC0007F906F900895223009F078CFE6CFCF93C0
:101CD000DF93EC01462F6E857F85888999890E9464
:101CE0007D15882319F420E030E00AC08A89282F66
:101CF00030E095E0220F331F9A95E1F720593D4FD0
:101D0000C901DF91CF9108950F931F93CF93DF9374
:101D10008C01FC0185818823D9F1848187FF35C03E
:101D2000C80161E00E94670EEC01009789F1F8019B
:101D30008581823040F483899489A589B6898C8F06
:101D40009D8FAE8FBF8FF8018789908D9B8F8A8F73
:101D50008789908DA18DB28DCD01AA27BB279D8B40
:101D60008C8BE0916E02F0916F02309751F0BE01C2
:101D70006A5E7F4FCE0148960995888D998D9B8B21
:101D80008A8BF80184818F7784830E941E1501C09D
:101D900080E0DF91CF911F910F910895CF93DF9352
:101DA000EC010E94840E882311F01D8281E0DF91F6
:101DB000CF9108956F927F928F929F92AF92BF9230
:101DC000CF92DF92EF92FF920F931F93DF93CF9307
:101DD00000D000D0CDB7DEB77C015A016B01DC0129
:101DE00015968C911597813009F08FC014968C91BF
:101DF00081FF8BC09EC00097A105B10511F481E061
:101E000085C0F7016284738484849584C701B60118
:101E1000A5010E94BE0D882309F477C0D7015B9607
:101E20008D919C915C97A114B104C104D10489F4F3
:101E300057964D915D916D917C915A970E940C1827
:101E4000882309F462C0F701178A108E118E128E52
:101E50003DC0D70116964D915D916D917C9119977A
:101E60009E012F5F3F4F0E949917882309F44DC0B0
:101E7000D7015B96ED91FC915C9749815A816B810A
:101E80007C818789803129F088EF9FEFAFEFBFE039
:101E900004C088EF9FEFA0E0B0E0481759076A0739
:101EA0007B07A0F4CF010E940C18882371F1F70181
:101EB0004681578160857185838D948D0FEF1FEF6B
:101EC0002FEF3FE00E94FD168823F9F0D7015396CB
:101ED000AD92BD92CD92DC92569714968C91149748
:101EE000806814968C93C7010E94840E882369F041
:101EF000B601A5016A147B048C049D0410F4B4019E
:101F0000A301C7010E94BE0D01C080E00F900F9099
:101F10000F900F90CF91DF911F910F91FF90EF9055
:101F2000DF90CF90BF90AF909F908F907F906F90F9
:101F30000895F70183899489A589B689841795073F
:101F4000A607B70708F057CFE0CF2F923F924F92E6
:101F50005F926F927F928F929F92AF92BF92CF9239
:101F6000DF92EF92FF920F931F93CF93DF93EC01D9
:101F70002A018D81882309F4C6C08C8180FFC3C0EB
:101F8000D8C025014E185F084B0176E0272E312C72
:101F90002C0E3D1E3201B1C02A853B854C855D85E6
:101FA0006FEFA62E61E0B62EA222B3228D817901B9
:101FB0008A0199E016950795F794E7949A95D1F7D9
:101FC000EB8DFC8D823049F4428D538D648D758D7F
:101FD0004E0D5F1D601F711F3FC0D480DA94DE205C
:101FE000A114B104D9F4DD20C9F42115310541054E
:101FF000510549F48F89988DA98DBA8D8E839F8361
:10200000A887B9870BC04E815F8168857985CF012C
:1020100091010E949917882309F475C0EB8DFC8DFE
:102020004E815F81688579854250504060407040A4
:10203000058404C0440F551F661F771F0A94D2F70A
:1020400086859785A089B189480F591F6A1F7B1F14
:102050004D0D511D611D711D80E092E08A199B0993
:1020600063018615970508F46C018C8186FD06C016
:1020700080E0C81682E0D80609F073C08091430161
:1020800090914401A0914501B0914601481759072C
:102090006A077B0709F465C0809170049091710410
:1020A0009501860174010E94B80B882361F18C0CA4
:1020B0009D1C12C0950120593D4FA9014C0D5D1D7D
:1020C000D401F90102C081918D93E417F507D9F786
:1020D000E21BF30B8E0E9F1E960140E050E08A85B6
:1020E0009B85AC85BD85820F931FA41FB51F8A8772
:1020F0009B87AC87BD876C187D086114710409F05B
:102100004BCFA20102C04FEF5FEFCA01DF91CF9129
:102110001F910F91FF90EF90DF90CF90BF90AF9005
:102120009F908F907F906F905F904F903F902F90F7
:102130000895AB88BC88CD88DE88EA84FB840C8552
:102140001D859A0140E050E0D601C5018E199F0916
:10215000A00BB10B82179307A407B50708F411CFA2
:1021600013CFCB01BA0140E00E947D15882309F00E
:10217000A1CFC9CFCF92DF92EF92FF920F931F931F
:10218000DF93CF930F92CDB7DEB76C01FC01858151
:10219000823070F0E284F38404851585C601BE01A7
:1021A0006F5F7F4F41E050E00E94A50F019769F0FB
:1021B00020E030E0C9010F90CF91DF911F910F9186
:1021C000FF90EF90DF90CF900895F6018285938580
:1021D000A485B5854F96A11DB11D82879387A487DD
:1021E000B587F5E016950795F794E794FA95D1F73A
:1021F0008E2D8F70282F30E0E5E0220F331FEA95F7
:10220000E1F720593D4FD6CF0F931F93CF93DF9324
:10221000EC018B018D81882309F041C0FB01878986
:102220008031B1F482E08D831F8A188E198E1A8E48
:10223000808D918DA0E0B0E045E0880F991FAA1F26
:10224000BB1F4A95D1F78B8B9C8BAD8BBE8B15C07A
:10225000803229F583E08D83FB01428D538D648D9F
:10226000758D4F8B588F698F7A8F9E012D5E3F4FF2
:10227000C8010E946518882391F01C8F0B8F81E0A4
:102280008C831E821F82188619861A861B861C86DE
:102290001D861E861F86188A198A1A8A01C080E048
:1022A000DF91CF911F910F9108951F93CF93DF93EB
:1022B000EC01142FE62FF0E075E0EE0FFF1F7A958A
:1022C000E1F7E059FD4F8385817121F0842F8274FD
:1022D00009F054C06A8B8091430190914401A09110
:1022E0004501B09146018E879F87A88BB98B848961
:1022F0009589A0E0B0E0BC0155274427828D938DDD
:10230000A0E0B0E0482B592B6A2B7B2B4F8B588FCA
:10231000698F7A8F838590E088719070009751F46F
:10232000848D958DA68DB78D8B8B9C8BAD8BBE8B45
:1023300081E00CC0409711F59E012D5E3F4F8B8DC3
:102340009C8D0E9465188823C9F084E08D83812FBD
:102350008F708C831E821F82188619861A861B86B0
:102360001C861D8616FD02C081E009C0CE0140E03A
:1023700050E060E070E00E94DA0E01C080E0DF9182
:10238000CF911F910895CF93DF93EC019C012A5FB9
:102390003F4F8B8D9C8D41E050E060E070E00E94EB
:1023A000D4188823A1F08F89988DA98DBA8D0097B4
:1023B000A105B10559F48E819F81A885B9858F8BC0
:1023C000988FA98FBA8F8C8180688C8381E0DF9190
:1023D000CF9108952F923F924F925F927F928F926A
:1023E0009F92AF92BF92CF92DF92EF92FF920F93A4
:1023F0001F93DF93CF9300D000D000D0CDB7DEB7CE
:102400006C01162F072F5E834D83DC0115968C918E
:102410001597813009F070C114968C9181FF6CC1C1
:102420008EC1F601438954896589768982859385B1
:10243000A485B58584179507A607B70731F0C601AF
:102440000E94BE0D882309F457C1812F902F9C0153
:1024500029012D803E8017C1D6015B96ED91FC913C
:102460005C97DA01C90119E0B695A795979587950C
:102470001A95D1F774807A9478227FEF872E71E0D5
:10248000972E82229322772009F04EC08114910466
:1024900009F04AC0D60116964D915D916D917C91DF
:1024A0001997411551056105710581F457968D9174
:1024B0009D910D90BC91A02D0097A105B10549F10A
:1024C000F60186839783A087B1872EC0CF019E0136
:1024D0002F5F3F4F0E949917882309F414C1298167
:1024E0003A814B815C81D6015B96ED91FC915C97C2
:1024F0008789803129F088EF9FEFAFEFBFE004C0FC
:1025000088EF9FEFA0E0B0E0281739074A075B0784
:1025100030F0C6010E94C311882331F4EDC0F601EA
:10252000268337834087518780E092E08819990994
:1025300051018215930508F45C01D6015B96ED917B
:10254000FC915C971696ED90FD900D911C9119975A
:102550008EEF9FEFAFEFBFEFE80EF91E0A1F1B1FB4
:10256000058404C0EE0CFF1C001F111F0A94D2F753
:1025700086859785A089B189E80EF91E0A1F1B1F61
:10258000E70CF11C011D111D90E0A91692E0B9069F
:1025900051F58091430190914401A0914501B09182
:1025A00046018E159F05A007B10761F48FEF9FEFDD
:1025B000AFEFBFEF8093430190934401A093450197
:1025C000B09346018091700490917104B801A70105
:1025D00092010E945F0B882309F48EC0A0E0B2E054
:1025E0004A0E5B1E3EC08114910409F5F601228556
:1025F00033854485558583899489A589B6892817AB
:1026000039074A075B0798F00E941E15882309F4D2
:1026100073C0E0924301F09244010093450110938E
:1026200046018091720481608093720408C0C801E1
:10263000B70141E00E947D15882309F45DC0940133
:1026400020593D4FA9014A0D5B1DD201F90102C07D
:102650008D918193E417F507D9F7E21BF30B4E0E2A
:102660005F1E2A183B08950140E050E0F601828584
:102670009385A485B585820F931FA41FB51F8287FC
:102680009387A487B587D6011A962D913D914D91D8
:102690005C911D972114310409F0DECE53968D9183
:1026A0009D910D90BC91A02D82179307A407B507AB
:1026B00048F4F601238B348B458B568B84818068DC
:1026C000848311C080916E0290916F02892B59F022
:1026D0008D819E81892B39F0D60114968C911497A7
:1026E000806814968C93F601848183FF0EC0C60126
:1026F0000E94840E882349F481E090E0D60113966D
:102700009C938E9312971E821D828D819E812696A8
:102710000FB6F894DEBF0FBECDBFCF91DF911F91F2
:102720000F91FF90EF90DF90CF90BF90AF909F9070
:102730008F907F905F904F903F902F90089582FDF3
:1027400070CE83CEDF93CF930F92CDB7DEB7698380
:10275000BE016F5F7F4F41E050E00E94EA110F9091
:10276000CF91DF910895DF92EF92FF920F931F9325
:10277000CF93DF93EC010E94C311882309F44EC06C
:10278000EB8DFC8DEE80FF80088519858EEF9FEF25
:10279000AFEFBFEFE80EF91E0A1F1B1F058404C030
:1027A000EE0CFF1C001F111F0A94D2F78685978537
:1027B000A089B189E80EF91E0A1F1B1FD480089456
:1027C000E108F108010911090BC0C801B7016D0D3D
:1027D000711D811D911D0E9459158823F9F0DA940D
:1027E000DD2099F7EB8DFC8D20E032E040E050E0F9
:1027F000058404C0220F331F441F551F0A94D2F7CB
:102800008B899C89AD89BE89820F931FA41FB51F38
:102810008B8B9C8BAD8BBE8B81E001C080E0DF9108
:10282000CF911F910F91FF90EF90DF9008956F92DD
:102830007F928F929F92AF92BF92CF92DF92EF9250
:10284000FF920F931F93DF93CF93CDB7DEB72B97F4
:102850000FB6F894DEBF0FBECDBF5C016B01822EB8
:10286000DC0115968C91882309F0D2C0CA018E0133
:102870000F5F1F4FB8010E947D0D882309F4C8C067
:10288000F601838D948DD5015C969C938E935B9716
:102890001682178210861186D6011A961D921D92F5
:1028A0001D921C921D979924380141C0C6010E94B7
:1028B000BA10FC01009709F4ABC085E016950795A6
:1028C000F794E7948A95D1F71E2D1F708081882395
:1028D00011F0853ED1F4992091F4D50152961C93C4
:1028E000529720914301309144014091450150910C
:1028F00046011E962D933D934D935C935197808195
:10290000882399F49924939421C0C301BF014BE01B
:1029100050E00E946001009751F4882D807380334D
:1029200009F476C0C501612F6FC099249394F60114
:10293000E284F3840485158583899489A589B68901
:10294000E816F9060A071B0708F4B0CF882D827134
:10295000823109F05DC0992041F0C50161E00E941B
:10296000670E8C01009789F453C0D60115968C919F
:10297000823009F44DC0C6010E94B313882309F4C4
:1029800047C0F501128A00E712E080E2D8011D92EB
:102990008A95E9F7D801FE0131968BE001900D92FE
:1029A0008150E1F7E0916E02F0916F02309739F0BB
:1029B000B801625F7F4FC8014096099509C081E266
:1029C00098E2F801918B808B80E098E0978786876A
:1029D000D80150968D919C91519753969C938E93CC
:1029E000529759969C938E9358971E968D919C91D1
:1029F0001F9757969C938E9356970E941E15882377
:102A000039F0C501F5016289482D0E94551101C0B8
:102A100080E02B960FB6F894DEBF0FBECDBFCF91EE
:102A2000DF911F910F91FF90EF90DF90CF90BF90BB
:102A3000AF909F908F907F906F90089580917204D7
:102A4000882399F1409143015091440160914501DF
:102A500070914601809170049091710420E732E0FA
:102A60000E945F0B882319F1409173045091740404
:102A700060917504709176044115510561057105E9
:102A800091F0809170049091710420E732E00E94EF
:102A90005F0B882361F010927304109274041092FB
:102AA0007504109276041092720481E0089580E01B
:102AB0000895EF92FF920F931F937B018C010E9468
:102AC0001E158823A9F0E0E7F2E0119284E0E037D8
:102AD000F807D9F7E0924301F092440100934501D1
:102AE000109346018091720481608093720481E0AA
:102AF0001F910F91FF90EF900895DF92EF92FF9258
:102B00000F931F937B018C01D42E809143019091F0
:102B10004401A0914501B09146018E159F05A00783
:102B2000B107C1F00E941E158823D9F0809170046E
:102B300090917104B801A70120E732E00E94490C8E
:102B4000882379F0E0924301F0924401009345011B
:102B500010934601809172048D298093720481E064
:102B600001C080E01F910F91FF90EF90DF900895DA
:102B70008F929F92AF92BF92CF92DF92EF92FF928D
:102B80000F931F93CF93DF936C01142F70937104F5
:102B900060937004442321F488249924540140C094
:102BA000453008F01CC160E070E080E090E040E05B
:102BB0000E947D15882309F412C1C12FD0E021970E
:102BC000FE0174E0EE0FFF1F7A95E1F7E059FD4F2B
:102BD000E254FE4F8081EE5BF14090E08F77907081
:102BE000892B09F0FCC0E653FE4F80819181A281C0
:102BF000B38184369105A105B10508F4F0C064E005
:102C0000CC0FDD1F6A95E1F7CA5CDB4F88809980A5
:102C1000AA80BB8081149104A104B10409F4DFC02F
:102C2000C501B40140E00E947D15882309F4D7C096
:102C300080917B0290917C028050924009F0CFC03D
:102C400020918002222309F4CAC080917E029091D3
:102C50007F02892B09F4C3C080917D02882309F487
:102C6000BEC0F601228B80917D028483158661E0CF
:102C700070E007C04F5FF60145874150483008F0CB
:102C8000AEC0F6014585848190E09B01042E02C010
:102C9000220F331F0A94E2F78217930759F7209106
:102CA0008602309187022115310519F040E050E08D
:102CB00008C0209194023091950240919602509163
:102CC0009702F6012583368347835087E0907E0282
:102CD000F0907F0200E010E0E80CF91C0A1D1B1DBB
:102CE000E38AF48A058B168B80918102909182028F
:102CF000918F808F6091800270E080E090E00E9470
:102D0000AA3A6E0D7F1D801F911FF601628F738F8F
:102D1000848F958F209181023091820255E0220F9D
:102D2000331F5A95E1F721503E4F232F3327269525
:102D300040E050E0260F371F481F591F268737876E
:102D4000408B518B8091830290918402009719F0FF
:102D5000A0E0B0E008C08091900290919102A09113
:102D60009202B091930285017401E21AF30A040BF6
:102D7000150BA8019701280F391F4A1F5B1FF60189
:102D8000058404C056954795379527950A94D2F740
:102D90002187328743875487253FFFE03F07F0E0D4
:102DA0004F07F0E05F0710F48CE006C0255F3F4F4F
:102DB0004040504028F480E1F601878B81E010C04C
:102DC00080919C0290919D02A0919E02B0919F02E1
:102DD000F601828F938FA48FB58F80E2EECF80E0D3
:102DE000DF91CF911F910F91FF90EF90DF90CF90E7
:102DF000BF90AF909F908F9008954F925F926F9287
:102E00007F928F929F92AF92BF92CF92DF92EF927A
:102E1000FF920F931F93CF93DF93EC016A017B0125
:102E200028013901423051056105710508F46FC070
:102E300089859A85AB85BC850196A11DB11D841736
:102E40009507A607B70708F462C02B893C894D890E
:102E50005E898F89803129F499278F2D7E2D6D2DE4
:102E600009C0C701B60117E09695879577956795D4
:102E70001A95D1F74B015C01820E931EA41EB51E5C
:102E80008091430190914401A0914501B091460188
:102E900088169906AA06BB0639F0C501B40140E0C0
:102EA0000E947D15882399F18F89803149F4F601BC
:102EB000F070EE0FFF1FE059FD4F518240820DC0B0
:102EC000F601EF77F070EE0FFF1FEE0FFF1FE059D6
:102ED000FD4F4082518262827382809172048160D0
:102EE000809372048A89823080F08D819E81AF81C7
:102EF000B885880E991EAA1EBB1E809273049092FC
:102F00007404A0927504B092760481E001C080E060
:102F1000DF91CF911F910F91FF90EF90DF90CF90B5
:102F2000BF90AF909F908F907F906F905F904F90E9
:102F30000895CF92DF92EF92FF920F931F93CF935A
:102F4000DF93EC017A018B01690189859A85AB8554
:102F5000BC850196A11DB11D84179507A607B7076B
:102F600008F450C02B893C894D895E898F89803156
:102F700029F49927812F702F6F2D09C0C801B7013F
:102F8000E7E09695879577956795EA95D1F7260FAF
:102F9000371F481F591F8091430190914401A09110
:102FA0004501B0914601281739074A075B0739F0F8
:102FB000CA01B90140E00E947D15882319F18F896B
:102FC000803159F4F701F070EE0FFF1FE059FD4F0B
:102FD00080819181A0E0B0E00EC0F701EF77F07042
:102FE000EE0FFF1FEE0FFF1FE059FD4F8081918113
:102FF000A281B381BF70F60180839183A283B383E2
:1030000081E001C080E0DF91CF911F910F91FF908F
:10301000EF90DF90CF900895AF92BF92CF92DF9262
:10302000EF92FF920F931F93DF93CF9300D000D0C6
:10303000CDB7DEB76C017A018B0182E090E0A0E0B1
:10304000B0E0F60180839183A283B3835E0108948C
:10305000A11CB11CC601B801A70195010E949917D6
:10306000882319F1C601B801A70100E010E020E0B3
:1030700030E00E94FD168823C1F0E980FA800B81C0
:103080001C81F6018789803129F088EF9FEFAFEF2F
:10309000BFE004C088EF9FEFA0E0B0E0E816F906BB
:1030A0000A071B07B8F281E001C080E00F900F9083
:1030B0000F900F90CF91DF911F910F91FF90EF90A4
:1030C000DF90CF90BF90AF9008954F925F926F9234
:1030D0007F928F929F92AF92BF92CF92DF92EF92A8
:1030E000FF920F931F93DF93CF9300D000D0CDB703
:1030F000DEB76C0149835A836B837C833901EE24EC
:10310000FF2487012E010894411C511C812CA2E050
:103110009A2EA12CB12C49815A816B817C81C601E8
:1031200092010E949917882351F1D501C401F6013B
:10313000058404C0880F991FAA1FBB1F0A94D2F7E9
:10314000E80EF91E0A1F1B1F29813A814B815C8101
:103150008789803129F088EF9FEFAFEFBFE004C08F
:1031600088EF9FEFA0E0B0E0281739074A075B0718
:1031700090F2F301E082F1820283138381E00F90E9
:103180000F900F900F90CF91DF911F910F91FF90B3
:10319000EF90DF90CF90BF90AF909F908F907F90F7
:1031A0006F905F904F9008952F923F924F925F9251
:1031B0006F927F928F929F92AF92BF92CF92DF9247
:1031C000EF92FF920F931F93DF93CF93CDB7DEB7AC
:1031D0002F970FB6F894DEBF0FBECDBF1C014A87F4
:1031E0005B876C877D873F872E87D9010D911D9165
:1031F0002D913C91011511052105310549F048013A
:1032000059010894811C911CA11CB11C198610C085
:10321000FC0180809180A280B38019868A859B857D
:10322000AC85BD850197A105B10511F491E09987A1
:10323000D10119968D919D910D90BC91A02D019673
:10324000A11DB11D8D839E83AF83B8877501640175
:103250004424552432018E010F5F1F4FF1018185F7
:103260009285A385B485481659066A067B0608F040
:1032700090C08D819E81AF81B8858C159D05AE056E
:10328000BF0550F482E0882E912CA12CB12CB2E025
:10329000CB2ED12CE12CF12CC101B701A601980154
:1032A0000E949917882309F474C089819A81AB819F
:1032B000BC81A70196012F5F3F4F4F4F5F4F009793
:1032C000A105B10519F049015A010DC028193909A4
:1032D0004A095B098A859B85AC85BD852817390716
:1032E0004A075B0759F00894411C511C611C711C72
:1032F0000894C11CD11CE11CF11CB0CFC101A60176
:10330000B7010FEF1FEF2FEF3FE00E94FD1688235C
:1033100099F43FC02601370108944108510861081B
:103320007108C101B301A201970186010E94FD1637
:10333000882379F1730162018C149D04AE04BF04EB
:1033400048F3AE85BF854D915D916D917C9141159E
:1033500051056105710539F0C101950184010E9493
:10336000FD168823B1F0EE85FF8580829182A282CE
:10337000B382F985FF2359F00894811C911CA11C8C
:10338000B11CD1018D929D92AD92BC92139781E0B8
:1033900001C080E02F960FB6F894DEBF0FBECDBF00
:1033A000CF91DF911F910F91FF90EF90DF90CF9021
:1033B000BF90AF909F908F907F906F905F904F9055
:1033C0003F902F90089510927704109278041092F5
:1033D000790410927A048FEF9FEFA0E0B0E0809321
:1033E0007B0490937C04A0937D04B0937E040895A5
:1033F00081E08093C4046093A1041092C2041092EF
:10340000C304089581E08093C4046093A1041092E2
:10341000C2041092C30408952091A00430E080916A
:103420009F04281B3109C901089540919F04809190
:10343000A004481718F02FEF3FEF0AC0E42FF0E088
:10344000E158FB4F8081282F30E04F5F40939F046D
:10345000C9010895E0919F048091A004E81718F035
:10346000EFEFFFEF06C0F0E0E158FB4F8081E82F5F
:10347000F0E0CF01089508951092C8041092C70497
:1034800088EE93E0A0E0B0E08093C9049093CA0472
:10349000A093CB04B093CC0482E791E09093C60450
:1034A0008093C5040895CF92DF92EF92FF920F931D
:1034B0001F93CF93DF937C016B018A018091C40439
:1034C0008823A1F0C0E0D0E00DC0D701ED91FC91C0
:1034D000D601AC0FBD1F0190F081E02DC7016C91AA
:1034E00009952196C017D10780F304C0CB01642F42
:1034F0000E94891BC801DF91CF911F910F91FF900E
:10350000EF90DF90CF900895DF93CF930F92CDB7D8
:10351000DEB7FC0169838091C4048823C9F08091DF
:10352000C304803238F081E090E09383828320E00E
:1035300030E015C08091C204E82FF0E0EE55FB4F5B
:10354000998190838F5F8093C2048093C30405C0E8
:10355000CE01019661E00E94891B21E030E0C901A3
:103560000F90CF91DF9108950F93062F8091A104C2
:1035700062EA74E04091C30421E00E94341B10927F
:10358000C2041092C3041092C4040F91089561E024
:103590000E94B41A0895413208F040E2862F6FE786
:1035A00074E00E94EB1A10929F048093A004089587
:1035B00021E00E94CB1A089521E00E94CB1A0895C1
:1035C00010929F041092A0041092C2041092C3049F
:1035D0000E94351D0895382F413210F040E042C05E
:1035E0008091D1048823E1F791E09093D104209356
:1035F000D3048FEF80933E051092F904415040931D
:10360000FA044F5F9093D2048091D204330F832B3E
:103610008093D2048091D404813041F41092D40478
:103620008091D2048093BB0085EC01C085EE80932D
:10363000BC008091D1048130E1F38091F9048417BA
:1036400010F44091F90420E030E00AC0FB01E20FE1
:10365000F31FD901A752BB4F8C9180832F5F3F4F3F
:103660002417A0F3842F08950F931F93582F122F20
:10367000413210F081E04AC08091D1048823E1F703
:1036800082E08093D1040093D3048FEF80933E05B2
:103690001092F9044093FA04A9EDB4E0FB0102C0D2
:1036A00081918D938E2F861B8417D0F31092D204B4
:1036B0008091D204550F852B8093D2048091D4043D
:1036C000813041F41092D4048091D2048093BB00E5
:1036D00085EC01C085EE8093BC00112321F0809120
:1036E000D1048230E1F380913E058F3F11F480E0F8
:1036F0000DC080913E05803211F482E007C08091B8
:103700003E05803311F084E001C083E01F910F91EA
:103710000895482F613210F081E008958091D1041E
:10372000843011F082E0089560931C05ABEFB4E0A3
:10373000842F9C01F90102C081918D938E2F841BEF
:103740008617D0F380E008951F920F920FB60F9264
:1037500011242F933F934F935F936F937F938F9396
:103760009F93AF93BF93EF93FF938091B90090E045
:10377000887F90708036910509F4F2C081369105FA
:10378000CCF58832910509F47BC089329105B4F4F7
:103790008031910509F46FC0813191053CF40097A7
:1037A00009F447C1089709F04FC165C088319105F8
:1037B00009F466C0809709F047C182C08034910542
:1037C00009F4A4C08134910544F48033910509F4CF
:1037D00082C0C89709F038C189C08035910509F4C5
:1037E00089C08835910509F496C08834910509F09F
:1037F0002BC1AEC08839910509F413C189399105EF
:10380000ECF48837910509F4ABC0893791054CF485
:103810008836910509F4A4C08037910509F014C1D8
:103820009FC08838910509F4FCC08039910509F4DE
:103830009DC08038910509F007C198C0803B910573
:1038400009F4C6C0813B91054CF4803A910509F416
:103850009FC0883A910509F0F7C0BAC0803C910535
:1038600009F4E3C0883C910509F4DFC0883B910569
:1038700009F0EAC0C2C08091D2048093BB00CFC0DF
:103880009091F9048091FA04981768F49091F904E2
:10389000E92FF0E0E752FB4F80818093BB009F5FF0
:1038A0009093F904BCC08091D304882309F44BC0E1
:1038B00085ED8093BC008091BC0084FDFCCFC2C02C
:1038C00080E280933E0585ED8093BC008091BC0032
:1038D00084FDFCCFB7C080E380933E0585ED8093E7
:1038E000BC008091BC0084FDFCCFACC088E3809319
:1038F0003E059BC08091F9049091BB00E82FF0E059
:10390000E752FB4F90838F5F8093F9049091F90405
:103910008091FA0482C08091F9049091BB00E82F55
:10392000F0E0E752FB4F90838F5F8093F904809122
:10393000D304882341F085ED8093BC008091BC00C6
:1039400084FDFCCF7FC081E08093D40484EA6EC004
:1039500085ED8093BC008091BC0084FDFCCF72C0DB
:1039600083E08093D10410923D0559C080913D05BC
:10397000803208F056C080913D059091BB00E82F41
:10398000F0E0E35EFA4F90838F5F80933D0547C080
:1039900080913D05803230F4E0913D05F0E0E35E3A
:1039A000FA4F108285ED8093BC008091BC0084FDAD
:1039B000FCCF1092D10460913D05E091D704F091C5
:1039C000D8048DE195E070E0099510923D052DC079
:1039D00084E08093D10410921B0510921C05E091A5
:1039E000D504F091D604099580911C05882329F40B
:1039F00081E080931C051092FB0490911B05E92F38
:103A0000F0E0E550FB4F80818093BB009F5F909377
:103A10001B0590911B0580911C05981710F485ECEF
:103A200001C085E88093BC000FC085EC8093BC008A
:103A300009C010923E0585ED8093BC008091BC00CA
:103A400084FDFCCF1092D104FF91EF91BF91AF9113
:103A50009F918F917F916F915F914F913F912F91A6
:103A60000F900FBE0F901F9018951092D10481E017
:103A70008093D3041092D40482E161E00E942E313D
:103A800083E161E00E942E31E9EBF0E080818E7FDE
:103A9000808380818D7F808380E28093B80085E47D
:103AA0008093BC000895FC0113861586148687E078
:103AB00090E012863197009711F00197FACF0895A0
:103AC000DC0180E00BC0E82FF0E08D9190E0E8276A
:103AD000F927E650FF4FE49161508E2F662399F746
:103AE0000895DF92EF92FF920F931F93FC01E08005
:103AF00001811281F894F80181818E29818382816C
:103B0000DE2CD0948D21828383E090E00E941D30D2
:103B1000F80181818D2181838AE090E00E941D302F
:103B2000F8010081789485E390E00E941D3080E0E8
:103B300010E0FF240E211F21012B09F081E01F91CD
:103B40000F91FF90EF90DF900895EF92FF920F9307
:103B50001F93CF93DF937C0101E010E0C0E0D0E041
:103B6000C7010E94711D8111102B000F2196C830D2
:103B7000D105B1F7812FDF91CF911F910F91FF9068
:103B8000EF9008951F93CF93DF93FC011081C181C3
:103B9000D281912F909560FF12C0F8948A81892379
:103BA0008A838981812B89838AE090E00E941D307D
:103BB0008A81812B8A83789487E390E011C0F894FE
:103BC0008A8189238A838981812B898381E490E09A
:103BD0000E941D308A81812B8A83789485E090E051
:103BE0000E941D30DF91CF911F910895CF92DF92F7
:103BF000EF92FF920F931F93CF93DF938C01E42EEC
:103C0000FF24F394C0E0D0E0C62EDD2460E08F2DC9
:103C100090E08C219D21892B09F061E0C8010E9470
:103C2000C21DFF0C2196C830D10581F7EE20A9F402
:103C3000F894D8011196ED91FC91129791818C9195
:103C40008095982391831196ED91FC911297928122
:103C50008C918095982392837894DF91CF911F91D6
:103C60000F91FF90EF90DF90CF9008956CEC40E0C3
:103C70000E94F61D0895EF92FF920F931F93CF932A
:103C8000DF938C017B0165E540E00E94F61DC0E0FA
:103C9000D0E0F701EC0FFD1FC801608140E00E94F9
:103CA000F61D2196C830D105A1F7DF91CF911F9164
:103CB0000F91FF90EF900895DF92EF92FF920F9394
:103CC0001F93CF93DF93FC010081C181D281F894CF
:103CD0008981D02ED0948D21898378941DE7E02EA0
:103CE000FF24115059F182E090E00E941D3088813C
:103CF00090E08E219F21892BA1F3F8948A818D2158
:103D00008A838981802B8983789480EE91E00E9458
:103D10001D30F89489818D21898386E490E00E948A
:103D20001D30888110E090E0E822F922EF2809F4A4
:103D300011E078948AE991E00E941D30812FDF9193
:103D4000CF911F910F91FF90EF90DF900895AF9268
:103D5000BF92DF92EF92FF920F931F93CF93DF9367
:103D6000EC015B018D85882309F061C0CE010E94C2
:103D70005C1E882329F41B861D861C8690E06BC080
:103D8000CE0160EF40E00E94F61D01E0DD24EE244C
:103D9000FF24F394CE010E94711D182FCE010E94C2
:103DA000711D113019F48130E1F439C0181709F58B
:103DB0008B85081770F460E0FE01EE0DF11D838124
:103DC00090E02F2D30E082239323181619064CF033
:103DD00003C060E0081729F0093008F04CC00C87D8
:103DE0004AC0FE01EE0DF11D83818F29838361E0BE
:103DF00009C0612FFE01EE0DF11D9F2D909583816D
:103E000089238383CE010E94C21D0F5FFF0C19F42A
:103E1000E394FF24F39487E08E1508F0BBCF0134C0
:103E200030F0DB86DD2011F581E08D871FC01B8619
:103E30001D861C8690E0DE0120E030E0F501E20FF7
:103E4000F31F13968C91139780832F5F3F4F11962A
:103E50002830310599F7892FDF91CF911F910F916C
:103E6000FF90EF90DF90BF90AF9008958B818823F3
:103E7000F1F291E0E0CFD02EBDCFFF920F931F93D0
:103E80008C01F62E862F60E00E94EF308F2D90E09F
:103E9000FC01E85CFD4FE491D801EC938C5D9D4FF3
:103EA000FC016491E62FF0E0EE0FFF1FE65EFD4F90
:103EB0008591949112969C938E9311971B961C92C8
:103EC0001B971D961C921D971C961C92F80187E06B
:103ED00090E012863197009711F00197FACF1F9169
:103EE0000F91FF900895FC0189E390E2928B818B02
:103EF000768365831482108289E0818381E08283E6
:103F0000838308956F927F928F929F92AF92BF9218
:103F1000CF92DF92EF92FF920F931F93CF93DF9395
:103F2000FB01EA01998180E0288130E0282B392BC0
:103F3000E081E23231F0E83221F0E03109F084C072
:103F40004BC04C814F3329F1403420F44F3109F0FC
:103F50007BC02FC04F3579F04F3709F075C0B901DC
:103F6000882777FD8095982F0E94FF3720E030E06A
:103F700040E85DE32EC035952795B901882777FD88
:103F80008095982F0E94FF3720E030E040E05EE30C
:103F900020C03595279535952795B901882777FD58
:103FA0008095982F0E94FF3720E030E040E85EE3E4
:103FB00010C093E0359527959A95E1F7B9018827C8
:103FC00077FD8095982F0E94FF3720E030E040E099
:103FD0005FE30E948B3832C0EF8035952795B90199
:103FE000882777FD8095982F0E94FF3720E030E0EA
:103FF00040E85EE30E94FF363B014C016E2D70E00D
:104000002E81621B7109882777FD8095982F0E9469
:10401000FF375B016C01FF2400E010E0C801B7012D
:104020000E94FD379B01AC01C601B5010E946437B7
:104030009B01AC01C401B3010E9400379B01AC019C
:10404000832F942F752F00C0262F382F492F572FDD
:10405000B901CA01DF91CF911F910F91FF90EF90AD
:10406000DF90CF90BF90AF909F908F907F906F9098
:1040700008950895EF92FF920F931F938C017B0197
:10408000FC01858196810E945C1EF80185819681E4
:10409000B7010E943B1EF8018581968164EB40E0E8
:1040A0000E94F61DF801858196810E94711DF82EEF
:1040B000F801858196810E945C1E80E0FF2009F452
:1040C00081E01F910F91FF90EF900895CF92DF92C2
:1040D000EF92FF920F931F938C016B017A01FC0109
:1040E000858196810E945C1EF80185819681B601CA
:1040F0000E943B1EF801858196816EEB40E00E9494
:10410000F61DF801858196810E94A51DF701808327
:10411000F801858196810E94A51DF7018183F80130
:10412000858196810E94A51DF7018283F801858112
:1041300096810E94A51DF7018383F80185819681F0
:104140000E94A51DF7018483F801858196810E9454
:10415000A51DF7018583F801858196810E94A51D23
:10416000F7018683F801858196810E94A51DF701DC
:104170008783F801858196810E94A51DF7018087BC
:10418000F801858196810E945C1E1F910F91FF901E
:10419000EF90DF90CF900895DF93CF93CDB7DEB748
:1041A00029970FB6F894DEBF0FBECDBFAE014F5FAB
:1041B0005F4F0E9466208981811181E029960FB6A8
:1041C000F894DEBF0FBECDBFCF91DF910895CF929F
:1041D000DF92EF92FF920F931F93CF93DF93EC0147
:1041E0006B01452BE1F08B818823C9F088818823FE
:1041F000B1F40E940F307B018C01CE0160E070E0D1
:104200000E94CC20882359F40E940F306E197F0938
:10421000800B910B6E5E72408040904070F3F6010F
:104220006081693039F06930A0F06A3041F06B305C
:1042300081F40AC06EE570E080E090E00EC06CEBA7
:1042400070E080E090E009C067E771E080E090E016
:1042500004C06EEE72E080E090E00E946230DF9178
:10426000CF911F910F91FF90EF90DF90CF90089525
:10427000CF93DF93EC018D819E810E945C1E8D8126
:104280009E810E94361E8D819E8164E448810E9439
:10429000F61D8A81882339F0CE012196BE0140E0C7
:1042A00050E00E94E720DF91CF9108950F931F9374
:1042B0008A010E946620C80168E00E94601D20E01B
:1042C000F8019085891709F421E0822F1F910F9141
:1042D0000895CF92DF92EF92FF920F931F93DF9397
:1042E000CF93CDB7DEB729970FB6F894DEBF0FBED8
:1042F000CDBF8C017B016E010894C11CD11CA601AD
:104300000E945621882329F460E070E08EEF92EC41
:1043100005C0C801B701A6010E94821F29960FB6E9
:10432000F894DEBF0FBECDBFCF91DF911F910F91EB
:10433000FF90EF90DF90CF900895DF93CF93CDB7AC
:10434000DEB729970FB6F894DEBF0FBECDBF9C0134
:10435000FB0180818031D9F0C901AE014F5F5F4F11
:104360000E9456218823A9F08D818F3371F080340B
:1043700018F48F3171F40BC08F3519F08F3749F471
:1043800002C08BE007C08CE005C08AE003C089E072
:1043900001C080E029960FB6F894DEBF0FBECDBFF6
:1043A000CF91DF9108950F931F938B01CB0167E0AD
:1043B0000E94601D20E0F8019781891709F421E02F
:1043C000822F1F910F910895EF92FF920F931F93E9
:1043D000CF93DF93EC017B01042F8D819E810E949E
:1043E000531D10E007C0CE01B7010E94D3218823DE
:1043F000A9F00AC08D819E81B7010E94A71E882363
:1044000029F0101759F4EFCF81E001C080E0DF916F
:10441000CF911F910F91FF90EF9008951F5F0117AB
:10442000A8F3E8CFEF92FF920F931F93DF93CF9300
:10443000CDB7DEB728970FB6F894DEBF0FBECDBF5D
:104440007C01462F8E010F5F1F4FB8010E94E421AF
:10445000C701B8010E94692128960FB6F894DEBF03
:104460000FBECDBFCF91DF911F910F91FF90EF90C5
:104470000895AF92BF92CF92DF92EF92FF920F9387
:104480001F93DF93CF93CDB7DEB761970FB6F89444
:10449000DEBF0FBECDBF7C01FC01858196810E94ED
:1044A000531DF70114826E010894C11CD11C79E0E0
:1044B000A72EB12CAC0EBD1E01E02BC0C701B6016A
:1044C0000E94D321882329F1F7018081882341F4B8
:1044D000C701B6010E943A20882311F0F70100833A
:1044E000C701B601A5010E946620F7011181C7012D
:1044F000B6010E949D21811718F4F701818104C043
:10450000C701B6010E949D21F701818384818F5FDD
:104510008483F70185819681B6010E94A71E8823B6
:1045200069F661960FB6F894DEBF0FBECDBFCF918E
:10453000DF911F910F91FF90EF90DF90CF90BF9090
:10454000AF9008950895FF920F931F93FC01F62EEC
:1045500005EC14E0C80160810E94F819C8016F2DB4
:104560000E94841AC8010E94C71A1F910F91FF90E0
:104570000895CF92DF92EF92FF920F931F93CF9304
:10458000DF93EC018981813071F485EC94E06CE576
:1045900070E00E94021A85EC94E06CE570E042E065
:1045A00050E00E94D81A8981882371F485EC94E048
:1045B00063E270E00E94021A85EC94E063E270E02E
:1045C00042E050E00E94D81A85EC94E00E94151A4F
:1045D000F82EEE2485EC94E00E94151A6C0185EC0F
:1045E00094E00E94C71AEC28FD2800E010E0C80102
:1045F000B7010E94FD372AE939E949E95FE30E94E2
:1046000064370E94D137CB01DF91CF911F910F9179
:10461000FF90EF90DF90CF900895FF920F931F933C
:104620008C01F62E6AE070E080E090E00E9462303B
:10463000C8016F2D0E94A3221F910F91FF90089532
:10464000CF93DF93EC01633219F06C3579F407C036
:10465000688381E160E00E942E31198207C068837F
:1046600081E161E00E942E3181E08983DF91CF9169
:1046700008950F931F938C0185EC94E00E94E01A3B
:10468000C80161E00E94A32281E161E00E94EF3055
:1046900081E161E00E942E311F910F910895FC018C
:1046A000718360835383428308950F931F938C011A
:1046B000FC01828161E00E94EF30F801808161E0BD
:1046C0000E94EF30F801828161E00E942E31F801F2
:1046D000808161E00E942E31F801808160E00E94BB
:1046E0002E311F910F910895FF920F931F938C010C
:1046F000FC01828160E00E94EF30F801808161E07E
:104700000E94EF30F8018281608141E00E941732FF
:10471000F82EF801828161E00E94EF30F801828179
:1047200061E00E942E31F801828160E00E942E310A
:10473000F801808161E00E942E31F801808160E003
:104740000E942E31F801828160E00E94EF30F80172
:104750008281608141E00E9417325F2D40E0282F66
:1047600030E0242B352BC9011F910F91FF90089544
:104770000F931F93CF93DF938C01FC01828160E044
:104780000E94EF30C0E0D0E062E070E080E090E0B6
:104790000E946230F80182810E948231892B29F0C7
:1047A0002196F3E0C83EDF0779F7DF91CF911F91A3
:1047B0000F910895FF920F931F938C01F62EFC0129
:1047C000828161E00E94EF30F801808161E00E9407
:1047D000EF30F801828161E00E942E31F801808182
:1047E00061E00E942E31F801828160E00E942E314A
:1047F000F801808160E00E942E31F801808161E043
:104800000E942E31F801828161E00E942E31F80170
:10481000808160E00E942E31F8018281608141E058
:104820002F2D0E94D531F801808161E00E942E3148
:10483000F801828160E00E94EF30F80182810E94DD
:104840008231F801808160E00E942E31F80182817E
:104850000E9482311F910F91FF900895CF92DF92B5
:10486000EF92FF920F931F936C0165E070E00E943E
:10487000DA23C6010E94B823C6010E9474237C017A
:10488000C6010E9455230027F7FC0095102FC80190
:10489000B7010E94FF371F910F91FF90EF90DF90BB
:1048A000CF900895CF92DF92EF92FF920F931F93D4
:1048B0006C0163E070E00E94DA23C6010E94B82315
:1048C000C6010E9474237C01C6010E945523002763
:1048D000F7FC0095102FC801B7010E94FF372AE0AE
:1048E00037ED43E25CE30E948B3820E030E040E2A9
:1048F00052E40E94FF361F910F91FF90EF90DF90DE
:10490000CF9008956F927F928F929F92AF92BF92B5
:10491000CF92DF92EF92FF920F931F938C010E9430
:1049200052245B016C01C8010E942E240E94CC37E6
:10493000882777FD8095982F0E94FF377B018C0197
:10494000C601B50120E030E048EC51E40E94FF369A
:104950005B016C01C801B7012CEA35EC47EA58E36A
:104960000E948B382AE037ED43E25CE30E94003777
:104970009B01AC01C601B5010E948B383B014C0183
:10498000C801B7012DEB32E546E15DE30E948B38AB
:1049900025EC3EEF42E050E40E94FF365B016C01E3
:1049A000C801B70126EF34E246ED55EB0E948B3883
:1049B000A80197010E948B389B01AC01C601B5018B
:1049C0000E9400379B01AC01C401B3010E94003773
:1049D0001F910F91FF90EF90DF90CF90BF90AF901D
:1049E0009F908F907F906F9008950895EF92FF921F
:1049F0000F931F9385EC94E060E470E00E94021A2C
:104A000085EC94E063EF0E94841A85EC94E00E94A8
:104A1000C71A67E370E080E090E00E94623085ECA6
:104A200094E060E470E043E050E00E94D81A00E0B7
:104A300010E00EC00F5F1F4F61E070E080E090E07B
:104A40000E946230093C110519F4E0E070E84DC0A5
:104A500085EC94E00E940C1A039764F385EC94E0D3
:104A60000E94151A082F85EC94E00E94151A182F41
:104A700085EC94E00E94151A302F20E0612F70E041
:104A8000622B732B9B0140E050E0542F432F322FB9
:104A9000222790E0A0E0B0E0282B392B4A2B5B2B9B
:104AA000E12CB0E8FB2EB8E90B2F112DE7E1F0E087
:104AB000DA01C9010E2E04C0B695A7959795879582
:104AC0000A94D2F780FF04C02E253F2540275127A6
:104AD0003197E730F10529F016950795F794E7949B
:104AE000E7CF222329F0E0E070EC89E764E419C005
:104AF0006C7F80E090E00E94FD3720E030E040E8ED
:104B000057E30E948B3822E538EB4FE253E40E94D2
:104B10008B3826E636E64BE352E40E94FF36E62F5A
:104B2000692F2E2F372F482F562FB901CA011F91F9
:104B30000F91FF90EF900895EF92FF920F931F93C4
:104B400085EC94E060E470E00E94021A85EC94E049
:104B500065EF0E94841A85EC94E00E94C71A67E30F
:104B600070E080E090E00E94623085EC94E060E4C8
:104B700070E043E050E00E94D81A00E010E00EC060
:104B80000F5F1F4F61E070E080E090E00E946230B4
:104B9000093C110519F4E0E070E84DC085EC94E0A3
:104BA0000E940C1A039764F385EC94E00E94151A96
:104BB000082F85EC94E00E94151A182F85EC94E0DC
:104BC0000E94151A302F20E0612F70E0622B732BAA
:104BD0009B0140E050E0542F432F322F222790E0DA
:104BE000A0E0B0E0282B392B4A2B5B2BE12C90E87E
:104BF000F92E98E9092F112DE7E1F0E0DA01C9015A
:104C00000E2E04C0B695A795979587950A94D2F76E
:104C100080FF04C02E253F25402751273197E730DC
:104C2000F10529F016950795F794E794E7CF22232D
:104C300029F0E0E070EC89E764E419C06C7F80E063
:104C400090E00E94FD3720E030E040E857E30E940A
:104C50008B3820E030E04AEF52E40E948B3820E0AD
:104C600030E040EC50E40E94FF36E62F692F2E2FF3
:104C7000372F482F562FB901CA011F910F91FF906E
:104C8000EF90089585EC94E00E94E01A0895FC01ED
:104C900066834783208781E0858708950F931F935C
:104CA0008C01FC01868160E00E94EF30F801868172
:104CB00061E00E942E31F801118612861386148657
:104CC0001F910F910895CF92DF92EF92FF920F9371
:104CD0001F93CF93DF93EC018E8161E00E942E3110
:104CE0006AEF70E080E090E00E9462300E940F3036
:104CF0009B01AC0189859A85AB85BC85281739074E
:104D00004A075B0720F419861A861B861C868D8548
:104D1000882371F489859A85AB85BC85281B390B5E
:104D20004A0B5B0B205D37404040504008F477C091
:104D30001D860E940F3069877A878B879C871C822B
:104D40001B821A82198218828E8161E00E94EF30E4
:104D50008E8160E00E942E3164E170E080E090E09E
:104D60000E946230F8948E8161E00E942E3188E2C8
:104D700090E00E941D308E8160E00E94EF3081E063
:104D8000EE2400E010E00AC0F39481E090E00E947D
:104D90001D308FEFF81629F40AC0822FFF24C82E89
:104DA000DD248E810E9482318C159D0569F38E81F0
:104DB0000E948231282F8FEFF816C9F0043090F04E
:104DC00000FD10C08E2D869586958695FE01E80F14
:104DD000F11D9081990F908388858F1510F4916053
:104DE0009083E3940F5F1F4F05351105B1F678945A
:104DF00087E28E1510F030E013C030E04C8150E0B7
:104E00002981888190E0820F911D2A81820F911D56
:104E10002B81820F911D90704817590709F431E0DA
:104E2000832FDF91CF911F910F91FF90EF90DF9033
:104E3000CF900895EF92FF920F931F93CF93DF933C
:104E4000EC010E9463268823A9F18F818B3031F019
:104E50008B3080F18551823068F507C0688170E041
:104E600080E090E00E94FD3722C0688170E080E021
:104E700090E00E94FD3720E030E040E853E40E94DB
:104E80008B387B018C01698170E0882777FD8095E4
:104E9000982F0E94FF379B01AC01C801B7010E9407
:104EA000003720E030E040E251E40E946437E62F12
:104EB000692F0AC08CE495E061E371E00E94E83656
:104EC000E0E070E080EC6FE72E2F372F482F562F51
:104ED000B901CA01DF91CF911F910F91FF90EF901F
:104EE0000895CF93DF93EC018881282F30E069810A
:104EF0008A81482F50E0EAEFF1E091E005C084910B
:104F0000480F511D9F5F31969617C8F3633038F0F4
:104F1000C90183709070892B11F44F5F5F4F8DE64C
:104F200091E0289FB001299F700D389F700D1124CA
:104F3000615070402D5F3F4F3695279536952795E8
:104F4000620F731F640F751F80E090E028E130E06E
:104F500040E050E00E94AA3A2B81620F711D811D32
:104F6000911D2CE330E040E050E00E94AA3A2C81F1
:104F7000620F711D811D911D2CE330E040E050E077
:104F80000E94AA3A9B01AC018D81280F311D411D61
:104F9000511DB901CA01DF91CF910895EF92FF929F
:104FA0000F931F93162F042F25ECE22E24E0F22EF0
:104FB000C70168E670E00E94021AC701612F0E94D3
:104FC000841AC701602F0E94841AC7010E94C71A61
:104FD0001F910F91FF90EF9008951F93CF93DF9350
:104FE000EC01162F6EE04DE10E94CE27123041F009
:104FF000133079F0113009F5CE0167E040E803C0C5
:10500000CE0167E040E00E94CE27CE0168E040E894
:1050100008C0CE0167E040E00E94CE27CE0168E0E4
:1050200040E00E94CE27CE0169E040E80E94CE27F2
:10503000CE016AE040E80E94CE27DF91CF911F9118
:105040000895AF92BF92CF92DF92EF92FF920F93AB
:105050001F93DF93CF93CDB7DEB727970FB6F894A2
:10506000DEBF0FBECDBF05EC14E0C80168E670E0FE
:105070000E94021AC80160E00E94841AC8010E94BE
:10508000C71AC80168E670E048E050E00E94D81AEC
:10509000C8010E94151AB82EC8010E94151AC82E00
:1050A000C8010E94151A9FE3D92ED822C8010E9478
:1050B000151AA82EC8010E94151AE82EC8010E94D0
:1050C000151AF82EC8010E94151A282F30E0B4E0F6
:1050D00035952795BA95E1F74AEF5FEFB901649FDF
:1050E0009001659F300D749F300D1124820F90E068
:1050F0002B2D30E0A4E035952795AA95E1F7B9016D
:10510000649F9001659F300D749F300D1124B20E85
:105110002C2D30E0F4E035952795FA95E1F7B901AB
:10512000649F9001659F300D749F300D1124C20E55
:105130002D2D30E0E4E035952795EA95E1F7B901AA
:10514000649F9001659F300D749F300D1124D20E25
:105150002E2D30E074E0359527957A95E1F7B90169
:10516000649F9001659F300D749F300D1124E20EF5
:105170002F2D30E064E0359527956A95E1F7B90168
:10518000649F9001659F300D749F300D1124F20EC5
:10519000282F3F2D4E2D5D2D6C2D7B2D8A2D279692
:1051A0000FB6F894DEBF0FBECDBFCF91DF911F9138
:1051B0000F91FF90EF90DF90CF90BF90AF90089548
:1051C000FF920F931F93F62E05EC14E0C80168E6DA
:1051D00070E00E94021AC8016F2D0E94841AC80153
:1051E0000E94C71AC80168E670E041E050E00E94E2
:1051F000D81AC8010E94151A1F910F91FF900895A7
:10520000EF92FF920F931F93CF93DF938C0161E195
:105210000E94E028E82EC80162E10E94E028C82F21
:10522000D0E0E7FE25C0E1946E2D70E0882777FD81
:105230008095982F0E94FF377B018C0136E0D59531
:10524000C7953A95E1F7BE01882777FD8095982F9D
:105250000E94FF3720E030E040E85EE30E948B3898
:105260009B01AC01C801B7010E940037905822C0D1
:105270006E2D70E0882777FD8095982F0E94FF376C
:105280007B018C0126E0D595C7952A95E1F7BE01F3
:10529000882777FD8095982F0E94FF3720E030E027
:1052A00040E85EE30E948B389B01AC01C801B70166
:1052B0000E940037DF91CF911F910F91FF90EF90E7
:1052C0000895CF93DF93EC016EE00E94E028482F11
:1052D0004062CE016EE00E94CE27CE016EE00E94B9
:1052E000E02885FDFACFDF91CF9108950F931F93AA
:1052F0008C016FE00E94E028482F4E7FC8016FE0CC
:105300000E94CE271F910F9108950F931F938C0138
:105310006EE04CE10E94CE276AE070E080E090E011
:105320000E946230C80162E00E94E028482F4F7B53
:10533000C80162E00E94CE276AE070E080E090E061
:105340000E94623081E01F910F910895FC016083FB
:105350000895DF92EF92FF920F931F93FC01F62EB8
:10536000D42EE52E05EC14E0C80160810E94F819E6
:10537000C8016F2D0E94841AC8016E2D0E94841AE4
:10538000C8016D2D0E94841AC8010E94C71A1F917E
:105390000F91FF90EF90DF900895CF92DF92EF9200
:1053A000FF920F931F938C01D62E85ECE82E84E09C
:1053B000F82EC701F80160810E94F819C7016D2D10
:1053C0000E94841AC7010E94C71AC701F8016081B0
:1053D0000E94F819C701F801608142E00E94DC1ABE
:1053E000C7010E94151A182F00E0C7010E94151A64
:1053F0006C01C7010E94C71A0C291D29C8011F9101
:105400000F91FF90EF90DF90CF90089560E00E94A1
:10541000CD29089561E00E94CD299C0135952795FD
:1054200035952795C90108952F923F924F925F922B
:105430006F927F928F929F92AF92BF92CF92DF92A4
:10544000EF92FF920F931F93DF93CF9300D000D082
:10545000CDB7DEB78C010E940A2AAA2797FDA09536
:10546000BA2FBC01CD010E94FF376B017C01C8013E
:105470000E94062AAA2797FDA095BA2FBC01CD014C
:105480000E94FF3720E030E44CE153E40E948B3867
:1054900020E030E04AE754E40E94643720E030E046
:1054A0004AE754E40E9464371B012C01C701B6018E
:1054B00020E030E040E05DE30E948B3823E333E9F5
:1054C00048E853E40E9400373B014C0123E333E1F9
:1054D00045E953E40E94FF367B018C0122E430E66B
:1054E00045EE5AE30E948B3820E030E040E85FE36D
:1054F0000E9400375B016C01C801B70127EC32EC58
:105500004CE857EB0E948B38A80197010E948B381A
:105510009B01AC01C601B5010E9400372DEC3CECAB
:105520004CEC50E40E948B3820E836E948E15BE41B
:105530000E94643769837A838B839C83C201B101A3
:1055400020E030E04AE754E40E9464371B012C015C
:10555000C801B7012AE132E049E155EB0E948B38DE
:1055600025E030EA46EF57E30E94FF365B016C010D
:10557000C801B70129EE35E14FE951E30E948B38AC
:10558000A80197010E948B389B01AC01C601B501AF
:105590000E9400379B01AC01C201B1010E94FF369D
:1055A0007B018C01C401B301A40193010E948B38DB
:1055B000A40193010E948B38A40193010E948B38AF
:1055C0005B016C01C801B70126E636E646E551E409
:1055D0000E948B38A80197010E948B389B01AC0177
:1055E000C801B7010E9400377B018C0169817A8173
:1055F0008B819C8120E836E948E15BE40E946437B6
:105600009B01AC01C801B7010E9464379B01AC014A
:10561000C601B5010E9400370E943E390E943E3902
:1056200023E333E948E853E40E94FF360F900F90DC
:105630000F900F90CF91DF911F910F91FF90EF90FE
:10564000DF90CF90BF90AF909F908F907F906F90A2
:105650005F904F903F902F900895EF92FF920F939D
:105660001F938C01E62E85EC94E00E94E01A4E2DEB
:1056700050E05167C80162E00E94A929C8016EEF9D
:105680000E94CD297C01C8016FEF0E94CD2929E439
:10569000E21624E5F20611F020E005C020E087368E
:1056A000910509F421E0822F1F910F91FF90EF9057
:1056B0000895FC0182E891E09183808363831482E2
:1056C00015821782168211861086228733874487B7
:1056D00055870895FC01658308956F927F928F929C
:1056E0009F92AF92BF92CF92DF92EF92FF920F9371
:1056F0001F93CF93DF93FC01EA0146815781411547
:10570000510531F04130510531F488E890E905C088
:1057100084E293E102C088EE9DEF8617970708F4B4
:10572000DEC08C179D0708F4DAC04115510551F011
:105730004130510571F417EEE12E1FE0F12E012DDD
:10574000112D0CC0B7E1EB2EB5E7FB2E012D112D6D
:1057500005C0E12CA4E0FA2E012D112D8085918544
:10576000892B39F4E4E0EE0CFF1C001F111FEA95B1
:10577000D1F79B0140E050E0C801B7010E94AA3A6E
:105780005B016C015AE0D694C794B794A7945A95DC
:10579000D1F79E0140E050E0C801B7010E94AA3A4B
:1057A0003B014C014AE096948794779467944A951C
:1057B000D1F7A114B104C104D10429F480E090E030
:1057C000A0E0B0E00FC0C401B3013AE0660F771F5C
:1057D000881F991F3A95D1F7A60195010E94C93AF1
:1057E000C901DA010196A11DB11DB695A79597953E
:1057F000879581349105A105B10528F462EF71E028
:10580000CEEBD1E049C081389105A105B10528F45E
:1058100064E172E0C1EDD2E03FC0813C9105A10599
:10582000B10528F46FE372E0CBE7D3E035C08130F7
:1058300021E0920720E0A20720E0B20728F460E709
:1058400072E0CEEFD3E028C0893321E0920720E058
:10585000A20720E0B20728F46FE671E0CCEFD1E0B8
:105860001BC08B3921E0920720E0A20720E0B2079D
:1058700028F462ED70E0CBEFD0E00EC08B5992407F
:10588000A040B04028F060E070E0C0E0D0E004C08C
:1058900068E170E0C2E1D0E080E090E0A60195010F
:1058A0000E94AA3A7B018C0180E090E2A0E0B0E087
:1058B000E80EF91E0A1F1B1FBE0180E090E0A40144
:1058C00093010E94AA3AE61AF70A080B190B8EE018
:1058D00016950795F794E7948A95D1F703C0EE24BF
:1058E000FF248701B701C801DF91CF911F910F916C
:1058F000FF90EF90DF90CF90BF90AF909F908F90F0
:105900007F906F900895EF92FF920F931F937C0109
:105910008B0188E2FB0111928A95E9F7CB016BE3D9
:1059200071E04BE050E00E947801F801138681E0BD
:1059300090E0A0E0B0E084879587A687B787F7015D
:1059400082859385A485B585F801808B918BA28B88
:10595000B38B85E090E0A0E0B0E0848B958BA68BC4
:10596000B78B14A215A216A217A280E090EDA4E8AE
:10597000B6E4808F918FA28FB38F80E090E0A0E09B
:10598000B0E0848F958FA68FB78F80E090E0A0E87D
:10599000BFE380A391A3A2A3B3A31F910F91FF9094
:1059A000EF900895BF92CF92DF92EF92FF920F9304
:1059B0001F93B62E79018A0125ECC22E24E0D22E47
:1059C000DC0113966C91772767FD7095C6010E94E4
:1059D000021AC6016B2D0E94841A8FEF90E0A0E09E
:1059E000B0E0E822F9220A231B23C6016E2D0E9493
:1059F000841AC6010E94C71A1F910F91FF90EF9061
:105A0000DF90CF90BF90089560E820E030E040E064
:105A100050E00E94D22C089560E823E030E040E09E
:105A200050E00E94D22C0895DF92EF92FF920F93E4
:105A30001F937C01D62E05EC14E0FC0163817727CF
:105A400067FD7095C8010E94021AC8016D2D0E9461
:105A5000841AC8010E94C71AF7016381772767FD7E
:105A60007095C80142E050E00E94D81AC8010E9417
:105A7000151A7C01C8010E94151A382F20E02E2922
:105A80003F29C9011F910F91FF90EF90DF9008957A
:105A9000EF92FF920F931F93CF93DF93EC018B0153
:105AA0007A010E940C2D8E819F81009719F0019739
:105AB00059F405C06EE070E080E090E009C066E651
:105AC00070E080E090E004C063E971E080E090E085
:105AD0000E946230CE016CEA0E94142DF80191837D
