:100000000C9403010C9430010C9430010C943001D9
:100010000C9430010C9430010C9430010C9430019C
:100020000C9430010C9430010C9430010C9430018C
:100030000C9430010C9430010C9430010C9430017C
:100040000C9430010C9430010C9430010C9430016C
:100050000C9430010C9430010C9430010C949B01F1
:100060000C9430010C9433040C94BA040C943001B9
:100070000C9430010C9430010C9430010C9430013C
:100080000C9430010C9430010C9430010C9430012C
:100090000C9430010C9430010C9430010C9430011C
:1000A0000C9430010C9430010C9430010C9430010C
:1000B0000C9430010C9430010C9430010C943001FC
:1000C0000C9430010C9430010C9430010C943001EC
:1000D0000C9430010C9430010C9430010C943001DC
:1000E0000C94300100002100240027002A002D007C
:1000F0003000330001010000040107010A01000083
:100100002200250028002B002E00310034000201BF
:100110000000050108010B0100002000230026005B
:1001200029002C002F00320000010000030106010D
:10013000090105050505070508080808020202026D
:100140000A0A080804040404010101010101010173
:100150000303030303030303040707070C0C0C0C3E
:100160000C0C0C0C02020202060606060606060627
:100170000B0B0B0B0B0B0B0B0102102020080810B4
:100180002040102040800201020108040201010207
:1001900004081020408080402010080402018004E0
:1001A000020180402010080402010804020101023B
:1001B0000408102040800102040810204080000044
:1001C000090A02080B0C0D070603040100000000D9
:1001D000000000000000000000000000000000001F
:1001E0000000000000000000000011100F000000DF
:1001F00000000000000000000000000000000000FF
:10020000000000006D0411241FBECFEFD1E2DEBF5D
:10021000CDBF00E00CBF12E0A0E0B2E0E2E0F3E10D
:1002200000E00BBF02C007900D92A232B107D9F7D0
:100230001BBE12E0A2E2B2E001C01D92A83CB107D1
:10024000E1F712E0C6E0D2E004C02297FE010E946E
:100250007B09C430D107C9F70E94E4040C947F09DC
:100260000C9400008F929F92AF92BF92CF92DF9238
:10027000EF92FF920F931F930E94E3015B016C01C9
:1002800086E30E9456027C019BE2892E92E0992E21
:10029000C401B601A5012AE030E00E94CC0580E04F
:1002A000C82E82E0D82EC401B6010E941F06C401E8
:1002B000B7014AE050E00E940C06C401B6010E945A
:1002C0001F060027F7FC0095102FC801B7010E94F8
:1002D0001D0820E030EC4FE754E40E9482072AEB2F
:1002E00039E44CE75FE30E94D108AB01BC01C401D3
:1002F00024E030E00E940607C4010E9497031F918A
:100300000F91FF90EF90DF90CF90BF90AF909F90B4
:100310008F9008958BE292E040E052EC61E070E053
:1003200026E00E94F90286E360E00E948A0282E0F1
:100330000E94530208951F920F920FB60F9211243C
:100340002F933F938F939F93AF93BF9380912602F8
:1003500090912702A0912802B091290230912A029F
:100360000196A11DB11D232F2D5F2D3720F02D5794
:100370000196A11DB11D20932A028093260290931D
:100380002702A0932802B093290280912202909123
:100390002302A0912402B09125020196A11DB11D56
:1003A0008093220290932302A0932402B09325020B
:1003B000BF91AF919F918F913F912F910F900FBE61
:1003C0000F901F9018958FB7F894209126023091C6
:1003D000270240912802509129028FBFB901CA011A
:1003E0000895789484B5826084BD84B5816084BDAD
:1003F00085B5826085BD85B5816085BDEEE6F0E09E
:10040000808181608083E1E8F0E0108280818260F9
:100410008083808181608083E0E8F0E0808181607A
:100420008083E1EBF0E0808184608083E0EBF0E0AA
:10043000808181608083E1E9F0E080818260808357
:10044000808181608083E0E9F0E080818160808349
:10045000E1EAF0E080818260808380818160808336
:10046000E0EAF0E0808181608083E1E2F1E0808178
:1004700082608083808181608083E0E2F1E080811E
:1004800081608083EAE7F0E08081846080838081FE
:1004900082608083808181608083808180688083A6
:1004A0001092C1000895809310020895382F86336A
:1004B00008F0365320917B00832F8695869586958C
:1004C00090E08170907043E0880F991F4A95E1F7A2
:1004D000277F282B20937B00377080911002829514
:1004E000880F880F807C832B80937C0080917A001A
:1004F000806480937A0080917A0086FDFCCF209101
:10050000780040917900942F80E030E0282B392B3F
:10051000C9010895CF93DF93482F50E0CA0188584E
:100520009E4FFC0134914E5C5E4FFA01849188230A
:1005300069F190E0880F991FFC01EC51FF4FA591E4
:10054000B491FC01E250FF4FC591D491662351F460
:100550002FB7F8948C91932F909589238C93888151
:1005600089230BC0623061F42FB7F8948C91932FDC
:10057000909589238C938881832B88832FBF06C015
:100580009FB7F8948C91832B8C939FBFDF91CF9171
:100590000895DC015C968C915C97FD01E80FF11DDC
:1005A000E35AFF4F20815C968C915C9790E0019616
:1005B0008F7390705C968C935C975696ED91FC913E
:1005C000579720835096ED91FC91519780818064DC
:1005D00080835B969C915B975C968C915C97981757
:1005E00039F45296ED91FC91539780818F7D8083F1
:1005F0000895DF92EF92FF920F931F93CF93DF93B3
:10060000EC017A018B01D22EE889F98982E080839E
:10061000403081EE580780E0680780E07807A1F05D
:1006200060E079E08DE390E0A80197010E9457090E
:10063000215030404040504056954795379527957A
:1006400080E12030380798F0E889F989108260E865
:1006500074E88EE190E0A80197010E9457092150AB
:100660003040404050405695479537952795EC854A
:10067000FD853083EE85FF852083188EEC89FD890A
:10068000D082EA89FB89808180618083EA89FB8945
:10069000808188608083EA89FB898081806880838B
:1006A000EA89FB8980818F7D8083DF91CF911F91C3
:1006B0000F91FF90EF90DF900895FC01218D828DC6
:1006C00030E0205C3F4F281B31092F733070C90187
:1006D0000895FC01918D828D981719F42FEF3FEF4B
:1006E00006C0828DE80FF11D858D282F30E0C901ED
:1006F0000895DC0159969C9159975A968C915A9776
:10070000981719F42FEF3FEF10C05A968C915A9713
:10071000FD01E80FF11D958D5A968C915A978F5FC8
:100720008F735A968C93292F30E0C9010895CF9387
:10073000DF93EC01888D882361F419C08C9185FFCB
:100740000AC0E889F989808185FF05C0CE010E9431
:10075000C902AA89BB898C9185FD05C0E889F98900
:10076000808186FD04C00FB607FEE8CFF4CFDF918D
:10077000CF9108950F931F93CF93DF93EC01062F32
:100780009B8D8C8D981791F5E889F989808185FF7B
:100790002DC0EE89FF896083E889F98980818064B2
:1007A00080831DC00FB607FC08C0E889F9898081E5
:1007B00085FF03C0CE010E94C9028C8D181791F3EA
:1007C0008B8DFE01E80FF11DE35AFF4F00831B8F55
:1007D000EA89FB8980818062808381E0888F81E063
:1007E00090E0DF91CF911F910F9108951B8D1F5FB6
:1007F0001F73E3CF80EB94E0892B51F080E090E011
:10080000892B31F00E94B004882311F00E9400006F
:1008100080E090E0892B51F080E090E0892B31F06E
:100820000E940000882311F00E94000080E090E008
:10083000892B51F080E090E0892B31F00E9400007C
:10084000882311F00E94000080E090E0892B51F095
:1008500080E090E0892B31F00E940000882311F0A5
:100860000E94000008951F920F920FB60F920BB6D0
:100870000F9211242F938F939F93EF93FF93E09107
:100880003B02F0913C02808182FD16C0E091410262
:10089000F09142022081909144029F5F9F7380916A
:1008A0004502981771F0E0914402F0E0E55DFD4FDC
:1008B000258F9093440205C0E0914102F0914202DD
:1008C000E081FF91EF919F918F912F910F900BBE3F
:1008D0000F900FBE0F901F90189510922E0210923D
:1008E0002D0288EE93E0A0E0B0E080932F02909379
:1008F0003002A0933102B093320285E192E09093EE
:100900002C0280932B0285EC90E090933802809328
:10091000370284EC90E090933A028093390280ECA5
:1009200090E090933C0280933B0281EC90E09093A6
:100930003E0280933D0282EC90E0909340028093CF
:100940003F0286EC90E09093420280934102109225
:1009500044021092450210924602109247020895F6
:100960008BE292E00E945D0320E0892B09F021E0F8
:10097000822F08951F920F920FB60F920BB60F920F
:1009800011242F933F934F935F936F937F938F9394
:100990009F93AF93BF93EF93FF938BE292E00E94FC
:1009A000C902FF91EF91BF91AF919F918F917F917C
:1009B0006F915F914F913F912F910F900BBE0F90D0
:1009C0000FBE0F901F901895CF93DF930E94F101F7
:1009D0000E948A01CAEFD3E00E9432012097E1F31E
:1009E0000E94FA03F9CFCF92DF92EF92FF920F931A
:1009F0001F93CF93DF937C016B018A01C0E0D0E0AD
:100A00000FC0D6016D916D01D701ED91FC91019060
:100A1000F081E02DC7011995C80FD91F0150104072
:100A20000115110571F7CE01DF91CF911F910F9143
:100A3000FF90EF90DF90CF900895EF92FF920F9389
:100A40001F938C01DC01ED91FC910190F081E02D70
:100A50006DE019957C01D801ED91FC910190F08138
:100A6000E02DC8016AE019959C012E0D3F1DC901BA
:100A70001F910F91FF90EF900895CF93DF93EC01BA
:100A80006115710519F420E030E00FC0DB010D9015
:100A90000020E9F71197A61BB70BE881F9810280C6
:100AA000F381E02DAD0119959C01C901DF91CF9132
:100AB00008954F925F927F928F929F92AF92BF92D2
:100AC000CF92DF92EF92FF920F931F93DF93CF931A
:100AD000CDB7DEB7A1970FB6F894DEBF0FBECDBF7E
:100AE0002C01742ECB01223008F42AE019A231E245
:100AF000C32ED12CCC0EDD1E822E9924AA24BB2419
:100B0000672D752FA50194010E94570979018A016B
:100B1000C801B701A50194010E943809472D461B61
:100B20000894C108D1084A3014F4405D01C0495C02
:100B3000F6014083E114F1040105110521F07E2C3A
:100B40005F2DC801DDCFC201B6010E943D05A1960F
:100B50000FB6F894DEBF0FBECDBFCF91DF911F91CE
:100B60000F91FF90EF90DF90CF90BF90AF909F904C
:100B70008F907F905F904F900895DC012115310593
:100B800041F4ED91FC910190F081E02D642F1995D5
:100B900008950E9459050895CF92DF92EF92FF9237
:100BA0000F931F93CF93DF93EC016A017B01211513
:100BB000310541F4E881F9810190F081E02D642F45
:100BC00019951FC02A303105D1F477FF17C0E8818D
:100BD000F9810190F081E02D6DE219958C01442797
:100BE0005527BA014C195D096E097F09CE012AE02B
:100BF0000E9459059801280F391F04C02AE00E945D
:100C000059059C01C901DF91CF911F910F91FF9070
:100C1000EF90DF90CF900895EF92FF920F931F9384
:100C20007B019A010027F7FC0095102FB801A7015E
:100C30000E94CC051F910F91FF90EF9008950E94A4
:100C40003D0508957F928F929F92AF92BF92CF926F
:100C5000DF92EF92FF920F931F93CF93DF934C019C
:100C60007A018B01722ECB01BA01A80197010E9473
:100C70003409882321F0C40162E072E021C0C0E0A1
:100C8000D0E057016801E894D7F8C601B5012FEF0D
:100C90003FEF4FE75FE70E943409882351F4C60114
:100CA000B5012FEF3FEF4FE75FE70E947E07181671
:100CB00014F0C1E0D0E0219739F0C40166E072E0A1
:100CC0000E943D05EC0193C0C801B7012FEF3FEF33
:100CD0004FE75FE40E94CD08181654F0C801B70131
:100CE0002FEF3FEF4FE75FEC0E947E07882324F44D
:100CF000C4016AE072E0E4CFC801B70120E030E04F
:100D000040E050E00E947E0787FD03C0C0E0D0E0D5
:100D10000EC0D401ED91FC910190F081E02DC40151
:100D20006DE21995EC0117FB109517F9109520E06D
:100D300030E040E05FE3DD240BC0CA01B90120E0F0
:100D400030E040E251E40E9482079B01AC01D39461
:100D5000D71498F3C801B7010E941A075B016C0110
:100D60000E94EF077B018C01C401B801A7012AE0B2
:100D700030E00E94BD05C80FD91F772039F0C401AB
:100D80006EE072E00E943D05C80FD91FC801B7018F
:100D90000E941B089B01AC01C601B5010E94190706
:100DA00024C020E030E040E251E40E94D1087B0101
:100DB0008C010E94EA075B016C01CC24B7FCC09453
:100DC000DC2CC401B601A5012AE030E00E94CC056C
:100DD000C80FD91FC601B5010E941D089B01AC01B7
:100DE000C801B7010E9419077A947720D1F6CE0185
:100DF000DF91CF911F910F91FF90EF90DF90CF90F7
:100E0000BF90AF909F908F907F900895EF92FF9248
:100E10000F931F937C010E9422068C01C7010E9440
:100E20001D05080F191FC8011F910F91FF90EF902A
:100E300008955058BB27AA270ED075C166D130F04F
:100E40006BD120F031F49F3F11F41EF45BC10EF41E
:100E5000E095E7FB51C1E92F77D180F3BA1762071C
:100E600073078407950718F071F49EF58FC10EF48F
:100E7000E0950B2EBA2FA02D0B01B90190010C01AA
:100E8000CA01A0011124FF27591B99F0593F50F4C2
:100E9000503E68F11A16F040A22F232F342F44271A
:100EA000585FF3CF469537952795A795F040539512
:100EB000C9F77EF41F16BA0B620B730B840BBAF0E2
:100EC0009150A1F0FF0FBB1F661F771F881FC2F74D
:100ED0000EC0BA0F621F731F841F48F48795779561
:100EE0006795B795F7959E3F08F0B3CF9395880F18
:100EF00008F09927EE0F979587950895D9D008F4B3
:100F000081E008950CD00FC107D140F0FED030F041
:100F100021F45F3F19F0F0C0511139C1F3C014D171
:100F200098F39923C9F35523B1F3951B550BBB27B0
:100F3000AA2762177307840738F09F5F5F4F220F5D
:100F4000331F441FAA1FA9F333D00E2E3AF0E0E856
:100F500030D091505040E695001CCAF729D0FE2FA2
:100F600027D0660F771F881FBB1F26173707480734
:100F7000AB07B0E809F0BB0B802DBF01FF279358EA
:100F80005F4F2AF09E3F510568F0B6C000C15F3F39
:100F9000ECF3983EDCF3869577956795B795F795D2
:100FA0009F5FC9F7880F911D9695879597F90895CA
:100FB000E1E0660F771F881FBB1F62177307840766
:100FC000BA0720F0621B730B840BBA0BEE1F88F775
:100FD000E095089504D06894B111D9C00895BCD0AB
:100FE00088F09F5790F0B92F9927B751A0F0D1F012
:100FF000660F771F881F991F1AF0BA95C9F712C09C
:10100000B13081F0C3D0B1E00895C0C0672F782F10
:101010008827B85F39F0B93FCCF386957795679507
:10102000B395D9F73EF490958095709561957F4F73
:101030008F4F9F4F0895E89409C097FB3EF4909519
:101040008095709561957F4F8F4F9F4F9923A9F0A1
:10105000F92F96E9BB279395F69587957795679530
:10106000B795F111F8CFFAF4BB0F11F460FF1BC074
:101070006F5F7F4F8F4F9F4F16C0882311F096E907
:1010800011C0772321F09EE8872F762F05C06623B5
:1010900071F096E8862F70E060E02AF09A95660F6E
:1010A000771F881FDAF7880F9695879597F9089527
:1010B000990F0008550FAA0BE0E8FEEF1616170669
:1010C000E807F907C0F012161306E407F50798F0D1
:1010D000621B730B840B950B39F40A2661F0232BEA
:1010E000242B252B21F408950A2609F4A140A69566
:1010F0008FEF811D811D089597F99F6780E870E04B
:1011000060E008959FEF80EC089500240A9416167D
:10111000170618060906089500240A9412161306E5
:10112000140605060895092E0394000C11F4882373
:1011300052F0BB0F40F4BF2B11F460FF04C06F5F8F
:101140007F4F8F4F9F4F089557FD9058440F551F65
:1011500059F05F3F71F04795880F97FB991F61F039
:101160009F3F79F087950895121613061406551FB0
:10117000F2CF4695F1DF08C0161617061806991F1C
:10118000F1CF86957105610508940895E894BB2711
:1011900066277727CB0197F908958ADF08F48FEF48
:1011A00008950BD0C0CFB1DF28F0B6DF18F095233B
:1011B00009F0A2CFA7CF1124EACFC6DFA0F3959FF5
:1011C000D1F3950F50E0551F629FF001729FBB272E
:1011D000F00DB11D639FAA27F00DB11DAA1F649FDA
:1011E0006627B00DA11D661F829F2227B00DA11D8D
:1011F000621F739FB00DA11D621F839FA00D611D13
:10120000221F749F3327A00D611D231F849F600D33
:10121000211D822F762F6A2F11249F5750408AF06C
:10122000E1F088234AF0EE0FFF1FBB1F661F771FF8
:10123000881F91505040A9F79E3F510570F05CCF38
:10124000A6CF5F3FECF3983EDCF3869577956795E4
:10125000B795F795E7959F5FC1F7FE2B880F911D16
:101260009695879597F9089523DF880B990B089534
:10127000629FD001739FF001829FE00DF11D649F7A
:10128000E00DF11D929FF00D839FF00D749FF00D06
:10129000659FF00D9927729FB00DE11DF91F639FA7
:1012A000B00DE11DF91FBD01CF0111240895A1E288
:1012B0001A2EAA1BBB1BFD010DC0AA1FBB1FEE1FD0
:1012C000FF1FA217B307E407F50720F0A21BB30B1B
:1012D000E40BF50B661F771F881F991F1A9469F797
:1012E00060957095809590959B01AC01BD01CF01F3
:1012F0000895EE0FFF1F0590F491E02D1994F894D6
:02130000FFCF1D
:101302002C006E616E00696E66006F7666002E00BC
:101312000100000000BA03F3045D03790369039737
:021322000300C6
:00000001FF
